{"contracts/SplitterFactory.sol":{"SplitterFactory":{"abi":[{"inputs":[{"internalType":"address","name":"_implementation","type":"address"},{"internalType":"address","name":"_developer","type":"address"}],"stateMutability":"nonpayable","type":"constructor"},{"inputs":[],"name":"FailedDeployment","type":"error"},{"inputs":[{"internalType":"uint256","name":"balance","type":"uint256"},{"internalType":"uint256","name":"needed","type":"uint256"}],"name":"InsufficientBalance","type":"error"},{"anonymous":false,"inputs":[{"indexed":true,"internalType":"address","name":"merchant","type":"address"},{"indexed":false,"internalType":"address","name":"cloneAddress","type":"address"}],"name":"MerchantOnboarded","type":"event"},{"inputs":[{"internalType":"address","name":"_merchant","type":"address"},{"internalType":"uint256","name":"_feeBps","type":"uint256"}],"name":"createMerchantClone","outputs":[{"internalType":"address","name":"","type":"address"}],"stateMutability":"nonpayable","type":"function"},{"inputs":[],"name":"developerAddress","outputs":[{"internalType":"address","name":"","type":"address"}],"stateMutability":"view","type":"function"},{"inputs":[],"name":"implementationContract","outputs":[{"internalType":"address","name":"","type":"address"}],"stateMutability":"view","type":"function"}],"evm":{"bytecode":{"linkReferences":{},"object":"60a03461009457601f6102ed38819003918201601f19168301916001600160401b0383118484101761009857808492604094855283398101031261009457610052602061004b836100ac565b92016100ac565b6080919091525f80546001600160a01b0319166001600160a01b0390921691909117905560405161022c90816100c1823960805181818160a301526101c70152f35b5f80fd5b634e487b7160e01b5f52604160045260245ffd5b51906001600160a01b03821682036100945756fe60806040908082526004361015610014575f80fd5b5f3560e01c90816399e7d056146101b557508063a7193c6a146100695763caccd7f71461003f575f80fd5b34610065575f366003190112610065575f5490516001600160a01b039091168152602090f35b5f80fd5b50346100655780600319360112610065576001600160a01b036004358181169290839003610065576e5af43d82803e903d91602b57fd5bf37f0000000000000000000000000000000000000000000000000000000000000000763d602d80600a3d3981f3363d3d373d3d3d363d7300000062ffffff8260881c16175f5260781b1760205281603760095ff0169182156101a4575f541692823b15610065578151936305e52ecf60e21b8552600485015280602485015260243560448501525f8460648183875af1801561019a5761016d575b602093507f9d64c9d04753c10cca5107af714842f32354900f80eb8865cc1bde0ee22f9e8e848351858152a251908152f35b67ffffffffffffffff841161018657602093825261013b565b634e487b7160e01b5f52604160045260245ffd5b82513d5f823e3d90fd5b815163b06ebf3d60e01b8152600490fd5b34610065575f366003190112610065577f00000000000000000000000000000000000000000000000000000000000000006001600160a01b03168152602090f3fea2646970667358221220492cdc6312e778f0150cb5da00818b6ee2f3cb012219c245ff12d622e6a18d1e64736f6c63430008180033","opcodes":"PUSH1 0xA0 CALLVALUE PUSH2 0x94 JUMPI PUSH1 0x1F PUSH2 0x2ED CODESIZE DUP2 SWAP1 SUB SWAP2 DUP3 ADD PUSH1 0x1F NOT AND DUP4 ADD SWAP2 PUSH1 0x1 PUSH1 0x1 PUSH1 0x40 SHL SUB DUP4 GT DUP5 DUP5 LT OR PUSH2 0x98 JUMPI DUP1 DUP5 SWAP3 PUSH1 0x40 SWAP5 DUP6 MSTORE DUP4 CODECOPY DUP2 ADD SUB SLT PUSH2 0x94 JUMPI PUSH2 0x52 PUSH1 0x20 PUSH2 0x4B DUP4 PUSH2 0xAC JUMP JUMPDEST SWAP3 ADD PUSH2 0xAC JUMP JUMPDEST PUSH1 0x80 SWAP2 SWAP1 SWAP2 MSTORE PUSH0 DUP1 SLOAD PUSH1 0x1 PUSH1 0x1 PUSH1 0xA0 SHL SUB NOT AND PUSH1 0x1 PUSH1 0x1 PUSH1 0xA0 SHL SUB SWAP1 SWAP3 AND SWAP2 SWAP1 SWAP2 OR SWAP1 SSTORE PUSH1 0x40 MLOAD PUSH2 0x22C SWAP1 DUP2 PUSH2 0xC1 DUP3 CODECOPY PUSH1 0x80 MLOAD DUP2 DUP2 DUP2 PUSH1 0xA3 ADD MSTORE PUSH2 0x1C7 ADD MSTORE RETURN JUMPDEST PUSH0 DUP1 REVERT JUMPDEST PUSH4 0x4E487B71 PUSH1 0xE0 SHL PUSH0 MSTORE PUSH1 0x41 PUSH1 0x4 MSTORE PUSH1 0x24 PUSH0 REVERT JUMPDEST MLOAD SWAP1 PUSH1 0x1 PUSH1 0x1 PUSH1 0xA0 SHL SUB DUP3 AND DUP3 SUB PUSH2 0x94 JUMPI JUMP INVALID PUSH1 0x80 PUSH1 0x40 SWAP1 DUP1 DUP3 MSTORE PUSH1 0x4 CALLDATASIZE LT ISZERO PUSH2 0x14 JUMPI PUSH0 DUP1 REVERT JUMPDEST PUSH0 CALLDATALOAD PUSH1 0xE0 SHR SWAP1 DUP2 PUSH4 0x99E7D056 EQ PUSH2 0x1B5 JUMPI POP DUP1 PUSH4 0xA7193C6A EQ PUSH2 0x69 JUMPI PUSH4 0xCACCD7F7 EQ PUSH2 0x3F JUMPI PUSH0 DUP1 REVERT JUMPDEST CALLVALUE PUSH2 0x65 JUMPI PUSH0 CALLDATASIZE PUSH1 0x3 NOT ADD SLT PUSH2 0x65 JUMPI PUSH0 SLOAD SWAP1 MLOAD PUSH1 0x1 PUSH1 0x1 PUSH1 0xA0 SHL SUB SWAP1 SWAP2 AND DUP2 MSTORE PUSH1 0x20 SWAP1 RETURN JUMPDEST PUSH0 DUP1 REVERT JUMPDEST POP CALLVALUE PUSH2 0x65 JUMPI DUP1 PUSH1 0x3 NOT CALLDATASIZE ADD SLT PUSH2 0x65 JUMPI PUSH1 0x1 PUSH1 0x1 PUSH1 0xA0 SHL SUB PUSH1 0x4 CALLDATALOAD DUP2 DUP2 AND SWAP3 SWAP1 DUP4 SWAP1 SUB PUSH2 0x65 JUMPI PUSH15 0x5AF43D82803E903D91602B57FD5BF3 PUSH32 0x0 PUSH23 0x3D602D80600A3D3981F3363D3D373D3D3D363D73000000 PUSH3 0xFFFFFF DUP3 PUSH1 0x88 SHR AND OR PUSH0 MSTORE PUSH1 0x78 SHL OR PUSH1 0x20 MSTORE DUP2 PUSH1 0x37 PUSH1 0x9 PUSH0 CREATE AND SWAP2 DUP3 ISZERO PUSH2 0x1A4 JUMPI PUSH0 SLOAD AND SWAP3 DUP3 EXTCODESIZE ISZERO PUSH2 0x65 JUMPI DUP2 MLOAD SWAP4 PUSH4 0x5E52ECF PUSH1 0xE2 SHL DUP6 MSTORE PUSH1 0x4 DUP6 ADD MSTORE DUP1 PUSH1 0x24 DUP6 ADD MSTORE PUSH1 0x24 CALLDATALOAD PUSH1 0x44 DUP6 ADD MSTORE PUSH0 DUP5 PUSH1 0x64 DUP2 DUP4 DUP8 GAS CALL DUP1 ISZERO PUSH2 0x19A JUMPI PUSH2 0x16D JUMPI JUMPDEST PUSH1 0x20 SWAP4 POP PUSH32 0x9D64C9D04753C10CCA5107AF714842F32354900F80EB8865CC1BDE0EE22F9E8E DUP5 DUP4 MLOAD DUP6 DUP2 MSTORE LOG2 MLOAD SWAP1 DUP2 MSTORE RETURN JUMPDEST PUSH8 0xFFFFFFFFFFFFFFFF DUP5 GT PUSH2 0x186 JUMPI PUSH1 0x20 SWAP4 DUP3 MSTORE PUSH2 0x13B JUMP JUMPDEST PUSH4 0x4E487B71 PUSH1 0xE0 SHL PUSH0 MSTORE PUSH1 0x41 PUSH1 0x4 MSTORE PUSH1 0x24 PUSH0 REVERT JUMPDEST DUP3 MLOAD RETURNDATASIZE PUSH0 DUP3 RETURNDATACOPY RETURNDATASIZE SWAP1 REVERT JUMPDEST DUP2 MLOAD PUSH4 0xB06EBF3D PUSH1 0xE0 SHL DUP2 MSTORE PUSH1 0x4 SWAP1 REVERT JUMPDEST CALLVALUE PUSH2 0x65 JUMPI PUSH0 CALLDATASIZE PUSH1 0x3 NOT ADD SLT PUSH2 0x65 JUMPI PUSH32 0x0 PUSH1 0x1 PUSH1 0x1 PUSH1 0xA0 SHL SUB AND DUP2 MSTORE PUSH1 0x20 SWAP1 RETURN INVALID LOG2 PUSH5 0x6970667358 0x22 SLT KECCAK256 BLOBHASH 0x2C 0xDC PUSH4 0x12E778F0 ISZERO 0xC 0xB5 0xDA STOP DUP2 DUP12 PUSH15 0xE2F3CB012219C245FF12D622E6A18D 0x1E PUSH5 0x736F6C6343 STOP ADDMOD XOR STOP CALLER "},"methodIdentifiers":{"createMerchantClone(address,uint256)":"a7193c6a","developerAddress()":"caccd7f7","implementationContract()":"99e7d056"}}}}}