{"contracts/PaymentSplitter.sol":{"PaymentSplitter":{"abi":[{"inputs":[],"name":"InvalidInitialization","type":"error"},{"inputs":[],"name":"NotInitializing","type":"error"},{"anonymous":false,"inputs":[{"indexed":false,"internalType":"uint64","name":"version","type":"uint64"}],"name":"Initialized","type":"event"},{"inputs":[],"name":"developerAddress","outputs":[{"internalType":"address","name":"","type":"address"}],"stateMutability":"view","type":"function"},{"inputs":[],"name":"feeBps","outputs":[{"internalType":"uint256","name":"","type":"uint256"}],"stateMutability":"view","type":"function"},{"inputs":[{"internalType":"address","name":"_developer","type":"address"},{"internalType":"address","name":"_merchant","type":"address"},{"internalType":"uint256","name":"_feeBps","type":"uint256"}],"name":"initialize","outputs":[],"stateMutability":"nonpayable","type":"function"},{"inputs":[],"name":"merchantAddress","outputs":[{"internalType":"address","name":"","type":"address"}],"stateMutability":"view","type":"function"},{"inputs":[{"internalType":"address","name":"token","type":"address"},{"internalType":"uint256","name":"amount","type":"uint256"}],"name":"processPayment","outputs":[],"stateMutability":"nonpayable","type":"function"}],"evm":{"bytecode":{"linkReferences":{},"object":"6080806040523461001657610414908161001b8239f35b5f80fdfe6080604090808252600480361015610015575f80fd5b5f3560e01c9182630b63fe951461021d575081631794bb3c146100c75750806324a9d853146100a95780639df8ed43146100815763caccd7f714610057575f80fd5b3461007d575f36600319011261007d575f5490516001600160a01b039091168152602090f35b5f80fd5b503461007d575f36600319011261007d5760015490516001600160a01b039091168152602090f35b503461007d575f36600319011261007d576020906002549051908152f35b90503461007d57606036600319011261007d576100e261037a565b6001600160a01b039190602435838116919082900361007d577ff0c57e16840df040f15088dc2f81fe391c3923bec73e23a9662efc9c229c6a0093845460ff81881c16159467ffffffffffffffff821680159081610215575b600114908161020b575b159081610202575b506101f4575067ffffffffffffffff1981166001178655846101d5575b506bffffffffffffffffffffffff60a01b9116815f5416175f55600154161760015560443560025561019857005b805468ff00000000000000001916905551600181527fc7f505b2f371ae2175ee4913f4499e1f2633a7b5936321eed1cdaeb6115181d290602090a1005b68ffffffffffffffffff1916680100000000000000011785555f61016a565b875163f92ee8a960e01b8152fd5b9050155f61014d565b303b159150610145565b87915061013b565b833461007d578060031936011261007d5761023661037a565b916024359260025480850290858204148515171561036757612710900494858503948511610354575f546323b872dd60e01b808552338386019081526001600160a01b0392831660208281019190915260408201999099529094938216939088908290819060600103815f885af1801561034a57915f91899695949361032d575b50600154875195865233938601938452166001600160a01b03166020830152604082019690965291948592839190829060600103925af190811561032457506102fc57005b8161031b92903d1061031d575b6103138183610390565b8101906103c6565b005b503d610309565b513d5f823e3d90fd5b61034390873d891161031d576103138183610390565b50896102b7565b86513d5f823e3d90fd5b601190634e487b7160e01b5f525260245ffd5b601186634e487b7160e01b5f525260245ffd5b600435906001600160a01b038216820361007d57565b90601f8019910116810190811067ffffffffffffffff8211176103b257604052565b634e487b7160e01b5f52604160045260245ffd5b9081602091031261007d5751801515810361007d579056fea2646970667358221220c7a63bacff50bc7aaa88c332262e593d6fa80dc0685674544f4b09cb8796dcee64736f6c63430008180033","opcodes":"PUSH1 0x80 DUP1 PUSH1 0x40 MSTORE CALLVALUE PUSH2 0x16 JUMPI PUSH2 0x414 SWAP1 DUP2 PUSH2 0x1B DUP3 CODECOPY RETURN JUMPDEST PUSH0 DUP1 REVERT INVALID PUSH1 0x80 PUSH1 0x40 SWAP1 DUP1 DUP3 MSTORE PUSH1 0x4 DUP1 CALLDATASIZE LT ISZERO PUSH2 0x15 JUMPI PUSH0 DUP1 REVERT JUMPDEST PUSH0 CALLDATALOAD PUSH1 0xE0 SHR SWAP2 DUP3 PUSH4 0xB63FE95 EQ PUSH2 0x21D JUMPI POP DUP2 PUSH4 0x1794BB3C EQ PUSH2 0xC7 JUMPI POP DUP1 PUSH4 0x24A9D853 EQ PUSH2 0xA9 JUMPI DUP1 PUSH4 0x9DF8ED43 EQ PUSH2 0x81 JUMPI PUSH4 0xCACCD7F7 EQ PUSH2 0x57 JUMPI PUSH0 DUP1 REVERT JUMPDEST CALLVALUE PUSH2 0x7D JUMPI PUSH0 CALLDATASIZE PUSH1 0x3 NOT ADD SLT PUSH2 0x7D JUMPI PUSH0 SLOAD SWAP1 MLOAD PUSH1 0x1 PUSH1 0x1 PUSH1 0xA0 SHL SUB SWAP1 SWAP2 AND DUP2 MSTORE PUSH1 0x20 SWAP1 RETURN JUMPDEST PUSH0 DUP1 REVERT JUMPDEST POP CALLVALUE PUSH2 0x7D JUMPI PUSH0 CALLDATASIZE PUSH1 0x3 NOT ADD SLT PUSH2 0x7D JUMPI PUSH1 0x1 SLOAD SWAP1 MLOAD PUSH1 0x1 PUSH1 0x1 PUSH1 0xA0 SHL SUB SWAP1 SWAP2 AND DUP2 MSTORE PUSH1 0x20 SWAP1 RETURN JUMPDEST POP CALLVALUE PUSH2 0x7D JUMPI PUSH0 CALLDATASIZE PUSH1 0x3 NOT ADD SLT PUSH2 0x7D JUMPI PUSH1 0x20 SWAP1 PUSH1 0x2 SLOAD SWAP1 MLOAD SWAP1 DUP2 MSTORE RETURN JUMPDEST SWAP1 POP CALLVALUE PUSH2 0x7D JUMPI PUSH1 0x60 CALLDATASIZE PUSH1 0x3 NOT ADD SLT PUSH2 0x7D JUMPI PUSH2 0xE2 PUSH2 0x37A JUMP JUMPDEST PUSH1 0x1 PUSH1 0x1 PUSH1 0xA0 SHL SUB SWAP2 SWAP1 PUSH1 0x24 CALLDATALOAD DUP4 DUP2 AND SWAP2 SWAP1 DUP3 SWAP1 SUB PUSH2 0x7D JUMPI PUSH32 0xF0C57E16840DF040F15088DC2F81FE391C3923BEC73E23A9662EFC9C229C6A00 SWAP4 DUP5 SLOAD PUSH1 0xFF DUP2 DUP9 SHR AND ISZERO SWAP5 PUSH8 0xFFFFFFFFFFFFFFFF DUP3 AND DUP1 ISZERO SWAP1 DUP2 PUSH2 0x215 JUMPI JUMPDEST PUSH1 0x1 EQ SWAP1 DUP2 PUSH2 0x20B JUMPI JUMPDEST ISZERO SWAP1 DUP2 PUSH2 0x202 JUMPI JUMPDEST POP PUSH2 0x1F4 JUMPI POP PUSH8 0xFFFFFFFFFFFFFFFF NOT DUP2 AND PUSH1 0x1 OR DUP7 SSTORE DUP5 PUSH2 0x1D5 JUMPI JUMPDEST POP PUSH12 0xFFFFFFFFFFFFFFFFFFFFFFFF PUSH1 0xA0 SHL SWAP2 AND DUP2 PUSH0 SLOAD AND OR PUSH0 SSTORE PUSH1 0x1 SLOAD AND OR PUSH1 0x1 SSTORE PUSH1 0x44 CALLDATALOAD PUSH1 0x2 SSTORE PUSH2 0x198 JUMPI STOP JUMPDEST DUP1 SLOAD PUSH9 0xFF0000000000000000 NOT AND SWAP1 SSTORE MLOAD PUSH1 0x1 DUP2 MSTORE PUSH32 0xC7F505B2F371AE2175EE4913F4499E1F2633A7B5936321EED1CDAEB6115181D2 SWAP1 PUSH1 0x20 SWAP1 LOG1 STOP JUMPDEST PUSH9 0xFFFFFFFFFFFFFFFFFF NOT AND PUSH9 0x10000000000000001 OR DUP6 SSTORE PUSH0 PUSH2 0x16A JUMP JUMPDEST DUP8 MLOAD PUSH4 0xF92EE8A9 PUSH1 0xE0 SHL DUP2 MSTORE REVERT JUMPDEST SWAP1 POP ISZERO PUSH0 PUSH2 0x14D JUMP JUMPDEST ADDRESS EXTCODESIZE ISZERO SWAP2 POP PUSH2 0x145 JUMP JUMPDEST DUP8 SWAP2 POP PUSH2 0x13B JUMP JUMPDEST DUP4 CALLVALUE PUSH2 0x7D JUMPI DUP1 PUSH1 0x3 NOT CALLDATASIZE ADD SLT PUSH2 0x7D JUMPI PUSH2 0x236 PUSH2 0x37A JUMP JUMPDEST SWAP2 PUSH1 0x24 CALLDATALOAD SWAP3 PUSH1 0x2 SLOAD DUP1 DUP6 MUL SWAP1 DUP6 DUP3 DIV EQ DUP6 ISZERO OR ISZERO PUSH2 0x367 JUMPI PUSH2 0x2710 SWAP1 DIV SWAP5 DUP6 DUP6 SUB SWAP5 DUP6 GT PUSH2 0x354 JUMPI PUSH0 SLOAD PUSH4 0x23B872DD PUSH1 0xE0 SHL DUP1 DUP6 MSTORE CALLER DUP4 DUP7 ADD SWAP1 DUP2 MSTORE PUSH1 0x1 PUSH1 0x1 PUSH1 0xA0 SHL SUB SWAP3 DUP4 AND PUSH1 0x20 DUP3 DUP2 ADD SWAP2 SWAP1 SWAP2 MSTORE PUSH1 0x40 DUP3 ADD SWAP10 SWAP1 SWAP10 MSTORE SWAP1 SWAP5 SWAP4 DUP3 AND SWAP4 SWAP1 DUP9 SWAP1 DUP3 SWAP1 DUP2 SWAP1 PUSH1 0x60 ADD SUB DUP2 PUSH0 DUP9 GAS CALL DUP1 ISZERO PUSH2 0x34A JUMPI SWAP2 PUSH0 SWAP2 DUP10 SWAP7 SWAP6 SWAP5 SWAP4 PUSH2 0x32D JUMPI JUMPDEST POP PUSH1 0x1 SLOAD DUP8 MLOAD SWAP6 DUP7 MSTORE CALLER SWAP4 DUP7 ADD SWAP4 DUP5 MSTORE AND PUSH1 0x1 PUSH1 0x1 PUSH1 0xA0 SHL SUB AND PUSH1 0x20 DUP4 ADD MSTORE PUSH1 0x40 DUP3 ADD SWAP7 SWAP1 SWAP7 MSTORE SWAP2 SWAP5 DUP6 SWAP3 DUP4 SWAP2 SWAP1 DUP3 SWAP1 PUSH1 0x60 ADD SUB SWAP3 GAS CALL SWAP1 DUP2 ISZERO PUSH2 0x324 JUMPI POP PUSH2 0x2FC JUMPI STOP JUMPDEST DUP2 PUSH2 0x31B SWAP3 SWAP1 RETURNDATASIZE LT PUSH2 0x31D JUMPI JUMPDEST PUSH2 0x313 DUP2 DUP4 PUSH2 0x390 JUMP JUMPDEST DUP2 ADD SWAP1 PUSH2 0x3C6 JUMP JUMPDEST STOP JUMPDEST POP RETURNDATASIZE PUSH2 0x309 JUMP JUMPDEST MLOAD RETURNDATASIZE PUSH0 DUP3 RETURNDATACOPY RETURNDATASIZE SWAP1 REVERT JUMPDEST PUSH2 0x343 SWAP1 DUP8 RETURNDATASIZE DUP10 GT PUSH2 0x31D JUMPI PUSH2 0x313 DUP2 DUP4 PUSH2 0x390 JUMP JUMPDEST POP DUP10 PUSH2 0x2B7 JUMP JUMPDEST DUP7 MLOAD RETURNDATASIZE PUSH0 DUP3 RETURNDATACOPY RETURNDATASIZE SWAP1 REVERT JUMPDEST PUSH1 0x11 SWAP1 PUSH4 0x4E487B71 PUSH1 0xE0 SHL PUSH0 MSTORE MSTORE PUSH1 0x24 PUSH0 REVERT JUMPDEST PUSH1 0x11 DUP7 PUSH4 0x4E487B71 PUSH1 0xE0 SHL PUSH0 MSTORE MSTORE PUSH1 0x24 PUSH0 REVERT JUMPDEST PUSH1 0x4 CALLDATALOAD SWAP1 PUSH1 0x1 PUSH1 0x1 PUSH1 0xA0 SHL SUB DUP3 AND DUP3 SUB PUSH2 0x7D JUMPI JUMP JUMPDEST SWAP1 PUSH1 0x1F DUP1 NOT SWAP2 ADD AND DUP2 ADD SWAP1 DUP2 LT PUSH8 0xFFFFFFFFFFFFFFFF DUP3 GT OR PUSH2 0x3B2 JUMPI PUSH1 0x40 MSTORE JUMP JUMPDEST PUSH4 0x4E487B71 PUSH1 0xE0 SHL PUSH0 MSTORE PUSH1 0x41 PUSH1 0x4 MSTORE PUSH1 0x24 PUSH0 REVERT JUMPDEST SWAP1 DUP2 PUSH1 0x20 SWAP2 SUB SLT PUSH2 0x7D JUMPI MLOAD DUP1 ISZERO ISZERO DUP2 SUB PUSH2 0x7D JUMPI SWAP1 JUMP INVALID LOG2 PUSH5 0x6970667358 0x22 SLT KECCAK256 0xC7 0xA6 EXTCODESIZE 0xAC SELFDESTRUCT POP 0xBC PUSH27 0xAA88C332262E593D6FA80DC0685674544F4B09CB8796DCEE64736F PUSH13 0x63430008180033000000000000 "},"methodIdentifiers":{"developerAddress()":"caccd7f7","feeBps()":"24a9d853","initialize(address,address,uint256)":"1794bb3c","merchantAddress()":"9df8ed43","processPayment(address,uint256)":"0b63fe95"}}}}}