{"contracts/SplitterLogic.sol":{"SplitterLogic":{"abi":[{"inputs":[],"stateMutability":"nonpayable","type":"constructor"},{"inputs":[],"name":"AlreadyInitialized","type":"error"},{"inputs":[],"name":"ECDSAInvalidSignature","type":"error"},{"inputs":[{"internalType":"uint256","name":"length","type":"uint256"}],"name":"ECDSAInvalidSignatureLength","type":"error"},{"inputs":[{"internalType":"bytes32","name":"s","type":"bytes32"}],"name":"ECDSAInvalidSignatureS","type":"error"},{"inputs":[],"name":"FactoryPaused","type":"error"},{"inputs":[],"name":"InvalidInitialization","type":"error"},{"inputs":[],"name":"InvalidShortString","type":"error"},{"inputs":[],"name":"InvalidSignature","type":"error"},{"inputs":[],"name":"NotInitializing","type":"error"},{"inputs":[],"name":"OnlyFactory","type":"error"},{"inputs":[],"name":"PaymentAlreadyProcessed","type":"error"},{"inputs":[],"name":"PaymentExpired","type":"error"},{"inputs":[],"name":"ReentrancyGuardReentrantCall","type":"error"},{"inputs":[],"name":"RouterNotAllowed","type":"error"},{"inputs":[],"name":"SlippageExceeded","type":"error"},{"inputs":[{"internalType":"string","name":"str","type":"string"}],"name":"StringTooLong","type":"error"},{"inputs":[],"name":"TransferFailed","type":"error"},{"inputs":[],"name":"ZeroAddress","type":"error"},{"anonymous":false,"inputs":[{"indexed":true,"internalType":"address","name":"newAuthorizer","type":"address"}],"name":"AuthorizerUpdated","type":"event"},{"anonymous":false,"inputs":[],"name":"EIP712DomainChanged","type":"event"},{"anonymous":false,"inputs":[{"indexed":false,"internalType":"uint64","name":"version","type":"uint64"}],"name":"Initialized","type":"event"},{"anonymous":false,"inputs":[{"indexed":true,"internalType":"bytes32","name":"paymentId","type":"bytes32"},{"indexed":true,"internalType":"address","name":"tokenIn","type":"address"},{"indexed":true,"internalType":"address","name":"tokenOut","type":"address"},{"indexed":false,"internalType":"uint256","name":"amountIn","type":"uint256"},{"indexed":false,"internalType":"uint256","name":"merchantReceived","type":"uint256"},{"indexed":false,"internalType":"uint256","name":"devFee","type":"uint256"}],"name":"PaymentProcessed","type":"event"},{"inputs":[],"name":"AUTHORIZED_PAYMENT_TYPEHASH","outputs":[{"internalType":"bytes32","name":"","type":"bytes32"}],"stateMutability":"view","type":"function"},{"inputs":[],"name":"authorizer","outputs":[{"internalType":"address","name":"","type":"address"}],"stateMutability":"view","type":"function"},{"inputs":[],"name":"eip712Domain","outputs":[{"internalType":"bytes1","name":"fields","type":"bytes1"},{"internalType":"string","name":"name","type":"string"},{"internalType":"string","name":"version","type":"string"},{"internalType":"uint256","name":"chainId","type":"uint256"},{"internalType":"address","name":"verifyingContract","type":"address"},{"internalType":"bytes32","name":"salt","type":"bytes32"},{"internalType":"uint256[]","name":"extensions","type":"uint256[]"}],"stateMutability":"view","type":"function"},{"inputs":[],"name":"factory","outputs":[{"internalType":"address","name":"","type":"address"}],"stateMutability":"view","type":"function"},{"inputs":[{"internalType":"address","name":"_merchantAddress","type":"address"},{"internalType":"address","name":"_factory","type":"address"},{"internalType":"address","name":"_authorizer","type":"address"}],"name":"initialize","outputs":[],"stateMutability":"nonpayable","type":"function"},{"inputs":[],"name":"merchantAddress","outputs":[{"internalType":"address","name":"","type":"address"}],"stateMutability":"view","type":"function"},{"inputs":[{"internalType":"bytes32","name":"paymentId","type":"bytes32"},{"internalType":"address","name":"token","type":"address"},{"internalType":"uint256","name":"amount","type":"uint256"},{"internalType":"uint256","name":"expiry","type":"uint256"},{"internalType":"bytes","name":"signature","type":"bytes"}],"name":"payDirect","outputs":[],"stateMutability":"nonpayable","type":"function"},{"inputs":[{"internalType":"bytes32","name":"paymentId","type":"bytes32"},{"internalType":"address","name":"tokenIn","type":"address"},{"internalType":"address","name":"tokenOut","type":"address"},{"internalType":"uint256","name":"amountIn","type":"uint256"},{"internalType":"uint256","name":"minAmountOut","type":"uint256"},{"internalType":"uint256","name":"expiry","type":"uint256"},{"internalType":"address","name":"router","type":"address"},{"internalType":"address","name":"spender","type":"address"},{"internalType":"bytes","name":"swapData","type":"bytes"},{"internalType":"bytes","name":"signature","type":"bytes"}],"name":"payWithSwap","outputs":[],"stateMutability":"nonpayable","type":"function"},{"inputs":[{"internalType":"address","name":"token","type":"address"},{"internalType":"uint256","name":"amount","type":"uint256"}],"name":"rescueToken","outputs":[],"stateMutability":"nonpayable","type":"function"},{"inputs":[{"internalType":"address","name":"_newAuthorizer","type":"address"}],"name":"setAuthorizer","outputs":[],"stateMutability":"nonpayable","type":"function"}],"evm":{"bytecode":{"linkReferences":{},"object":"610160604090808252346200020e57620000198162000212565b601281526020810190712732b7a830bcb6b2b73a29b83634ba3a32b960711b8252825192620000488462000212565b6001845260208401603160f81b815260017f9b779b17422d0df92223018b32b4d1fa46e071723d6817e2486d003becc55f005562000086836200022e565b936101209485526200009886620003f8565b93610140948552519020948560e052519020610100948186524660a05282519160208301917f8b73c3c69bb8fe3d512ecc4cf759cc79239f7b179b0ffacaa9a75d522b39400f83528484015260608301524660808301523060a083015260a0825260c082019060018060401b039280831084841117620001fa578285525190206080523060c0527ff0c57e16840df040f15088dc2f81fe391c3923bec73e23a9662efc9c229c6a009182549160ff83861c16620001eb57508080831603620001a6575b50505051916116d59384620005a0853960805184611474015260a0518461152f015260c0518461143e015260e051846114c3015251836114e9015251826106e00152518161070a0152f35b6001600160401b0319909116811790915581519081527fc7f505b2f371ae2175ee4913f4499e1f2633a7b5936321eed1cdaeb6115181d290602090a15f80806200015b565b63f92ee8a960e01b8152600490fd5b634e487b7160e01b5f52604160045260245ffd5b5f80fd5b604081019081106001600160401b03821117620001fa57604052565b805160209081811015620002c85750601f8251116200026957808251920151908083106200025b57501790565b825f19910360031b1b161790565b90604051809263305a27a960e01b82528060048301528251908160248401525f935b828510620002ae575050604492505f838284010152601f80199101168101030190fd5b84810182015186860160440152938101938593506200028b565b906001600160401b038211620001fa575f54926001938481811c91168015620003ed575b83821014620003d957601f8111620003a3575b5081601f84116001146200033d57509282939183925f9462000331575b50501b915f199060031b1c1916175f5560ff90565b015192505f806200031c565b919083601f1981165f8052845f20945f905b888383106200038857505050106200036f575b505050811b015f5560ff90565b01515f1960f88460031b161c191690555f808062000362565b8587015188559096019594850194879350908101906200034f565b5f805284601f845f20920160051c820191601f860160051c015b828110620003cd575050620002ff565b5f8155018590620003bd565b634e487b7160e01b5f52602260045260245ffd5b90607f1690620002ec565b805160209081811015620004845750601f8251116200042557808251920151908083106200025b57501790565b90604051809263305a27a960e01b82528060048301528251908160248401525f935b8285106200046a575050604492505f838284010152601f80199101168101030190fd5b848101820151868601604401529381019385935062000447565b9192916001600160401b038111620001fa5760019182548381811c9116801562000594575b82821014620003d957601f81116200055e575b5080601f8311600114620004fa5750819293945f92620004ee575b50505f19600383901b1c191690821b17905560ff90565b015190505f80620004d7565b90601f19831695845f52825f20925f905b8882106200054657505083859697106200052d575b505050811b01905560ff90565b01515f1960f88460031b161c191690555f808062000520565b8087859682949686015181550195019301906200050b565b835f5283601f835f20920160051c820191601f850160051c015b82811062000588575050620004bc565b5f815501849062000578565b90607f1690620004a956fe6080604081815260049081361015610015575f80fd5b5f925f3560e01c908163058a628f14610ed4575080630d3742241461090457806333f3d628146107e857806384b0196e146106ca5780639df8ed43146106a1578063bcc2a04614610666578063c0c53b8b146104d4578063c45a0155146104a7578063d09edf311461047f5763e47c6f3c1461008f575f80fd5b3461047b5760a036600319011261047b578135906100ab610f68565b906044359060643560843567ffffffffffffffff8111610477576100d29036908801610f94565b916100db611109565b80421161046757906100f0929185878961114b565b6003548151635c975abb60e01b81526001600160a01b039182169691929190602090818184818c5afa908115610338578a9161044a575b5061043b578251638da5cb5b60e01b8152818184818c5afa908115610338579085918b9161041e575b50161561040f5782516324a9d85360e01b8152818184818c5afa908115610338578a916103dc575b5061018661271091876110d7565b049361019285876110b6565b96893b156103ce578a80808c60248d8a51948593849263721a50df60e11b84528c8401525af180156103d257918694939186936103b2575b505082169a86519384809263caccd7f760e01b82525afa9182156103a8578b92610379575b5089838c875192838092816102318d6323b872dd60e01b9a8b84528d3390850160409194939294606082019560018060a01b0380921683521660208201520152565b03925af190811561036f578c91610352575b50156103425760025485519283523385840190815291166001600160a01b031660208201526040810188905282908290819060600103818d8d5af1918215610338578a9261030b575b5050156102fd575051918252602082019290925260408101919091528291907f743791ed120d099b4c527e3bcef5a2e69c738c483ede167d034fb7a031afa9449080606081015b0390a460017f9b779b17422d0df92223018b32b4d1fa46e071723d6817e2486d003becc55f005580f35b90516312171d8360e31b8152fd5b61032a9250803d10610331575b6103228183611060565b810190611082565b5f8061028c565b503d610318565b84513d8c823e3d90fd5b84516312171d8360e31b81528490fd5b6103699150843d8611610331576103228183611060565b5f610243565b86513d8e823e3d90fd5b61039a919250833d85116103a1575b6103928183611060565b8101906110ea565b905f6101ef565b503d610388565b85513d8d823e3d90fd5b9092506103c0919450611000565b6103ce578284928c5f6101ca565b8a80fd5b87513d84823e3d90fd5b90508181813d8311610408575b6103f38183611060565b810103126104045751610186610178565b5f80fd5b503d6103e9565b50905163d92e233d60e01b8152fd5b6104359150833d85116103a1576103928183611060565b5f610150565b509051633461791360e11b8152fd5b6104619150823d8411610331576103228183611060565b5f610127565b8351630664b28b60e41b81528890fd5b8780fd5b8280fd5b50903461047b578260031936011261047b575490516001600160a01b03909116815260209150f35b8382346104d057816003193601126104d05760035490516001600160a01b039091168152602090f35b5080fd5b50903461047b57606036600319011261047b576104ef610f52565b906104f8610f68565b90610501610f7e565b917ff0c57e16840df040f15088dc2f81fe391c3923bec73e23a9662efc9c229c6a009384549360ff85881c16159467ffffffffffffffff81168015908161065e575b6001149081610654575b15908161064b575b5061063b5767ffffffffffffffff19811660011787558561061c575b506001600160a01b039182169283158015610612575b6106025782906bffffffffffffffffffffffff60a01b948560025416176002551683600354161760035516908254161790556105c1578280f35b805468ff00000000000000001916905551600181527fc7f505b2f371ae2175ee4913f4499e1f2633a7b5936321eed1cdaeb6115181d290602090a15f808280f35b875163d92e233d60e01b81528590fd5b5082811615610587565b68ffffffffffffffffff1916680100000000000000011786555f610571565b875163f92ee8a960e01b81528590fd5b9050155f610555565b303b15915061054d565b879150610543565b8382346104d057816003193601126104d057602090517fdf2547f32aa5f7bd0d10ba8cd1c90409ddfcdcc012c7b9d004fad2d87c5d84e88152f35b8382346104d057816003193601126104d05760025490516001600160a01b039091168152602090f35b503461047b578260031936011261047b576107047f0000000000000000000000000000000000000000000000000000000000000000611246565b9261072e7f000000000000000000000000000000000000000000000000000000000000000061136a565b90825192602092602085019585871067ffffffffffffffff8811176107d5575092602061078b83889661077e998b9996528686528151998a99600f60f81b8b5260e0868c015260e08b0190610fc2565b91898303908a0152610fc2565b924660608801523060808801528460a088015286840360c088015251928381520193925b8281106107be57505050500390f35b8351855286955093810193928101926001016107af565b604190634e487b7160e01b5f525260245ffd5b503461047b578060031936011261047b57610801610f52565b6003546001600160a01b0390811691338390036108f45783518093638da5cb5b60e01b8252818760209687935afa9081156108ea579161087b91859389916108cd575b50865163a9059cbb60e01b81526001600160a01b0390911688820190815260243560208201529094859384928b9291849160400190565b0393165af19182156108c35785926108a6575b505015610899578280f35b516312171d8360e31b8152fd5b6108bc9250803d10610331576103228183611060565b5f8061088e565b83513d87823e3d90fd5b6108e49150843d86116103a1576103928183611060565b5f610844565b85513d89823e3d90fd5b50505051630636a15760e11b8152fd5b509190346104045761014036600319011261040457803592610924610f68565b9361092d610f7e565b60c435936064359360a435926001600160a01b039290838816908189036104045760e4359585871687036104045767ffffffffffffffff91610104358381116104045761097d9036908701610f94565b92909361012435908111610404576109989036908801610f94565b916109a1611109565b804211610ec457908f918d6109b794938e61114b565b6003548651635c975abb60e01b8152908816986020959091868189818e5afa908115610eba575f91610e9d575b50610e8d578751906361771e4960e01b82528782015285816024818d5afa908115610e02575f91610e70575b5015610e605786516323b872dd60e01b815233818801908152306020820152604081018d90529d9e9c9d9c89169c9a9b999a869082908f9082905f90829060600103925af1908115610e02575f91610e43575b5015610e3357865163095ea7b360e01b81526001600160a01b03909116818701908152602081018a9052859082908e9082905f90829060400103925af18015610e295790889291610e0c575b50169a8b9186519385856024816370a0823160e01b97888252308c8301525afa948515610e02575f95610dcd575b5091815f809481948b519384928337810182815203925af13d15610dc8573d610b058161109a565b90610b1288519283611060565b81525f853d92013e5b1561034257845190815230848201529082826024818e5afa8015610d7f575f90610d99575b610b4a92506110b6565b936084358510610d895783516324a9d85360e01b8152828185818b5afa908115610d7f575f91610d50575b50612710610b86610b8e92886110d7565b0480966110b6565b96803b1561040457845163721a50df60e11b81528481018a90525f8160248183865af18015610d4657610d2d575b509082849286519384809263caccd7f760e01b82525afa918215610d23578c92610d04575b508a838d87519283809281610c198d63a9059cbb60e01b9a8b84528d840160209093929193604081019460018060a01b031681520152565b03925af1908115610cfa578d91610cdd575b50156103425760025485519283526001600160a01b039116168382019081526020810188905282908290819003604001818e8e5af1918215610cd3578b92610cb6575b5050156102fd575051918252602082019290925260408101919091527f743791ed120d099b4c527e3bcef5a2e69c738c483ede167d034fb7a031afa9449080606081016102d3565b610ccc9250803d10610331576103228183611060565b5f80610c6e565b84513d8d823e3d90fd5b610cf49150843d8611610331576103228183611060565b5f610c2b565b86513d8f823e3d90fd5b610d1c919250833d85116103a1576103928183611060565b905f610be1565b85513d8e823e3d90fd5b8492919c50610d3b90611000565b825f9c919250610bbc565b86513d5f823e3d90fd5b90508281813d8311610d78575b610d678183611060565b810103126104045751612710610b75565b503d610d5d565b85513d5f823e3d90fd5b8351638199f5f360e01b81528390fd5b508282813d8311610dc1575b610daf8183611060565b8101031261040457610b4a9151610b40565b503d610da5565b610b1b565b91929094508582813d8311610dfb575b610de78183611060565b81010312610404579051939091905f610add565b503d610ddd565b88513d5f823e3d90fd5b610e2290863d8811610331576103228183611060565b505f610aaf565b87513d5f823e3d90fd5b86516312171d8360e31b81528690fd5b610e5a9150863d8811610331576103228183611060565b5f610a63565b865163cec13f7b60e01b81528690fd5b610e879150863d8811610331576103228183611060565b5f610a10565b8751633461791360e11b81528790fd5b610eb49150873d8911610331576103228183611060565b5f6109e4565b89513d5f823e3d90fd5b8851630664b28b60e41b81528890fd5b83903461040457602036600319011261040457610eef610f52565b6003546001600160a01b03929083163303610f4457501690816bffffffffffffffffffffffff60a01b8254161790557ff3f625a7d9e02778afdfdf1bea978d6565840d408866c70f5d25aadf77021d705f80a2005b630636a15760e11b81528390fd5b600435906001600160a01b038216820361040457565b602435906001600160a01b038216820361040457565b604435906001600160a01b038216820361040457565b9181601f840112156104045782359167ffffffffffffffff8311610404576020838186019501011161040457565b91908251928382525f5b848110610fec575050825f602080949584010152601f8019910116010190565b602081830181015184830182015201610fcc565b67ffffffffffffffff811161101457604052565b634e487b7160e01b5f52604160045260245ffd5b60c0810190811067ffffffffffffffff82111761101457604052565b6040810190811067ffffffffffffffff82111761101457604052565b90601f8019910116810190811067ffffffffffffffff82111761101457604052565b90816020910312610404575180151581036104045790565b67ffffffffffffffff811161101457601f01601f191660200190565b919082039182116110c357565b634e487b7160e01b5f52601160045260245ffd5b818102929181159184041417156110c357565b9081602091031261040457516001600160a01b03811681036104045790565b7f9b779b17422d0df92223018b32b4d1fa46e071723d6817e2486d003becc55f0060028154146111395760029055565b604051633ee5aeb560e01b8152600490fd5b6004546001600160a01b03908116969095909490939290871561123c57604293876040519360208501957fdf2547f32aa5f7bd0d10ba8cd1c90409ddfcdcc012c7b9d004fad2d87c5d84e887526040860152166060840152608083015260a082015260a081526111ba81611028565b5190206111c561143b565b906040519161190160f01b835260028301526022820152206111e68361109a565b906111f46040519283611060565b8382523684840111610404575f60208561122296611219968387013784010152611555565b9092919261158f565b160361122a57565b604051638baa579f60e01b8152600490fd5b5050505050505050565b60ff81146112845760ff811690601f8211611272576040519161126883611044565b8252602082015290565b604051632cd44ac360e21b8152600490fd5b506040515f8054906001908260011c60018416928315611360575b602094858310851461134c57828752869490811561132c57506001146112d1575b50506112ce92500382611060565b90565b5f8080527f290decd9548b62a8d60345a988386fc84ba6bc95484008f6362f93160ef3e56395935091905b8183106113145750506112ce93508201015f806112c0565b855487840185015294850194869450918301916112fc565b9150506112ce94925060ff191682840152151560051b8201015f806112c0565b634e487b7160e01b5f52602260045260245ffd5b90607f169061129f565b60ff811461138c5760ff811690601f8211611272576040519161126883611044565b506040515f60018054918260011c60018416928315611431575b602094858310851461134c57828752869490811561132c57506001146113d45750506112ce92500382611060565b9093915060015f527fb10e2d527612073b26eecdfd717e6a320cf44b4afac2b0732d9fcbe2b7fa0cf6935f915b8183106114195750506112ce93508201015f806112c0565b85548784018501529485019486945091830191611401565b90607f16906113a6565b307f00000000000000000000000000000000000000000000000000000000000000006001600160a01b0316148061152c575b15611496577f000000000000000000000000000000000000000000000000000000000000000090565b60405160208101907f8b73c3c69bb8fe3d512ecc4cf759cc79239f7b179b0ffacaa9a75d522b39400f82527f000000000000000000000000000000000000000000000000000000000000000060408201527f000000000000000000000000000000000000000000000000000000000000000060608201524660808201523060a082015260a0815261152681611028565b51902090565b507f0000000000000000000000000000000000000000000000000000000000000000461461146d565b81519190604183036115855761157e9250602082015190606060408401519301515f1a90611612565b9192909190565b50505f9160029190565b60048110156115fe57806115a1575050565b600181036115bb5760405163f645eedf60e01b8152600490fd5b600281036115dc5760405163fce698f760e01b815260048101839052602490fd5b6003146115e65750565b602490604051906335e2f38360e21b82526004820152fd5b634e487b7160e01b5f52602160045260245ffd5b91907f7fffffffffffffffffffffffffffffff5d576e7357a4501ddfe92f46681b20a08411611694579160209360809260ff5f9560405194855216868401526040830152606082015282805260015afa15611689575f516001600160a01b0381161561167f57905f905f90565b505f906001905f90565b6040513d5f823e3d90fd5b5050505f916003919056fea2646970667358221220d2c5395183e9f8d9c1e8a9e83d254960bd4c7f5c317a3ce8ba3cb762c056673e64736f6c63430008180033","opcodes":"PUSH2 0x160 PUSH1 0x40 SWAP1 DUP1 DUP3 MSTORE CALLVALUE PUSH3 0x20E JUMPI PUSH3 0x19 DUP2 PUSH3 0x212 JUMP JUMPDEST PUSH1 0x12 DUP2 MSTORE PUSH1 0x20 DUP2 ADD SWAP1 PUSH18 0x2732B7A830BCB6B2B73A29B83634BA3A32B9 PUSH1 0x71 SHL DUP3 MSTORE DUP3 MLOAD SWAP3 PUSH3 0x48 DUP5 PUSH3 0x212 JUMP JUMPDEST PUSH1 0x1 DUP5 MSTORE PUSH1 0x20 DUP5 ADD PUSH1 0x31 PUSH1 0xF8 SHL DUP2 MSTORE PUSH1 0x1 PUSH32 0x9B779B17422D0DF92223018B32B4D1FA46E071723D6817E2486D003BECC55F00 SSTORE PUSH3 0x86 DUP4 PUSH3 0x22E JUMP JUMPDEST SWAP4 PUSH2 0x120 SWAP5 DUP6 MSTORE PUSH3 0x98 DUP7 PUSH3 0x3F8 JUMP JUMPDEST SWAP4 PUSH2 0x140 SWAP5 DUP6 MSTORE MLOAD SWAP1 KECCAK256 SWAP5 DUP6 PUSH1 0xE0 MSTORE MLOAD SWAP1 KECCAK256 PUSH2 0x100 SWAP5 DUP2 DUP7 MSTORE CHAINID PUSH1 0xA0 MSTORE DUP3 MLOAD SWAP2 PUSH1 0x20 DUP4 ADD SWAP2 PUSH32 0x8B73C3C69BB8FE3D512ECC4CF759CC79239F7B179B0FFACAA9A75D522B39400F DUP4 MSTORE DUP5 DUP5 ADD MSTORE PUSH1 0x60 DUP4 ADD MSTORE CHAINID PUSH1 0x80 DUP4 ADD MSTORE ADDRESS PUSH1 0xA0 DUP4 ADD MSTORE PUSH1 0xA0 DUP3 MSTORE PUSH1 0xC0 DUP3 ADD SWAP1 PUSH1 0x1 DUP1 PUSH1 0x40 SHL SUB SWAP3 DUP1 DUP4 LT DUP5 DUP5 GT OR PUSH3 0x1FA JUMPI DUP3 DUP6 MSTORE MLOAD SWAP1 KECCAK256 PUSH1 0x80 MSTORE ADDRESS PUSH1 0xC0 MSTORE PUSH32 0xF0C57E16840DF040F15088DC2F81FE391C3923BEC73E23A9662EFC9C229C6A00 SWAP2 DUP3 SLOAD SWAP2 PUSH1 0xFF DUP4 DUP7 SHR AND PUSH3 0x1EB JUMPI POP DUP1 DUP1 DUP4 AND SUB PUSH3 0x1A6 JUMPI JUMPDEST POP POP POP MLOAD SWAP2 PUSH2 0x16D5 SWAP4 DUP5 PUSH3 0x5A0 DUP6 CODECOPY PUSH1 0x80 MLOAD DUP5 PUSH2 0x1474 ADD MSTORE PUSH1 0xA0 MLOAD DUP5 PUSH2 0x152F ADD MSTORE PUSH1 0xC0 MLOAD DUP5 PUSH2 0x143E ADD MSTORE PUSH1 0xE0 MLOAD DUP5 PUSH2 0x14C3 ADD MSTORE MLOAD DUP4 PUSH2 0x14E9 ADD MSTORE MLOAD DUP3 PUSH2 0x6E0 ADD MSTORE MLOAD DUP2 PUSH2 0x70A ADD MSTORE RETURN JUMPDEST PUSH1 0x1 PUSH1 0x1 PUSH1 0x40 SHL SUB NOT SWAP1 SWAP2 AND DUP2 OR SWAP1 SWAP2 SSTORE DUP2 MLOAD SWAP1 DUP2 MSTORE PUSH32 0xC7F505B2F371AE2175EE4913F4499E1F2633A7B5936321EED1CDAEB6115181D2 SWAP1 PUSH1 0x20 SWAP1 LOG1 PUSH0 DUP1 DUP1 PUSH3 0x15B JUMP JUMPDEST PUSH4 0xF92EE8A9 PUSH1 0xE0 SHL DUP2 MSTORE PUSH1 0x4 SWAP1 REVERT JUMPDEST PUSH4 0x4E487B71 PUSH1 0xE0 SHL PUSH0 MSTORE PUSH1 0x41 PUSH1 0x4 MSTORE PUSH1 0x24 PUSH0 REVERT JUMPDEST PUSH0 DUP1 REVERT JUMPDEST PUSH1 0x40 DUP2 ADD SWAP1 DUP2 LT PUSH1 0x1 PUSH1 0x1 PUSH1 0x40 SHL SUB DUP3 GT OR PUSH3 0x1FA JUMPI PUSH1 0x40 MSTORE JUMP JUMPDEST DUP1 MLOAD PUSH1 0x20 SWAP1 DUP2 DUP2 LT ISZERO PUSH3 0x2C8 JUMPI POP PUSH1 0x1F DUP3 MLOAD GT PUSH3 0x269 JUMPI DUP1 DUP3 MLOAD SWAP3 ADD MLOAD SWAP1 DUP1 DUP4 LT PUSH3 0x25B JUMPI POP OR SWAP1 JUMP JUMPDEST DUP3 PUSH0 NOT SWAP2 SUB PUSH1 0x3 SHL SHL AND OR SWAP1 JUMP JUMPDEST SWAP1 PUSH1 0x40 MLOAD DUP1 SWAP3 PUSH4 0x305A27A9 PUSH1 0xE0 SHL DUP3 MSTORE DUP1 PUSH1 0x4 DUP4 ADD MSTORE DUP3 MLOAD SWAP1 DUP2 PUSH1 0x24 DUP5 ADD MSTORE PUSH0 SWAP4 JUMPDEST DUP3 DUP6 LT PUSH3 0x2AE JUMPI POP POP PUSH1 0x44 SWAP3 POP PUSH0 DUP4 DUP3 DUP5 ADD ADD MSTORE PUSH1 0x1F DUP1 NOT SWAP2 ADD AND DUP2 ADD SUB ADD SWAP1 REVERT JUMPDEST DUP5 DUP2 ADD DUP3 ADD MLOAD DUP7 DUP7 ADD PUSH1 0x44 ADD MSTORE SWAP4 DUP2 ADD SWAP4 DUP6 SWAP4 POP PUSH3 0x28B JUMP JUMPDEST SWAP1 PUSH1 0x1 PUSH1 0x1 PUSH1 0x40 SHL SUB DUP3 GT PUSH3 0x1FA JUMPI PUSH0 SLOAD SWAP3 PUSH1 0x1 SWAP4 DUP5 DUP2 DUP2 SHR SWAP2 AND DUP1 ISZERO PUSH3 0x3ED JUMPI JUMPDEST DUP4 DUP3 LT EQ PUSH3 0x3D9 JUMPI PUSH1 0x1F DUP2 GT PUSH3 0x3A3 JUMPI JUMPDEST POP DUP2 PUSH1 0x1F DUP5 GT PUSH1 0x1 EQ PUSH3 0x33D JUMPI POP SWAP3 DUP3 SWAP4 SWAP2 DUP4 SWAP3 PUSH0 SWAP5 PUSH3 0x331 JUMPI JUMPDEST POP POP SHL SWAP2 PUSH0 NOT SWAP1 PUSH1 0x3 SHL SHR NOT AND OR PUSH0 SSTORE PUSH1 0xFF SWAP1 JUMP JUMPDEST ADD MLOAD SWAP3 POP PUSH0 DUP1 PUSH3 0x31C JUMP JUMPDEST SWAP2 SWAP1 DUP4 PUSH1 0x1F NOT DUP2 AND PUSH0 DUP1 MSTORE DUP5 PUSH0 KECCAK256 SWAP5 PUSH0 SWAP1 JUMPDEST DUP9 DUP4 DUP4 LT PUSH3 0x388 JUMPI POP POP POP LT PUSH3 0x36F JUMPI JUMPDEST POP POP POP DUP2 SHL ADD PUSH0 SSTORE PUSH1 0xFF SWAP1 JUMP JUMPDEST ADD MLOAD PUSH0 NOT PUSH1 0xF8 DUP5 PUSH1 0x3 SHL AND SHR NOT AND SWAP1 SSTORE PUSH0 DUP1 DUP1 PUSH3 0x362 JUMP JUMPDEST DUP6 DUP8 ADD MLOAD DUP9 SSTORE SWAP1 SWAP7 ADD SWAP6 SWAP5 DUP6 ADD SWAP5 DUP8 SWAP4 POP SWAP1 DUP2 ADD SWAP1 PUSH3 0x34F JUMP JUMPDEST PUSH0 DUP1 MSTORE DUP5 PUSH1 0x1F DUP5 PUSH0 KECCAK256 SWAP3 ADD PUSH1 0x5 SHR DUP3 ADD SWAP2 PUSH1 0x1F DUP7 ADD PUSH1 0x5 SHR ADD JUMPDEST DUP3 DUP2 LT PUSH3 0x3CD JUMPI POP POP PUSH3 0x2FF JUMP JUMPDEST PUSH0 DUP2 SSTORE ADD DUP6 SWAP1 PUSH3 0x3BD JUMP JUMPDEST PUSH4 0x4E487B71 PUSH1 0xE0 SHL PUSH0 MSTORE PUSH1 0x22 PUSH1 0x4 MSTORE PUSH1 0x24 PUSH0 REVERT JUMPDEST SWAP1 PUSH1 0x7F AND SWAP1 PUSH3 0x2EC JUMP JUMPDEST DUP1 MLOAD PUSH1 0x20 SWAP1 DUP2 DUP2 LT ISZERO PUSH3 0x484 JUMPI POP PUSH1 0x1F DUP3 MLOAD GT PUSH3 0x425 JUMPI DUP1 DUP3 MLOAD SWAP3 ADD MLOAD SWAP1 DUP1 DUP4 LT PUSH3 0x25B JUMPI POP OR SWAP1 JUMP JUMPDEST SWAP1 PUSH1 0x40 MLOAD DUP1 SWAP3 PUSH4 0x305A27A9 PUSH1 0xE0 SHL DUP3 MSTORE DUP1 PUSH1 0x4 DUP4 ADD MSTORE DUP3 MLOAD SWAP1 DUP2 PUSH1 0x24 DUP5 ADD MSTORE PUSH0 SWAP4 JUMPDEST DUP3 DUP6 LT PUSH3 0x46A JUMPI POP POP PUSH1 0x44 SWAP3 POP PUSH0 DUP4 DUP3 DUP5 ADD ADD MSTORE PUSH1 0x1F DUP1 NOT SWAP2 ADD AND DUP2 ADD SUB ADD SWAP1 REVERT JUMPDEST DUP5 DUP2 ADD DUP3 ADD MLOAD DUP7 DUP7 ADD PUSH1 0x44 ADD MSTORE SWAP4 DUP2 ADD SWAP4 DUP6 SWAP4 POP PUSH3 0x447 JUMP JUMPDEST SWAP2 SWAP3 SWAP2 PUSH1 0x1 PUSH1 0x1 PUSH1 0x40 SHL SUB DUP2 GT PUSH3 0x1FA JUMPI PUSH1 0x1 SWAP2 DUP3 SLOAD DUP4 DUP2 DUP2 SHR SWAP2 AND DUP1 ISZERO PUSH3 0x594 JUMPI JUMPDEST DUP3 DUP3 LT EQ PUSH3 0x3D9 JUMPI PUSH1 0x1F DUP2 GT PUSH3 0x55E JUMPI JUMPDEST POP DUP1 PUSH1 0x1F DUP4 GT PUSH1 0x1 EQ PUSH3 0x4FA JUMPI POP DUP2 SWAP3 SWAP4 SWAP5 PUSH0 SWAP3 PUSH3 0x4EE JUMPI JUMPDEST POP POP PUSH0 NOT PUSH1 0x3 DUP4 SWAP1 SHL SHR NOT AND SWAP1 DUP3 SHL OR SWAP1 SSTORE PUSH1 0xFF SWAP1 JUMP JUMPDEST ADD MLOAD SWAP1 POP PUSH0 DUP1 PUSH3 0x4D7 JUMP JUMPDEST SWAP1 PUSH1 0x1F NOT DUP4 AND SWAP6 DUP5 PUSH0 MSTORE DUP3 PUSH0 KECCAK256 SWAP3 PUSH0 SWAP1 JUMPDEST DUP9 DUP3 LT PUSH3 0x546 JUMPI POP POP DUP4 DUP6 SWAP7 SWAP8 LT PUSH3 0x52D JUMPI JUMPDEST POP POP POP DUP2 SHL ADD SWAP1 SSTORE PUSH1 0xFF SWAP1 JUMP JUMPDEST ADD MLOAD PUSH0 NOT PUSH1 0xF8 DUP5 PUSH1 0x3 SHL AND SHR NOT AND SWAP1 SSTORE PUSH0 DUP1 DUP1 PUSH3 0x520 JUMP JUMPDEST DUP1 DUP8 DUP6 SWAP7 DUP3 SWAP5 SWAP7 DUP7 ADD MLOAD DUP2 SSTORE ADD SWAP6 ADD SWAP4 ADD SWAP1 PUSH3 0x50B JUMP JUMPDEST DUP4 PUSH0 MSTORE DUP4 PUSH1 0x1F DUP4 PUSH0 KECCAK256 SWAP3 ADD PUSH1 0x5 SHR DUP3 ADD SWAP2 PUSH1 0x1F DUP6 ADD PUSH1 0x5 SHR ADD JUMPDEST DUP3 DUP2 LT PUSH3 0x588 JUMPI POP POP PUSH3 0x4BC JUMP JUMPDEST PUSH0 DUP2 SSTORE ADD DUP5 SWAP1 PUSH3 0x578 JUMP JUMPDEST SWAP1 PUSH1 0x7F AND SWAP1 PUSH3 0x4A9 JUMP INVALID PUSH1 0x80 PUSH1 0x40 DUP2 DUP2 MSTORE PUSH1 0x4 SWAP1 DUP2 CALLDATASIZE LT ISZERO PUSH2 0x15 JUMPI PUSH0 DUP1 REVERT JUMPDEST PUSH0 SWAP3 PUSH0 CALLDATALOAD PUSH1 0xE0 SHR SWAP1 DUP2 PUSH4 0x58A628F EQ PUSH2 0xED4 JUMPI POP DUP1 PUSH4 0xD374224 EQ PUSH2 0x904 JUMPI DUP1 PUSH4 0x33F3D628 EQ PUSH2 0x7E8 JUMPI DUP1 PUSH4 0x84B0196E EQ PUSH2 0x6CA JUMPI DUP1 PUSH4 0x9DF8ED43 EQ PUSH2 0x6A1 JUMPI DUP1 PUSH4 0xBCC2A046 EQ PUSH2 0x666 JUMPI DUP1 PUSH4 0xC0C53B8B EQ PUSH2 0x4D4 JUMPI DUP1 PUSH4 0xC45A0155 EQ PUSH2 0x4A7 JUMPI DUP1 PUSH4 0xD09EDF31 EQ PUSH2 0x47F JUMPI PUSH4 0xE47C6F3C EQ PUSH2 0x8F JUMPI PUSH0 DUP1 REVERT JUMPDEST CALLVALUE PUSH2 0x47B JUMPI PUSH1 0xA0 CALLDATASIZE PUSH1 0x3 NOT ADD SLT PUSH2 0x47B JUMPI DUP2 CALLDATALOAD SWAP1 PUSH2 0xAB PUSH2 0xF68 JUMP JUMPDEST SWAP1 PUSH1 0x44 CALLDATALOAD SWAP1 PUSH1 0x64 CALLDATALOAD PUSH1 0x84 CALLDATALOAD PUSH8 0xFFFFFFFFFFFFFFFF DUP2 GT PUSH2 0x477 JUMPI PUSH2 0xD2 SWAP1 CALLDATASIZE SWAP1 DUP9 ADD PUSH2 0xF94 JUMP JUMPDEST SWAP2 PUSH2 0xDB PUSH2 0x1109 JUMP JUMPDEST DUP1 TIMESTAMP GT PUSH2 0x467 JUMPI SWAP1 PUSH2 0xF0 SWAP3 SWAP2 DUP6 DUP8 DUP10 PUSH2 0x114B JUMP JUMPDEST PUSH1 0x3 SLOAD DUP2 MLOAD PUSH4 0x5C975ABB PUSH1 0xE0 SHL DUP2 MSTORE PUSH1 0x1 PUSH1 0x1 PUSH1 0xA0 SHL SUB SWAP2 DUP3 AND SWAP7 SWAP2 SWAP3 SWAP2 SWAP1 PUSH1 0x20 SWAP1 DUP2 DUP2 DUP5 DUP2 DUP13 GAS STATICCALL SWAP1 DUP2 ISZERO PUSH2 0x338 JUMPI DUP11 SWAP2 PUSH2 0x44A JUMPI JUMPDEST POP PUSH2 0x43B JUMPI DUP3 MLOAD PUSH4 0x8DA5CB5B PUSH1 0xE0 SHL DUP2 MSTORE DUP2 DUP2 DUP5 DUP2 DUP13 GAS STATICCALL SWAP1 DUP2 ISZERO PUSH2 0x338 JUMPI SWAP1 DUP6 SWAP2 DUP12 SWAP2 PUSH2 0x41E JUMPI JUMPDEST POP AND ISZERO PUSH2 0x40F JUMPI DUP3 MLOAD PUSH4 0x24A9D853 PUSH1 0xE0 SHL DUP2 MSTORE DUP2 DUP2 DUP5 DUP2 DUP13 GAS STATICCALL SWAP1 DUP2 ISZERO PUSH2 0x338 JUMPI DUP11 SWAP2 PUSH2 0x3DC JUMPI JUMPDEST POP PUSH2 0x186 PUSH2 0x2710 SWAP2 DUP8 PUSH2 0x10D7 JUMP JUMPDEST DIV SWAP4 PUSH2 0x192 DUP6 DUP8 PUSH2 0x10B6 JUMP JUMPDEST SWAP7 DUP10 EXTCODESIZE ISZERO PUSH2 0x3CE JUMPI DUP11 DUP1 DUP1 DUP13 PUSH1 0x24 DUP14 DUP11 MLOAD SWAP5 DUP6 SWAP4 DUP5 SWAP3 PUSH4 0x721A50DF PUSH1 0xE1 SHL DUP5 MSTORE DUP13 DUP5 ADD MSTORE GAS CALL DUP1 ISZERO PUSH2 0x3D2 JUMPI SWAP2 DUP7 SWAP5 SWAP4 SWAP2 DUP7 SWAP4 PUSH2 0x3B2 JUMPI JUMPDEST POP POP DUP3 AND SWAP11 DUP7 MLOAD SWAP4 DUP5 DUP1 SWAP3 PUSH4 0xCACCD7F7 PUSH1 0xE0 SHL DUP3 MSTORE GAS STATICCALL SWAP2 DUP3 ISZERO PUSH2 0x3A8 JUMPI DUP12 SWAP3 PUSH2 0x379 JUMPI JUMPDEST POP DUP10 DUP4 DUP13 DUP8 MLOAD SWAP3 DUP4 DUP1 SWAP3 DUP2 PUSH2 0x231 DUP14 PUSH4 0x23B872DD PUSH1 0xE0 SHL SWAP11 DUP12 DUP5 MSTORE DUP14 CALLER SWAP1 DUP6 ADD PUSH1 0x40 SWAP2 SWAP5 SWAP4 SWAP3 SWAP5 PUSH1 0x60 DUP3 ADD SWAP6 PUSH1 0x1 DUP1 PUSH1 0xA0 SHL SUB DUP1 SWAP3 AND DUP4 MSTORE AND PUSH1 0x20 DUP3 ADD MSTORE ADD MSTORE JUMP JUMPDEST SUB SWAP3 GAS CALL SWAP1 DUP2 ISZERO PUSH2 0x36F JUMPI DUP13 SWAP2 PUSH2 0x352 JUMPI JUMPDEST POP ISZERO PUSH2 0x342 JUMPI PUSH1 0x2 SLOAD DUP6 MLOAD SWAP3 DUP4 MSTORE CALLER DUP6 DUP5 ADD SWAP1 DUP2 MSTORE SWAP2 AND PUSH1 0x1 PUSH1 0x1 PUSH1 0xA0 SHL SUB AND PUSH1 0x20 DUP3 ADD MSTORE PUSH1 0x40 DUP2 ADD DUP9 SWAP1 MSTORE DUP3 SWAP1 DUP3 SWAP1 DUP2 SWAP1 PUSH1 0x60 ADD SUB DUP2 DUP14 DUP14 GAS CALL SWAP2 DUP3 ISZERO PUSH2 0x338 JUMPI DUP11 SWAP3 PUSH2 0x30B JUMPI JUMPDEST POP POP ISZERO PUSH2 0x2FD JUMPI POP MLOAD SWAP2 DUP3 MSTORE PUSH1 0x20 DUP3 ADD SWAP3 SWAP1 SWAP3 MSTORE PUSH1 0x40 DUP2 ADD SWAP2 SWAP1 SWAP2 MSTORE DUP3 SWAP2 SWAP1 PUSH32 0x743791ED120D099B4C527E3BCEF5A2E69C738C483EDE167D034FB7A031AFA944 SWAP1 DUP1 PUSH1 0x60 DUP2 ADD JUMPDEST SUB SWAP1 LOG4 PUSH1 0x1 PUSH32 0x9B779B17422D0DF92223018B32B4D1FA46E071723D6817E2486D003BECC55F00 SSTORE DUP1 RETURN JUMPDEST SWAP1 MLOAD PUSH4 0x12171D83 PUSH1 0xE3 SHL DUP2 MSTORE REVERT JUMPDEST PUSH2 0x32A SWAP3 POP DUP1 RETURNDATASIZE LT PUSH2 0x331 JUMPI JUMPDEST PUSH2 0x322 DUP2 DUP4 PUSH2 0x1060 JUMP JUMPDEST DUP2 ADD SWAP1 PUSH2 0x1082 JUMP JUMPDEST PUSH0 DUP1 PUSH2 0x28C JUMP JUMPDEST POP RETURNDATASIZE PUSH2 0x318 JUMP JUMPDEST DUP5 MLOAD RETURNDATASIZE DUP13 DUP3 RETURNDATACOPY RETURNDATASIZE SWAP1 REVERT JUMPDEST DUP5 MLOAD PUSH4 0x12171D83 PUSH1 0xE3 SHL DUP2 MSTORE DUP5 SWAP1 REVERT JUMPDEST PUSH2 0x369 SWAP2 POP DUP5 RETURNDATASIZE DUP7 GT PUSH2 0x331 JUMPI PUSH2 0x322 DUP2 DUP4 PUSH2 0x1060 JUMP JUMPDEST PUSH0 PUSH2 0x243 JUMP JUMPDEST DUP7 MLOAD RETURNDATASIZE DUP15 DUP3 RETURNDATACOPY RETURNDATASIZE SWAP1 REVERT JUMPDEST PUSH2 0x39A SWAP2 SWAP3 POP DUP4 RETURNDATASIZE DUP6 GT PUSH2 0x3A1 JUMPI JUMPDEST PUSH2 0x392 DUP2 DUP4 PUSH2 0x1060 JUMP JUMPDEST DUP2 ADD SWAP1 PUSH2 0x10EA JUMP JUMPDEST SWAP1 PUSH0 PUSH2 0x1EF JUMP JUMPDEST POP RETURNDATASIZE PUSH2 0x388 JUMP JUMPDEST DUP6 MLOAD RETURNDATASIZE DUP14 DUP3 RETURNDATACOPY RETURNDATASIZE SWAP1 REVERT JUMPDEST SWAP1 SWAP3 POP PUSH2 0x3C0 SWAP2 SWAP5 POP PUSH2 0x1000 JUMP JUMPDEST PUSH2 0x3CE JUMPI DUP3 DUP5 SWAP3 DUP13 PUSH0 PUSH2 0x1CA JUMP JUMPDEST DUP11 DUP1 REVERT JUMPDEST DUP8 MLOAD RETURNDATASIZE DUP5 DUP3 RETURNDATACOPY RETURNDATASIZE SWAP1 REVERT JUMPDEST SWAP1 POP DUP2 DUP2 DUP2 RETURNDATASIZE DUP4 GT PUSH2 0x408 JUMPI JUMPDEST PUSH2 0x3F3 DUP2 DUP4 PUSH2 0x1060 JUMP JUMPDEST DUP2 ADD SUB SLT PUSH2 0x404 JUMPI MLOAD PUSH2 0x186 PUSH2 0x178 JUMP JUMPDEST PUSH0 DUP1 REVERT JUMPDEST POP RETURNDATASIZE PUSH2 0x3E9 JUMP JUMPDEST POP SWAP1 MLOAD PUSH4 0xD92E233D PUSH1 0xE0 SHL DUP2 MSTORE REVERT JUMPDEST PUSH2 0x435 SWAP2 POP DUP4 RETURNDATASIZE DUP6 GT PUSH2 0x3A1 JUMPI PUSH2 0x392 DUP2 DUP4 PUSH2 0x1060 JUMP JUMPDEST PUSH0 PUSH2 0x150 JUMP JUMPDEST POP SWAP1 MLOAD PUSH4 0x34617913 PUSH1 0xE1 SHL DUP2 MSTORE REVERT JUMPDEST PUSH2 0x461 SWAP2 POP DUP3 RETURNDATASIZE DUP5 GT PUSH2 0x331 JUMPI PUSH2 0x322 DUP2 DUP4 PUSH2 0x1060 JUMP JUMPDEST PUSH0 PUSH2 0x127 JUMP JUMPDEST DUP4 MLOAD PUSH4 0x664B28B PUSH1 0xE4 SHL DUP2 MSTORE DUP9 SWAP1 REVERT JUMPDEST DUP8 DUP1 REVERT JUMPDEST DUP3 DUP1 REVERT JUMPDEST POP SWAP1 CALLVALUE PUSH2 0x47B JUMPI DUP3 PUSH1 0x3 NOT CALLDATASIZE ADD SLT PUSH2 0x47B JUMPI SLOAD SWAP1 MLOAD PUSH1 0x1 PUSH1 0x1 PUSH1 0xA0 SHL SUB SWAP1 SWAP2 AND DUP2 MSTORE PUSH1 0x20 SWAP2 POP RETURN JUMPDEST DUP4 DUP3 CALLVALUE PUSH2 0x4D0 JUMPI DUP2 PUSH1 0x3 NOT CALLDATASIZE ADD SLT PUSH2 0x4D0 JUMPI PUSH1 0x3 SLOAD SWAP1 MLOAD PUSH1 0x1 PUSH1 0x1 PUSH1 0xA0 SHL SUB SWAP1 SWAP2 AND DUP2 MSTORE PUSH1 0x20 SWAP1 RETURN JUMPDEST POP DUP1 REVERT JUMPDEST POP SWAP1 CALLVALUE PUSH2 0x47B JUMPI PUSH1 0x60 CALLDATASIZE PUSH1 0x3 NOT ADD SLT PUSH2 0x47B JUMPI PUSH2 0x4EF PUSH2 0xF52 JUMP JUMPDEST SWAP1 PUSH2 0x4F8 PUSH2 0xF68 JUMP JUMPDEST SWAP1 PUSH2 0x501 PUSH2 0xF7E JUMP JUMPDEST SWAP2 PUSH32 0xF0C57E16840DF040F15088DC2F81FE391C3923BEC73E23A9662EFC9C229C6A00 SWAP4 DUP5 SLOAD SWAP4 PUSH1 0xFF DUP6 DUP9 SHR AND ISZERO SWAP5 PUSH8 0xFFFFFFFFFFFFFFFF DUP2 AND DUP1 ISZERO SWAP1 DUP2 PUSH2 0x65E JUMPI JUMPDEST PUSH1 0x1 EQ SWAP1 DUP2 PUSH2 0x654 JUMPI JUMPDEST ISZERO SWAP1 DUP2 PUSH2 0x64B JUMPI JUMPDEST POP PUSH2 0x63B JUMPI PUSH8 0xFFFFFFFFFFFFFFFF NOT DUP2 AND PUSH1 0x1 OR DUP8 SSTORE DUP6 PUSH2 0x61C JUMPI JUMPDEST POP PUSH1 0x1 PUSH1 0x1 PUSH1 0xA0 SHL SUB SWAP2 DUP3 AND SWAP3 DUP4 ISZERO DUP1 ISZERO PUSH2 0x612 JUMPI JUMPDEST PUSH2 0x602 JUMPI DUP3 SWAP1 PUSH12 0xFFFFFFFFFFFFFFFFFFFFFFFF PUSH1 0xA0 SHL SWAP5 DUP6 PUSH1 0x2 SLOAD AND OR PUSH1 0x2 SSTORE AND DUP4 PUSH1 0x3 SLOAD AND OR PUSH1 0x3 SSTORE AND SWAP1 DUP3 SLOAD AND OR SWAP1 SSTORE PUSH2 0x5C1 JUMPI DUP3 DUP1 RETURN JUMPDEST DUP1 SLOAD PUSH9 0xFF0000000000000000 NOT AND SWAP1 SSTORE MLOAD PUSH1 0x1 DUP2 MSTORE PUSH32 0xC7F505B2F371AE2175EE4913F4499E1F2633A7B5936321EED1CDAEB6115181D2 SWAP1 PUSH1 0x20 SWAP1 LOG1 PUSH0 DUP1 DUP3 DUP1 RETURN JUMPDEST DUP8 MLOAD PUSH4 0xD92E233D PUSH1 0xE0 SHL DUP2 MSTORE DUP6 SWAP1 REVERT JUMPDEST POP DUP3 DUP2 AND ISZERO PUSH2 0x587 JUMP JUMPDEST PUSH9 0xFFFFFFFFFFFFFFFFFF NOT AND PUSH9 0x10000000000000001 OR DUP7 SSTORE PUSH0 PUSH2 0x571 JUMP JUMPDEST DUP8 MLOAD PUSH4 0xF92EE8A9 PUSH1 0xE0 SHL DUP2 MSTORE DUP6 SWAP1 REVERT JUMPDEST SWAP1 POP ISZERO PUSH0 PUSH2 0x555 JUMP JUMPDEST ADDRESS EXTCODESIZE ISZERO SWAP2 POP PUSH2 0x54D JUMP JUMPDEST DUP8 SWAP2 POP PUSH2 0x543 JUMP JUMPDEST DUP4 DUP3 CALLVALUE PUSH2 0x4D0 JUMPI DUP2 PUSH1 0x3 NOT CALLDATASIZE ADD SLT PUSH2 0x4D0 JUMPI PUSH1 0x20 SWAP1 MLOAD PUSH32 0xDF2547F32AA5F7BD0D10BA8CD1C90409DDFCDCC012C7B9D004FAD2D87C5D84E8 DUP2 MSTORE RETURN JUMPDEST DUP4 DUP3 CALLVALUE PUSH2 0x4D0 JUMPI DUP2 PUSH1 0x3 NOT CALLDATASIZE ADD SLT PUSH2 0x4D0 JUMPI PUSH1 0x2 SLOAD SWAP1 MLOAD PUSH1 0x1 PUSH1 0x1 PUSH1 0xA0 SHL SUB SWAP1 SWAP2 AND DUP2 MSTORE PUSH1 0x20 SWAP1 RETURN JUMPDEST POP CALLVALUE PUSH2 0x47B JUMPI DUP3 PUSH1 0x3 NOT CALLDATASIZE ADD SLT PUSH2 0x47B JUMPI PUSH2 0x704 PUSH32 0x0 PUSH2 0x1246 JUMP JUMPDEST SWAP3 PUSH2 0x72E PUSH32 0x0 PUSH2 0x136A JUMP JUMPDEST SWAP1 DUP3 MLOAD SWAP3 PUSH1 0x20 SWAP3 PUSH1 0x20 DUP6 ADD SWAP6 DUP6 DUP8 LT PUSH8 0xFFFFFFFFFFFFFFFF DUP9 GT OR PUSH2 0x7D5 JUMPI POP SWAP3 PUSH1 0x20 PUSH2 0x78B DUP4 DUP9 SWAP7 PUSH2 0x77E SWAP10 DUP12 SWAP10 SWAP7 MSTORE DUP7 DUP7 MSTORE DUP2 MLOAD SWAP10 DUP11 SWAP10 PUSH1 0xF PUSH1 0xF8 SHL DUP12 MSTORE PUSH1 0xE0 DUP7 DUP13 ADD MSTORE PUSH1 0xE0 DUP12 ADD SWAP1 PUSH2 0xFC2 JUMP JUMPDEST SWAP2 DUP10 DUP4 SUB SWAP1 DUP11 ADD MSTORE PUSH2 0xFC2 JUMP JUMPDEST SWAP3 CHAINID PUSH1 0x60 DUP9 ADD MSTORE ADDRESS PUSH1 0x80 DUP9 ADD MSTORE DUP5 PUSH1 0xA0 DUP9 ADD MSTORE DUP7 DUP5 SUB PUSH1 0xC0 DUP9 ADD MSTORE MLOAD SWAP3 DUP4 DUP2 MSTORE ADD SWAP4 SWAP3 JUMPDEST DUP3 DUP2 LT PUSH2 0x7BE JUMPI POP POP POP POP SUB SWAP1 RETURN JUMPDEST DUP4 MLOAD DUP6 MSTORE DUP7 SWAP6 POP SWAP4 DUP2 ADD SWAP4 SWAP3 DUP2 ADD SWAP3 PUSH1 0x1 ADD PUSH2 0x7AF JUMP JUMPDEST PUSH1 0x41 SWAP1 PUSH4 0x4E487B71 PUSH1 0xE0 SHL PUSH0 MSTORE MSTORE PUSH1 0x24 PUSH0 REVERT JUMPDEST POP CALLVALUE PUSH2 0x47B JUMPI DUP1 PUSH1 0x3 NOT CALLDATASIZE ADD SLT PUSH2 0x47B JUMPI PUSH2 0x801 PUSH2 0xF52 JUMP JUMPDEST PUSH1 0x3 SLOAD PUSH1 0x1 PUSH1 0x1 PUSH1 0xA0 SHL SUB SWAP1 DUP2 AND SWAP2 CALLER DUP4 SWAP1 SUB PUSH2 0x8F4 JUMPI DUP4 MLOAD DUP1 SWAP4 PUSH4 0x8DA5CB5B PUSH1 0xE0 SHL DUP3 MSTORE DUP2 DUP8 PUSH1 0x20 SWAP7 DUP8 SWAP4 GAS STATICCALL SWAP1 DUP2 ISZERO PUSH2 0x8EA JUMPI SWAP2 PUSH2 0x87B SWAP2 DUP6 SWAP4 DUP10 SWAP2 PUSH2 0x8CD JUMPI JUMPDEST POP DUP7 MLOAD PUSH4 0xA9059CBB PUSH1 0xE0 SHL DUP2 MSTORE PUSH1 0x1 PUSH1 0x1 PUSH1 0xA0 SHL SUB SWAP1 SWAP2 AND DUP9 DUP3 ADD SWAP1 DUP2 MSTORE PUSH1 0x24 CALLDATALOAD PUSH1 0x20 DUP3 ADD MSTORE SWAP1 SWAP5 DUP6 SWAP4 DUP5 SWAP3 DUP12 SWAP3 SWAP2 DUP5 SWAP2 PUSH1 0x40 ADD SWAP1 JUMP JUMPDEST SUB SWAP4 AND GAS CALL SWAP2 DUP3 ISZERO PUSH2 0x8C3 JUMPI DUP6 SWAP3 PUSH2 0x8A6 JUMPI JUMPDEST POP POP ISZERO PUSH2 0x899 JUMPI DUP3 DUP1 RETURN JUMPDEST MLOAD PUSH4 0x12171D83 PUSH1 0xE3 SHL DUP2 MSTORE REVERT JUMPDEST PUSH2 0x8BC SWAP3 POP DUP1 RETURNDATASIZE LT PUSH2 0x331 JUMPI PUSH2 0x322 DUP2 DUP4 PUSH2 0x1060 JUMP JUMPDEST PUSH0 DUP1 PUSH2 0x88E JUMP JUMPDEST DUP4 MLOAD RETURNDATASIZE DUP8 DUP3 RETURNDATACOPY RETURNDATASIZE SWAP1 REVERT JUMPDEST PUSH2 0x8E4 SWAP2 POP DUP5 RETURNDATASIZE DUP7 GT PUSH2 0x3A1 JUMPI PUSH2 0x392 DUP2 DUP4 PUSH2 0x1060 JUMP JUMPDEST PUSH0 PUSH2 0x844 JUMP JUMPDEST DUP6 MLOAD RETURNDATASIZE DUP10 DUP3 RETURNDATACOPY RETURNDATASIZE SWAP1 REVERT JUMPDEST POP POP POP MLOAD PUSH4 0x636A157 PUSH1 0xE1 SHL DUP2 MSTORE REVERT JUMPDEST POP SWAP2 SWAP1 CALLVALUE PUSH2 0x404 JUMPI PUSH2 0x140 CALLDATASIZE PUSH1 0x3 NOT ADD SLT PUSH2 0x404 JUMPI DUP1 CALLDATALOAD SWAP3 PUSH2 0x924 PUSH2 0xF68 JUMP JUMPDEST SWAP4 PUSH2 0x92D PUSH2 0xF7E JUMP JUMPDEST PUSH1 0xC4 CALLDATALOAD SWAP4 PUSH1 0x64 CALLDATALOAD SWAP4 PUSH1 0xA4 CALLDATALOAD SWAP3 PUSH1 0x1 PUSH1 0x1 PUSH1 0xA0 SHL SUB SWAP3 SWAP1 DUP4 DUP9 AND SWAP1 DUP2 DUP10 SUB PUSH2 0x404 JUMPI PUSH1 0xE4 CALLDATALOAD SWAP6 DUP6 DUP8 AND DUP8 SUB PUSH2 0x404 JUMPI PUSH8 0xFFFFFFFFFFFFFFFF SWAP2 PUSH2 0x104 CALLDATALOAD DUP4 DUP2 GT PUSH2 0x404 JUMPI PUSH2 0x97D SWAP1 CALLDATASIZE SWAP1 DUP8 ADD PUSH2 0xF94 JUMP JUMPDEST SWAP3 SWAP1 SWAP4 PUSH2 0x124 CALLDATALOAD SWAP1 DUP2 GT PUSH2 0x404 JUMPI PUSH2 0x998 SWAP1 CALLDATASIZE SWAP1 DUP9 ADD PUSH2 0xF94 JUMP JUMPDEST SWAP2 PUSH2 0x9A1 PUSH2 0x1109 JUMP JUMPDEST DUP1 TIMESTAMP GT PUSH2 0xEC4 JUMPI SWAP1 DUP16 SWAP2 DUP14 PUSH2 0x9B7 SWAP5 SWAP4 DUP15 PUSH2 0x114B JUMP JUMPDEST PUSH1 0x3 SLOAD DUP7 MLOAD PUSH4 0x5C975ABB PUSH1 0xE0 SHL DUP2 MSTORE SWAP1 DUP9 AND SWAP9 PUSH1 0x20 SWAP6 SWAP1 SWAP2 DUP7 DUP2 DUP10 DUP2 DUP15 GAS STATICCALL SWAP1 DUP2 ISZERO PUSH2 0xEBA JUMPI PUSH0 SWAP2 PUSH2 0xE9D JUMPI JUMPDEST POP PUSH2 0xE8D JUMPI DUP8 MLOAD SWAP1 PUSH4 0x61771E49 PUSH1 0xE0 SHL DUP3 MSTORE DUP8 DUP3 ADD MSTORE DUP6 DUP2 PUSH1 0x24 DUP2 DUP14 GAS STATICCALL SWAP1 DUP2 ISZERO PUSH2 0xE02 JUMPI PUSH0 SWAP2 PUSH2 0xE70 JUMPI JUMPDEST POP ISZERO PUSH2 0xE60 JUMPI DUP7 MLOAD PUSH4 0x23B872DD PUSH1 0xE0 SHL DUP2 MSTORE CALLER DUP2 DUP9 ADD SWAP1 DUP2 MSTORE ADDRESS PUSH1 0x20 DUP3 ADD MSTORE PUSH1 0x40 DUP2 ADD DUP14 SWAP1 MSTORE SWAP14 SWAP15 SWAP13 SWAP14 SWAP13 DUP10 AND SWAP13 SWAP11 SWAP12 SWAP10 SWAP11 DUP7 SWAP1 DUP3 SWAP1 DUP16 SWAP1 DUP3 SWAP1 PUSH0 SWAP1 DUP3 SWAP1 PUSH1 0x60 ADD SUB SWAP3 GAS CALL SWAP1 DUP2 ISZERO PUSH2 0xE02 JUMPI PUSH0 SWAP2 PUSH2 0xE43 JUMPI JUMPDEST POP ISZERO PUSH2 0xE33 JUMPI DUP7 MLOAD PUSH4 0x95EA7B3 PUSH1 0xE0 SHL DUP2 MSTORE PUSH1 0x1 PUSH1 0x1 PUSH1 0xA0 SHL SUB SWAP1 SWAP2 AND DUP2 DUP8 ADD SWAP1 DUP2 MSTORE PUSH1 0x20 DUP2 ADD DUP11 SWAP1 MSTORE DUP6 SWAP1 DUP3 SWAP1 DUP15 SWAP1 DUP3 SWAP1 PUSH0 SWAP1 DUP3 SWAP1 PUSH1 0x40 ADD SUB SWAP3 GAS CALL DUP1 ISZERO PUSH2 0xE29 JUMPI SWAP1 DUP9 SWAP3 SWAP2 PUSH2 0xE0C JUMPI JUMPDEST POP AND SWAP11 DUP12 SWAP2 DUP7 MLOAD SWAP4 DUP6 DUP6 PUSH1 0x24 DUP2 PUSH4 0x70A08231 PUSH1 0xE0 SHL SWAP8 DUP9 DUP3 MSTORE ADDRESS DUP13 DUP4 ADD MSTORE GAS STATICCALL SWAP5 DUP6 ISZERO PUSH2 0xE02 JUMPI PUSH0 SWAP6 PUSH2 0xDCD JUMPI JUMPDEST POP SWAP2 DUP2 PUSH0 DUP1 SWAP5 DUP2 SWAP5 DUP12 MLOAD SWAP4 DUP5 SWAP3 DUP4 CALLDATACOPY DUP2 ADD DUP3 DUP2 MSTORE SUB SWAP3 GAS CALL RETURNDATASIZE ISZERO PUSH2 0xDC8 JUMPI RETURNDATASIZE PUSH2 0xB05 DUP2 PUSH2 0x109A JUMP JUMPDEST SWAP1 PUSH2 0xB12 DUP9 MLOAD SWAP3 DUP4 PUSH2 0x1060 JUMP JUMPDEST DUP2 MSTORE PUSH0 DUP6 RETURNDATASIZE SWAP3 ADD RETURNDATACOPY JUMPDEST ISZERO PUSH2 0x342 JUMPI DUP5 MLOAD SWAP1 DUP2 MSTORE ADDRESS DUP5 DUP3 ADD MSTORE SWAP1 DUP3 DUP3 PUSH1 0x24 DUP2 DUP15 GAS STATICCALL DUP1 ISZERO PUSH2 0xD7F JUMPI PUSH0 SWAP1 PUSH2 0xD99 JUMPI JUMPDEST PUSH2 0xB4A SWAP3 POP PUSH2 0x10B6 JUMP JUMPDEST SWAP4 PUSH1 0x84 CALLDATALOAD DUP6 LT PUSH2 0xD89 JUMPI DUP4 MLOAD PUSH4 0x24A9D853 PUSH1 0xE0 SHL DUP2 MSTORE DUP3 DUP2 DUP6 DUP2 DUP12 GAS STATICCALL SWAP1 DUP2 ISZERO PUSH2 0xD7F JUMPI PUSH0 SWAP2 PUSH2 0xD50 JUMPI JUMPDEST POP PUSH2 0x2710 PUSH2 0xB86 PUSH2 0xB8E SWAP3 DUP9 PUSH2 0x10D7 JUMP JUMPDEST DIV DUP1 SWAP7 PUSH2 0x10B6 JUMP JUMPDEST SWAP7 DUP1 EXTCODESIZE ISZERO PUSH2 0x404 JUMPI DUP5 MLOAD PUSH4 0x721A50DF PUSH1 0xE1 SHL DUP2 MSTORE DUP5 DUP2 ADD DUP11 SWAP1 MSTORE PUSH0 DUP2 PUSH1 0x24 DUP2 DUP4 DUP7 GAS CALL DUP1 ISZERO PUSH2 0xD46 JUMPI PUSH2 0xD2D JUMPI JUMPDEST POP SWAP1 DUP3 DUP5 SWAP3 DUP7 MLOAD SWAP4 DUP5 DUP1 SWAP3 PUSH4 0xCACCD7F7 PUSH1 0xE0 SHL DUP3 MSTORE GAS STATICCALL SWAP2 DUP3 ISZERO PUSH2 0xD23 JUMPI DUP13 SWAP3 PUSH2 0xD04 JUMPI JUMPDEST POP DUP11 DUP4 DUP14 DUP8 MLOAD SWAP3 DUP4 DUP1 SWAP3 DUP2 PUSH2 0xC19 DUP14 PUSH4 0xA9059CBB PUSH1 0xE0 SHL SWAP11 DUP12 DUP5 MSTORE DUP14 DUP5 ADD PUSH1 0x20 SWAP1 SWAP4 SWAP3 SWAP2 SWAP4 PUSH1 0x40 DUP2 ADD SWAP5 PUSH1 0x1 DUP1 PUSH1 0xA0 SHL SUB AND DUP2 MSTORE ADD MSTORE JUMP JUMPDEST SUB SWAP3 GAS CALL SWAP1 DUP2 ISZERO PUSH2 0xCFA JUMPI DUP14 SWAP2 PUSH2 0xCDD JUMPI JUMPDEST POP ISZERO PUSH2 0x342 JUMPI PUSH1 0x2 SLOAD DUP6 MLOAD SWAP3 DUP4 MSTORE PUSH1 0x1 PUSH1 0x1 PUSH1 0xA0 SHL SUB SWAP2 AND AND DUP4 DUP3 ADD SWAP1 DUP2 MSTORE PUSH1 0x20 DUP2 ADD DUP9 SWAP1 MSTORE DUP3 SWAP1 DUP3 SWAP1 DUP2 SWAP1 SUB PUSH1 0x40 ADD DUP2 DUP15 DUP15 GAS CALL SWAP2 DUP3 ISZERO PUSH2 0xCD3 JUMPI DUP12 SWAP3 PUSH2 0xCB6 JUMPI JUMPDEST POP POP ISZERO PUSH2 0x2FD JUMPI POP MLOAD SWAP2 DUP3 MSTORE PUSH1 0x20 DUP3 ADD SWAP3 SWAP1 SWAP3 MSTORE PUSH1 0x40 DUP2 ADD SWAP2 SWAP1 SWAP2 MSTORE PUSH32 0x743791ED120D099B4C527E3BCEF5A2E69C738C483EDE167D034FB7A031AFA944 SWAP1 DUP1 PUSH1 0x60 DUP2 ADD PUSH2 0x2D3 JUMP JUMPDEST PUSH2 0xCCC SWAP3 POP DUP1 RETURNDATASIZE LT PUSH2 0x331 JUMPI PUSH2 0x322 DUP2 DUP4 PUSH2 0x1060 JUMP JUMPDEST PUSH0 DUP1 PUSH2 0xC6E JUMP JUMPDEST DUP5 MLOAD RETURNDATASIZE DUP14 DUP3 RETURNDATACOPY RETURNDATASIZE SWAP1 REVERT JUMPDEST PUSH2 0xCF4 SWAP2 POP DUP5 RETURNDATASIZE DUP7 GT PUSH2 0x331 JUMPI PUSH2 0x322 DUP2 DUP4 PUSH2 0x1060 JUMP JUMPDEST PUSH0 PUSH2 0xC2B JUMP JUMPDEST DUP7 MLOAD RETURNDATASIZE DUP16 DUP3 RETURNDATACOPY RETURNDATASIZE SWAP1 REVERT JUMPDEST PUSH2 0xD1C SWAP2 SWAP3 POP DUP4 RETURNDATASIZE DUP6 GT PUSH2 0x3A1 JUMPI PUSH2 0x392 DUP2 DUP4 PUSH2 0x1060 JUMP JUMPDEST SWAP1 PUSH0 PUSH2 0xBE1 JUMP JUMPDEST DUP6 MLOAD RETURNDATASIZE DUP15 DUP3 RETURNDATACOPY RETURNDATASIZE SWAP1 REVERT JUMPDEST DUP5 SWAP3 SWAP2 SWAP13 POP PUSH2 0xD3B SWAP1 PUSH2 0x1000 JUMP JUMPDEST DUP3 PUSH0 SWAP13 SWAP2 SWAP3 POP PUSH2 0xBBC JUMP JUMPDEST DUP7 MLOAD RETURNDATASIZE PUSH0 DUP3 RETURNDATACOPY RETURNDATASIZE SWAP1 REVERT JUMPDEST SWAP1 POP DUP3 DUP2 DUP2 RETURNDATASIZE DUP4 GT PUSH2 0xD78 JUMPI JUMPDEST PUSH2 0xD67 DUP2 DUP4 PUSH2 0x1060 JUMP JUMPDEST DUP2 ADD SUB SLT PUSH2 0x404 JUMPI MLOAD PUSH2 0x2710 PUSH2 0xB75 JUMP JUMPDEST POP RETURNDATASIZE PUSH2 0xD5D JUMP JUMPDEST DUP6 MLOAD RETURNDATASIZE PUSH0 DUP3 RETURNDATACOPY RETURNDATASIZE SWAP1 REVERT JUMPDEST DUP4 MLOAD PUSH4 0x8199F5F3 PUSH1 0xE0 SHL DUP2 MSTORE DUP4 SWAP1 REVERT JUMPDEST POP DUP3 DUP3 DUP2 RETURNDATASIZE DUP4 GT PUSH2 0xDC1 JUMPI JUMPDEST PUSH2 0xDAF DUP2 DUP4 PUSH2 0x1060 JUMP JUMPDEST DUP2 ADD SUB SLT PUSH2 0x404 JUMPI PUSH2 0xB4A SWAP2 MLOAD PUSH2 0xB40 JUMP JUMPDEST POP RETURNDATASIZE PUSH2 0xDA5 JUMP JUMPDEST PUSH2 0xB1B JUMP JUMPDEST SWAP2 SWAP3 SWAP1 SWAP5 POP DUP6 DUP3 DUP2 RETURNDATASIZE DUP4 GT PUSH2 0xDFB JUMPI JUMPDEST PUSH2 0xDE7 DUP2 DUP4 PUSH2 0x1060 JUMP JUMPDEST DUP2 ADD SUB SLT PUSH2 0x404 JUMPI SWAP1 MLOAD SWAP4 SWAP1 SWAP2 SWAP1 PUSH0 PUSH2 0xADD JUMP JUMPDEST POP RETURNDATASIZE PUSH2 0xDDD JUMP JUMPDEST DUP9 MLOAD RETURNDATASIZE PUSH0 DUP3 RETURNDATACOPY RETURNDATASIZE SWAP1 REVERT JUMPDEST PUSH2 0xE22 SWAP1 DUP7 RETURNDATASIZE DUP9 GT PUSH2 0x331 JUMPI PUSH2 0x322 DUP2 DUP4 PUSH2 0x1060 JUMP JUMPDEST POP PUSH0 PUSH2 0xAAF JUMP JUMPDEST DUP8 MLOAD RETURNDATASIZE PUSH0 DUP3 RETURNDATACOPY RETURNDATASIZE SWAP1 REVERT JUMPDEST DUP7 MLOAD PUSH4 0x12171D83 PUSH1 0xE3 SHL DUP2 MSTORE DUP7 SWAP1 REVERT JUMPDEST PUSH2 0xE5A SWAP2 POP DUP7 RETURNDATASIZE DUP9 GT PUSH2 0x331 JUMPI PUSH2 0x322 DUP2 DUP4 PUSH2 0x1060 JUMP JUMPDEST PUSH0 PUSH2 0xA63 JUMP JUMPDEST DUP7 MLOAD PUSH4 0xCEC13F7B PUSH1 0xE0 SHL DUP2 MSTORE DUP7 SWAP1 REVERT JUMPDEST PUSH2 0xE87 SWAP2 POP DUP7 RETURNDATASIZE DUP9 GT PUSH2 0x331 JUMPI PUSH2 0x322 DUP2 DUP4 PUSH2 0x1060 JUMP JUMPDEST PUSH0 PUSH2 0xA10 JUMP JUMPDEST DUP8 MLOAD PUSH4 0x34617913 PUSH1 0xE1 SHL DUP2 MSTORE DUP8 SWAP1 REVERT JUMPDEST PUSH2 0xEB4 SWAP2 POP DUP8 RETURNDATASIZE DUP10 GT PUSH2 0x331 JUMPI PUSH2 0x322 DUP2 DUP4 PUSH2 0x1060 JUMP JUMPDEST PUSH0 PUSH2 0x9E4 JUMP JUMPDEST DUP10 MLOAD RETURNDATASIZE PUSH0 DUP3 RETURNDATACOPY RETURNDATASIZE SWAP1 REVERT JUMPDEST DUP9 MLOAD PUSH4 0x664B28B PUSH1 0xE4 SHL DUP2 MSTORE DUP9 SWAP1 REVERT JUMPDEST DUP4 SWAP1 CALLVALUE PUSH2 0x404 JUMPI PUSH1 0x20 CALLDATASIZE PUSH1 0x3 NOT ADD SLT PUSH2 0x404 JUMPI PUSH2 0xEEF PUSH2 0xF52 JUMP JUMPDEST PUSH1 0x3 SLOAD PUSH1 0x1 PUSH1 0x1 PUSH1 0xA0 SHL SUB SWAP3 SWAP1 DUP4 AND CALLER SUB PUSH2 0xF44 JUMPI POP AND SWAP1 DUP2 PUSH12 0xFFFFFFFFFFFFFFFFFFFFFFFF PUSH1 0xA0 SHL DUP3 SLOAD AND OR SWAP1 SSTORE PUSH32 0xF3F625A7D9E02778AFDFDF1BEA978D6565840D408866C70F5D25AADF77021D70 PUSH0 DUP1 LOG2 STOP JUMPDEST PUSH4 0x636A157 PUSH1 0xE1 SHL DUP2 MSTORE DUP4 SWAP1 REVERT JUMPDEST PUSH1 0x4 CALLDATALOAD SWAP1 PUSH1 0x1 PUSH1 0x1 PUSH1 0xA0 SHL SUB DUP3 AND DUP3 SUB PUSH2 0x404 JUMPI JUMP JUMPDEST PUSH1 0x24 CALLDATALOAD SWAP1 PUSH1 0x1 PUSH1 0x1 PUSH1 0xA0 SHL SUB DUP3 AND DUP3 SUB PUSH2 0x404 JUMPI JUMP JUMPDEST PUSH1 0x44 CALLDATALOAD SWAP1 PUSH1 0x1 PUSH1 0x1 PUSH1 0xA0 SHL SUB DUP3 AND DUP3 SUB PUSH2 0x404 JUMPI JUMP JUMPDEST SWAP2 DUP2 PUSH1 0x1F DUP5 ADD SLT ISZERO PUSH2 0x404 JUMPI DUP3 CALLDATALOAD SWAP2 PUSH8 0xFFFFFFFFFFFFFFFF DUP4 GT PUSH2 0x404 JUMPI PUSH1 0x20 DUP4 DUP2 DUP7 ADD SWAP6 ADD ADD GT PUSH2 0x404 JUMPI JUMP JUMPDEST SWAP2 SWAP1 DUP3 MLOAD SWAP3 DUP4 DUP3 MSTORE PUSH0 JUMPDEST DUP5 DUP2 LT PUSH2 0xFEC JUMPI POP POP DUP3 PUSH0 PUSH1 0x20 DUP1 SWAP5 SWAP6 DUP5 ADD ADD MSTORE PUSH1 0x1F DUP1 NOT SWAP2 ADD AND ADD ADD SWAP1 JUMP JUMPDEST PUSH1 0x20 DUP2 DUP4 ADD DUP2 ADD MLOAD DUP5 DUP4 ADD DUP3 ADD MSTORE ADD PUSH2 0xFCC JUMP JUMPDEST PUSH8 0xFFFFFFFFFFFFFFFF DUP2 GT PUSH2 0x1014 JUMPI PUSH1 0x40 MSTORE JUMP JUMPDEST PUSH4 0x4E487B71 PUSH1 0xE0 SHL PUSH0 MSTORE PUSH1 0x41 PUSH1 0x4 MSTORE PUSH1 0x24 PUSH0 REVERT JUMPDEST PUSH1 0xC0 DUP2 ADD SWAP1 DUP2 LT PUSH8 0xFFFFFFFFFFFFFFFF DUP3 GT OR PUSH2 0x1014 JUMPI PUSH1 0x40 MSTORE JUMP JUMPDEST PUSH1 0x40 DUP2 ADD SWAP1 DUP2 LT PUSH8 0xFFFFFFFFFFFFFFFF DUP3 GT OR PUSH2 0x1014 JUMPI PUSH1 0x40 MSTORE JUMP JUMPDEST SWAP1 PUSH1 0x1F DUP1 NOT SWAP2 ADD AND DUP2 ADD SWAP1 DUP2 LT PUSH8 0xFFFFFFFFFFFFFFFF DUP3 GT OR PUSH2 0x1014 JUMPI PUSH1 0x40 MSTORE JUMP JUMPDEST SWAP1 DUP2 PUSH1 0x20 SWAP2 SUB SLT PUSH2 0x404 JUMPI MLOAD DUP1 ISZERO ISZERO DUP2 SUB PUSH2 0x404 JUMPI SWAP1 JUMP JUMPDEST PUSH8 0xFFFFFFFFFFFFFFFF DUP2 GT PUSH2 0x1014 JUMPI PUSH1 0x1F ADD PUSH1 0x1F NOT AND PUSH1 0x20 ADD SWAP1 JUMP JUMPDEST SWAP2 SWAP1 DUP3 SUB SWAP2 DUP3 GT PUSH2 0x10C3 JUMPI JUMP JUMPDEST PUSH4 0x4E487B71 PUSH1 0xE0 SHL PUSH0 MSTORE PUSH1 0x11 PUSH1 0x4 MSTORE PUSH1 0x24 PUSH0 REVERT JUMPDEST DUP2 DUP2 MUL SWAP3 SWAP2 DUP2 ISZERO SWAP2 DUP5 DIV EQ OR ISZERO PUSH2 0x10C3 JUMPI JUMP JUMPDEST SWAP1 DUP2 PUSH1 0x20 SWAP2 SUB SLT PUSH2 0x404 JUMPI MLOAD PUSH1 0x1 PUSH1 0x1 PUSH1 0xA0 SHL SUB DUP2 AND DUP2 SUB PUSH2 0x404 JUMPI SWAP1 JUMP JUMPDEST PUSH32 0x9B779B17422D0DF92223018B32B4D1FA46E071723D6817E2486D003BECC55F00 PUSH1 0x2 DUP2 SLOAD EQ PUSH2 0x1139 JUMPI PUSH1 0x2 SWAP1 SSTORE JUMP JUMPDEST PUSH1 0x40 MLOAD PUSH4 0x3EE5AEB5 PUSH1 0xE0 SHL DUP2 MSTORE PUSH1 0x4 SWAP1 REVERT JUMPDEST PUSH1 0x4 SLOAD PUSH1 0x1 PUSH1 0x1 PUSH1 0xA0 SHL SUB SWAP1 DUP2 AND SWAP7 SWAP1 SWAP6 SWAP1 SWAP5 SWAP1 SWAP4 SWAP3 SWAP1 DUP8 ISZERO PUSH2 0x123C JUMPI PUSH1 0x42 SWAP4 DUP8 PUSH1 0x40 MLOAD SWAP4 PUSH1 0x20 DUP6 ADD SWAP6 PUSH32 0xDF2547F32AA5F7BD0D10BA8CD1C90409DDFCDCC012C7B9D004FAD2D87C5D84E8 DUP8 MSTORE PUSH1 0x40 DUP7 ADD MSTORE AND PUSH1 0x60 DUP5 ADD MSTORE PUSH1 0x80 DUP4 ADD MSTORE PUSH1 0xA0 DUP3 ADD MSTORE PUSH1 0xA0 DUP2 MSTORE PUSH2 0x11BA DUP2 PUSH2 0x1028 JUMP JUMPDEST MLOAD SWAP1 KECCAK256 PUSH2 0x11C5 PUSH2 0x143B JUMP JUMPDEST SWAP1 PUSH1 0x40 MLOAD SWAP2 PUSH2 0x1901 PUSH1 0xF0 SHL DUP4 MSTORE PUSH1 0x2 DUP4 ADD MSTORE PUSH1 0x22 DUP3 ADD MSTORE KECCAK256 PUSH2 0x11E6 DUP4 PUSH2 0x109A JUMP JUMPDEST SWAP1 PUSH2 0x11F4 PUSH1 0x40 MLOAD SWAP3 DUP4 PUSH2 0x1060 JUMP JUMPDEST DUP4 DUP3 MSTORE CALLDATASIZE DUP5 DUP5 ADD GT PUSH2 0x404 JUMPI PUSH0 PUSH1 0x20 DUP6 PUSH2 0x1222 SWAP7 PUSH2 0x1219 SWAP7 DUP4 DUP8 ADD CALLDATACOPY DUP5 ADD ADD MSTORE PUSH2 0x1555 JUMP JUMPDEST SWAP1 SWAP3 SWAP2 SWAP3 PUSH2 0x158F JUMP JUMPDEST AND SUB PUSH2 0x122A JUMPI JUMP JUMPDEST PUSH1 0x40 MLOAD PUSH4 0x8BAA579F PUSH1 0xE0 SHL DUP2 MSTORE PUSH1 0x4 SWAP1 REVERT JUMPDEST POP POP POP POP POP POP POP POP JUMP JUMPDEST PUSH1 0xFF DUP2 EQ PUSH2 0x1284 JUMPI PUSH1 0xFF DUP2 AND SWAP1 PUSH1 0x1F DUP3 GT PUSH2 0x1272 JUMPI PUSH1 0x40 MLOAD SWAP2 PUSH2 0x1268 DUP4 PUSH2 0x1044 JUMP JUMPDEST DUP3 MSTORE PUSH1 0x20 DUP3 ADD MSTORE SWAP1 JUMP JUMPDEST PUSH1 0x40 MLOAD PUSH4 0x2CD44AC3 PUSH1 0xE2 SHL DUP2 MSTORE PUSH1 0x4 SWAP1 REVERT JUMPDEST POP PUSH1 0x40 MLOAD PUSH0 DUP1 SLOAD SWAP1 PUSH1 0x1 SWAP1 DUP3 PUSH1 0x1 SHR PUSH1 0x1 DUP5 AND SWAP3 DUP4 ISZERO PUSH2 0x1360 JUMPI JUMPDEST PUSH1 0x20 SWAP5 DUP6 DUP4 LT DUP6 EQ PUSH2 0x134C JUMPI DUP3 DUP8 MSTORE DUP7 SWAP5 SWAP1 DUP2 ISZERO PUSH2 0x132C JUMPI POP PUSH1 0x1 EQ PUSH2 0x12D1 JUMPI JUMPDEST POP POP PUSH2 0x12CE SWAP3 POP SUB DUP3 PUSH2 0x1060 JUMP JUMPDEST SWAP1 JUMP JUMPDEST PUSH0 DUP1 DUP1 MSTORE PUSH32 0x290DECD9548B62A8D60345A988386FC84BA6BC95484008F6362F93160EF3E563 SWAP6 SWAP4 POP SWAP2 SWAP1 JUMPDEST DUP2 DUP4 LT PUSH2 0x1314 JUMPI POP POP PUSH2 0x12CE SWAP4 POP DUP3 ADD ADD PUSH0 DUP1 PUSH2 0x12C0 JUMP JUMPDEST DUP6 SLOAD DUP8 DUP5 ADD DUP6 ADD MSTORE SWAP5 DUP6 ADD SWAP5 DUP7 SWAP5 POP SWAP2 DUP4 ADD SWAP2 PUSH2 0x12FC JUMP JUMPDEST SWAP2 POP POP PUSH2 0x12CE SWAP5 SWAP3 POP PUSH1 0xFF NOT AND DUP3 DUP5 ADD MSTORE ISZERO ISZERO PUSH1 0x5 SHL DUP3 ADD ADD PUSH0 DUP1 PUSH2 0x12C0 JUMP JUMPDEST PUSH4 0x4E487B71 PUSH1 0xE0 SHL PUSH0 MSTORE PUSH1 0x22 PUSH1 0x4 MSTORE PUSH1 0x24 PUSH0 REVERT JUMPDEST SWAP1 PUSH1 0x7F AND SWAP1 PUSH2 0x129F JUMP JUMPDEST PUSH1 0xFF DUP2 EQ PUSH2 0x138C JUMPI PUSH1 0xFF DUP2 AND SWAP1 PUSH1 0x1F DUP3 GT PUSH2 0x1272 JUMPI PUSH1 0x40 MLOAD SWAP2 PUSH2 0x1268 DUP4 PUSH2 0x1044 JUMP JUMPDEST POP PUSH1 0x40 MLOAD PUSH0 PUSH1 0x1 DUP1 SLOAD SWAP2 DUP3 PUSH1 0x1 SHR PUSH1 0x1 DUP5 AND SWAP3 DUP4 ISZERO PUSH2 0x1431 JUMPI JUMPDEST PUSH1 0x20 SWAP5 DUP6 DUP4 LT DUP6 EQ PUSH2 0x134C JUMPI DUP3 DUP8 MSTORE DUP7 SWAP5 SWAP1 DUP2 ISZERO PUSH2 0x132C JUMPI POP PUSH1 0x1 EQ PUSH2 0x13D4 JUMPI POP POP PUSH2 0x12CE SWAP3 POP SUB DUP3 PUSH2 0x1060 JUMP JUMPDEST SWAP1 SWAP4 SWAP2 POP PUSH1 0x1 PUSH0 MSTORE PUSH32 0xB10E2D527612073B26EECDFD717E6A320CF44B4AFAC2B0732D9FCBE2B7FA0CF6 SWAP4 PUSH0 SWAP2 JUMPDEST DUP2 DUP4 LT PUSH2 0x1419 JUMPI POP POP PUSH2 0x12CE SWAP4 POP DUP3 ADD ADD PUSH0 DUP1 PUSH2 0x12C0 JUMP JUMPDEST DUP6 SLOAD DUP8 DUP5 ADD DUP6 ADD MSTORE SWAP5 DUP6 ADD SWAP5 DUP7 SWAP5 POP SWAP2 DUP4 ADD SWAP2 PUSH2 0x1401 JUMP JUMPDEST SWAP1 PUSH1 0x7F AND SWAP1 PUSH2 0x13A6 JUMP JUMPDEST ADDRESS PUSH32 0x0 PUSH1 0x1 PUSH1 0x1 PUSH1 0xA0 SHL SUB AND EQ DUP1 PUSH2 0x152C JUMPI JUMPDEST ISZERO PUSH2 0x1496 JUMPI PUSH32 0x0 SWAP1 JUMP JUMPDEST PUSH1 0x40 MLOAD PUSH1 0x20 DUP2 ADD SWAP1 PUSH32 0x8B73C3C69BB8FE3D512ECC4CF759CC79239F7B179B0FFACAA9A75D522B39400F DUP3 MSTORE PUSH32 0x0 PUSH1 0x40 DUP3 ADD MSTORE PUSH32 0x0 PUSH1 0x60 DUP3 ADD MSTORE CHAINID PUSH1 0x80 DUP3 ADD MSTORE ADDRESS PUSH1 0xA0 DUP3 ADD MSTORE PUSH1 0xA0 DUP2 MSTORE PUSH2 0x1526 DUP2 PUSH2 0x1028 JUMP JUMPDEST MLOAD SWAP1 KECCAK256 SWAP1 JUMP JUMPDEST POP PUSH32 0x0 CHAINID EQ PUSH2 0x146D JUMP JUMPDEST DUP2 MLOAD SWAP2 SWAP1 PUSH1 0x41 DUP4 SUB PUSH2 0x1585 JUMPI PUSH2 0x157E SWAP3 POP PUSH1 0x20 DUP3 ADD MLOAD SWAP1 PUSH1 0x60 PUSH1 0x40 DUP5 ADD MLOAD SWAP4 ADD MLOAD PUSH0 BYTE SWAP1 PUSH2 0x1612 JUMP JUMPDEST SWAP2 SWAP3 SWAP1 SWAP2 SWAP1 JUMP JUMPDEST POP POP PUSH0 SWAP2 PUSH1 0x2 SWAP2 SWAP1 JUMP JUMPDEST PUSH1 0x4 DUP2 LT ISZERO PUSH2 0x15FE JUMPI DUP1 PUSH2 0x15A1 JUMPI POP POP JUMP JUMPDEST PUSH1 0x1 DUP2 SUB PUSH2 0x15BB JUMPI PUSH1 0x40 MLOAD PUSH4 0xF645EEDF PUSH1 0xE0 SHL DUP2 MSTORE PUSH1 0x4 SWAP1 REVERT JUMPDEST PUSH1 0x2 DUP2 SUB PUSH2 0x15DC JUMPI PUSH1 0x40 MLOAD PUSH4 0xFCE698F7 PUSH1 0xE0 SHL DUP2 MSTORE PUSH1 0x4 DUP2 ADD DUP4 SWAP1 MSTORE PUSH1 0x24 SWAP1 REVERT JUMPDEST PUSH1 0x3 EQ PUSH2 0x15E6 JUMPI POP JUMP JUMPDEST PUSH1 0x24 SWAP1 PUSH1 0x40 MLOAD SWAP1 PUSH4 0x35E2F383 PUSH1 0xE2 SHL DUP3 MSTORE PUSH1 0x4 DUP3 ADD MSTORE REVERT JUMPDEST PUSH4 0x4E487B71 PUSH1 0xE0 SHL PUSH0 MSTORE PUSH1 0x21 PUSH1 0x4 MSTORE PUSH1 0x24 PUSH0 REVERT JUMPDEST SWAP2 SWAP1 PUSH32 0x7FFFFFFFFFFFFFFFFFFFFFFFFFFFFFFF5D576E7357A4501DDFE92F46681B20A0 DUP5 GT PUSH2 0x1694 JUMPI SWAP2 PUSH1 0x20 SWAP4 PUSH1 0x80 SWAP3 PUSH1 0xFF PUSH0 SWAP6 PUSH1 0x40 MLOAD SWAP5 DUP6 MSTORE AND DUP7 DUP5 ADD MSTORE PUSH1 0x40 DUP4 ADD MSTORE PUSH1 0x60 DUP3 ADD MSTORE DUP3 DUP1 MSTORE PUSH1 0x1 GAS STATICCALL ISZERO PUSH2 0x1689 JUMPI PUSH0 MLOAD PUSH1 0x1 PUSH1 0x1 PUSH1 0xA0 SHL SUB DUP2 AND ISZERO PUSH2 0x167F JUMPI SWAP1 PUSH0 SWAP1 PUSH0 SWAP1 JUMP JUMPDEST POP PUSH0 SWAP1 PUSH1 0x1 SWAP1 PUSH0 SWAP1 JUMP JUMPDEST PUSH1 0x40 MLOAD RETURNDATASIZE PUSH0 DUP3 RETURNDATACOPY RETURNDATASIZE SWAP1 REVERT JUMPDEST POP POP POP PUSH0 SWAP2 PUSH1 0x3 SWAP2 SWAP1 JUMP INVALID LOG2 PUSH5 0x6970667358 0x22 SLT KECCAK256 0xD2 0xC5 CODECOPY MLOAD DUP4 0xE9 0xF8 0xD9 0xC1 0xE8 0xA9 0xE8 RETURNDATASIZE 0x25 BLOBHASH PUSH1 0xBD 0x4C PUSH32 0x5C317A3CE8BA3CB762C056673E64736F6C634300081800330000000000000000 "},"methodIdentifiers":{"AUTHORIZED_PAYMENT_TYPEHASH()":"bcc2a046","authorizer()":"d09edf31","eip712Domain()":"84b0196e","factory()":"c45a0155","initialize(address,address,address)":"c0c53b8b","merchantAddress()":"9df8ed43","payDirect(bytes32,address,uint256,uint256,bytes)":"e47c6f3c","payWithSwap(bytes32,address,address,uint256,uint256,uint256,address,address,bytes,bytes)":"0d374224","rescueToken(address,uint256)":"33f3d628","setAuthorizer(address)":"058a628f"}}}}}