{"contracts/MerchantFactory.sol":{"MerchantFactory":{"abi":[{"inputs":[{"internalType":"address","name":"_devAddress","type":"address"},{"internalType":"address","name":"_splitterLogicImpl","type":"address"}],"stateMutability":"nonpayable","type":"constructor"},{"inputs":[],"name":"EnforcedPause","type":"error"},{"inputs":[],"name":"ExpectedPause","type":"error"},{"inputs":[{"internalType":"address","name":"owner","type":"address"}],"name":"OwnableInvalidOwner","type":"error"},{"inputs":[{"internalType":"address","name":"account","type":"address"}],"name":"OwnableUnauthorizedAccount","type":"error"},{"anonymous":false,"inputs":[{"indexed":true,"internalType":"address","name":"newAuthorizer","type":"address"}],"name":"AuthorizerUpdated","type":"event"},{"anonymous":false,"inputs":[{"indexed":true,"internalType":"address","name":"authorizer","type":"address"}],"name":"DefaultAuthorizerSet","type":"event"},{"anonymous":false,"inputs":[{"indexed":true,"internalType":"address","name":"merchant","type":"address"},{"indexed":false,"internalType":"address","name":"cloneAddress","type":"address"}],"name":"MerchantCloneDeployed","type":"event"},{"anonymous":false,"inputs":[{"indexed":true,"internalType":"address","name":"previousOwner","type":"address"},{"indexed":true,"internalType":"address","name":"newOwner","type":"address"}],"name":"OwnershipTransferred","type":"event"},{"anonymous":false,"inputs":[{"indexed":false,"internalType":"address","name":"account","type":"address"}],"name":"Paused","type":"event"},{"anonymous":false,"inputs":[{"indexed":true,"internalType":"bytes32","name":"paymentId","type":"bytes32"},{"indexed":true,"internalType":"address","name":"clone","type":"address"}],"name":"PaymentRecorded","type":"event"},{"anonymous":false,"inputs":[{"indexed":false,"internalType":"address","name":"account","type":"address"}],"name":"Unpaused","type":"event"},{"inputs":[{"internalType":"address","name":"","type":"address"}],"name":"allowedRouters","outputs":[{"internalType":"bool","name":"","type":"bool"}],"stateMutability":"view","type":"function"},{"inputs":[],"name":"authorizer","outputs":[{"internalType":"address","name":"","type":"address"}],"stateMutability":"view","type":"function"},{"inputs":[{"internalType":"address","name":"merchant","type":"address"},{"internalType":"address","name":"_authorizer","type":"address"}],"name":"createMerchantSplitter","outputs":[{"internalType":"address","name":"","type":"address"}],"stateMutability":"nonpayable","type":"function"},{"inputs":[{"internalType":"address","name":"merchant","type":"address"}],"name":"createMerchantSplitter","outputs":[{"internalType":"address","name":"","type":"address"}],"stateMutability":"nonpayable","type":"function"},{"inputs":[],"name":"developerAddress","outputs":[{"internalType":"address","name":"","type":"address"}],"stateMutability":"view","type":"function"},{"inputs":[],"name":"feeBps","outputs":[{"internalType":"uint256","name":"","type":"uint256"}],"stateMutability":"view","type":"function"},{"inputs":[{"internalType":"bytes32","name":"","type":"bytes32"}],"name":"globalProcessedPayments","outputs":[{"internalType":"bool","name":"","type":"bool"}],"stateMutability":"view","type":"function"},{"inputs":[{"internalType":"address","name":"","type":"address"}],"name":"isClone","outputs":[{"internalType":"bool","name":"","type":"bool"}],"stateMutability":"view","type":"function"},{"inputs":[{"internalType":"address","name":"router","type":"address"}],"name":"isRouterAllowed","outputs":[{"internalType":"bool","name":"","type":"bool"}],"stateMutability":"view","type":"function"},{"inputs":[{"internalType":"address","name":"","type":"address"}],"name":"merchantSplitters","outputs":[{"internalType":"address","name":"","type":"address"}],"stateMutability":"view","type":"function"},{"inputs":[],"name":"owner","outputs":[{"internalType":"address","name":"","type":"address"}],"stateMutability":"view","type":"function"},{"inputs":[],"name":"pause","outputs":[],"stateMutability":"nonpayable","type":"function"},{"inputs":[],"name":"paused","outputs":[{"internalType":"bool","name":"","type":"bool"}],"stateMutability":"view","type":"function"},{"inputs":[{"internalType":"bytes32","name":"paymentId","type":"bytes32"}],"name":"recordPayment","outputs":[],"stateMutability":"nonpayable","type":"function"},{"inputs":[],"name":"renounceOwnership","outputs":[],"stateMutability":"nonpayable","type":"function"},{"inputs":[{"internalType":"address","name":"clone","type":"address"},{"internalType":"address","name":"token","type":"address"},{"internalType":"uint256","name":"amount","type":"uint256"}],"name":"rescueTokenFromClone","outputs":[],"stateMutability":"nonpayable","type":"function"},{"inputs":[{"internalType":"address","name":"_newAuthorizer","type":"address"}],"name":"setAuthorizer","outputs":[],"stateMutability":"nonpayable","type":"function"},{"inputs":[{"internalType":"address","name":"_newDev","type":"address"}],"name":"setDeveloperAddress","outputs":[],"stateMutability":"nonpayable","type":"function"},{"inputs":[{"internalType":"uint256","name":"_bps","type":"uint256"}],"name":"setFeeBps","outputs":[],"stateMutability":"nonpayable","type":"function"},{"inputs":[],"name":"splitterLogicImpl","outputs":[{"internalType":"address","name":"","type":"address"}],"stateMutability":"view","type":"function"},{"inputs":[{"internalType":"address","name":"router","type":"address"},{"internalType":"bool","name":"status","type":"bool"}],"name":"toggleRouterAllowlist","outputs":[],"stateMutability":"nonpayable","type":"function"},{"inputs":[{"internalType":"address","name":"newOwner","type":"address"}],"name":"transferOwnership","outputs":[],"stateMutability":"nonpayable","type":"function"},{"inputs":[],"name":"unpause","outputs":[],"stateMutability":"nonpayable","type":"function"},{"inputs":[{"internalType":"address","name":"clone","type":"address"},{"internalType":"address","name":"_newAuthorizer","type":"address"}],"name":"updateCloneAuthorizer","outputs":[],"stateMutability":"nonpayable","type":"function"}],"evm":{"bytecode":{"linkReferences":{},"object":"6080346101b157610eb190601f38839003908101601f19168201906001600160401b038211838310176101b557808391604095869485528339810103126101b157610055602061004e836101c9565b92016101c9565b331561019a575f549060018060a01b03908160018060a01b03199433868616175f55865194823391167f8be0079c531659141344cd1fd0a4f28419497f9722a3daafe3b4186f6b6457e05f80a3600a60025516928315610158575016908115610106578260015416176001558160035416176003553390600454161760045551337edf7d8d0088b4dec0a2f0541dcba27d872a7f66af9823586edbfb14fbf612cd195f80a2610cd390816101de8239f35b835162461bcd60e51b815260206004820152602560248201527f496e76616c69642073706c6974746572206c6f67696320696d706c656d656e7460448201526430ba34b7b760d91b6064820152608490fd5b62461bcd60e51b815260206004820152601360248201527f496e76616c6964206465762061646472657373000000000000000000000000006044820152606490fd5b8251631e4fbdf760e01b81525f6004820152602490fd5b5f80fd5b634e487b7160e01b5f52604160045260245ffd5b51906001600160a01b03821682036101b15756fe60806040818152600480361015610014575f80fd5b5f925f3560e01c908162ae367614610baa57508063058a628f14610b4457806309b6f17114610af257806324a9d85314610ad457806337c68b88146108de5780633ab4b4861461070a5780633f4ba83a1461069c578063569f8cc8146105ff578063599dec68146105c45780635c975abb1461059f57806361771e491461034b578063715018a61461054657806372c27b62146105245783816373574dc114610478575080638456cb59146104065780638918c79e146103dd5780638da5cb5b146103b55780639aba6a0f14610389578063c646aee21461034b578063caccd7f71461031e578063d09edf31146102f7578063dcc345f2146102b4578063e434a1be146101b45763f2fde38b14610129575f80fd5b346101b05760203660031901126101b057610142610be4565b9061014b610c72565b6001600160a01b0391821692831561019a5750505f54826001600160601b0360a01b8216175f55167f8be0079c531659141344cd1fd0a4f28419497f9722a3daafe3b4186f6b6457e05f80a380f35b51631e4fbdf760e01b8152908101849052602490fd5b8280fd5b5090346101b0576020806003193601126102b0578235923385526008825260ff83862054161561026f578385526007825260ff838620541661022e5750828452600790528220805460ff1916600117905533907febb18213729c3514545a9d3b006562b40260966f12fdbc49240a271a1e30b94b8380a380f35b915162461bcd60e51b815291820152601960248201527f5061796d656e7420616c72656164792070726f636573736564000000000000006044820152606490fd5b915162461bcd60e51b815291820181905260248201527f43616c6c6572206973206e6f742061207265676973746572656420636c6f6e656044820152606490fd5b8380fd5b83346102f45760203660031901126102f4576102ce610be4565b6102d6610c72565b60018060a01b03166001600160601b0360a01b600154161760015580f35b80fd5b50346101b057826003193601126101b0575490516001600160a01b03909116815260209150f35b50503461034757816003193601126103475760015490516001600160a01b039091168152602090f35b5080fd5b5050346103475760203660031901126103475760209160ff9082906001600160a01b03610376610be4565b1681526005855220541690519015158152f35b50346101b05760203660031901126101b0578160209360ff923581526007855220541690519015158152f35b505034610347578160031936011261034757905490516001600160a01b039091168152602090f35b50503461034757816003193601126103475760035490516001600160a01b039091168152602090f35b50346101b057826003193601126101b05761041f610c72565b82549060ff8260a01c1661046a575060ff60a01b1916600160a01b178255513381527f62e78cea01bee320cd4e420270b5ea74000d11b0c9f74754ebdbfc544b05a25890602090a180f35b825163d93c066560e01b8152fd5b9290503461052057606036600319011261052057610494610be4565b61049c610bfa565b906104a5610c72565b6001600160a01b039081168086526008602052838620546104c89060ff16610c38565b803b1561051c578592836044928651978895869463067e7ac560e31b86521690840152833560248401525af190811561051357506105035750f35b61050c90610c10565b6102f45780f35b513d84823e3d90fd5b8580fd5b5050fd5b8382346103475760203660031901126103475761053f610c72565b3560025580f35b83346102f457806003193601126102f45761055f610c72565b5f80546001600160a01b0319811682556001600160a01b03167f8be0079c531659141344cd1fd0a4f28419497f9722a3daafe3b4186f6b6457e08280a380f35b50503461034757816003193601126103475760ff6020925460a01c1690519015158152f35b505034610347576020366003190112610347576020916001600160a01b03908290826105ee610be4565b168152600685522054169051908152f35b509034610698578060031936011261069857610619610be4565b610621610bfa565b9061062a610c72565b6001600160a01b039081165f81815260086020528490205461064e9060ff16610c38565b803b15610698575f92836024928651978895869463058a628f60e01b865216908401525af190811561068f5750610683575080f35b61068d9150610c10565b005b513d5f823e3d90fd5b5f80fd5b509034610698575f366003190112610698576106b6610c72565b5f549160ff8360a01c16156106fc5760ff60a01b1983165f5581513381527f5db9ee0a495bf2e6ff9c91a7834c1ba4fdd244a5e8aa4e537bd38aeae4b073aa90602090a1005b9051638dfc202b60e01b8152fd5b50346106985760209182600319360112610698576001600160a01b039182610730610be4565b1690815f526006855283835f20541661089b576003548351733d602d80600a3d3981f3363d3d373d3d3d363d7360601b815260609190911b6bffffffffffffffffffffffff191660148201526e5af43d82803e903d91602b57fd5bf360881b6028820152936037855ff081603787019182875216958615610861575050815416843b1561069857835163c0c53b8b60e01b815291820183905230602483015260448201525f8160648183885af1801561085757610848575b50805f5260068452815f20836001600160601b0360a01b825416179055825f5260088452815f20600160ff198254161790557fc1f9d081289e627d16e20e8ce42a4f26358883fdd78c0ea20ac02134c20320ae848351858152a251908152f35b61085190610c10565b846107e8565b83513d5f823e3d90fd5b9075115490cc4c4d8dce8818dc99585d194819985a5b195960521b607b6064938a62461bcd60e51b8552603b8201526016605b8201520152fd5b825162461bcd60e51b8152908101859052601c60248201527f4d65726368616e7420616c726561647920686173206120636c6f6e65000000006044820152606490fd5b50346106985781600319360112610698576108f7610be4565b91610900610bfa565b915f60018060a01b0380951691825f526020956006875280855f205416610a91576003548551733d602d80600a3d3981f3363d3d373d3d3d363d7360601b815260609190911b6bffffffffffffffffffffffff191660148201526e5af43d82803e903d91602b57fd5bf360881b6028820152956037875ff082603789019182895216978815610a5757505080821615610a4d575b863b1561069857855163c0c53b8b60e01b81529283018590523060248401521660448201525f8160648183895af18015610a435790849291610a2f575b508281526006865281812080546001600160a01b031916861790558481526008865220805460ff1916600117905581518381527fc1f9d081289e627d16e20e8ce42a4f26358883fdd78c0ea20ac02134c20320ae908590a251908152f35b9050610a3b9150610c10565b815f866109d1565b84513d5f823e3d90fd5b5080825416610994565b9075115490cc4c4d8dce8818dc99585d194819985a5b195960521b607b6064938c62461bcd60e51b8552603b8201526016605b8201520152fd5b845162461bcd60e51b8152808301889052601c60248201527f4d65726368616e7420616c726561647920686173206120636c6f6e65000000006044820152606490fd5b8234610698575f366003190112610698576020906002549051908152f35b8234610698578060031936011261069857610b0b610be4565b906024359182151580930361069857610b22610c72565b60018060a01b03165f5260056020525f209060ff801983541691161790555f80f35b503461069857602036600319011261069857610b5e610be4565b610b66610c72565b81546001600160a01b0319166001600160a01b03919091169081179091557ff3f625a7d9e02778afdfdf1bea978d6565840d408866c70f5d25aadf77021d705f80a2005b8390346106985760203660031901126106985760209160ff906001600160a01b03610bd3610be4565b165f52600884525f20541615158152f35b600435906001600160a01b038216820361069857565b602435906001600160a01b038216820361069857565b67ffffffffffffffff8111610c2457604052565b634e487b7160e01b5f52604160045260245ffd5b15610c3f57565b60405162461bcd60e51b815260206004820152600b60248201526a4e6f74206120636c6f6e6560a81b6044820152606490fd5b5f546001600160a01b03163303610c8557565b60405163118cdaa760e01b8152336004820152602490fdfea2646970667358221220113b0d6821ee70be6a50a58b1dfc52c058cb09edae22f55917091606a11fbb2d64736f6c63430008180033","opcodes":"PUSH1 0x80 CALLVALUE PUSH2 0x1B1 JUMPI PUSH2 0xEB1 SWAP1 PUSH1 0x1F CODESIZE DUP4 SWAP1 SUB SWAP1 DUP2 ADD PUSH1 0x1F NOT AND DUP3 ADD SWAP1 PUSH1 0x1 PUSH1 0x1 PUSH1 0x40 SHL SUB DUP3 GT DUP4 DUP4 LT OR PUSH2 0x1B5 JUMPI DUP1 DUP4 SWAP2 PUSH1 0x40 SWAP6 DUP7 SWAP5 DUP6 MSTORE DUP4 CODECOPY DUP2 ADD SUB SLT PUSH2 0x1B1 JUMPI PUSH2 0x55 PUSH1 0x20 PUSH2 0x4E DUP4 PUSH2 0x1C9 JUMP JUMPDEST SWAP3 ADD PUSH2 0x1C9 JUMP JUMPDEST CALLER ISZERO PUSH2 0x19A JUMPI PUSH0 SLOAD SWAP1 PUSH1 0x1 DUP1 PUSH1 0xA0 SHL SUB SWAP1 DUP2 PUSH1 0x1 DUP1 PUSH1 0xA0 SHL SUB NOT SWAP5 CALLER DUP7 DUP7 AND OR PUSH0 SSTORE DUP7 MLOAD SWAP5 DUP3 CALLER SWAP2 AND PUSH32 0x8BE0079C531659141344CD1FD0A4F28419497F9722A3DAAFE3B4186F6B6457E0 PUSH0 DUP1 LOG3 PUSH1 0xA PUSH1 0x2 SSTORE AND SWAP3 DUP4 ISZERO PUSH2 0x158 JUMPI POP AND SWAP1 DUP2 ISZERO PUSH2 0x106 JUMPI DUP3 PUSH1 0x1 SLOAD AND OR PUSH1 0x1 SSTORE DUP2 PUSH1 0x3 SLOAD AND OR PUSH1 0x3 SSTORE CALLER SWAP1 PUSH1 0x4 SLOAD AND OR PUSH1 0x4 SSTORE MLOAD CALLER PUSH31 0xDF7D8D0088B4DEC0A2F0541DCBA27D872A7F66AF9823586EDBFB14FBF612CD NOT PUSH0 DUP1 LOG2 PUSH2 0xCD3 SWAP1 DUP2 PUSH2 0x1DE DUP3 CODECOPY RETURN JUMPDEST DUP4 MLOAD PUSH3 0x461BCD PUSH1 0xE5 SHL DUP2 MSTORE PUSH1 0x20 PUSH1 0x4 DUP3 ADD MSTORE PUSH1 0x25 PUSH1 0x24 DUP3 ADD MSTORE PUSH32 0x496E76616C69642073706C6974746572206C6F67696320696D706C656D656E74 PUSH1 0x44 DUP3 ADD MSTORE PUSH5 0x30BA34B7B7 PUSH1 0xD9 SHL PUSH1 0x64 DUP3 ADD MSTORE PUSH1 0x84 SWAP1 REVERT JUMPDEST PUSH3 0x461BCD PUSH1 0xE5 SHL DUP2 MSTORE PUSH1 0x20 PUSH1 0x4 DUP3 ADD MSTORE PUSH1 0x13 PUSH1 0x24 DUP3 ADD MSTORE PUSH32 0x496E76616C696420646576206164647265737300000000000000000000000000 PUSH1 0x44 DUP3 ADD MSTORE PUSH1 0x64 SWAP1 REVERT JUMPDEST DUP3 MLOAD PUSH4 0x1E4FBDF7 PUSH1 0xE0 SHL DUP2 MSTORE PUSH0 PUSH1 0x4 DUP3 ADD MSTORE PUSH1 0x24 SWAP1 REVERT JUMPDEST PUSH0 DUP1 REVERT JUMPDEST PUSH4 0x4E487B71 PUSH1 0xE0 SHL PUSH0 MSTORE PUSH1 0x41 PUSH1 0x4 MSTORE PUSH1 0x24 PUSH0 REVERT JUMPDEST MLOAD SWAP1 PUSH1 0x1 PUSH1 0x1 PUSH1 0xA0 SHL SUB DUP3 AND DUP3 SUB PUSH2 0x1B1 JUMPI JUMP INVALID PUSH1 0x80 PUSH1 0x40 DUP2 DUP2 MSTORE PUSH1 0x4 DUP1 CALLDATASIZE LT ISZERO PUSH2 0x14 JUMPI PUSH0 DUP1 REVERT JUMPDEST PUSH0 SWAP3 PUSH0 CALLDATALOAD PUSH1 0xE0 SHR SWAP1 DUP2 PUSH3 0xAE3676 EQ PUSH2 0xBAA JUMPI POP DUP1 PUSH4 0x58A628F EQ PUSH2 0xB44 JUMPI DUP1 PUSH4 0x9B6F171 EQ PUSH2 0xAF2 JUMPI DUP1 PUSH4 0x24A9D853 EQ PUSH2 0xAD4 JUMPI DUP1 PUSH4 0x37C68B88 EQ PUSH2 0x8DE JUMPI DUP1 PUSH4 0x3AB4B486 EQ PUSH2 0x70A JUMPI DUP1 PUSH4 0x3F4BA83A EQ PUSH2 0x69C JUMPI DUP1 PUSH4 0x569F8CC8 EQ PUSH2 0x5FF JUMPI DUP1 PUSH4 0x599DEC68 EQ PUSH2 0x5C4 JUMPI DUP1 PUSH4 0x5C975ABB EQ PUSH2 0x59F JUMPI DUP1 PUSH4 0x61771E49 EQ PUSH2 0x34B JUMPI DUP1 PUSH4 0x715018A6 EQ PUSH2 0x546 JUMPI DUP1 PUSH4 0x72C27B62 EQ PUSH2 0x524 JUMPI DUP4 DUP2 PUSH4 0x73574DC1 EQ PUSH2 0x478 JUMPI POP DUP1 PUSH4 0x8456CB59 EQ PUSH2 0x406 JUMPI DUP1 PUSH4 0x8918C79E EQ PUSH2 0x3DD JUMPI DUP1 PUSH4 0x8DA5CB5B EQ PUSH2 0x3B5 JUMPI DUP1 PUSH4 0x9ABA6A0F EQ PUSH2 0x389 JUMPI DUP1 PUSH4 0xC646AEE2 EQ PUSH2 0x34B JUMPI DUP1 PUSH4 0xCACCD7F7 EQ PUSH2 0x31E JUMPI DUP1 PUSH4 0xD09EDF31 EQ PUSH2 0x2F7 JUMPI DUP1 PUSH4 0xDCC345F2 EQ PUSH2 0x2B4 JUMPI DUP1 PUSH4 0xE434A1BE EQ PUSH2 0x1B4 JUMPI PUSH4 0xF2FDE38B EQ PUSH2 0x129 JUMPI PUSH0 DUP1 REVERT JUMPDEST CALLVALUE PUSH2 0x1B0 JUMPI PUSH1 0x20 CALLDATASIZE PUSH1 0x3 NOT ADD SLT PUSH2 0x1B0 JUMPI PUSH2 0x142 PUSH2 0xBE4 JUMP JUMPDEST SWAP1 PUSH2 0x14B PUSH2 0xC72 JUMP JUMPDEST PUSH1 0x1 PUSH1 0x1 PUSH1 0xA0 SHL SUB SWAP2 DUP3 AND SWAP3 DUP4 ISZERO PUSH2 0x19A JUMPI POP POP PUSH0 SLOAD DUP3 PUSH1 0x1 PUSH1 0x1 PUSH1 0x60 SHL SUB PUSH1 0xA0 SHL DUP3 AND OR PUSH0 SSTORE AND PUSH32 0x8BE0079C531659141344CD1FD0A4F28419497F9722A3DAAFE3B4186F6B6457E0 PUSH0 DUP1 LOG3 DUP1 RETURN JUMPDEST MLOAD PUSH4 0x1E4FBDF7 PUSH1 0xE0 SHL DUP2 MSTORE SWAP1 DUP2 ADD DUP5 SWAP1 MSTORE PUSH1 0x24 SWAP1 REVERT JUMPDEST DUP3 DUP1 REVERT JUMPDEST POP SWAP1 CALLVALUE PUSH2 0x1B0 JUMPI PUSH1 0x20 DUP1 PUSH1 0x3 NOT CALLDATASIZE ADD SLT PUSH2 0x2B0 JUMPI DUP3 CALLDATALOAD SWAP3 CALLER DUP6 MSTORE PUSH1 0x8 DUP3 MSTORE PUSH1 0xFF DUP4 DUP7 KECCAK256 SLOAD AND ISZERO PUSH2 0x26F JUMPI DUP4 DUP6 MSTORE PUSH1 0x7 DUP3 MSTORE PUSH1 0xFF DUP4 DUP7 KECCAK256 SLOAD AND PUSH2 0x22E JUMPI POP DUP3 DUP5 MSTORE PUSH1 0x7 SWAP1 MSTORE DUP3 KECCAK256 DUP1 SLOAD PUSH1 0xFF NOT AND PUSH1 0x1 OR SWAP1 SSTORE CALLER SWAP1 PUSH32 0xEBB18213729C3514545A9D3B006562B40260966F12FDBC49240A271A1E30B94B DUP4 DUP1 LOG3 DUP1 RETURN JUMPDEST SWAP2 MLOAD PUSH3 0x461BCD PUSH1 0xE5 SHL DUP2 MSTORE SWAP2 DUP3 ADD MSTORE PUSH1 0x19 PUSH1 0x24 DUP3 ADD MSTORE PUSH32 0x5061796D656E7420616C72656164792070726F63657373656400000000000000 PUSH1 0x44 DUP3 ADD MSTORE PUSH1 0x64 SWAP1 REVERT JUMPDEST SWAP2 MLOAD PUSH3 0x461BCD PUSH1 0xE5 SHL DUP2 MSTORE SWAP2 DUP3 ADD DUP2 SWAP1 MSTORE PUSH1 0x24 DUP3 ADD MSTORE PUSH32 0x43616C6C6572206973206E6F742061207265676973746572656420636C6F6E65 PUSH1 0x44 DUP3 ADD MSTORE PUSH1 0x64 SWAP1 REVERT JUMPDEST DUP4 DUP1 REVERT JUMPDEST DUP4 CALLVALUE PUSH2 0x2F4 JUMPI PUSH1 0x20 CALLDATASIZE PUSH1 0x3 NOT ADD SLT PUSH2 0x2F4 JUMPI PUSH2 0x2CE PUSH2 0xBE4 JUMP JUMPDEST PUSH2 0x2D6 PUSH2 0xC72 JUMP JUMPDEST PUSH1 0x1 DUP1 PUSH1 0xA0 SHL SUB AND PUSH1 0x1 PUSH1 0x1 PUSH1 0x60 SHL SUB PUSH1 0xA0 SHL PUSH1 0x1 SLOAD AND OR PUSH1 0x1 SSTORE DUP1 RETURN JUMPDEST DUP1 REVERT JUMPDEST POP CALLVALUE PUSH2 0x1B0 JUMPI DUP3 PUSH1 0x3 NOT CALLDATASIZE ADD SLT PUSH2 0x1B0 JUMPI SLOAD SWAP1 MLOAD PUSH1 0x1 PUSH1 0x1 PUSH1 0xA0 SHL SUB SWAP1 SWAP2 AND DUP2 MSTORE PUSH1 0x20 SWAP2 POP RETURN JUMPDEST POP POP CALLVALUE PUSH2 0x347 JUMPI DUP2 PUSH1 0x3 NOT CALLDATASIZE ADD SLT PUSH2 0x347 JUMPI PUSH1 0x1 SLOAD SWAP1 MLOAD PUSH1 0x1 PUSH1 0x1 PUSH1 0xA0 SHL SUB SWAP1 SWAP2 AND DUP2 MSTORE PUSH1 0x20 SWAP1 RETURN JUMPDEST POP DUP1 REVERT JUMPDEST POP POP CALLVALUE PUSH2 0x347 JUMPI PUSH1 0x20 CALLDATASIZE PUSH1 0x3 NOT ADD SLT PUSH2 0x347 JUMPI PUSH1 0x20 SWAP2 PUSH1 0xFF SWAP1 DUP3 SWAP1 PUSH1 0x1 PUSH1 0x1 PUSH1 0xA0 SHL SUB PUSH2 0x376 PUSH2 0xBE4 JUMP JUMPDEST AND DUP2 MSTORE PUSH1 0x5 DUP6 MSTORE KECCAK256 SLOAD AND SWAP1 MLOAD SWAP1 ISZERO ISZERO DUP2 MSTORE RETURN JUMPDEST POP CALLVALUE PUSH2 0x1B0 JUMPI PUSH1 0x20 CALLDATASIZE PUSH1 0x3 NOT ADD SLT PUSH2 0x1B0 JUMPI DUP2 PUSH1 0x20 SWAP4 PUSH1 0xFF SWAP3 CALLDATALOAD DUP2 MSTORE PUSH1 0x7 DUP6 MSTORE KECCAK256 SLOAD AND SWAP1 MLOAD SWAP1 ISZERO ISZERO DUP2 MSTORE RETURN JUMPDEST POP POP CALLVALUE PUSH2 0x347 JUMPI DUP2 PUSH1 0x3 NOT CALLDATASIZE ADD SLT PUSH2 0x347 JUMPI SWAP1 SLOAD SWAP1 MLOAD PUSH1 0x1 PUSH1 0x1 PUSH1 0xA0 SHL SUB SWAP1 SWAP2 AND DUP2 MSTORE PUSH1 0x20 SWAP1 RETURN JUMPDEST POP POP CALLVALUE PUSH2 0x347 JUMPI DUP2 PUSH1 0x3 NOT CALLDATASIZE ADD SLT PUSH2 0x347 JUMPI PUSH1 0x3 SLOAD SWAP1 MLOAD PUSH1 0x1 PUSH1 0x1 PUSH1 0xA0 SHL SUB SWAP1 SWAP2 AND DUP2 MSTORE PUSH1 0x20 SWAP1 RETURN JUMPDEST POP CALLVALUE PUSH2 0x1B0 JUMPI DUP3 PUSH1 0x3 NOT CALLDATASIZE ADD SLT PUSH2 0x1B0 JUMPI PUSH2 0x41F PUSH2 0xC72 JUMP JUMPDEST DUP3 SLOAD SWAP1 PUSH1 0xFF DUP3 PUSH1 0xA0 SHR AND PUSH2 0x46A JUMPI POP PUSH1 0xFF PUSH1 0xA0 SHL NOT AND PUSH1 0x1 PUSH1 0xA0 SHL OR DUP3 SSTORE MLOAD CALLER DUP2 MSTORE PUSH32 0x62E78CEA01BEE320CD4E420270B5EA74000D11B0C9F74754EBDBFC544B05A258 SWAP1 PUSH1 0x20 SWAP1 LOG1 DUP1 RETURN JUMPDEST DUP3 MLOAD PUSH4 0xD93C0665 PUSH1 0xE0 SHL DUP2 MSTORE REVERT JUMPDEST SWAP3 SWAP1 POP CALLVALUE PUSH2 0x520 JUMPI PUSH1 0x60 CALLDATASIZE PUSH1 0x3 NOT ADD SLT PUSH2 0x520 JUMPI PUSH2 0x494 PUSH2 0xBE4 JUMP JUMPDEST PUSH2 0x49C PUSH2 0xBFA JUMP JUMPDEST SWAP1 PUSH2 0x4A5 PUSH2 0xC72 JUMP JUMPDEST PUSH1 0x1 PUSH1 0x1 PUSH1 0xA0 SHL SUB SWAP1 DUP2 AND DUP1 DUP7 MSTORE PUSH1 0x8 PUSH1 0x20 MSTORE DUP4 DUP7 KECCAK256 SLOAD PUSH2 0x4C8 SWAP1 PUSH1 0xFF AND PUSH2 0xC38 JUMP JUMPDEST DUP1 EXTCODESIZE ISZERO PUSH2 0x51C JUMPI DUP6 SWAP3 DUP4 PUSH1 0x44 SWAP3 DUP7 MLOAD SWAP8 DUP9 SWAP6 DUP7 SWAP5 PUSH4 0x67E7AC5 PUSH1 0xE3 SHL DUP7 MSTORE AND SWAP1 DUP5 ADD MSTORE DUP4 CALLDATALOAD PUSH1 0x24 DUP5 ADD MSTORE GAS CALL SWAP1 DUP2 ISZERO PUSH2 0x513 JUMPI POP PUSH2 0x503 JUMPI POP RETURN JUMPDEST PUSH2 0x50C SWAP1 PUSH2 0xC10 JUMP JUMPDEST PUSH2 0x2F4 JUMPI DUP1 RETURN JUMPDEST MLOAD RETURNDATASIZE DUP5 DUP3 RETURNDATACOPY RETURNDATASIZE SWAP1 REVERT JUMPDEST DUP6 DUP1 REVERT JUMPDEST POP POP REVERT JUMPDEST DUP4 DUP3 CALLVALUE PUSH2 0x347 JUMPI PUSH1 0x20 CALLDATASIZE PUSH1 0x3 NOT ADD SLT PUSH2 0x347 JUMPI PUSH2 0x53F PUSH2 0xC72 JUMP JUMPDEST CALLDATALOAD PUSH1 0x2 SSTORE DUP1 RETURN JUMPDEST DUP4 CALLVALUE PUSH2 0x2F4 JUMPI DUP1 PUSH1 0x3 NOT CALLDATASIZE ADD SLT PUSH2 0x2F4 JUMPI PUSH2 0x55F PUSH2 0xC72 JUMP JUMPDEST PUSH0 DUP1 SLOAD PUSH1 0x1 PUSH1 0x1 PUSH1 0xA0 SHL SUB NOT DUP2 AND DUP3 SSTORE PUSH1 0x1 PUSH1 0x1 PUSH1 0xA0 SHL SUB AND PUSH32 0x8BE0079C531659141344CD1FD0A4F28419497F9722A3DAAFE3B4186F6B6457E0 DUP3 DUP1 LOG3 DUP1 RETURN JUMPDEST POP POP CALLVALUE PUSH2 0x347 JUMPI DUP2 PUSH1 0x3 NOT CALLDATASIZE ADD SLT PUSH2 0x347 JUMPI PUSH1 0xFF PUSH1 0x20 SWAP3 SLOAD PUSH1 0xA0 SHR AND SWAP1 MLOAD SWAP1 ISZERO ISZERO DUP2 MSTORE RETURN JUMPDEST POP POP CALLVALUE PUSH2 0x347 JUMPI PUSH1 0x20 CALLDATASIZE PUSH1 0x3 NOT ADD SLT PUSH2 0x347 JUMPI PUSH1 0x20 SWAP2 PUSH1 0x1 PUSH1 0x1 PUSH1 0xA0 SHL SUB SWAP1 DUP3 SWAP1 DUP3 PUSH2 0x5EE PUSH2 0xBE4 JUMP JUMPDEST AND DUP2 MSTORE PUSH1 0x6 DUP6 MSTORE KECCAK256 SLOAD AND SWAP1 MLOAD SWAP1 DUP2 MSTORE RETURN JUMPDEST POP SWAP1 CALLVALUE PUSH2 0x698 JUMPI DUP1 PUSH1 0x3 NOT CALLDATASIZE ADD SLT PUSH2 0x698 JUMPI PUSH2 0x619 PUSH2 0xBE4 JUMP JUMPDEST PUSH2 0x621 PUSH2 0xBFA JUMP JUMPDEST SWAP1 PUSH2 0x62A PUSH2 0xC72 JUMP JUMPDEST PUSH1 0x1 PUSH1 0x1 PUSH1 0xA0 SHL SUB SWAP1 DUP2 AND PUSH0 DUP2 DUP2 MSTORE PUSH1 0x8 PUSH1 0x20 MSTORE DUP5 SWAP1 KECCAK256 SLOAD PUSH2 0x64E SWAP1 PUSH1 0xFF AND PUSH2 0xC38 JUMP JUMPDEST DUP1 EXTCODESIZE ISZERO PUSH2 0x698 JUMPI PUSH0 SWAP3 DUP4 PUSH1 0x24 SWAP3 DUP7 MLOAD SWAP8 DUP9 SWAP6 DUP7 SWAP5 PUSH4 0x58A628F PUSH1 0xE0 SHL DUP7 MSTORE AND SWAP1 DUP5 ADD MSTORE GAS CALL SWAP1 DUP2 ISZERO PUSH2 0x68F JUMPI POP PUSH2 0x683 JUMPI POP DUP1 RETURN JUMPDEST PUSH2 0x68D SWAP2 POP PUSH2 0xC10 JUMP JUMPDEST STOP JUMPDEST MLOAD RETURNDATASIZE PUSH0 DUP3 RETURNDATACOPY RETURNDATASIZE SWAP1 REVERT JUMPDEST PUSH0 DUP1 REVERT JUMPDEST POP SWAP1 CALLVALUE PUSH2 0x698 JUMPI PUSH0 CALLDATASIZE PUSH1 0x3 NOT ADD SLT PUSH2 0x698 JUMPI PUSH2 0x6B6 PUSH2 0xC72 JUMP JUMPDEST PUSH0 SLOAD SWAP2 PUSH1 0xFF DUP4 PUSH1 0xA0 SHR AND ISZERO PUSH2 0x6FC JUMPI PUSH1 0xFF PUSH1 0xA0 SHL NOT DUP4 AND PUSH0 SSTORE DUP2 MLOAD CALLER DUP2 MSTORE PUSH32 0x5DB9EE0A495BF2E6FF9C91A7834C1BA4FDD244A5E8AA4E537BD38AEAE4B073AA SWAP1 PUSH1 0x20 SWAP1 LOG1 STOP JUMPDEST SWAP1 MLOAD PUSH4 0x8DFC202B PUSH1 0xE0 SHL DUP2 MSTORE REVERT JUMPDEST POP CALLVALUE PUSH2 0x698 JUMPI PUSH1 0x20 SWAP2 DUP3 PUSH1 0x3 NOT CALLDATASIZE ADD SLT PUSH2 0x698 JUMPI PUSH1 0x1 PUSH1 0x1 PUSH1 0xA0 SHL SUB SWAP2 DUP3 PUSH2 0x730 PUSH2 0xBE4 JUMP JUMPDEST AND SWAP1 DUP2 PUSH0 MSTORE PUSH1 0x6 DUP6 MSTORE DUP4 DUP4 PUSH0 KECCAK256 SLOAD AND PUSH2 0x89B JUMPI PUSH1 0x3 SLOAD DUP4 MLOAD PUSH20 0x3D602D80600A3D3981F3363D3D373D3D3D363D73 PUSH1 0x60 SHL DUP2 MSTORE PUSH1 0x60 SWAP2 SWAP1 SWAP2 SHL PUSH12 0xFFFFFFFFFFFFFFFFFFFFFFFF NOT AND PUSH1 0x14 DUP3 ADD MSTORE PUSH15 0x5AF43D82803E903D91602B57FD5BF3 PUSH1 0x88 SHL PUSH1 0x28 DUP3 ADD MSTORE SWAP4 PUSH1 0x37 DUP6 PUSH0 CREATE DUP2 PUSH1 0x37 DUP8 ADD SWAP2 DUP3 DUP8 MSTORE AND SWAP6 DUP7 ISZERO PUSH2 0x861 JUMPI POP POP DUP2 SLOAD AND DUP5 EXTCODESIZE ISZERO PUSH2 0x698 JUMPI DUP4 MLOAD PUSH4 0xC0C53B8B PUSH1 0xE0 SHL DUP2 MSTORE SWAP2 DUP3 ADD DUP4 SWAP1 MSTORE ADDRESS PUSH1 0x24 DUP4 ADD MSTORE PUSH1 0x44 DUP3 ADD MSTORE PUSH0 DUP2 PUSH1 0x64 DUP2 DUP4 DUP9 GAS CALL DUP1 ISZERO PUSH2 0x857 JUMPI PUSH2 0x848 JUMPI JUMPDEST POP DUP1 PUSH0 MSTORE PUSH1 0x6 DUP5 MSTORE DUP2 PUSH0 KECCAK256 DUP4 PUSH1 0x1 PUSH1 0x1 PUSH1 0x60 SHL SUB PUSH1 0xA0 SHL DUP3 SLOAD AND OR SWAP1 SSTORE DUP3 PUSH0 MSTORE PUSH1 0x8 DUP5 MSTORE DUP2 PUSH0 KECCAK256 PUSH1 0x1 PUSH1 0xFF NOT DUP3 SLOAD AND OR SWAP1 SSTORE PUSH32 0xC1F9D081289E627D16E20E8CE42A4F26358883FDD78C0EA20AC02134C20320AE DUP5 DUP4 MLOAD DUP6 DUP2 MSTORE LOG2 MLOAD SWAP1 DUP2 MSTORE RETURN JUMPDEST PUSH2 0x851 SWAP1 PUSH2 0xC10 JUMP JUMPDEST DUP5 PUSH2 0x7E8 JUMP JUMPDEST DUP4 MLOAD RETURNDATASIZE PUSH0 DUP3 RETURNDATACOPY RETURNDATASIZE SWAP1 REVERT JUMPDEST SWAP1 PUSH22 0x115490CC4C4D8DCE8818DC99585D194819985A5B1959 PUSH1 0x52 SHL PUSH1 0x7B PUSH1 0x64 SWAP4 DUP11 PUSH3 0x461BCD PUSH1 0xE5 SHL DUP6 MSTORE PUSH1 0x3B DUP3 ADD MSTORE PUSH1 0x16 PUSH1 0x5B DUP3 ADD MSTORE ADD MSTORE REVERT JUMPDEST DUP3 MLOAD PUSH3 0x461BCD PUSH1 0xE5 SHL DUP2 MSTORE SWAP1 DUP2 ADD DUP6 SWAP1 MSTORE PUSH1 0x1C PUSH1 0x24 DUP3 ADD MSTORE PUSH32 0x4D65726368616E7420616C726561647920686173206120636C6F6E6500000000 PUSH1 0x44 DUP3 ADD MSTORE PUSH1 0x64 SWAP1 REVERT JUMPDEST POP CALLVALUE PUSH2 0x698 JUMPI DUP2 PUSH1 0x3 NOT CALLDATASIZE ADD SLT PUSH2 0x698 JUMPI PUSH2 0x8F7 PUSH2 0xBE4 JUMP JUMPDEST SWAP2 PUSH2 0x900 PUSH2 0xBFA JUMP JUMPDEST SWAP2 PUSH0 PUSH1 0x1 DUP1 PUSH1 0xA0 SHL SUB DUP1 SWAP6 AND SWAP2 DUP3 PUSH0 MSTORE PUSH1 0x20 SWAP6 PUSH1 0x6 DUP8 MSTORE DUP1 DUP6 PUSH0 KECCAK256 SLOAD AND PUSH2 0xA91 JUMPI PUSH1 0x3 SLOAD DUP6 MLOAD PUSH20 0x3D602D80600A3D3981F3363D3D373D3D3D363D73 PUSH1 0x60 SHL DUP2 MSTORE PUSH1 0x60 SWAP2 SWAP1 SWAP2 SHL PUSH12 0xFFFFFFFFFFFFFFFFFFFFFFFF NOT AND PUSH1 0x14 DUP3 ADD MSTORE PUSH15 0x5AF43D82803E903D91602B57FD5BF3 PUSH1 0x88 SHL PUSH1 0x28 DUP3 ADD MSTORE SWAP6 PUSH1 0x37 DUP8 PUSH0 CREATE DUP3 PUSH1 0x37 DUP10 ADD SWAP2 DUP3 DUP10 MSTORE AND SWAP8 DUP9 ISZERO PUSH2 0xA57 JUMPI POP POP DUP1 DUP3 AND ISZERO PUSH2 0xA4D JUMPI JUMPDEST DUP7 EXTCODESIZE ISZERO PUSH2 0x698 JUMPI DUP6 MLOAD PUSH4 0xC0C53B8B PUSH1 0xE0 SHL DUP2 MSTORE SWAP3 DUP4 ADD DUP6 SWAP1 MSTORE ADDRESS PUSH1 0x24 DUP5 ADD MSTORE AND PUSH1 0x44 DUP3 ADD MSTORE PUSH0 DUP2 PUSH1 0x64 DUP2 DUP4 DUP10 GAS CALL DUP1 ISZERO PUSH2 0xA43 JUMPI SWAP1 DUP5 SWAP3 SWAP2 PUSH2 0xA2F JUMPI JUMPDEST POP DUP3 DUP2 MSTORE PUSH1 0x6 DUP7 MSTORE DUP2 DUP2 KECCAK256 DUP1 SLOAD PUSH1 0x1 PUSH1 0x1 PUSH1 0xA0 SHL SUB NOT AND DUP7 OR SWAP1 SSTORE DUP5 DUP2 MSTORE PUSH1 0x8 DUP7 MSTORE KECCAK256 DUP1 SLOAD PUSH1 0xFF NOT AND PUSH1 0x1 OR SWAP1 SSTORE DUP2 MLOAD DUP4 DUP2 MSTORE PUSH32 0xC1F9D081289E627D16E20E8CE42A4F26358883FDD78C0EA20AC02134C20320AE SWAP1 DUP6 SWAP1 LOG2 MLOAD SWAP1 DUP2 MSTORE RETURN JUMPDEST SWAP1 POP PUSH2 0xA3B SWAP2 POP PUSH2 0xC10 JUMP JUMPDEST DUP2 PUSH0 DUP7 PUSH2 0x9D1 JUMP JUMPDEST DUP5 MLOAD RETURNDATASIZE PUSH0 DUP3 RETURNDATACOPY RETURNDATASIZE SWAP1 REVERT JUMPDEST POP DUP1 DUP3 SLOAD AND PUSH2 0x994 JUMP JUMPDEST SWAP1 PUSH22 0x115490CC4C4D8DCE8818DC99585D194819985A5B1959 PUSH1 0x52 SHL PUSH1 0x7B PUSH1 0x64 SWAP4 DUP13 PUSH3 0x461BCD PUSH1 0xE5 SHL DUP6 MSTORE PUSH1 0x3B DUP3 ADD MSTORE PUSH1 0x16 PUSH1 0x5B DUP3 ADD MSTORE ADD MSTORE REVERT JUMPDEST DUP5 MLOAD PUSH3 0x461BCD PUSH1 0xE5 SHL DUP2 MSTORE DUP1 DUP4 ADD DUP9 SWAP1 MSTORE PUSH1 0x1C PUSH1 0x24 DUP3 ADD MSTORE PUSH32 0x4D65726368616E7420616C726561647920686173206120636C6F6E6500000000 PUSH1 0x44 DUP3 ADD MSTORE PUSH1 0x64 SWAP1 REVERT JUMPDEST DUP3 CALLVALUE PUSH2 0x698 JUMPI PUSH0 CALLDATASIZE PUSH1 0x3 NOT ADD SLT PUSH2 0x698 JUMPI PUSH1 0x20 SWAP1 PUSH1 0x2 SLOAD SWAP1 MLOAD SWAP1 DUP2 MSTORE RETURN JUMPDEST DUP3 CALLVALUE PUSH2 0x698 JUMPI DUP1 PUSH1 0x3 NOT CALLDATASIZE ADD SLT PUSH2 0x698 JUMPI PUSH2 0xB0B PUSH2 0xBE4 JUMP JUMPDEST SWAP1 PUSH1 0x24 CALLDATALOAD SWAP2 DUP3 ISZERO ISZERO DUP1 SWAP4 SUB PUSH2 0x698 JUMPI PUSH2 0xB22 PUSH2 0xC72 JUMP JUMPDEST PUSH1 0x1 DUP1 PUSH1 0xA0 SHL SUB AND PUSH0 MSTORE PUSH1 0x5 PUSH1 0x20 MSTORE PUSH0 KECCAK256 SWAP1 PUSH1 0xFF DUP1 NOT DUP4 SLOAD AND SWAP2 AND OR SWAP1 SSTORE PUSH0 DUP1 RETURN JUMPDEST POP CALLVALUE PUSH2 0x698 JUMPI PUSH1 0x20 CALLDATASIZE PUSH1 0x3 NOT ADD SLT PUSH2 0x698 JUMPI PUSH2 0xB5E PUSH2 0xBE4 JUMP JUMPDEST PUSH2 0xB66 PUSH2 0xC72 JUMP JUMPDEST DUP2 SLOAD PUSH1 0x1 PUSH1 0x1 PUSH1 0xA0 SHL SUB NOT AND PUSH1 0x1 PUSH1 0x1 PUSH1 0xA0 SHL SUB SWAP2 SWAP1 SWAP2 AND SWAP1 DUP2 OR SWAP1 SWAP2 SSTORE PUSH32 0xF3F625A7D9E02778AFDFDF1BEA978D6565840D408866C70F5D25AADF77021D70 PUSH0 DUP1 LOG2 STOP JUMPDEST DUP4 SWAP1 CALLVALUE PUSH2 0x698 JUMPI PUSH1 0x20 CALLDATASIZE PUSH1 0x3 NOT ADD SLT PUSH2 0x698 JUMPI PUSH1 0x20 SWAP2 PUSH1 0xFF SWAP1 PUSH1 0x1 PUSH1 0x1 PUSH1 0xA0 SHL SUB PUSH2 0xBD3 PUSH2 0xBE4 JUMP JUMPDEST AND PUSH0 MSTORE PUSH1 0x8 DUP5 MSTORE PUSH0 KECCAK256 SLOAD AND ISZERO ISZERO DUP2 MSTORE RETURN JUMPDEST PUSH1 0x4 CALLDATALOAD SWAP1 PUSH1 0x1 PUSH1 0x1 PUSH1 0xA0 SHL SUB DUP3 AND DUP3 SUB PUSH2 0x698 JUMPI JUMP JUMPDEST PUSH1 0x24 CALLDATALOAD SWAP1 PUSH1 0x1 PUSH1 0x1 PUSH1 0xA0 SHL SUB DUP3 AND DUP3 SUB PUSH2 0x698 JUMPI JUMP JUMPDEST PUSH8 0xFFFFFFFFFFFFFFFF DUP2 GT PUSH2 0xC24 JUMPI PUSH1 0x40 MSTORE JUMP JUMPDEST PUSH4 0x4E487B71 PUSH1 0xE0 SHL PUSH0 MSTORE PUSH1 0x41 PUSH1 0x4 MSTORE PUSH1 0x24 PUSH0 REVERT JUMPDEST ISZERO PUSH2 0xC3F JUMPI JUMP JUMPDEST PUSH1 0x40 MLOAD PUSH3 0x461BCD PUSH1 0xE5 SHL DUP2 MSTORE PUSH1 0x20 PUSH1 0x4 DUP3 ADD MSTORE PUSH1 0xB PUSH1 0x24 DUP3 ADD MSTORE PUSH11 0x4E6F74206120636C6F6E65 PUSH1 0xA8 SHL PUSH1 0x44 DUP3 ADD MSTORE PUSH1 0x64 SWAP1 REVERT JUMPDEST PUSH0 SLOAD PUSH1 0x1 PUSH1 0x1 PUSH1 0xA0 SHL SUB AND CALLER SUB PUSH2 0xC85 JUMPI JUMP JUMPDEST PUSH1 0x40 MLOAD PUSH4 0x118CDAA7 PUSH1 0xE0 SHL DUP2 MSTORE CALLER PUSH1 0x4 DUP3 ADD MSTORE PUSH1 0x24 SWAP1 REVERT INVALID LOG2 PUSH5 0x6970667358 0x22 SLT KECCAK256 GT EXTCODESIZE 0xD PUSH9 0x21EE70BE6A50A58B1D 0xFC MSTORE 0xC0 PC 0xCB MULMOD 0xED 0xAE 0x22 CREATE2 MSIZE OR MULMOD AND MOD LOG1 0x1F 0xBB 0x2D PUSH5 0x736F6C6343 STOP ADDMOD XOR STOP CALLER "},"methodIdentifiers":{"allowedRouters(address)":"c646aee2","authorizer()":"d09edf31","createMerchantSplitter(address)":"3ab4b486","createMerchantSplitter(address,address)":"37c68b88","developerAddress()":"caccd7f7","feeBps()":"24a9d853","globalProcessedPayments(bytes32)":"9aba6a0f","isClone(address)":"00ae3676","isRouterAllowed(address)":"61771e49","merchantSplitters(address)":"599dec68","owner()":"8da5cb5b","pause()":"8456cb59","paused()":"5c975abb","recordPayment(bytes32)":"e434a1be","renounceOwnership()":"715018a6","rescueTokenFromClone(address,address,uint256)":"73574dc1","setAuthorizer(address)":"058a628f","setDeveloperAddress(address)":"dcc345f2","setFeeBps(uint256)":"72c27b62","splitterLogicImpl()":"8918c79e","toggleRouterAllowlist(address,bool)":"09b6f171","transferOwnership(address)":"f2fde38b","unpause()":"3f4ba83a","updateCloneAuthorizer(address,address)":"569f8cc8"}}}}}