{"contracts/MerchantFactory.sol":{"MerchantFactory":{"abi":[{"inputs":[{"internalType":"address","name":"_devAddress","type":"address"},{"internalType":"address","name":"_splitterLogicImpl","type":"address"}],"stateMutability":"nonpayable","type":"constructor"},{"inputs":[],"name":"EnforcedPause","type":"error"},{"inputs":[],"name":"ExpectedPause","type":"error"},{"inputs":[{"internalType":"address","name":"owner","type":"address"}],"name":"OwnableInvalidOwner","type":"error"},{"inputs":[{"internalType":"address","name":"account","type":"address"}],"name":"OwnableUnauthorizedAccount","type":"error"},{"anonymous":false,"inputs":[{"indexed":true,"internalType":"address","name":"newAuthorizer","type":"address"}],"name":"AuthorizerUpdated","type":"event"},{"anonymous":false,"inputs":[{"indexed":true,"internalType":"address","name":"authorizer","type":"address"}],"name":"DefaultAuthorizerSet","type":"event"},{"anonymous":false,"inputs":[{"indexed":true,"internalType":"address","name":"merchant","type":"address"},{"indexed":false,"internalType":"address","name":"cloneAddress","type":"address"}],"name":"MerchantCloneDeployed","type":"event"},{"anonymous":false,"inputs":[{"indexed":true,"internalType":"address","name":"previousOwner","type":"address"},{"indexed":true,"internalType":"address","name":"newOwner","type":"address"}],"name":"OwnershipTransferStarted","type":"event"},{"anonymous":false,"inputs":[{"indexed":true,"internalType":"address","name":"previousOwner","type":"address"},{"indexed":true,"internalType":"address","name":"newOwner","type":"address"}],"name":"OwnershipTransferred","type":"event"},{"anonymous":false,"inputs":[{"indexed":false,"internalType":"address","name":"account","type":"address"}],"name":"Paused","type":"event"},{"anonymous":false,"inputs":[{"indexed":true,"internalType":"bytes32","name":"paymentId","type":"bytes32"},{"indexed":true,"internalType":"address","name":"clone","type":"address"},{"indexed":true,"internalType":"address","name":"token","type":"address"},{"indexed":false,"internalType":"uint256","name":"amount","type":"uint256"}],"name":"PaymentRecorded","type":"event"},{"anonymous":false,"inputs":[{"indexed":true,"internalType":"bytes32","name":"requestId","type":"bytes32"}],"name":"RescueTokenCancelled","type":"event"},{"anonymous":false,"inputs":[{"indexed":true,"internalType":"bytes32","name":"requestId","type":"bytes32"},{"indexed":true,"internalType":"address","name":"clone","type":"address"},{"indexed":false,"internalType":"address","name":"token","type":"address"},{"indexed":false,"internalType":"uint256","name":"amount","type":"uint256"}],"name":"RescueTokenExecuted","type":"event"},{"anonymous":false,"inputs":[{"indexed":true,"internalType":"bytes32","name":"requestId","type":"bytes32"},{"indexed":true,"internalType":"address","name":"clone","type":"address"},{"indexed":false,"internalType":"address","name":"token","type":"address"},{"indexed":false,"internalType":"uint256","name":"amount","type":"uint256"},{"indexed":false,"internalType":"uint256","name":"executeTime","type":"uint256"}],"name":"RescueTokenProposed","type":"event"},{"anonymous":false,"inputs":[{"indexed":false,"internalType":"address","name":"account","type":"address"}],"name":"Unpaused","type":"event"},{"inputs":[],"name":"MAX_FEE_BPS","outputs":[{"internalType":"uint256","name":"","type":"uint256"}],"stateMutability":"view","type":"function"},{"inputs":[],"name":"TIMELOCK_DELAY","outputs":[{"internalType":"uint256","name":"","type":"uint256"}],"stateMutability":"view","type":"function"},{"inputs":[],"name":"acceptOwnership","outputs":[],"stateMutability":"nonpayable","type":"function"},{"inputs":[{"internalType":"address","name":"","type":"address"}],"name":"allowedRouters","outputs":[{"internalType":"bool","name":"","type":"bool"}],"stateMutability":"view","type":"function"},{"inputs":[],"name":"authorizer","outputs":[{"internalType":"address","name":"","type":"address"}],"stateMutability":"view","type":"function"},{"inputs":[{"internalType":"bytes32","name":"requestId","type":"bytes32"}],"name":"cancelRescueToken","outputs":[],"stateMutability":"nonpayable","type":"function"},{"inputs":[{"internalType":"address","name":"merchant","type":"address"},{"internalType":"address","name":"_authorizer","type":"address"}],"name":"createMerchantSplitter","outputs":[{"internalType":"address","name":"","type":"address"}],"stateMutability":"nonpayable","type":"function"},{"inputs":[{"internalType":"address","name":"merchant","type":"address"}],"name":"createMerchantSplitter","outputs":[{"internalType":"address","name":"","type":"address"}],"stateMutability":"nonpayable","type":"function"},{"inputs":[],"name":"developerAddress","outputs":[{"internalType":"address","name":"","type":"address"}],"stateMutability":"view","type":"function"},{"inputs":[{"internalType":"bytes32","name":"requestId","type":"bytes32"}],"name":"executeRescueToken","outputs":[],"stateMutability":"nonpayable","type":"function"},{"inputs":[],"name":"feeBps","outputs":[{"internalType":"uint256","name":"","type":"uint256"}],"stateMutability":"view","type":"function"},{"inputs":[{"internalType":"bytes32","name":"","type":"bytes32"}],"name":"globalProcessedPayments","outputs":[{"internalType":"bool","name":"","type":"bool"}],"stateMutability":"view","type":"function"},{"inputs":[{"internalType":"address","name":"","type":"address"}],"name":"isClone","outputs":[{"internalType":"bool","name":"","type":"bool"}],"stateMutability":"view","type":"function"},{"inputs":[{"internalType":"address","name":"router","type":"address"}],"name":"isRouterAllowed","outputs":[{"internalType":"bool","name":"","type":"bool"}],"stateMutability":"view","type":"function"},{"inputs":[{"internalType":"address","name":"token","type":"address"},{"internalType":"uint256","name":"amount","type":"uint256"}],"name":"merchantRescueToken","outputs":[],"stateMutability":"nonpayable","type":"function"},{"inputs":[{"internalType":"address","name":"","type":"address"}],"name":"merchantSplitters","outputs":[{"internalType":"address","name":"","type":"address"}],"stateMutability":"view","type":"function"},{"inputs":[],"name":"owner","outputs":[{"internalType":"address","name":"","type":"address"}],"stateMutability":"view","type":"function"},{"inputs":[],"name":"pause","outputs":[],"stateMutability":"nonpayable","type":"function"},{"inputs":[],"name":"paused","outputs":[{"internalType":"bool","name":"","type":"bool"}],"stateMutability":"view","type":"function"},{"inputs":[],"name":"pendingOwner","outputs":[{"internalType":"address","name":"","type":"address"}],"stateMutability":"view","type":"function"},{"inputs":[{"internalType":"address","name":"clone","type":"address"},{"internalType":"address","name":"token","type":"address"},{"internalType":"uint256","name":"amount","type":"uint256"}],"name":"proposeRescueToken","outputs":[{"internalType":"bytes32","name":"requestId","type":"bytes32"}],"stateMutability":"nonpayable","type":"function"},{"inputs":[{"internalType":"bytes32","name":"paymentId","type":"bytes32"},{"internalType":"address","name":"token","type":"address"},{"internalType":"uint256","name":"amount","type":"uint256"}],"name":"recordPayment","outputs":[],"stateMutability":"nonpayable","type":"function"},{"inputs":[],"name":"renounceOwnership","outputs":[],"stateMutability":"nonpayable","type":"function"},{"inputs":[{"internalType":"bytes32","name":"","type":"bytes32"}],"name":"rescueData","outputs":[{"internalType":"bytes","name":"","type":"bytes"}],"stateMutability":"view","type":"function"},{"inputs":[{"internalType":"bytes32","name":"","type":"bytes32"}],"name":"rescueRequests","outputs":[{"internalType":"uint256","name":"","type":"uint256"}],"stateMutability":"view","type":"function"},{"inputs":[{"internalType":"address","name":"_newAuthorizer","type":"address"}],"name":"setAuthorizer","outputs":[],"stateMutability":"nonpayable","type":"function"},{"inputs":[{"internalType":"address","name":"_newDev","type":"address"}],"name":"setDeveloperAddress","outputs":[],"stateMutability":"nonpayable","type":"function"},{"inputs":[{"internalType":"uint256","name":"_bps","type":"uint256"}],"name":"setFeeBps","outputs":[],"stateMutability":"nonpayable","type":"function"},{"inputs":[],"name":"splitterLogicImpl","outputs":[{"internalType":"address","name":"","type":"address"}],"stateMutability":"view","type":"function"},{"inputs":[{"internalType":"address","name":"router","type":"address"},{"internalType":"bool","name":"status","type":"bool"}],"name":"toggleRouterAllowlist","outputs":[],"stateMutability":"nonpayable","type":"function"},{"inputs":[{"internalType":"address","name":"newOwner","type":"address"}],"name":"transferOwnership","outputs":[],"stateMutability":"nonpayable","type":"function"},{"inputs":[],"name":"unpause","outputs":[],"stateMutability":"nonpayable","type":"function"},{"inputs":[{"internalType":"address","name":"clone","type":"address"},{"internalType":"address","name":"_newAuthorizer","type":"address"}],"name":"updateCloneAuthorizer","outputs":[],"stateMutability":"nonpayable","type":"function"}],"evm":{"bytecode":{"linkReferences":{},"object":"608034620001c557620017c990601f38839003908101601f19168201906001600160401b03821183831017620001c95780839160409586948552833981010312620001c5576200005d60206200005583620001dd565b9201620001dd565b3315620001ae5760018060a01b03199182600154166001555f549160018060a01b03809233868616175f55865194823391167f8be0079c531659141344cd1fd0a4f28419497f9722a3daafe3b4186f6b6457e05f80a3600a600355169283156200016c5750169081156200011a578260025416176002558160045416176004553390600554161760055551337edf7d8d0088b4dec0a2f0541dcba27d872a7f66af9823586edbfb14fbf612cd195f80a26115d69081620001f38239f35b835162461bcd60e51b815260206004820152602560248201527f496e76616c69642073706c6974746572206c6f67696320696d706c656d656e7460448201526430ba34b7b760d91b6064820152608490fd5b62461bcd60e51b815260206004820152601360248201527f496e76616c6964206465762061646472657373000000000000000000000000006044820152606490fd5b8251631e4fbdf760e01b81525f6004820152602490fd5b5f80fd5b634e487b7160e01b5f52604160045260245ffd5b51906001600160a01b0382168203620001c55756fe608060409080825260049182361015610016575f80fd5b5f925f3560e01c928362ae36761461131557508263058a628f146112af57826309b6f1711461125d5782631b2cc9681461118757826324a9d85314611168578263250fa03a14610fdd57826337c68b8814610de65782633ab4b48614610c0c5782633f4ba83a14610b9b578263540e7a6c146108e657838363569f8cc81461084257508263599dec68146108075782635ba1c1a9146107e95782635c975abb146107c257826361771e49146107975782636c2a0d741461076e578263715018a61461070957826372c27b621461069657826377d441491461062657826379ba5097146105a05782638456cb591461052a578263846fa34d146104125782638918c79e146103e95782638da5cb5b146103c15782639aba6a0f14610393578263ade36e1d1461031957508163c646aee2146102db578163caccd7f7146102b2578163d09edf3114610289578163d55be8c61461026c578163dcc345f21461022c578163e30c3978146101ff575063f2fde38b14610190575f80fd5b346101fc5760203660031901126101fc576101a961134f565b6101b1611575565b600180546001600160a01b0319166001600160a01b0392831690811790915582549091167f38d16b8cac22d99fc7c124b9cd0de2d3fa1faef420bfe791d8c362d765e227008380a380f35b80fd5b90503461022857816003193601126102285760015490516001600160a01b039091168152602090f35b5080fd5b82346101fc5760203660031901126101fc5761024661134f565b61024e611575565b60018060a01b03166001600160601b0360a01b600254161760025580f35b905034610228578160031936011261022857602090516103e88152f35b90503461022857816003193601126102285760055490516001600160a01b039091168152602090f35b90503461022857816003193601126102285760025490516001600160a01b039091168152602090f35b9050346102285760203660031901126102285760209160ff9082906001600160a01b0361030661134f565b1681526006855220541690519015158152f35b91503461038f57602036600319011261038f5761038c9135610339611575565b808452600a60205261034f82852054151561148b565b807f8f1aafee48488f6068a10e3d41fb46866c088ae8ce01798a83191869c93a52f08580a28352600a6020528281812055600b60205282206114f3565b80f35b8280fd5b9091503461038f57602036600319011261038f578160209360ff923581526008855220541690519015158152f35b838234610228578160031936011261022857905490516001600160a01b039091168152602090f35b9091503461038f578260031936011261038f575490516001600160a01b03909116815260209150f35b91503461038f57606036600319011261038f57813561042f611365565b913385526020936009855260ff8287205416156104ea578286526008855260ff82872054166104a9575081855260088452808520805460ff191660011790555160443581526001600160a01b039092169233927fe71f2d4fc99f7d557282a41e699063e3ff6752f44a7e31aae25bd2666740c5139190a480f35b84606492519162461bcd60e51b8352820152601960248201527f5061796d656e7420616c72656164792070726f636573736564000000000000006044820152fd5b8480606493519262461bcd60e51b845283015260248201527f43616c6c6572206973206e6f742061207265676973746572656420636c6f6e656044820152fd5b9091503461038f578260031936011261038f57610545611575565b6001549060ff8260a01c16610592575060ff60a01b1916600160a01b17600155513381527f62e78cea01bee320cd4e420270b5ea74000d11b0c9f74754ebdbfc544b05a25890602090a180f35b825163d93c066560e01b8152fd5b91503461038f578260031936011261038f57600154916001600160a01b0391338385160361060f5750506001600160601b0360a01b8092166001555f549133908316175f553391167f8be0079c531659141344cd1fd0a4f28419497f9722a3daafe3b4186f6b6457e05f80a380f35b60249250519063118cdaa760e01b82523390820152fd5b9083346101fc576020928360031936011261022857929092358352600b81526106508284206113db565b82519382859384528251928382860152825b84811061068057505050828201840152601f01601f19168101030190f35b8181018301518882018801528795508201610662565b9091503461038f57602036600319011261038f578035916106b5611575565b6103e883116106c657505060035580f35b906020606492519162461bcd60e51b8352820152601b60248201527f4665652065786365656473206d6178696d756d20616c6c6f77656400000000006044820152fd5b83346101fc57806003193601126101fc57610722611575565b600180546001600160a01b03199081169091555f80549182168155906001600160a01b03167f8be0079c531659141344cd1fd0a4f28419497f9722a3daafe3b4186f6b6457e08280a380f35b9091503461038f57602036600319011261038f576020928291358152600a845220549051908152f35b8382346102285760203660031901126102285760209160ff9082906001600160a01b0361030661134f565b83823461022857816003193601126102285760209060ff60015460a01c1690519015158152f35b838234610228578160031936011261022857602090516202a3008152f35b838234610228576020366003190112610228576020916001600160a01b039082908261083161134f565b168152600785522054169051908152f35b925090346108e257806003193601126108e25761085d61134f565b610865611365565b9061086e611575565b6001600160a01b039081168086526009602052838620546108919060ff1661153b565b803b156108de578592836024928651978895869463058a628f60e01b865216908401525af19081156108d557506108c55750f35b6108ce906113b3565b6101fc5780f35b513d84823e3d90fd5b8580fd5b5050fd5b91503461038f57606092836003193601126101fc5761090361134f565b61090b611365565b9460443595610918611575565b60018060a01b03968784169485815260209860098a5261093d60ff898420541661153b565b8751958a8701916001600160601b03198092881b168352851694861b1660348701528260488701524260688701526068865260a086019567ffffffffffffffff9681811088821117610b88578952519020976202a3004201804211610b7557898352600a8b5288832055875195878b880152848988015283868801528587526080870187811082821117610b62578952898352600b8b52888320918751918211610b4f575091818a969594936109f48b945461137b565b8d601f8211610b16575b50508c98601f8211600114610a76577f1bdb25bc80d6550a01487654162d2b7bcbaeca17b410f1a7ae23527994912375989982918592610a6b575b50508160011b915f199060031b1c19161790555b868152600a8b5220549087519283528983015286820152a351908152f35b015190505f80610a39565b8d90601f1983168486528286209286905b828210610ae55750509a8392916001947f1bdb25bc80d6550a01487654162d2b7bcbaeca17b410f1a7ae235279949123759c9d10610acd575b505050811b019055610a4d565b01515f1960f88460031b161c191690555f8080610ac0565b929497509497999b95989a509181600181928887015181550196019401918e9a9895928e9794929c9a98959c610a87565b838552808520610b3e92601f850160051c8201928510610b45575b601f0160051c01906114dd565b5f8d6109fe565b9091508190610b31565b634e487b7160e01b845260419052602483fd5b604183634e487b7160e01b5f525260245ffd5b634e487b7160e01b835260118252602483fd5b60418b634e487b7160e01b5f525260245ffd5b9091503461038f578260031936011261038f57610bb6611575565b6001549060ff8260a01c1615610bfe575060ff60a01b1916600155513381527f5db9ee0a495bf2e6ff9c91a7834c1ba4fdd244a5e8aa4e537bd38aeae4b073aa90602090a180f35b8251638dfc202b60e01b8152fd5b91503461038f57602092836003193601126101fc57506001600160a01b039182610c3461134f565b1690815f526007855283835f205416610da35780548351733d602d80600a3d3981f3363d3d373d3d3d363d7360601b815260609190911b6bffffffffffffffffffffffff191660148201526e5af43d82803e903d91602b57fd5bf360881b6028820152936037855ff081603787019182875216958615610d6957505060055416843b15610d6557835163c0c53b8b60e01b815291820183905230602483015260448201525f8160648183885af18015610d5b57610d4c575b50805f5260078452815f20836001600160601b0360a01b825416179055825f5260098452815f20600160ff198254161790557fc1f9d081289e627d16e20e8ce42a4f26358883fdd78c0ea20ac02134c20320ae848351858152a251908152f35b610d55906113b3565b5f610cec565b83513d5f823e3d90fd5b5f80fd5b9075115490cc4c4d8dce8818dc99585d194819985a5b195960521b607b6064938a62461bcd60e51b8552603b8201526016605b8201520152fd5b825162461bcd60e51b8152908101859052601c60248201527f4d65726368616e7420616c726561647920686173206120636c6f6e65000000006044820152606490fd5b83346101fc57826003193601126101fc5750610e0061134f565b91610e09611365565b915f60018060a01b0380951691825f526020956007875280855f205416610f9a5781548551733d602d80600a3d3981f3363d3d373d3d3d363d7360601b815260609190911b6bffffffffffffffffffffffff191660148201526e5af43d82803e903d91602b57fd5bf360881b6028820152956037875ff082603789019182895216978815610f6057505080821615610f55575b863b15610d6557855163c0c53b8b60e01b81529283018590523060248401521660448201525f8160648183895af18015610f4b5790849291610f37575b508281526007865281812080546001600160a01b031916861790558481526009865220805460ff1916600117905581518381527fc1f9d081289e627d16e20e8ce42a4f26358883fdd78c0ea20ac02134c20320ae908590a251908152f35b9050610f4391506113b3565b815f86610ed9565b84513d5f823e3d90fd5b508060055416610e9c565b9075115490cc4c4d8dce8818dc99585d194819985a5b195960521b607b6064938c62461bcd60e51b8552603b8201526016605b8201520152fd5b845162461bcd60e51b8152808301889052601c60248201527f4d65726368616e7420616c726561647920686173206120636c6f6e65000000006044820152606490fd5b91503461038f57602080600319360112611164578235610ffb611575565b808552600a82528285205461101181151561148b565b421061113057808552600b82526110298386206113db565b6060818051810103126108de576110418382016114c9565b948660606110508785016114c9565b930151966001600160a01b03908116931691833b1561022857865163067e7ac560e31b81526001600160a01b0384169181019182526020820189905290829082908190604001038183885af1801561112657611106575b505084516001600160a01b03919091168152602081019590955261038c94600b9392919082907f05db6a65e184fde5dac11952c68d57e85ff97bb19ed7514f55990b90fc6b013890604090a38552600a815284838120555282206114f3565b6111149095949392956113b3565b61112257909192865f6110a7565b8680fd5b87513d84823e3d90fd5b50905162461bcd60e51b815291820152600f60248201526e54696d656c6f636b2061637469766560881b6044820152606490fd5b8380fd5b8382346102285781600319360112610228576020906003549051908152f35b915034610d655780600319360112610d65576111a161134f565b335f9081526007602052829020546001600160a01b031692831561122457833b15610d6557825163067e7ac560e31b81526001600160a01b03909216908201908152602435602082015290925f9184919082908490829060400103925af190811561121b575061120f575080f35b61121991506113b3565b005b513d5f823e3d90fd5b606490602084519162461bcd60e51b8352820152601360248201527227379031b637b732903337b91039b2b73232b960691b6044820152fd5b5034610d655780600319360112610d655761127661134f565b9060243591821515809303610d655761128d611575565b60018060a01b03165f5260066020525f209060ff801983541691161790555f80f35b34610d65576020366003190112610d65576112c861134f565b6112d0611575565b600580546001600160a01b0319166001600160a01b039290921691821790557ff3f625a7d9e02778afdfdf1bea978d6565840d408866c70f5d25aadf77021d705f80a2005b905034610d65576020366003190112610d655760209160ff906001600160a01b0361133e61134f565b165f52600984525f20541615158152f35b600435906001600160a01b0382168203610d6557565b602435906001600160a01b0382168203610d6557565b90600182811c921680156113a9575b602083101461139557565b634e487b7160e01b5f52602260045260245ffd5b91607f169161138a565b67ffffffffffffffff81116113c757604052565b634e487b7160e01b5f52604160045260245ffd5b90604051915f9080546113ed8161137b565b908186526020926001916001811690815f1461146d5750600114611434575b50505050829003601f01601f1916820167ffffffffffffffff8111838210176113c757604052565b909293505f52825f2091835f935b83851061145957505050508301015f80808061140c565b805488860183015293019284908201611442565b60ff191688860152505050151560051b84010190505f80808061140c565b1561149257565b60405162461bcd60e51b815260206004820152600f60248201526e125b9d985b1a59081c995c5d595cdd608a1b6044820152606490fd5b51906001600160a01b0382168203610d6557565b8181106114e8575050565b5f81556001016114dd565b6114fd815461137b565b9081611507575050565b81601f5f9311600114611518575055565b908083918252611537601f60208420940160051c8401600185016114dd565b5555565b1561154257565b60405162461bcd60e51b815260206004820152600b60248201526a4e6f74206120636c6f6e6560a81b6044820152606490fd5b5f546001600160a01b0316330361158857565b60405163118cdaa760e01b8152336004820152602490fdfea2646970667358221220d57303d837af30f567cad874834a2f25d3c2aac997972a7125a46dba98aedce164736f6c63430008180033","opcodes":"PUSH1 0x80 CALLVALUE PUSH3 0x1C5 JUMPI PUSH3 0x17C9 SWAP1 PUSH1 0x1F CODESIZE DUP4 SWAP1 SUB SWAP1 DUP2 ADD PUSH1 0x1F NOT AND DUP3 ADD SWAP1 PUSH1 0x1 PUSH1 0x1 PUSH1 0x40 SHL SUB DUP3 GT DUP4 DUP4 LT OR PUSH3 0x1C9 JUMPI DUP1 DUP4 SWAP2 PUSH1 0x40 SWAP6 DUP7 SWAP5 DUP6 MSTORE DUP4 CODECOPY DUP2 ADD SUB SLT PUSH3 0x1C5 JUMPI PUSH3 0x5D PUSH1 0x20 PUSH3 0x55 DUP4 PUSH3 0x1DD JUMP JUMPDEST SWAP3 ADD PUSH3 0x1DD JUMP JUMPDEST CALLER ISZERO PUSH3 0x1AE JUMPI PUSH1 0x1 DUP1 PUSH1 0xA0 SHL SUB NOT SWAP2 DUP3 PUSH1 0x1 SLOAD AND PUSH1 0x1 SSTORE PUSH0 SLOAD SWAP2 PUSH1 0x1 DUP1 PUSH1 0xA0 SHL SUB DUP1 SWAP3 CALLER DUP7 DUP7 AND OR PUSH0 SSTORE DUP7 MLOAD SWAP5 DUP3 CALLER SWAP2 AND PUSH32 0x8BE0079C531659141344CD1FD0A4F28419497F9722A3DAAFE3B4186F6B6457E0 PUSH0 DUP1 LOG3 PUSH1 0xA PUSH1 0x3 SSTORE AND SWAP3 DUP4 ISZERO PUSH3 0x16C JUMPI POP AND SWAP1 DUP2 ISZERO PUSH3 0x11A JUMPI DUP3 PUSH1 0x2 SLOAD AND OR PUSH1 0x2 SSTORE DUP2 PUSH1 0x4 SLOAD AND OR PUSH1 0x4 SSTORE CALLER SWAP1 PUSH1 0x5 SLOAD AND OR PUSH1 0x5 SSTORE MLOAD CALLER PUSH31 0xDF7D8D0088B4DEC0A2F0541DCBA27D872A7F66AF9823586EDBFB14FBF612CD NOT PUSH0 DUP1 LOG2 PUSH2 0x15D6 SWAP1 DUP2 PUSH3 0x1F3 DUP3 CODECOPY RETURN JUMPDEST DUP4 MLOAD PUSH3 0x461BCD PUSH1 0xE5 SHL DUP2 MSTORE PUSH1 0x20 PUSH1 0x4 DUP3 ADD MSTORE PUSH1 0x25 PUSH1 0x24 DUP3 ADD MSTORE PUSH32 0x496E76616C69642073706C6974746572206C6F67696320696D706C656D656E74 PUSH1 0x44 DUP3 ADD MSTORE PUSH5 0x30BA34B7B7 PUSH1 0xD9 SHL PUSH1 0x64 DUP3 ADD MSTORE PUSH1 0x84 SWAP1 REVERT JUMPDEST PUSH3 0x461BCD PUSH1 0xE5 SHL DUP2 MSTORE PUSH1 0x20 PUSH1 0x4 DUP3 ADD MSTORE PUSH1 0x13 PUSH1 0x24 DUP3 ADD MSTORE PUSH32 0x496E76616C696420646576206164647265737300000000000000000000000000 PUSH1 0x44 DUP3 ADD MSTORE PUSH1 0x64 SWAP1 REVERT JUMPDEST DUP3 MLOAD PUSH4 0x1E4FBDF7 PUSH1 0xE0 SHL DUP2 MSTORE PUSH0 PUSH1 0x4 DUP3 ADD MSTORE PUSH1 0x24 SWAP1 REVERT JUMPDEST PUSH0 DUP1 REVERT JUMPDEST PUSH4 0x4E487B71 PUSH1 0xE0 SHL PUSH0 MSTORE PUSH1 0x41 PUSH1 0x4 MSTORE PUSH1 0x24 PUSH0 REVERT JUMPDEST MLOAD SWAP1 PUSH1 0x1 PUSH1 0x1 PUSH1 0xA0 SHL SUB DUP3 AND DUP3 SUB PUSH3 0x1C5 JUMPI JUMP INVALID PUSH1 0x80 PUSH1 0x40 SWAP1 DUP1 DUP3 MSTORE PUSH1 0x4 SWAP2 DUP3 CALLDATASIZE LT ISZERO PUSH2 0x16 JUMPI PUSH0 DUP1 REVERT JUMPDEST PUSH0 SWAP3 PUSH0 CALLDATALOAD PUSH1 0xE0 SHR SWAP3 DUP4 PUSH3 0xAE3676 EQ PUSH2 0x1315 JUMPI POP DUP3 PUSH4 0x58A628F EQ PUSH2 0x12AF JUMPI DUP3 PUSH4 0x9B6F171 EQ PUSH2 0x125D JUMPI DUP3 PUSH4 0x1B2CC968 EQ PUSH2 0x1187 JUMPI DUP3 PUSH4 0x24A9D853 EQ PUSH2 0x1168 JUMPI DUP3 PUSH4 0x250FA03A EQ PUSH2 0xFDD JUMPI DUP3 PUSH4 0x37C68B88 EQ PUSH2 0xDE6 JUMPI DUP3 PUSH4 0x3AB4B486 EQ PUSH2 0xC0C JUMPI DUP3 PUSH4 0x3F4BA83A EQ PUSH2 0xB9B JUMPI DUP3 PUSH4 0x540E7A6C EQ PUSH2 0x8E6 JUMPI DUP4 DUP4 PUSH4 0x569F8CC8 EQ PUSH2 0x842 JUMPI POP DUP3 PUSH4 0x599DEC68 EQ PUSH2 0x807 JUMPI DUP3 PUSH4 0x5BA1C1A9 EQ PUSH2 0x7E9 JUMPI DUP3 PUSH4 0x5C975ABB EQ PUSH2 0x7C2 JUMPI DUP3 PUSH4 0x61771E49 EQ PUSH2 0x797 JUMPI DUP3 PUSH4 0x6C2A0D74 EQ PUSH2 0x76E JUMPI DUP3 PUSH4 0x715018A6 EQ PUSH2 0x709 JUMPI DUP3 PUSH4 0x72C27B62 EQ PUSH2 0x696 JUMPI DUP3 PUSH4 0x77D44149 EQ PUSH2 0x626 JUMPI DUP3 PUSH4 0x79BA5097 EQ PUSH2 0x5A0 JUMPI DUP3 PUSH4 0x8456CB59 EQ PUSH2 0x52A JUMPI DUP3 PUSH4 0x846FA34D EQ PUSH2 0x412 JUMPI DUP3 PUSH4 0x8918C79E EQ PUSH2 0x3E9 JUMPI DUP3 PUSH4 0x8DA5CB5B EQ PUSH2 0x3C1 JUMPI DUP3 PUSH4 0x9ABA6A0F EQ PUSH2 0x393 JUMPI DUP3 PUSH4 0xADE36E1D EQ PUSH2 0x319 JUMPI POP DUP2 PUSH4 0xC646AEE2 EQ PUSH2 0x2DB JUMPI DUP2 PUSH4 0xCACCD7F7 EQ PUSH2 0x2B2 JUMPI DUP2 PUSH4 0xD09EDF31 EQ PUSH2 0x289 JUMPI DUP2 PUSH4 0xD55BE8C6 EQ PUSH2 0x26C JUMPI DUP2 PUSH4 0xDCC345F2 EQ PUSH2 0x22C JUMPI DUP2 PUSH4 0xE30C3978 EQ PUSH2 0x1FF JUMPI POP PUSH4 0xF2FDE38B EQ PUSH2 0x190 JUMPI PUSH0 DUP1 REVERT JUMPDEST CALLVALUE PUSH2 0x1FC JUMPI PUSH1 0x20 CALLDATASIZE PUSH1 0x3 NOT ADD SLT PUSH2 0x1FC JUMPI PUSH2 0x1A9 PUSH2 0x134F JUMP JUMPDEST PUSH2 0x1B1 PUSH2 0x1575 JUMP JUMPDEST PUSH1 0x1 DUP1 SLOAD PUSH1 0x1 PUSH1 0x1 PUSH1 0xA0 SHL SUB NOT AND PUSH1 0x1 PUSH1 0x1 PUSH1 0xA0 SHL SUB SWAP3 DUP4 AND SWAP1 DUP2 OR SWAP1 SWAP2 SSTORE DUP3 SLOAD SWAP1 SWAP2 AND PUSH32 0x38D16B8CAC22D99FC7C124B9CD0DE2D3FA1FAEF420BFE791D8C362D765E22700 DUP4 DUP1 LOG3 DUP1 RETURN JUMPDEST DUP1 REVERT JUMPDEST SWAP1 POP CALLVALUE PUSH2 0x228 JUMPI DUP2 PUSH1 0x3 NOT CALLDATASIZE ADD SLT PUSH2 0x228 JUMPI PUSH1 0x1 SLOAD SWAP1 MLOAD PUSH1 0x1 PUSH1 0x1 PUSH1 0xA0 SHL SUB SWAP1 SWAP2 AND DUP2 MSTORE PUSH1 0x20 SWAP1 RETURN JUMPDEST POP DUP1 REVERT JUMPDEST DUP3 CALLVALUE PUSH2 0x1FC JUMPI PUSH1 0x20 CALLDATASIZE PUSH1 0x3 NOT ADD SLT PUSH2 0x1FC JUMPI PUSH2 0x246 PUSH2 0x134F JUMP JUMPDEST PUSH2 0x24E PUSH2 0x1575 JUMP JUMPDEST PUSH1 0x1 DUP1 PUSH1 0xA0 SHL SUB AND PUSH1 0x1 PUSH1 0x1 PUSH1 0x60 SHL SUB PUSH1 0xA0 SHL PUSH1 0x2 SLOAD AND OR PUSH1 0x2 SSTORE DUP1 RETURN JUMPDEST SWAP1 POP CALLVALUE PUSH2 0x228 JUMPI DUP2 PUSH1 0x3 NOT CALLDATASIZE ADD SLT PUSH2 0x228 JUMPI PUSH1 0x20 SWAP1 MLOAD PUSH2 0x3E8 DUP2 MSTORE RETURN JUMPDEST SWAP1 POP CALLVALUE PUSH2 0x228 JUMPI DUP2 PUSH1 0x3 NOT CALLDATASIZE ADD SLT PUSH2 0x228 JUMPI PUSH1 0x5 SLOAD SWAP1 MLOAD PUSH1 0x1 PUSH1 0x1 PUSH1 0xA0 SHL SUB SWAP1 SWAP2 AND DUP2 MSTORE PUSH1 0x20 SWAP1 RETURN JUMPDEST SWAP1 POP CALLVALUE PUSH2 0x228 JUMPI DUP2 PUSH1 0x3 NOT CALLDATASIZE ADD SLT PUSH2 0x228 JUMPI PUSH1 0x2 SLOAD SWAP1 MLOAD PUSH1 0x1 PUSH1 0x1 PUSH1 0xA0 SHL SUB SWAP1 SWAP2 AND DUP2 MSTORE PUSH1 0x20 SWAP1 RETURN JUMPDEST SWAP1 POP CALLVALUE PUSH2 0x228 JUMPI PUSH1 0x20 CALLDATASIZE PUSH1 0x3 NOT ADD SLT PUSH2 0x228 JUMPI PUSH1 0x20 SWAP2 PUSH1 0xFF SWAP1 DUP3 SWAP1 PUSH1 0x1 PUSH1 0x1 PUSH1 0xA0 SHL SUB PUSH2 0x306 PUSH2 0x134F JUMP JUMPDEST AND DUP2 MSTORE PUSH1 0x6 DUP6 MSTORE KECCAK256 SLOAD AND SWAP1 MLOAD SWAP1 ISZERO ISZERO DUP2 MSTORE RETURN JUMPDEST SWAP2 POP CALLVALUE PUSH2 0x38F JUMPI PUSH1 0x20 CALLDATASIZE PUSH1 0x3 NOT ADD SLT PUSH2 0x38F JUMPI PUSH2 0x38C SWAP2 CALLDATALOAD PUSH2 0x339 PUSH2 0x1575 JUMP JUMPDEST DUP1 DUP5 MSTORE PUSH1 0xA PUSH1 0x20 MSTORE PUSH2 0x34F DUP3 DUP6 KECCAK256 SLOAD ISZERO ISZERO PUSH2 0x148B JUMP JUMPDEST DUP1 PUSH32 0x8F1AAFEE48488F6068A10E3D41FB46866C088AE8CE01798A83191869C93A52F0 DUP6 DUP1 LOG2 DUP4 MSTORE PUSH1 0xA PUSH1 0x20 MSTORE DUP3 DUP2 DUP2 KECCAK256 SSTORE PUSH1 0xB PUSH1 0x20 MSTORE DUP3 KECCAK256 PUSH2 0x14F3 JUMP JUMPDEST DUP1 RETURN JUMPDEST DUP3 DUP1 REVERT JUMPDEST SWAP1 SWAP2 POP CALLVALUE PUSH2 0x38F JUMPI PUSH1 0x20 CALLDATASIZE PUSH1 0x3 NOT ADD SLT PUSH2 0x38F JUMPI DUP2 PUSH1 0x20 SWAP4 PUSH1 0xFF SWAP3 CALLDATALOAD DUP2 MSTORE PUSH1 0x8 DUP6 MSTORE KECCAK256 SLOAD AND SWAP1 MLOAD SWAP1 ISZERO ISZERO DUP2 MSTORE RETURN JUMPDEST DUP4 DUP3 CALLVALUE PUSH2 0x228 JUMPI DUP2 PUSH1 0x3 NOT CALLDATASIZE ADD SLT PUSH2 0x228 JUMPI SWAP1 SLOAD SWAP1 MLOAD PUSH1 0x1 PUSH1 0x1 PUSH1 0xA0 SHL SUB SWAP1 SWAP2 AND DUP2 MSTORE PUSH1 0x20 SWAP1 RETURN JUMPDEST SWAP1 SWAP2 POP CALLVALUE PUSH2 0x38F JUMPI DUP3 PUSH1 0x3 NOT CALLDATASIZE ADD SLT PUSH2 0x38F JUMPI SLOAD SWAP1 MLOAD PUSH1 0x1 PUSH1 0x1 PUSH1 0xA0 SHL SUB SWAP1 SWAP2 AND DUP2 MSTORE PUSH1 0x20 SWAP2 POP RETURN JUMPDEST SWAP2 POP CALLVALUE PUSH2 0x38F JUMPI PUSH1 0x60 CALLDATASIZE PUSH1 0x3 NOT ADD SLT PUSH2 0x38F JUMPI DUP2 CALLDATALOAD PUSH2 0x42F PUSH2 0x1365 JUMP JUMPDEST SWAP2 CALLER DUP6 MSTORE PUSH1 0x20 SWAP4 PUSH1 0x9 DUP6 MSTORE PUSH1 0xFF DUP3 DUP8 KECCAK256 SLOAD AND ISZERO PUSH2 0x4EA JUMPI DUP3 DUP7 MSTORE PUSH1 0x8 DUP6 MSTORE PUSH1 0xFF DUP3 DUP8 KECCAK256 SLOAD AND PUSH2 0x4A9 JUMPI POP DUP2 DUP6 MSTORE PUSH1 0x8 DUP5 MSTORE DUP1 DUP6 KECCAK256 DUP1 SLOAD PUSH1 0xFF NOT AND PUSH1 0x1 OR SWAP1 SSTORE MLOAD PUSH1 0x44 CALLDATALOAD DUP2 MSTORE PUSH1 0x1 PUSH1 0x1 PUSH1 0xA0 SHL SUB SWAP1 SWAP3 AND SWAP3 CALLER SWAP3 PUSH32 0xE71F2D4FC99F7D557282A41E699063E3FF6752F44A7E31AAE25BD2666740C513 SWAP2 SWAP1 LOG4 DUP1 RETURN JUMPDEST DUP5 PUSH1 0x64 SWAP3 MLOAD SWAP2 PUSH3 0x461BCD PUSH1 0xE5 SHL DUP4 MSTORE DUP3 ADD MSTORE PUSH1 0x19 PUSH1 0x24 DUP3 ADD MSTORE PUSH32 0x5061796D656E7420616C72656164792070726F63657373656400000000000000 PUSH1 0x44 DUP3 ADD MSTORE REVERT JUMPDEST DUP5 DUP1 PUSH1 0x64 SWAP4 MLOAD SWAP3 PUSH3 0x461BCD PUSH1 0xE5 SHL DUP5 MSTORE DUP4 ADD MSTORE PUSH1 0x24 DUP3 ADD MSTORE PUSH32 0x43616C6C6572206973206E6F742061207265676973746572656420636C6F6E65 PUSH1 0x44 DUP3 ADD MSTORE REVERT JUMPDEST SWAP1 SWAP2 POP CALLVALUE PUSH2 0x38F JUMPI DUP3 PUSH1 0x3 NOT CALLDATASIZE ADD SLT PUSH2 0x38F JUMPI PUSH2 0x545 PUSH2 0x1575 JUMP JUMPDEST PUSH1 0x1 SLOAD SWAP1 PUSH1 0xFF DUP3 PUSH1 0xA0 SHR AND PUSH2 0x592 JUMPI POP PUSH1 0xFF PUSH1 0xA0 SHL NOT AND PUSH1 0x1 PUSH1 0xA0 SHL OR PUSH1 0x1 SSTORE MLOAD CALLER DUP2 MSTORE PUSH32 0x62E78CEA01BEE320CD4E420270B5EA74000D11B0C9F74754EBDBFC544B05A258 SWAP1 PUSH1 0x20 SWAP1 LOG1 DUP1 RETURN JUMPDEST DUP3 MLOAD PUSH4 0xD93C0665 PUSH1 0xE0 SHL DUP2 MSTORE REVERT JUMPDEST SWAP2 POP CALLVALUE PUSH2 0x38F JUMPI DUP3 PUSH1 0x3 NOT CALLDATASIZE ADD SLT PUSH2 0x38F JUMPI PUSH1 0x1 SLOAD SWAP2 PUSH1 0x1 PUSH1 0x1 PUSH1 0xA0 SHL SUB SWAP2 CALLER DUP4 DUP6 AND SUB PUSH2 0x60F JUMPI POP POP PUSH1 0x1 PUSH1 0x1 PUSH1 0x60 SHL SUB PUSH1 0xA0 SHL DUP1 SWAP3 AND PUSH1 0x1 SSTORE PUSH0 SLOAD SWAP2 CALLER SWAP1 DUP4 AND OR PUSH0 SSTORE CALLER SWAP2 AND PUSH32 0x8BE0079C531659141344CD1FD0A4F28419497F9722A3DAAFE3B4186F6B6457E0 PUSH0 DUP1 LOG3 DUP1 RETURN JUMPDEST PUSH1 0x24 SWAP3 POP MLOAD SWAP1 PUSH4 0x118CDAA7 PUSH1 0xE0 SHL DUP3 MSTORE CALLER SWAP1 DUP3 ADD MSTORE REVERT JUMPDEST SWAP1 DUP4 CALLVALUE PUSH2 0x1FC JUMPI PUSH1 0x20 SWAP3 DUP4 PUSH1 0x3 NOT CALLDATASIZE ADD SLT PUSH2 0x228 JUMPI SWAP3 SWAP1 SWAP3 CALLDATALOAD DUP4 MSTORE PUSH1 0xB DUP2 MSTORE PUSH2 0x650 DUP3 DUP5 KECCAK256 PUSH2 0x13DB JUMP JUMPDEST DUP3 MLOAD SWAP4 DUP3 DUP6 SWAP4 DUP5 MSTORE DUP3 MLOAD SWAP3 DUP4 DUP3 DUP7 ADD MSTORE DUP3 JUMPDEST DUP5 DUP2 LT PUSH2 0x680 JUMPI POP POP POP DUP3 DUP3 ADD DUP5 ADD MSTORE PUSH1 0x1F ADD PUSH1 0x1F NOT AND DUP2 ADD SUB ADD SWAP1 RETURN JUMPDEST DUP2 DUP2 ADD DUP4 ADD MLOAD DUP9 DUP3 ADD DUP9 ADD MSTORE DUP8 SWAP6 POP DUP3 ADD PUSH2 0x662 JUMP JUMPDEST SWAP1 SWAP2 POP CALLVALUE PUSH2 0x38F JUMPI PUSH1 0x20 CALLDATASIZE PUSH1 0x3 NOT ADD SLT PUSH2 0x38F JUMPI DUP1 CALLDATALOAD SWAP2 PUSH2 0x6B5 PUSH2 0x1575 JUMP JUMPDEST PUSH2 0x3E8 DUP4 GT PUSH2 0x6C6 JUMPI POP POP PUSH1 0x3 SSTORE DUP1 RETURN JUMPDEST SWAP1 PUSH1 0x20 PUSH1 0x64 SWAP3 MLOAD SWAP2 PUSH3 0x461BCD PUSH1 0xE5 SHL DUP4 MSTORE DUP3 ADD MSTORE PUSH1 0x1B PUSH1 0x24 DUP3 ADD MSTORE PUSH32 0x4665652065786365656473206D6178696D756D20616C6C6F7765640000000000 PUSH1 0x44 DUP3 ADD MSTORE REVERT JUMPDEST DUP4 CALLVALUE PUSH2 0x1FC JUMPI DUP1 PUSH1 0x3 NOT CALLDATASIZE ADD SLT PUSH2 0x1FC JUMPI PUSH2 0x722 PUSH2 0x1575 JUMP JUMPDEST PUSH1 0x1 DUP1 SLOAD PUSH1 0x1 PUSH1 0x1 PUSH1 0xA0 SHL SUB NOT SWAP1 DUP2 AND SWAP1 SWAP2 SSTORE PUSH0 DUP1 SLOAD SWAP2 DUP3 AND DUP2 SSTORE SWAP1 PUSH1 0x1 PUSH1 0x1 PUSH1 0xA0 SHL SUB AND PUSH32 0x8BE0079C531659141344CD1FD0A4F28419497F9722A3DAAFE3B4186F6B6457E0 DUP3 DUP1 LOG3 DUP1 RETURN JUMPDEST SWAP1 SWAP2 POP CALLVALUE PUSH2 0x38F JUMPI PUSH1 0x20 CALLDATASIZE PUSH1 0x3 NOT ADD SLT PUSH2 0x38F JUMPI PUSH1 0x20 SWAP3 DUP3 SWAP2 CALLDATALOAD DUP2 MSTORE PUSH1 0xA DUP5 MSTORE KECCAK256 SLOAD SWAP1 MLOAD SWAP1 DUP2 MSTORE RETURN JUMPDEST DUP4 DUP3 CALLVALUE PUSH2 0x228 JUMPI PUSH1 0x20 CALLDATASIZE PUSH1 0x3 NOT ADD SLT PUSH2 0x228 JUMPI PUSH1 0x20 SWAP2 PUSH1 0xFF SWAP1 DUP3 SWAP1 PUSH1 0x1 PUSH1 0x1 PUSH1 0xA0 SHL SUB PUSH2 0x306 PUSH2 0x134F JUMP JUMPDEST DUP4 DUP3 CALLVALUE PUSH2 0x228 JUMPI DUP2 PUSH1 0x3 NOT CALLDATASIZE ADD SLT PUSH2 0x228 JUMPI PUSH1 0x20 SWAP1 PUSH1 0xFF PUSH1 0x1 SLOAD PUSH1 0xA0 SHR AND SWAP1 MLOAD SWAP1 ISZERO ISZERO DUP2 MSTORE RETURN JUMPDEST DUP4 DUP3 CALLVALUE PUSH2 0x228 JUMPI DUP2 PUSH1 0x3 NOT CALLDATASIZE ADD SLT PUSH2 0x228 JUMPI PUSH1 0x20 SWAP1 MLOAD PUSH3 0x2A300 DUP2 MSTORE RETURN JUMPDEST DUP4 DUP3 CALLVALUE PUSH2 0x228 JUMPI PUSH1 0x20 CALLDATASIZE PUSH1 0x3 NOT ADD SLT PUSH2 0x228 JUMPI PUSH1 0x20 SWAP2 PUSH1 0x1 PUSH1 0x1 PUSH1 0xA0 SHL SUB SWAP1 DUP3 SWAP1 DUP3 PUSH2 0x831 PUSH2 0x134F JUMP JUMPDEST AND DUP2 MSTORE PUSH1 0x7 DUP6 MSTORE KECCAK256 SLOAD AND SWAP1 MLOAD SWAP1 DUP2 MSTORE RETURN JUMPDEST SWAP3 POP SWAP1 CALLVALUE PUSH2 0x8E2 JUMPI DUP1 PUSH1 0x3 NOT CALLDATASIZE ADD SLT PUSH2 0x8E2 JUMPI PUSH2 0x85D PUSH2 0x134F JUMP JUMPDEST PUSH2 0x865 PUSH2 0x1365 JUMP JUMPDEST SWAP1 PUSH2 0x86E PUSH2 0x1575 JUMP JUMPDEST PUSH1 0x1 PUSH1 0x1 PUSH1 0xA0 SHL SUB SWAP1 DUP2 AND DUP1 DUP7 MSTORE PUSH1 0x9 PUSH1 0x20 MSTORE DUP4 DUP7 KECCAK256 SLOAD PUSH2 0x891 SWAP1 PUSH1 0xFF AND PUSH2 0x153B JUMP JUMPDEST DUP1 EXTCODESIZE ISZERO PUSH2 0x8DE JUMPI DUP6 SWAP3 DUP4 PUSH1 0x24 SWAP3 DUP7 MLOAD SWAP8 DUP9 SWAP6 DUP7 SWAP5 PUSH4 0x58A628F PUSH1 0xE0 SHL DUP7 MSTORE AND SWAP1 DUP5 ADD MSTORE GAS CALL SWAP1 DUP2 ISZERO PUSH2 0x8D5 JUMPI POP PUSH2 0x8C5 JUMPI POP RETURN JUMPDEST PUSH2 0x8CE SWAP1 PUSH2 0x13B3 JUMP JUMPDEST PUSH2 0x1FC JUMPI DUP1 RETURN JUMPDEST MLOAD RETURNDATASIZE DUP5 DUP3 RETURNDATACOPY RETURNDATASIZE SWAP1 REVERT JUMPDEST DUP6 DUP1 REVERT JUMPDEST POP POP REVERT JUMPDEST SWAP2 POP CALLVALUE PUSH2 0x38F JUMPI PUSH1 0x60 SWAP3 DUP4 PUSH1 0x3 NOT CALLDATASIZE ADD SLT PUSH2 0x1FC JUMPI PUSH2 0x903 PUSH2 0x134F JUMP JUMPDEST PUSH2 0x90B PUSH2 0x1365 JUMP JUMPDEST SWAP5 PUSH1 0x44 CALLDATALOAD SWAP6 PUSH2 0x918 PUSH2 0x1575 JUMP JUMPDEST PUSH1 0x1 DUP1 PUSH1 0xA0 SHL SUB SWAP7 DUP8 DUP5 AND SWAP5 DUP6 DUP2 MSTORE PUSH1 0x20 SWAP9 PUSH1 0x9 DUP11 MSTORE PUSH2 0x93D PUSH1 0xFF DUP10 DUP5 KECCAK256 SLOAD AND PUSH2 0x153B JUMP JUMPDEST DUP8 MLOAD SWAP6 DUP11 DUP8 ADD SWAP2 PUSH1 0x1 PUSH1 0x1 PUSH1 0x60 SHL SUB NOT DUP1 SWAP3 DUP9 SHL AND DUP4 MSTORE DUP6 AND SWAP5 DUP7 SHL AND PUSH1 0x34 DUP8 ADD MSTORE DUP3 PUSH1 0x48 DUP8 ADD MSTORE TIMESTAMP PUSH1 0x68 DUP8 ADD MSTORE PUSH1 0x68 DUP7 MSTORE PUSH1 0xA0 DUP7 ADD SWAP6 PUSH8 0xFFFFFFFFFFFFFFFF SWAP7 DUP2 DUP2 LT DUP9 DUP3 GT OR PUSH2 0xB88 JUMPI DUP10 MSTORE MLOAD SWAP1 KECCAK256 SWAP8 PUSH3 0x2A300 TIMESTAMP ADD DUP1 TIMESTAMP GT PUSH2 0xB75 JUMPI DUP10 DUP4 MSTORE PUSH1 0xA DUP12 MSTORE DUP9 DUP4 KECCAK256 SSTORE DUP8 MLOAD SWAP6 DUP8 DUP12 DUP9 ADD MSTORE DUP5 DUP10 DUP9 ADD MSTORE DUP4 DUP7 DUP9 ADD MSTORE DUP6 DUP8 MSTORE PUSH1 0x80 DUP8 ADD DUP8 DUP2 LT DUP3 DUP3 GT OR PUSH2 0xB62 JUMPI DUP10 MSTORE DUP10 DUP4 MSTORE PUSH1 0xB DUP12 MSTORE DUP9 DUP4 KECCAK256 SWAP2 DUP8 MLOAD SWAP2 DUP3 GT PUSH2 0xB4F JUMPI POP SWAP2 DUP2 DUP11 SWAP7 SWAP6 SWAP5 SWAP4 PUSH2 0x9F4 DUP12 SWAP5 SLOAD PUSH2 0x137B JUMP JUMPDEST DUP14 PUSH1 0x1F DUP3 GT PUSH2 0xB16 JUMPI JUMPDEST POP POP DUP13 SWAP9 PUSH1 0x1F DUP3 GT PUSH1 0x1 EQ PUSH2 0xA76 JUMPI PUSH32 0x1BDB25BC80D6550A01487654162D2B7BCBAECA17B410F1A7AE23527994912375 SWAP9 SWAP10 DUP3 SWAP2 DUP6 SWAP3 PUSH2 0xA6B JUMPI JUMPDEST POP POP DUP2 PUSH1 0x1 SHL SWAP2 PUSH0 NOT SWAP1 PUSH1 0x3 SHL SHR NOT AND OR SWAP1 SSTORE JUMPDEST DUP7 DUP2 MSTORE PUSH1 0xA DUP12 MSTORE KECCAK256 SLOAD SWAP1 DUP8 MLOAD SWAP3 DUP4 MSTORE DUP10 DUP4 ADD MSTORE DUP7 DUP3 ADD MSTORE LOG3 MLOAD SWAP1 DUP2 MSTORE RETURN JUMPDEST ADD MLOAD SWAP1 POP PUSH0 DUP1 PUSH2 0xA39 JUMP JUMPDEST DUP14 SWAP1 PUSH1 0x1F NOT DUP4 AND DUP5 DUP7 MSTORE DUP3 DUP7 KECCAK256 SWAP3 DUP7 SWAP1 JUMPDEST DUP3 DUP3 LT PUSH2 0xAE5 JUMPI POP POP SWAP11 DUP4 SWAP3 SWAP2 PUSH1 0x1 SWAP5 PUSH32 0x1BDB25BC80D6550A01487654162D2B7BCBAECA17B410F1A7AE23527994912375 SWAP13 SWAP14 LT PUSH2 0xACD JUMPI JUMPDEST POP POP POP DUP2 SHL ADD SWAP1 SSTORE PUSH2 0xA4D JUMP JUMPDEST ADD MLOAD PUSH0 NOT PUSH1 0xF8 DUP5 PUSH1 0x3 SHL AND SHR NOT AND SWAP1 SSTORE PUSH0 DUP1 DUP1 PUSH2 0xAC0 JUMP JUMPDEST SWAP3 SWAP5 SWAP8 POP SWAP5 SWAP8 SWAP10 SWAP12 SWAP6 SWAP9 SWAP11 POP SWAP2 DUP2 PUSH1 0x1 DUP2 SWAP3 DUP9 DUP8 ADD MLOAD DUP2 SSTORE ADD SWAP7 ADD SWAP5 ADD SWAP2 DUP15 SWAP11 SWAP9 SWAP6 SWAP3 DUP15 SWAP8 SWAP5 SWAP3 SWAP13 SWAP11 SWAP9 SWAP6 SWAP13 PUSH2 0xA87 JUMP JUMPDEST DUP4 DUP6 MSTORE DUP1 DUP6 KECCAK256 PUSH2 0xB3E SWAP3 PUSH1 0x1F DUP6 ADD PUSH1 0x5 SHR DUP3 ADD SWAP3 DUP6 LT PUSH2 0xB45 JUMPI JUMPDEST PUSH1 0x1F ADD PUSH1 0x5 SHR ADD SWAP1 PUSH2 0x14DD JUMP JUMPDEST PUSH0 DUP14 PUSH2 0x9FE JUMP JUMPDEST SWAP1 SWAP2 POP DUP2 SWAP1 PUSH2 0xB31 JUMP JUMPDEST PUSH4 0x4E487B71 PUSH1 0xE0 SHL DUP5 MSTORE PUSH1 0x41 SWAP1 MSTORE PUSH1 0x24 DUP4 REVERT JUMPDEST PUSH1 0x41 DUP4 PUSH4 0x4E487B71 PUSH1 0xE0 SHL PUSH0 MSTORE MSTORE PUSH1 0x24 PUSH0 REVERT JUMPDEST PUSH4 0x4E487B71 PUSH1 0xE0 SHL DUP4 MSTORE PUSH1 0x11 DUP3 MSTORE PUSH1 0x24 DUP4 REVERT JUMPDEST PUSH1 0x41 DUP12 PUSH4 0x4E487B71 PUSH1 0xE0 SHL PUSH0 MSTORE MSTORE PUSH1 0x24 PUSH0 REVERT JUMPDEST SWAP1 SWAP2 POP CALLVALUE PUSH2 0x38F JUMPI DUP3 PUSH1 0x3 NOT CALLDATASIZE ADD SLT PUSH2 0x38F JUMPI PUSH2 0xBB6 PUSH2 0x1575 JUMP JUMPDEST PUSH1 0x1 SLOAD SWAP1 PUSH1 0xFF DUP3 PUSH1 0xA0 SHR AND ISZERO PUSH2 0xBFE JUMPI POP PUSH1 0xFF PUSH1 0xA0 SHL NOT AND PUSH1 0x1 SSTORE MLOAD CALLER DUP2 MSTORE PUSH32 0x5DB9EE0A495BF2E6FF9C91A7834C1BA4FDD244A5E8AA4E537BD38AEAE4B073AA SWAP1 PUSH1 0x20 SWAP1 LOG1 DUP1 RETURN JUMPDEST DUP3 MLOAD PUSH4 0x8DFC202B PUSH1 0xE0 SHL DUP2 MSTORE REVERT JUMPDEST SWAP2 POP CALLVALUE PUSH2 0x38F JUMPI PUSH1 0x20 SWAP3 DUP4 PUSH1 0x3 NOT CALLDATASIZE ADD SLT PUSH2 0x1FC JUMPI POP PUSH1 0x1 PUSH1 0x1 PUSH1 0xA0 SHL SUB SWAP2 DUP3 PUSH2 0xC34 PUSH2 0x134F JUMP JUMPDEST AND SWAP1 DUP2 PUSH0 MSTORE PUSH1 0x7 DUP6 MSTORE DUP4 DUP4 PUSH0 KECCAK256 SLOAD AND PUSH2 0xDA3 JUMPI DUP1 SLOAD DUP4 MLOAD PUSH20 0x3D602D80600A3D3981F3363D3D373D3D3D363D73 PUSH1 0x60 SHL DUP2 MSTORE PUSH1 0x60 SWAP2 SWAP1 SWAP2 SHL PUSH12 0xFFFFFFFFFFFFFFFFFFFFFFFF NOT AND PUSH1 0x14 DUP3 ADD MSTORE PUSH15 0x5AF43D82803E903D91602B57FD5BF3 PUSH1 0x88 SHL PUSH1 0x28 DUP3 ADD MSTORE SWAP4 PUSH1 0x37 DUP6 PUSH0 CREATE DUP2 PUSH1 0x37 DUP8 ADD SWAP2 DUP3 DUP8 MSTORE AND SWAP6 DUP7 ISZERO PUSH2 0xD69 JUMPI POP POP PUSH1 0x5 SLOAD AND DUP5 EXTCODESIZE ISZERO PUSH2 0xD65 JUMPI DUP4 MLOAD PUSH4 0xC0C53B8B PUSH1 0xE0 SHL DUP2 MSTORE SWAP2 DUP3 ADD DUP4 SWAP1 MSTORE ADDRESS PUSH1 0x24 DUP4 ADD MSTORE PUSH1 0x44 DUP3 ADD MSTORE PUSH0 DUP2 PUSH1 0x64 DUP2 DUP4 DUP9 GAS CALL DUP1 ISZERO PUSH2 0xD5B JUMPI PUSH2 0xD4C JUMPI JUMPDEST POP DUP1 PUSH0 MSTORE PUSH1 0x7 DUP5 MSTORE DUP2 PUSH0 KECCAK256 DUP4 PUSH1 0x1 PUSH1 0x1 PUSH1 0x60 SHL SUB PUSH1 0xA0 SHL DUP3 SLOAD AND OR SWAP1 SSTORE DUP3 PUSH0 MSTORE PUSH1 0x9 DUP5 MSTORE DUP2 PUSH0 KECCAK256 PUSH1 0x1 PUSH1 0xFF NOT DUP3 SLOAD AND OR SWAP1 SSTORE PUSH32 0xC1F9D081289E627D16E20E8CE42A4F26358883FDD78C0EA20AC02134C20320AE DUP5 DUP4 MLOAD DUP6 DUP2 MSTORE LOG2 MLOAD SWAP1 DUP2 MSTORE RETURN JUMPDEST PUSH2 0xD55 SWAP1 PUSH2 0x13B3 JUMP JUMPDEST PUSH0 PUSH2 0xCEC JUMP JUMPDEST DUP4 MLOAD RETURNDATASIZE PUSH0 DUP3 RETURNDATACOPY RETURNDATASIZE SWAP1 REVERT JUMPDEST PUSH0 DUP1 REVERT JUMPDEST SWAP1 PUSH22 0x115490CC4C4D8DCE8818DC99585D194819985A5B1959 PUSH1 0x52 SHL PUSH1 0x7B PUSH1 0x64 SWAP4 DUP11 PUSH3 0x461BCD PUSH1 0xE5 SHL DUP6 MSTORE PUSH1 0x3B DUP3 ADD MSTORE PUSH1 0x16 PUSH1 0x5B DUP3 ADD MSTORE ADD MSTORE REVERT JUMPDEST DUP3 MLOAD PUSH3 0x461BCD PUSH1 0xE5 SHL DUP2 MSTORE SWAP1 DUP2 ADD DUP6 SWAP1 MSTORE PUSH1 0x1C PUSH1 0x24 DUP3 ADD MSTORE PUSH32 0x4D65726368616E7420616C726561647920686173206120636C6F6E6500000000 PUSH1 0x44 DUP3 ADD MSTORE PUSH1 0x64 SWAP1 REVERT JUMPDEST DUP4 CALLVALUE PUSH2 0x1FC JUMPI DUP3 PUSH1 0x3 NOT CALLDATASIZE ADD SLT PUSH2 0x1FC JUMPI POP PUSH2 0xE00 PUSH2 0x134F JUMP JUMPDEST SWAP2 PUSH2 0xE09 PUSH2 0x1365 JUMP JUMPDEST SWAP2 PUSH0 PUSH1 0x1 DUP1 PUSH1 0xA0 SHL SUB DUP1 SWAP6 AND SWAP2 DUP3 PUSH0 MSTORE PUSH1 0x20 SWAP6 PUSH1 0x7 DUP8 MSTORE DUP1 DUP6 PUSH0 KECCAK256 SLOAD AND PUSH2 0xF9A JUMPI DUP2 SLOAD DUP6 MLOAD PUSH20 0x3D602D80600A3D3981F3363D3D373D3D3D363D73 PUSH1 0x60 SHL DUP2 MSTORE PUSH1 0x60 SWAP2 SWAP1 SWAP2 SHL PUSH12 0xFFFFFFFFFFFFFFFFFFFFFFFF NOT AND PUSH1 0x14 DUP3 ADD MSTORE PUSH15 0x5AF43D82803E903D91602B57FD5BF3 PUSH1 0x88 SHL PUSH1 0x28 DUP3 ADD MSTORE SWAP6 PUSH1 0x37 DUP8 PUSH0 CREATE DUP3 PUSH1 0x37 DUP10 ADD SWAP2 DUP3 DUP10 MSTORE AND SWAP8 DUP9 ISZERO PUSH2 0xF60 JUMPI POP POP DUP1 DUP3 AND ISZERO PUSH2 0xF55 JUMPI JUMPDEST DUP7 EXTCODESIZE ISZERO PUSH2 0xD65 JUMPI DUP6 MLOAD PUSH4 0xC0C53B8B PUSH1 0xE0 SHL DUP2 MSTORE SWAP3 DUP4 ADD DUP6 SWAP1 MSTORE ADDRESS PUSH1 0x24 DUP5 ADD MSTORE AND PUSH1 0x44 DUP3 ADD MSTORE PUSH0 DUP2 PUSH1 0x64 DUP2 DUP4 DUP10 GAS CALL DUP1 ISZERO PUSH2 0xF4B JUMPI SWAP1 DUP5 SWAP3 SWAP2 PUSH2 0xF37 JUMPI JUMPDEST POP DUP3 DUP2 MSTORE PUSH1 0x7 DUP7 MSTORE DUP2 DUP2 KECCAK256 DUP1 SLOAD PUSH1 0x1 PUSH1 0x1 PUSH1 0xA0 SHL SUB NOT AND DUP7 OR SWAP1 SSTORE DUP5 DUP2 MSTORE PUSH1 0x9 DUP7 MSTORE KECCAK256 DUP1 SLOAD PUSH1 0xFF NOT AND PUSH1 0x1 OR SWAP1 SSTORE DUP2 MLOAD DUP4 DUP2 MSTORE PUSH32 0xC1F9D081289E627D16E20E8CE42A4F26358883FDD78C0EA20AC02134C20320AE SWAP1 DUP6 SWAP1 LOG2 MLOAD SWAP1 DUP2 MSTORE RETURN JUMPDEST SWAP1 POP PUSH2 0xF43 SWAP2 POP PUSH2 0x13B3 JUMP JUMPDEST DUP2 PUSH0 DUP7 PUSH2 0xED9 JUMP JUMPDEST DUP5 MLOAD RETURNDATASIZE PUSH0 DUP3 RETURNDATACOPY RETURNDATASIZE SWAP1 REVERT JUMPDEST POP DUP1 PUSH1 0x5 SLOAD AND PUSH2 0xE9C JUMP JUMPDEST SWAP1 PUSH22 0x115490CC4C4D8DCE8818DC99585D194819985A5B1959 PUSH1 0x52 SHL PUSH1 0x7B PUSH1 0x64 SWAP4 DUP13 PUSH3 0x461BCD PUSH1 0xE5 SHL DUP6 MSTORE PUSH1 0x3B DUP3 ADD MSTORE PUSH1 0x16 PUSH1 0x5B DUP3 ADD MSTORE ADD MSTORE REVERT JUMPDEST DUP5 MLOAD PUSH3 0x461BCD PUSH1 0xE5 SHL DUP2 MSTORE DUP1 DUP4 ADD DUP9 SWAP1 MSTORE PUSH1 0x1C PUSH1 0x24 DUP3 ADD MSTORE PUSH32 0x4D65726368616E7420616C726561647920686173206120636C6F6E6500000000 PUSH1 0x44 DUP3 ADD MSTORE PUSH1 0x64 SWAP1 REVERT JUMPDEST SWAP2 POP CALLVALUE PUSH2 0x38F JUMPI PUSH1 0x20 DUP1 PUSH1 0x3 NOT CALLDATASIZE ADD SLT PUSH2 0x1164 JUMPI DUP3 CALLDATALOAD PUSH2 0xFFB PUSH2 0x1575 JUMP JUMPDEST DUP1 DUP6 MSTORE PUSH1 0xA DUP3 MSTORE DUP3 DUP6 KECCAK256 SLOAD PUSH2 0x1011 DUP2 ISZERO ISZERO PUSH2 0x148B JUMP JUMPDEST TIMESTAMP LT PUSH2 0x1130 JUMPI DUP1 DUP6 MSTORE PUSH1 0xB DUP3 MSTORE PUSH2 0x1029 DUP4 DUP7 KECCAK256 PUSH2 0x13DB JUMP JUMPDEST PUSH1 0x60 DUP2 DUP1 MLOAD DUP2 ADD SUB SLT PUSH2 0x8DE JUMPI PUSH2 0x1041 DUP4 DUP3 ADD PUSH2 0x14C9 JUMP JUMPDEST SWAP5 DUP7 PUSH1 0x60 PUSH2 0x1050 DUP8 DUP6 ADD PUSH2 0x14C9 JUMP JUMPDEST SWAP4 ADD MLOAD SWAP7 PUSH1 0x1 PUSH1 0x1 PUSH1 0xA0 SHL SUB SWAP1 DUP2 AND SWAP4 AND SWAP2 DUP4 EXTCODESIZE ISZERO PUSH2 0x228 JUMPI DUP7 MLOAD PUSH4 0x67E7AC5 PUSH1 0xE3 SHL DUP2 MSTORE PUSH1 0x1 PUSH1 0x1 PUSH1 0xA0 SHL SUB DUP5 AND SWAP2 DUP2 ADD SWAP2 DUP3 MSTORE PUSH1 0x20 DUP3 ADD DUP10 SWAP1 MSTORE SWAP1 DUP3 SWAP1 DUP3 SWAP1 DUP2 SWAP1 PUSH1 0x40 ADD SUB DUP2 DUP4 DUP9 GAS CALL DUP1 ISZERO PUSH2 0x1126 JUMPI PUSH2 0x1106 JUMPI JUMPDEST POP POP DUP5 MLOAD PUSH1 0x1 PUSH1 0x1 PUSH1 0xA0 SHL SUB SWAP2 SWAP1 SWAP2 AND DUP2 MSTORE PUSH1 0x20 DUP2 ADD SWAP6 SWAP1 SWAP6 MSTORE PUSH2 0x38C SWAP5 PUSH1 0xB SWAP4 SWAP3 SWAP2 SWAP1 DUP3 SWAP1 PUSH32 0x5DB6A65E184FDE5DAC11952C68D57E85FF97BB19ED7514F55990B90FC6B0138 SWAP1 PUSH1 0x40 SWAP1 LOG3 DUP6 MSTORE PUSH1 0xA DUP2 MSTORE DUP5 DUP4 DUP2 KECCAK256 SSTORE MSTORE DUP3 KECCAK256 PUSH2 0x14F3 JUMP JUMPDEST PUSH2 0x1114 SWAP1 SWAP6 SWAP5 SWAP4 SWAP3 SWAP6 PUSH2 0x13B3 JUMP JUMPDEST PUSH2 0x1122 JUMPI SWAP1 SWAP2 SWAP3 DUP7 PUSH0 PUSH2 0x10A7 JUMP JUMPDEST DUP7 DUP1 REVERT JUMPDEST DUP8 MLOAD RETURNDATASIZE DUP5 DUP3 RETURNDATACOPY RETURNDATASIZE SWAP1 REVERT JUMPDEST POP SWAP1 MLOAD PUSH3 0x461BCD PUSH1 0xE5 SHL DUP2 MSTORE SWAP2 DUP3 ADD MSTORE PUSH1 0xF PUSH1 0x24 DUP3 ADD MSTORE PUSH15 0x54696D656C6F636B20616374697665 PUSH1 0x88 SHL PUSH1 0x44 DUP3 ADD MSTORE PUSH1 0x64 SWAP1 REVERT JUMPDEST DUP4 DUP1 REVERT JUMPDEST DUP4 DUP3 CALLVALUE PUSH2 0x228 JUMPI DUP2 PUSH1 0x3 NOT CALLDATASIZE ADD SLT PUSH2 0x228 JUMPI PUSH1 0x20 SWAP1 PUSH1 0x3 SLOAD SWAP1 MLOAD SWAP1 DUP2 MSTORE RETURN JUMPDEST SWAP2 POP CALLVALUE PUSH2 0xD65 JUMPI DUP1 PUSH1 0x3 NOT CALLDATASIZE ADD SLT PUSH2 0xD65 JUMPI PUSH2 0x11A1 PUSH2 0x134F JUMP JUMPDEST CALLER PUSH0 SWAP1 DUP2 MSTORE PUSH1 0x7 PUSH1 0x20 MSTORE DUP3 SWAP1 KECCAK256 SLOAD PUSH1 0x1 PUSH1 0x1 PUSH1 0xA0 SHL SUB AND SWAP3 DUP4 ISZERO PUSH2 0x1224 JUMPI DUP4 EXTCODESIZE ISZERO PUSH2 0xD65 JUMPI DUP3 MLOAD PUSH4 0x67E7AC5 PUSH1 0xE3 SHL DUP2 MSTORE PUSH1 0x1 PUSH1 0x1 PUSH1 0xA0 SHL SUB SWAP1 SWAP3 AND SWAP1 DUP3 ADD SWAP1 DUP2 MSTORE PUSH1 0x24 CALLDATALOAD PUSH1 0x20 DUP3 ADD MSTORE SWAP1 SWAP3 PUSH0 SWAP2 DUP5 SWAP2 SWAP1 DUP3 SWAP1 DUP5 SWAP1 DUP3 SWAP1 PUSH1 0x40 ADD SUB SWAP3 GAS CALL SWAP1 DUP2 ISZERO PUSH2 0x121B JUMPI POP PUSH2 0x120F JUMPI POP DUP1 RETURN JUMPDEST PUSH2 0x1219 SWAP2 POP PUSH2 0x13B3 JUMP JUMPDEST STOP JUMPDEST MLOAD RETURNDATASIZE PUSH0 DUP3 RETURNDATACOPY RETURNDATASIZE SWAP1 REVERT JUMPDEST PUSH1 0x64 SWAP1 PUSH1 0x20 DUP5 MLOAD SWAP2 PUSH3 0x461BCD PUSH1 0xE5 SHL DUP4 MSTORE DUP3 ADD MSTORE PUSH1 0x13 PUSH1 0x24 DUP3 ADD MSTORE PUSH19 0x27379031B637B732903337B91039B2B73232B9 PUSH1 0x69 SHL PUSH1 0x44 DUP3 ADD MSTORE REVERT JUMPDEST POP CALLVALUE PUSH2 0xD65 JUMPI DUP1 PUSH1 0x3 NOT CALLDATASIZE ADD SLT PUSH2 0xD65 JUMPI PUSH2 0x1276 PUSH2 0x134F JUMP JUMPDEST SWAP1 PUSH1 0x24 CALLDATALOAD SWAP2 DUP3 ISZERO ISZERO DUP1 SWAP4 SUB PUSH2 0xD65 JUMPI PUSH2 0x128D PUSH2 0x1575 JUMP JUMPDEST PUSH1 0x1 DUP1 PUSH1 0xA0 SHL SUB AND PUSH0 MSTORE PUSH1 0x6 PUSH1 0x20 MSTORE PUSH0 KECCAK256 SWAP1 PUSH1 0xFF DUP1 NOT DUP4 SLOAD AND SWAP2 AND OR SWAP1 SSTORE PUSH0 DUP1 RETURN JUMPDEST CALLVALUE PUSH2 0xD65 JUMPI PUSH1 0x20 CALLDATASIZE PUSH1 0x3 NOT ADD SLT PUSH2 0xD65 JUMPI PUSH2 0x12C8 PUSH2 0x134F JUMP JUMPDEST PUSH2 0x12D0 PUSH2 0x1575 JUMP JUMPDEST PUSH1 0x5 DUP1 SLOAD PUSH1 0x1 PUSH1 0x1 PUSH1 0xA0 SHL SUB NOT AND PUSH1 0x1 PUSH1 0x1 PUSH1 0xA0 SHL SUB SWAP3 SWAP1 SWAP3 AND SWAP2 DUP3 OR SWAP1 SSTORE PUSH32 0xF3F625A7D9E02778AFDFDF1BEA978D6565840D408866C70F5D25AADF77021D70 PUSH0 DUP1 LOG2 STOP JUMPDEST SWAP1 POP CALLVALUE PUSH2 0xD65 JUMPI PUSH1 0x20 CALLDATASIZE PUSH1 0x3 NOT ADD SLT PUSH2 0xD65 JUMPI PUSH1 0x20 SWAP2 PUSH1 0xFF SWAP1 PUSH1 0x1 PUSH1 0x1 PUSH1 0xA0 SHL SUB PUSH2 0x133E PUSH2 0x134F JUMP JUMPDEST AND PUSH0 MSTORE PUSH1 0x9 DUP5 MSTORE PUSH0 KECCAK256 SLOAD AND ISZERO ISZERO DUP2 MSTORE RETURN JUMPDEST PUSH1 0x4 CALLDATALOAD SWAP1 PUSH1 0x1 PUSH1 0x1 PUSH1 0xA0 SHL SUB DUP3 AND DUP3 SUB PUSH2 0xD65 JUMPI JUMP JUMPDEST PUSH1 0x24 CALLDATALOAD SWAP1 PUSH1 0x1 PUSH1 0x1 PUSH1 0xA0 SHL SUB DUP3 AND DUP3 SUB PUSH2 0xD65 JUMPI JUMP JUMPDEST SWAP1 PUSH1 0x1 DUP3 DUP2 SHR SWAP3 AND DUP1 ISZERO PUSH2 0x13A9 JUMPI JUMPDEST PUSH1 0x20 DUP4 LT EQ PUSH2 0x1395 JUMPI JUMP JUMPDEST PUSH4 0x4E487B71 PUSH1 0xE0 SHL PUSH0 MSTORE PUSH1 0x22 PUSH1 0x4 MSTORE PUSH1 0x24 PUSH0 REVERT JUMPDEST SWAP2 PUSH1 0x7F AND SWAP2 PUSH2 0x138A JUMP JUMPDEST PUSH8 0xFFFFFFFFFFFFFFFF DUP2 GT PUSH2 0x13C7 JUMPI PUSH1 0x40 MSTORE JUMP JUMPDEST PUSH4 0x4E487B71 PUSH1 0xE0 SHL PUSH0 MSTORE PUSH1 0x41 PUSH1 0x4 MSTORE PUSH1 0x24 PUSH0 REVERT JUMPDEST SWAP1 PUSH1 0x40 MLOAD SWAP2 PUSH0 SWAP1 DUP1 SLOAD PUSH2 0x13ED DUP2 PUSH2 0x137B JUMP JUMPDEST SWAP1 DUP2 DUP7 MSTORE PUSH1 0x20 SWAP3 PUSH1 0x1 SWAP2 PUSH1 0x1 DUP2 AND SWAP1 DUP2 PUSH0 EQ PUSH2 0x146D JUMPI POP PUSH1 0x1 EQ PUSH2 0x1434 JUMPI JUMPDEST POP POP POP POP DUP3 SWAP1 SUB PUSH1 0x1F ADD PUSH1 0x1F NOT AND DUP3 ADD PUSH8 0xFFFFFFFFFFFFFFFF DUP2 GT DUP4 DUP3 LT OR PUSH2 0x13C7 JUMPI PUSH1 0x40 MSTORE JUMP JUMPDEST SWAP1 SWAP3 SWAP4 POP PUSH0 MSTORE DUP3 PUSH0 KECCAK256 SWAP2 DUP4 PUSH0 SWAP4 JUMPDEST DUP4 DUP6 LT PUSH2 0x1459 JUMPI POP POP POP POP DUP4 ADD ADD PUSH0 DUP1 DUP1 DUP1 PUSH2 0x140C JUMP JUMPDEST DUP1 SLOAD DUP9 DUP7 ADD DUP4 ADD MSTORE SWAP4 ADD SWAP3 DUP5 SWAP1 DUP3 ADD PUSH2 0x1442 JUMP JUMPDEST PUSH1 0xFF NOT AND DUP9 DUP7 ADD MSTORE POP POP POP ISZERO ISZERO PUSH1 0x5 SHL DUP5 ADD ADD SWAP1 POP PUSH0 DUP1 DUP1 DUP1 PUSH2 0x140C JUMP JUMPDEST ISZERO PUSH2 0x1492 JUMPI JUMP JUMPDEST PUSH1 0x40 MLOAD PUSH3 0x461BCD PUSH1 0xE5 SHL DUP2 MSTORE PUSH1 0x20 PUSH1 0x4 DUP3 ADD MSTORE PUSH1 0xF PUSH1 0x24 DUP3 ADD MSTORE PUSH15 0x125B9D985B1A59081C995C5D595CDD PUSH1 0x8A SHL PUSH1 0x44 DUP3 ADD MSTORE PUSH1 0x64 SWAP1 REVERT JUMPDEST MLOAD SWAP1 PUSH1 0x1 PUSH1 0x1 PUSH1 0xA0 SHL SUB DUP3 AND DUP3 SUB PUSH2 0xD65 JUMPI JUMP JUMPDEST DUP2 DUP2 LT PUSH2 0x14E8 JUMPI POP POP JUMP JUMPDEST PUSH0 DUP2 SSTORE PUSH1 0x1 ADD PUSH2 0x14DD JUMP JUMPDEST PUSH2 0x14FD DUP2 SLOAD PUSH2 0x137B JUMP JUMPDEST SWAP1 DUP2 PUSH2 0x1507 JUMPI POP POP JUMP JUMPDEST DUP2 PUSH1 0x1F PUSH0 SWAP4 GT PUSH1 0x1 EQ PUSH2 0x1518 JUMPI POP SSTORE JUMP JUMPDEST SWAP1 DUP1 DUP4 SWAP2 DUP3 MSTORE PUSH2 0x1537 PUSH1 0x1F PUSH1 0x20 DUP5 KECCAK256 SWAP5 ADD PUSH1 0x5 SHR DUP5 ADD PUSH1 0x1 DUP6 ADD PUSH2 0x14DD JUMP JUMPDEST SSTORE SSTORE JUMP JUMPDEST ISZERO PUSH2 0x1542 JUMPI JUMP JUMPDEST PUSH1 0x40 MLOAD PUSH3 0x461BCD PUSH1 0xE5 SHL DUP2 MSTORE PUSH1 0x20 PUSH1 0x4 DUP3 ADD MSTORE PUSH1 0xB PUSH1 0x24 DUP3 ADD MSTORE PUSH11 0x4E6F74206120636C6F6E65 PUSH1 0xA8 SHL PUSH1 0x44 DUP3 ADD MSTORE PUSH1 0x64 SWAP1 REVERT JUMPDEST PUSH0 SLOAD PUSH1 0x1 PUSH1 0x1 PUSH1 0xA0 SHL SUB AND CALLER SUB PUSH2 0x1588 JUMPI JUMP JUMPDEST PUSH1 0x40 MLOAD PUSH4 0x118CDAA7 PUSH1 0xE0 SHL DUP2 MSTORE CALLER PUSH1 0x4 DUP3 ADD MSTORE PUSH1 0x24 SWAP1 REVERT INVALID LOG2 PUSH5 0x6970667358 0x22 SLT KECCAK256 0xD5 PUSH20 0x3D837AF30F567CAD874834A2F25D3C2AAC99797 0x2A PUSH18 0x25A46DBA98AEDCE164736F6C634300081800 CALLER "},"methodIdentifiers":{"MAX_FEE_BPS()":"d55be8c6","TIMELOCK_DELAY()":"5ba1c1a9","acceptOwnership()":"79ba5097","allowedRouters(address)":"c646aee2","authorizer()":"d09edf31","cancelRescueToken(bytes32)":"ade36e1d","createMerchantSplitter(address)":"3ab4b486","createMerchantSplitter(address,address)":"37c68b88","developerAddress()":"caccd7f7","executeRescueToken(bytes32)":"250fa03a","feeBps()":"24a9d853","globalProcessedPayments(bytes32)":"9aba6a0f","isClone(address)":"00ae3676","isRouterAllowed(address)":"61771e49","merchantRescueToken(address,uint256)":"1b2cc968","merchantSplitters(address)":"599dec68","owner()":"8da5cb5b","pause()":"8456cb59","paused()":"5c975abb","pendingOwner()":"e30c3978","proposeRescueToken(address,address,uint256)":"540e7a6c","recordPayment(bytes32,address,uint256)":"846fa34d","renounceOwnership()":"715018a6","rescueData(bytes32)":"77d44149","rescueRequests(bytes32)":"6c2a0d74","setAuthorizer(address)":"058a628f","setDeveloperAddress(address)":"dcc345f2","setFeeBps(uint256)":"72c27b62","splitterLogicImpl()":"8918c79e","toggleRouterAllowlist(address,bool)":"09b6f171","transferOwnership(address)":"f2fde38b","unpause()":"3f4ba83a","updateCloneAuthorizer(address,address)":"569f8cc8"}}}}}