{"contracts/tron/SplitterLogic.sol":{"SplitterLogic":{"abi":[{"inputs":[],"name":"AlreadyInitialized","type":"error"},{"inputs":[],"name":"FactoryPaused","type":"error"},{"inputs":[],"name":"InvalidSignature","type":"error"},{"inputs":[],"name":"OnlyFactory","type":"error"},{"inputs":[],"name":"PaymentExpired","type":"error"},{"inputs":[],"name":"ReentrantCall","type":"error"},{"inputs":[],"name":"RouterNotAllowed","type":"error"},{"inputs":[],"name":"SlippageExceeded","type":"error"},{"inputs":[],"name":"TransferFailed","type":"error"},{"inputs":[],"name":"ZeroAddress","type":"error"},{"anonymous":false,"inputs":[{"indexed":true,"internalType":"address","name":"newAuthorizer","type":"address"}],"name":"AuthorizerUpdated","type":"event"},{"anonymous":false,"inputs":[{"indexed":true,"internalType":"bytes32","name":"paymentId","type":"bytes32"},{"indexed":true,"internalType":"address","name":"tokenIn","type":"address"},{"indexed":true,"internalType":"address","name":"tokenOut","type":"address"},{"indexed":false,"internalType":"uint256","name":"amountIn","type":"uint256"},{"indexed":false,"internalType":"uint256","name":"merchantReceived","type":"uint256"},{"indexed":false,"internalType":"uint256","name":"devFee","type":"uint256"}],"name":"PaymentProcessed","type":"event"},{"inputs":[],"name":"authorizer","outputs":[{"internalType":"address","name":"","type":"address"}],"stateMutability":"view","type":"function"},{"inputs":[],"name":"factory","outputs":[{"internalType":"address","name":"","type":"address"}],"stateMutability":"view","type":"function"},{"inputs":[{"internalType":"address","name":"_merchantAddress","type":"address"},{"internalType":"address","name":"_factory","type":"address"},{"internalType":"address","name":"_authorizer","type":"address"}],"name":"initialize","outputs":[],"stateMutability":"nonpayable","type":"function"},{"inputs":[],"name":"merchantAddress","outputs":[{"internalType":"address","name":"","type":"address"}],"stateMutability":"view","type":"function"},{"inputs":[{"internalType":"bytes32","name":"paymentId","type":"bytes32"},{"internalType":"address","name":"token","type":"address"},{"internalType":"uint256","name":"amount","type":"uint256"},{"internalType":"uint256","name":"expiry","type":"uint256"},{"internalType":"bytes","name":"signature","type":"bytes"}],"name":"payDirect","outputs":[],"stateMutability":"nonpayable","type":"function"},{"inputs":[{"internalType":"bytes32","name":"paymentId","type":"bytes32"},{"internalType":"address","name":"tokenIn","type":"address"},{"internalType":"address","name":"tokenOut","type":"address"},{"internalType":"uint256","name":"amountIn","type":"uint256"},{"internalType":"uint256","name":"minAmountOut","type":"uint256"},{"internalType":"uint256","name":"expiry","type":"uint256"},{"internalType":"address","name":"router","type":"address"},{"internalType":"address","name":"spender","type":"address"},{"internalType":"bytes","name":"swapData","type":"bytes"},{"internalType":"bytes","name":"signature","type":"bytes"}],"name":"payWithSwap","outputs":[],"stateMutability":"nonpayable","type":"function"},{"inputs":[{"internalType":"address","name":"token","type":"address"},{"internalType":"uint256","name":"amount","type":"uint256"}],"name":"rescueToken","outputs":[],"stateMutability":"nonpayable","type":"function"},{"inputs":[{"internalType":"address","name":"_newAuthorizer","type":"address"}],"name":"setAuthorizer","outputs":[],"stateMutability":"nonpayable","type":"function"}],"evm":{"bytecode":{"linkReferences":{},"object":"608080604052346100165761105d908161001b8239f35b5f80fdfe60806040818152600480361015610014575f80fd5b5f925f3560e01c908163058a628f14610cfc575080630d3742241461068d57806333f3d628146105705780639df8ed4314610548578063c0c53b8b14610493578063c45a01551461046a578063d09edf311461043d5763e47c6f3c14610078575f80fd5b346104395760a0366003190112610439578035610093610d92565b6044356064359460843567ffffffffffffffff8111610435576100b99036908701610dbe565b906002549760ff8960a81c166104255760ff60a81b19988916600160a81b1760025542811061041557906100f09291858789610ea1565b6001548151635c975abb60e01b81526001600160a01b039182169691929190602090818184818c5afa908115610312578b916103f8575b506103e95782516324a9d85360e01b8152818184818c5afa908115610312578b916103b6575b5061015b6127109187610e6f565b04936101678587610e4e565b96893b156103a857845163846fa34d60e01b81528085018a81526001600160a01b0383166020820152604081018990528d9190829082908e9082908490829060600103925af180156103ac579186949391869361038c575b505082169a86519384809263caccd7f760e01b82525afa918215610382578c92610353575b5089838d875192838092816102268d6323b872dd60e01b9a8b84528d3390850160409194939294606082019560018060a01b0380921683521660208201520152565b03925af1908115610349578d9161032c575b501561031c578b5485519283523385840190815291166001600160a01b0316602082015260408101889052829082908d908290819060600103918d5af1918215610312578b926102e5575b5050156102d7575051918252602082019290925260408101919091528291907f743791ed120d099b4c527e3bcef5a2e69c738c483ede167d034fb7a031afa9449080606081015b0390a46002541660025580f35b90516312171d8360e31b8152fd5b6103049250803d1061030b575b6102fc8183610e14565b810190610e36565b5f80610283565b503d6102f2565b84513d8d823e3d90fd5b84516312171d8360e31b81528490fd5b6103439150843d861161030b576102fc8183610e14565b5f610238565b86513d8f823e3d90fd5b610374919250833d851161037b575b61036c8183610e14565b810190610e82565b905f6101e4565b503d610362565b85513d8e823e3d90fd5b90925061039a919450610dec565b6103a8578284928d5f6101bf565b8b80fd5b87513d84823e3d90fd5b90508181813d83116103e2575b6103cd8183610e14565b810103126103de575161015b61014d565b5f80fd5b503d6103c3565b509051633461791360e11b8152fd5b61040f9150823d841161030b576102fc8183610e14565b5f610127565b8351630664b28b60e41b81528890fd5b83516306fda65d60e31b81528890fd5b8780fd5b8280fd5b50503461046657816003193601126104665760025490516001600160a01b039091168152602090f35b5080fd5b50503461046657816003193601126104665760015490516001600160a01b039091168152602090f35b5034610439576060366003190112610439576104ad610d7c565b6104b5610d92565b926104be610da8565b936002549360ff8560a01c1661053b576001600160a01b039384169283158015610531575b61052457505085546001600160a01b03199081169092178655600180549092169083161790556001600160a81b0319909116911617600160a01b1760025580f35b5163d92e233d60e01b8152fd5b50848316156104e3565b825162dc149f60e41b8152fd5b505034610466578160031936011261046657905490516001600160a01b039091168152602090f35b50903461043957806003193601126104395761058a610d7c565b6001546001600160a01b03908116913383900361067d5783518093638da5cb5b60e01b8252818760209687935afa90811561067357916106049185938991610656575b50865163a9059cbb60e01b81526001600160a01b0390911688820190815260243560208201529094859384928b9291849160400190565b0393165af191821561064c57859261062f575b505015610622578280f35b516312171d8360e31b8152fd5b6106459250803d1061030b576102fc8183610e14565b5f80610617565b83513d87823e3d90fd5b61066d9150843d861161037b5761036c8183610e14565b5f6105cd565b85513d89823e3d90fd5b50505051630636a15760e11b8152fd5b509190346103de576101403660031901126103de578235926106ad610d92565b936106b6610da8565b6001600160a01b039360c4359360643593929186861686036103de5760e4359187831683036103de5767ffffffffffffffff92610104358481116103de576107019036908401610dbe565b9990610124359a868c116103de5761071e60ff9c36908701610dbe565b906002549d8e60a81c16610cec5760ff60a81b199d8e16600160a81b1760025560a4354211610cdc57908f918b8d6107599460a43592610ea1565b826001541696865194635c975abb60e01b8652602095868189818d5afa908115610c78575f91610cbf575b50610caf5787516361771e4960e01b8152858e168882015286816024818d5afa908115610c78575f91610c92575b5015610c82578b9c9d9e9f8686610806929e9c9d9e169e8f8a5f8d518096819582946323b872dd60e01b845230903390850160409194939294606082019560018060a01b0380921683521660208201520152565b03925af1908115610c78575f91610c5b575b5015610c4b57875163095ea7b360e01b81526001600160a01b03909116818801908152602081018b9052869082908f9082905f90829060400103925af18015610c4157610c24575b50838a169c8d9288519487866024816370a0823160e01b988982528d30908301525afa958615610c1a575f96610be5575b5091815f809481948d519384928337810182815203925af1903d15610bdf573d908111610bcc578751906108ce601f8201601f1916880183610e14565b81525f863d92013e5b15610bbc57855190815230858201529083826024818f5afa8015610b38575f90610b8d575b6109069250610e4e565b946084358610610b71578a8a141580610b81575b610b715784516324a9d85360e01b815283818681855afa908115610b38575f91610b42575b5061094d6127109188610e6f565b04956109598782610e4e565b98823b156103de57865163846fa34d60e01b81528681018c81526001600160a01b03909216602083015260408201929092525f9082908190606001038183865af18015610b3857610b23575b5083838e9287519283809263caccd7f760e01b82525afa908115610b195784888e8594610a07948a989791610afc575b50858b5180968195829463a9059cbb60e01b9c8d8552840160209093929193604081019460018060a01b031681520152565b03925af1918215610af15791610ad4575b501561031c57878b610a53938f86948154169189519687958694859384528b840160209093929193604081019460018060a01b031681520152565b03925af1918215610aca578c92610aad575b5050156102d7575051918252602082019290925260408101919091527f743791ed120d099b4c527e3bcef5a2e69c738c483ede167d034fb7a031afa9449080606081016102ca565b610ac39250803d1061030b576102fc8183610e14565b5f80610a65565b84513d8e823e3d90fd5b610aeb9150843d861161030b576102fc8183610e14565b5f610a18565b8751903d90823e3d90fd5b610b139150843d861161037b5761036c8183610e14565b5f6109d5565b86513d84823e3d90fd5b839d50610b2f90610dec565b835f9d506109a5565b86513d5f823e3d90fd5b90508381813d8311610b6a575b610b598183610e14565b810103126103de575161094d61093f565b503d610b4f565b8451638199f5f360e01b81528490fd5b508660011c861061091a565b508382813d8311610bb5575b610ba38183610e14565b810103126103de5761090691516108fc565b503d610b99565b85516312171d8360e31b81528590fd5b604187634e487b7160e01b5f525260245ffd5b506108d7565b91929095508782813d8311610c13575b610bff8183610e14565b810103126103de579051949091905f610891565b503d610bf5565b8a513d5f823e3d90fd5b610c3a90863d881161030b576102fc8183610e14565b505f610860565b88513d5f823e3d90fd5b87516312171d8360e31b81528790fd5b610c729150873d891161030b576102fc8183610e14565b5f610818565b89513d5f823e3d90fd5b875163cec13f7b60e01b81528790fd5b610ca99150873d891161030b576102fc8183610e14565b5f6107b2565b8751633461791360e11b81528790fd5b610cd69150873d891161030b576102fc8183610e14565b5f610784565b8751630664b28b60e41b81528790fd5b87516306fda65d60e31b81528790fd5b82346103de5760203660031901126103de57610d16610d7c565b6001546001600160a01b03939192919084163303610d7057505016806bffffffffffffffffffffffff60a01b60025416176002557ff3f625a7d9e02778afdfdf1bea978d6565840d408866c70f5d25aadf77021d705f80a2005b630636a15760e11b8152fd5b600435906001600160a01b03821682036103de57565b602435906001600160a01b03821682036103de57565b604435906001600160a01b03821682036103de57565b9181601f840112156103de5782359167ffffffffffffffff83116103de57602083818601950101116103de57565b67ffffffffffffffff8111610e0057604052565b634e487b7160e01b5f52604160045260245ffd5b90601f8019910116810190811067ffffffffffffffff821117610e0057604052565b908160209103126103de575180151581036103de5790565b91908203918211610e5b57565b634e487b7160e01b5f52601160045260245ffd5b81810292918115918404141715610e5b57565b908160209103126103de57516001600160a01b03811681036103de5790565b60025492956001600160a01b0393841695939490939290861561101d57604097885192602084019485526bffffffffffffffffffffffff199060601b1689840152605483015260748201526074815260a0810167ffffffffffffffff9282821084831117610e00578189528251902060c08301907f1954726f6e205369676e6564204d6573736167653a0a33320000000000000000825260d88401526038825261010083019382851090851117610e0057604191848a525190209403610fd7575050848101355f1a601b8110610fc5575b602092835f9360ff6080948a5194855216828401528035898401520135606082015282805260015afa15610fbb575f511603610fab5750565b51638baa579f60e01b8152600490fd5b82513d5f823e3d90fd5b601b019060ff8211610e5b5790610f72565b62461bcd60e51b8252602061010482015260186101248201527f496e76616c6964207369676e6174757265206c656e677468000000000000000061014490910152606490fd5b505050505050505056fea26469706673582212204dce2c08edab9869c02ed3a16fdd9a881bef62fce59b872c0a61525ee7d155f064736f6c63430008180033","opcodes":"PUSH1 0x80 DUP1 PUSH1 0x40 MSTORE CALLVALUE PUSH2 0x16 JUMPI PUSH2 0x105D SWAP1 DUP2 PUSH2 0x1B DUP3 CODECOPY RETURN JUMPDEST PUSH0 DUP1 REVERT INVALID PUSH1 0x80 PUSH1 0x40 DUP2 DUP2 MSTORE PUSH1 0x4 DUP1 CALLDATASIZE LT ISZERO PUSH2 0x14 JUMPI PUSH0 DUP1 REVERT JUMPDEST PUSH0 SWAP3 PUSH0 CALLDATALOAD PUSH1 0xE0 SHR SWAP1 DUP2 PUSH4 0x58A628F EQ PUSH2 0xCFC JUMPI POP DUP1 PUSH4 0xD374224 EQ PUSH2 0x68D JUMPI DUP1 PUSH4 0x33F3D628 EQ PUSH2 0x570 JUMPI DUP1 PUSH4 0x9DF8ED43 EQ PUSH2 0x548 JUMPI DUP1 PUSH4 0xC0C53B8B EQ PUSH2 0x493 JUMPI DUP1 PUSH4 0xC45A0155 EQ PUSH2 0x46A JUMPI DUP1 PUSH4 0xD09EDF31 EQ PUSH2 0x43D JUMPI PUSH4 0xE47C6F3C EQ PUSH2 0x78 JUMPI PUSH0 DUP1 REVERT JUMPDEST CALLVALUE PUSH2 0x439 JUMPI PUSH1 0xA0 CALLDATASIZE PUSH1 0x3 NOT ADD SLT PUSH2 0x439 JUMPI DUP1 CALLDATALOAD PUSH2 0x93 PUSH2 0xD92 JUMP JUMPDEST PUSH1 0x44 CALLDATALOAD PUSH1 0x64 CALLDATALOAD SWAP5 PUSH1 0x84 CALLDATALOAD PUSH8 0xFFFFFFFFFFFFFFFF DUP2 GT PUSH2 0x435 JUMPI PUSH2 0xB9 SWAP1 CALLDATASIZE SWAP1 DUP8 ADD PUSH2 0xDBE JUMP JUMPDEST SWAP1 PUSH1 0x2 SLOAD SWAP8 PUSH1 0xFF DUP10 PUSH1 0xA8 SHR AND PUSH2 0x425 JUMPI PUSH1 0xFF PUSH1 0xA8 SHL NOT SWAP9 DUP10 AND PUSH1 0x1 PUSH1 0xA8 SHL OR PUSH1 0x2 SSTORE TIMESTAMP DUP2 LT PUSH2 0x415 JUMPI SWAP1 PUSH2 0xF0 SWAP3 SWAP2 DUP6 DUP8 DUP10 PUSH2 0xEA1 JUMP JUMPDEST PUSH1 0x1 SLOAD DUP2 MLOAD PUSH4 0x5C975ABB PUSH1 0xE0 SHL DUP2 MSTORE PUSH1 0x1 PUSH1 0x1 PUSH1 0xA0 SHL SUB SWAP2 DUP3 AND SWAP7 SWAP2 SWAP3 SWAP2 SWAP1 PUSH1 0x20 SWAP1 DUP2 DUP2 DUP5 DUP2 DUP13 GAS STATICCALL SWAP1 DUP2 ISZERO PUSH2 0x312 JUMPI DUP12 SWAP2 PUSH2 0x3F8 JUMPI JUMPDEST POP PUSH2 0x3E9 JUMPI DUP3 MLOAD PUSH4 0x24A9D853 PUSH1 0xE0 SHL DUP2 MSTORE DUP2 DUP2 DUP5 DUP2 DUP13 GAS STATICCALL SWAP1 DUP2 ISZERO PUSH2 0x312 JUMPI DUP12 SWAP2 PUSH2 0x3B6 JUMPI JUMPDEST POP PUSH2 0x15B PUSH2 0x2710 SWAP2 DUP8 PUSH2 0xE6F JUMP JUMPDEST DIV SWAP4 PUSH2 0x167 DUP6 DUP8 PUSH2 0xE4E JUMP JUMPDEST SWAP7 DUP10 EXTCODESIZE ISZERO PUSH2 0x3A8 JUMPI DUP5 MLOAD PUSH4 0x846FA34D PUSH1 0xE0 SHL DUP2 MSTORE DUP1 DUP6 ADD DUP11 DUP2 MSTORE PUSH1 0x1 PUSH1 0x1 PUSH1 0xA0 SHL SUB DUP4 AND PUSH1 0x20 DUP3 ADD MSTORE PUSH1 0x40 DUP2 ADD DUP10 SWAP1 MSTORE DUP14 SWAP2 SWAP1 DUP3 SWAP1 DUP3 SWAP1 DUP15 SWAP1 DUP3 SWAP1 DUP5 SWAP1 DUP3 SWAP1 PUSH1 0x60 ADD SUB SWAP3 GAS CALL DUP1 ISZERO PUSH2 0x3AC JUMPI SWAP2 DUP7 SWAP5 SWAP4 SWAP2 DUP7 SWAP4 PUSH2 0x38C JUMPI JUMPDEST POP POP DUP3 AND SWAP11 DUP7 MLOAD SWAP4 DUP5 DUP1 SWAP3 PUSH4 0xCACCD7F7 PUSH1 0xE0 SHL DUP3 MSTORE GAS STATICCALL SWAP2 DUP3 ISZERO PUSH2 0x382 JUMPI DUP13 SWAP3 PUSH2 0x353 JUMPI JUMPDEST POP DUP10 DUP4 DUP14 DUP8 MLOAD SWAP3 DUP4 DUP1 SWAP3 DUP2 PUSH2 0x226 DUP14 PUSH4 0x23B872DD PUSH1 0xE0 SHL SWAP11 DUP12 DUP5 MSTORE DUP14 CALLER SWAP1 DUP6 ADD PUSH1 0x40 SWAP2 SWAP5 SWAP4 SWAP3 SWAP5 PUSH1 0x60 DUP3 ADD SWAP6 PUSH1 0x1 DUP1 PUSH1 0xA0 SHL SUB DUP1 SWAP3 AND DUP4 MSTORE AND PUSH1 0x20 DUP3 ADD MSTORE ADD MSTORE JUMP JUMPDEST SUB SWAP3 GAS CALL SWAP1 DUP2 ISZERO PUSH2 0x349 JUMPI DUP14 SWAP2 PUSH2 0x32C JUMPI JUMPDEST POP ISZERO PUSH2 0x31C JUMPI DUP12 SLOAD DUP6 MLOAD SWAP3 DUP4 MSTORE CALLER DUP6 DUP5 ADD SWAP1 DUP2 MSTORE SWAP2 AND PUSH1 0x1 PUSH1 0x1 PUSH1 0xA0 SHL SUB AND PUSH1 0x20 DUP3 ADD MSTORE PUSH1 0x40 DUP2 ADD DUP9 SWAP1 MSTORE DUP3 SWAP1 DUP3 SWAP1 DUP14 SWAP1 DUP3 SWAP1 DUP2 SWAP1 PUSH1 0x60 ADD SUB SWAP2 DUP14 GAS CALL SWAP2 DUP3 ISZERO PUSH2 0x312 JUMPI DUP12 SWAP3 PUSH2 0x2E5 JUMPI JUMPDEST POP POP ISZERO PUSH2 0x2D7 JUMPI POP MLOAD SWAP2 DUP3 MSTORE PUSH1 0x20 DUP3 ADD SWAP3 SWAP1 SWAP3 MSTORE PUSH1 0x40 DUP2 ADD SWAP2 SWAP1 SWAP2 MSTORE DUP3 SWAP2 SWAP1 PUSH32 0x743791ED120D099B4C527E3BCEF5A2E69C738C483EDE167D034FB7A031AFA944 SWAP1 DUP1 PUSH1 0x60 DUP2 ADD JUMPDEST SUB SWAP1 LOG4 PUSH1 0x2 SLOAD AND PUSH1 0x2 SSTORE DUP1 RETURN JUMPDEST SWAP1 MLOAD PUSH4 0x12171D83 PUSH1 0xE3 SHL DUP2 MSTORE REVERT JUMPDEST PUSH2 0x304 SWAP3 POP DUP1 RETURNDATASIZE LT PUSH2 0x30B JUMPI JUMPDEST PUSH2 0x2FC DUP2 DUP4 PUSH2 0xE14 JUMP JUMPDEST DUP2 ADD SWAP1 PUSH2 0xE36 JUMP JUMPDEST PUSH0 DUP1 PUSH2 0x283 JUMP JUMPDEST POP RETURNDATASIZE PUSH2 0x2F2 JUMP JUMPDEST DUP5 MLOAD RETURNDATASIZE DUP14 DUP3 RETURNDATACOPY RETURNDATASIZE SWAP1 REVERT JUMPDEST DUP5 MLOAD PUSH4 0x12171D83 PUSH1 0xE3 SHL DUP2 MSTORE DUP5 SWAP1 REVERT JUMPDEST PUSH2 0x343 SWAP2 POP DUP5 RETURNDATASIZE DUP7 GT PUSH2 0x30B JUMPI PUSH2 0x2FC DUP2 DUP4 PUSH2 0xE14 JUMP JUMPDEST PUSH0 PUSH2 0x238 JUMP JUMPDEST DUP7 MLOAD RETURNDATASIZE DUP16 DUP3 RETURNDATACOPY RETURNDATASIZE SWAP1 REVERT JUMPDEST PUSH2 0x374 SWAP2 SWAP3 POP DUP4 RETURNDATASIZE DUP6 GT PUSH2 0x37B JUMPI JUMPDEST PUSH2 0x36C DUP2 DUP4 PUSH2 0xE14 JUMP JUMPDEST DUP2 ADD SWAP1 PUSH2 0xE82 JUMP JUMPDEST SWAP1 PUSH0 PUSH2 0x1E4 JUMP JUMPDEST POP RETURNDATASIZE PUSH2 0x362 JUMP JUMPDEST DUP6 MLOAD RETURNDATASIZE DUP15 DUP3 RETURNDATACOPY RETURNDATASIZE SWAP1 REVERT JUMPDEST SWAP1 SWAP3 POP PUSH2 0x39A SWAP2 SWAP5 POP PUSH2 0xDEC JUMP JUMPDEST PUSH2 0x3A8 JUMPI DUP3 DUP5 SWAP3 DUP14 PUSH0 PUSH2 0x1BF JUMP JUMPDEST DUP12 DUP1 REVERT JUMPDEST DUP8 MLOAD RETURNDATASIZE DUP5 DUP3 RETURNDATACOPY RETURNDATASIZE SWAP1 REVERT JUMPDEST SWAP1 POP DUP2 DUP2 DUP2 RETURNDATASIZE DUP4 GT PUSH2 0x3E2 JUMPI JUMPDEST PUSH2 0x3CD DUP2 DUP4 PUSH2 0xE14 JUMP JUMPDEST DUP2 ADD SUB SLT PUSH2 0x3DE JUMPI MLOAD PUSH2 0x15B PUSH2 0x14D JUMP JUMPDEST PUSH0 DUP1 REVERT JUMPDEST POP RETURNDATASIZE PUSH2 0x3C3 JUMP JUMPDEST POP SWAP1 MLOAD PUSH4 0x34617913 PUSH1 0xE1 SHL DUP2 MSTORE REVERT JUMPDEST PUSH2 0x40F SWAP2 POP DUP3 RETURNDATASIZE DUP5 GT PUSH2 0x30B JUMPI PUSH2 0x2FC DUP2 DUP4 PUSH2 0xE14 JUMP JUMPDEST PUSH0 PUSH2 0x127 JUMP JUMPDEST DUP4 MLOAD PUSH4 0x664B28B PUSH1 0xE4 SHL DUP2 MSTORE DUP9 SWAP1 REVERT JUMPDEST DUP4 MLOAD PUSH4 0x6FDA65D PUSH1 0xE3 SHL DUP2 MSTORE DUP9 SWAP1 REVERT JUMPDEST DUP8 DUP1 REVERT JUMPDEST DUP3 DUP1 REVERT JUMPDEST POP POP CALLVALUE PUSH2 0x466 JUMPI DUP2 PUSH1 0x3 NOT CALLDATASIZE ADD SLT PUSH2 0x466 JUMPI PUSH1 0x2 SLOAD SWAP1 MLOAD PUSH1 0x1 PUSH1 0x1 PUSH1 0xA0 SHL SUB SWAP1 SWAP2 AND DUP2 MSTORE PUSH1 0x20 SWAP1 RETURN JUMPDEST POP DUP1 REVERT JUMPDEST POP POP CALLVALUE PUSH2 0x466 JUMPI DUP2 PUSH1 0x3 NOT CALLDATASIZE ADD SLT PUSH2 0x466 JUMPI PUSH1 0x1 SLOAD SWAP1 MLOAD PUSH1 0x1 PUSH1 0x1 PUSH1 0xA0 SHL SUB SWAP1 SWAP2 AND DUP2 MSTORE PUSH1 0x20 SWAP1 RETURN JUMPDEST POP CALLVALUE PUSH2 0x439 JUMPI PUSH1 0x60 CALLDATASIZE PUSH1 0x3 NOT ADD SLT PUSH2 0x439 JUMPI PUSH2 0x4AD PUSH2 0xD7C JUMP JUMPDEST PUSH2 0x4B5 PUSH2 0xD92 JUMP JUMPDEST SWAP3 PUSH2 0x4BE PUSH2 0xDA8 JUMP JUMPDEST SWAP4 PUSH1 0x2 SLOAD SWAP4 PUSH1 0xFF DUP6 PUSH1 0xA0 SHR AND PUSH2 0x53B JUMPI PUSH1 0x1 PUSH1 0x1 PUSH1 0xA0 SHL SUB SWAP4 DUP5 AND SWAP3 DUP4 ISZERO DUP1 ISZERO PUSH2 0x531 JUMPI JUMPDEST PUSH2 0x524 JUMPI POP POP DUP6 SLOAD PUSH1 0x1 PUSH1 0x1 PUSH1 0xA0 SHL SUB NOT SWAP1 DUP2 AND SWAP1 SWAP3 OR DUP7 SSTORE PUSH1 0x1 DUP1 SLOAD SWAP1 SWAP3 AND SWAP1 DUP4 AND OR SWAP1 SSTORE PUSH1 0x1 PUSH1 0x1 PUSH1 0xA8 SHL SUB NOT SWAP1 SWAP2 AND SWAP2 AND OR PUSH1 0x1 PUSH1 0xA0 SHL OR PUSH1 0x2 SSTORE DUP1 RETURN JUMPDEST MLOAD PUSH4 0xD92E233D PUSH1 0xE0 SHL DUP2 MSTORE REVERT JUMPDEST POP DUP5 DUP4 AND ISZERO PUSH2 0x4E3 JUMP JUMPDEST DUP3 MLOAD PUSH3 0xDC149F PUSH1 0xE4 SHL DUP2 MSTORE REVERT JUMPDEST POP POP CALLVALUE PUSH2 0x466 JUMPI DUP2 PUSH1 0x3 NOT CALLDATASIZE ADD SLT PUSH2 0x466 JUMPI SWAP1 SLOAD SWAP1 MLOAD PUSH1 0x1 PUSH1 0x1 PUSH1 0xA0 SHL SUB SWAP1 SWAP2 AND DUP2 MSTORE PUSH1 0x20 SWAP1 RETURN JUMPDEST POP SWAP1 CALLVALUE PUSH2 0x439 JUMPI DUP1 PUSH1 0x3 NOT CALLDATASIZE ADD SLT PUSH2 0x439 JUMPI PUSH2 0x58A PUSH2 0xD7C JUMP JUMPDEST PUSH1 0x1 SLOAD PUSH1 0x1 PUSH1 0x1 PUSH1 0xA0 SHL SUB SWAP1 DUP2 AND SWAP2 CALLER DUP4 SWAP1 SUB PUSH2 0x67D JUMPI DUP4 MLOAD DUP1 SWAP4 PUSH4 0x8DA5CB5B PUSH1 0xE0 SHL DUP3 MSTORE DUP2 DUP8 PUSH1 0x20 SWAP7 DUP8 SWAP4 GAS STATICCALL SWAP1 DUP2 ISZERO PUSH2 0x673 JUMPI SWAP2 PUSH2 0x604 SWAP2 DUP6 SWAP4 DUP10 SWAP2 PUSH2 0x656 JUMPI JUMPDEST POP DUP7 MLOAD PUSH4 0xA9059CBB PUSH1 0xE0 SHL DUP2 MSTORE PUSH1 0x1 PUSH1 0x1 PUSH1 0xA0 SHL SUB SWAP1 SWAP2 AND DUP9 DUP3 ADD SWAP1 DUP2 MSTORE PUSH1 0x24 CALLDATALOAD PUSH1 0x20 DUP3 ADD MSTORE SWAP1 SWAP5 DUP6 SWAP4 DUP5 SWAP3 DUP12 SWAP3 SWAP2 DUP5 SWAP2 PUSH1 0x40 ADD SWAP1 JUMP JUMPDEST SUB SWAP4 AND GAS CALL SWAP2 DUP3 ISZERO PUSH2 0x64C JUMPI DUP6 SWAP3 PUSH2 0x62F JUMPI JUMPDEST POP POP ISZERO PUSH2 0x622 JUMPI DUP3 DUP1 RETURN JUMPDEST MLOAD PUSH4 0x12171D83 PUSH1 0xE3 SHL DUP2 MSTORE REVERT JUMPDEST PUSH2 0x645 SWAP3 POP DUP1 RETURNDATASIZE LT PUSH2 0x30B JUMPI PUSH2 0x2FC DUP2 DUP4 PUSH2 0xE14 JUMP JUMPDEST PUSH0 DUP1 PUSH2 0x617 JUMP JUMPDEST DUP4 MLOAD RETURNDATASIZE DUP8 DUP3 RETURNDATACOPY RETURNDATASIZE SWAP1 REVERT JUMPDEST PUSH2 0x66D SWAP2 POP DUP5 RETURNDATASIZE DUP7 GT PUSH2 0x37B JUMPI PUSH2 0x36C DUP2 DUP4 PUSH2 0xE14 JUMP JUMPDEST PUSH0 PUSH2 0x5CD JUMP JUMPDEST DUP6 MLOAD RETURNDATASIZE DUP10 DUP3 RETURNDATACOPY RETURNDATASIZE SWAP1 REVERT JUMPDEST POP POP POP MLOAD PUSH4 0x636A157 PUSH1 0xE1 SHL DUP2 MSTORE REVERT JUMPDEST POP SWAP2 SWAP1 CALLVALUE PUSH2 0x3DE JUMPI PUSH2 0x140 CALLDATASIZE PUSH1 0x3 NOT ADD SLT PUSH2 0x3DE JUMPI DUP3 CALLDATALOAD SWAP3 PUSH2 0x6AD PUSH2 0xD92 JUMP JUMPDEST SWAP4 PUSH2 0x6B6 PUSH2 0xDA8 JUMP JUMPDEST PUSH1 0x1 PUSH1 0x1 PUSH1 0xA0 SHL SUB SWAP4 PUSH1 0xC4 CALLDATALOAD SWAP4 PUSH1 0x64 CALLDATALOAD SWAP4 SWAP3 SWAP2 DUP7 DUP7 AND DUP7 SUB PUSH2 0x3DE JUMPI PUSH1 0xE4 CALLDATALOAD SWAP2 DUP8 DUP4 AND DUP4 SUB PUSH2 0x3DE JUMPI PUSH8 0xFFFFFFFFFFFFFFFF SWAP3 PUSH2 0x104 CALLDATALOAD DUP5 DUP2 GT PUSH2 0x3DE JUMPI PUSH2 0x701 SWAP1 CALLDATASIZE SWAP1 DUP5 ADD PUSH2 0xDBE JUMP JUMPDEST SWAP10 SWAP1 PUSH2 0x124 CALLDATALOAD SWAP11 DUP7 DUP13 GT PUSH2 0x3DE JUMPI PUSH2 0x71E PUSH1 0xFF SWAP13 CALLDATASIZE SWAP1 DUP8 ADD PUSH2 0xDBE JUMP JUMPDEST SWAP1 PUSH1 0x2 SLOAD SWAP14 DUP15 PUSH1 0xA8 SHR AND PUSH2 0xCEC JUMPI PUSH1 0xFF PUSH1 0xA8 SHL NOT SWAP14 DUP15 AND PUSH1 0x1 PUSH1 0xA8 SHL OR PUSH1 0x2 SSTORE PUSH1 0xA4 CALLDATALOAD TIMESTAMP GT PUSH2 0xCDC JUMPI SWAP1 DUP16 SWAP2 DUP12 DUP14 PUSH2 0x759 SWAP5 PUSH1 0xA4 CALLDATALOAD SWAP3 PUSH2 0xEA1 JUMP JUMPDEST DUP3 PUSH1 0x1 SLOAD AND SWAP7 DUP7 MLOAD SWAP5 PUSH4 0x5C975ABB PUSH1 0xE0 SHL DUP7 MSTORE PUSH1 0x20 SWAP6 DUP7 DUP2 DUP10 DUP2 DUP14 GAS STATICCALL SWAP1 DUP2 ISZERO PUSH2 0xC78 JUMPI PUSH0 SWAP2 PUSH2 0xCBF JUMPI JUMPDEST POP PUSH2 0xCAF JUMPI DUP8 MLOAD PUSH4 0x61771E49 PUSH1 0xE0 SHL DUP2 MSTORE DUP6 DUP15 AND DUP9 DUP3 ADD MSTORE DUP7 DUP2 PUSH1 0x24 DUP2 DUP14 GAS STATICCALL SWAP1 DUP2 ISZERO PUSH2 0xC78 JUMPI PUSH0 SWAP2 PUSH2 0xC92 JUMPI JUMPDEST POP ISZERO PUSH2 0xC82 JUMPI DUP12 SWAP13 SWAP14 SWAP15 SWAP16 DUP7 DUP7 PUSH2 0x806 SWAP3 SWAP15 SWAP13 SWAP14 SWAP15 AND SWAP15 DUP16 DUP11 PUSH0 DUP14 MLOAD DUP1 SWAP7 DUP2 SWAP6 DUP3 SWAP5 PUSH4 0x23B872DD PUSH1 0xE0 SHL DUP5 MSTORE ADDRESS SWAP1 CALLER SWAP1 DUP6 ADD PUSH1 0x40 SWAP2 SWAP5 SWAP4 SWAP3 SWAP5 PUSH1 0x60 DUP3 ADD SWAP6 PUSH1 0x1 DUP1 PUSH1 0xA0 SHL SUB DUP1 SWAP3 AND DUP4 MSTORE AND PUSH1 0x20 DUP3 ADD MSTORE ADD MSTORE JUMP JUMPDEST SUB SWAP3 GAS CALL SWAP1 DUP2 ISZERO PUSH2 0xC78 JUMPI PUSH0 SWAP2 PUSH2 0xC5B JUMPI JUMPDEST POP ISZERO PUSH2 0xC4B JUMPI DUP8 MLOAD PUSH4 0x95EA7B3 PUSH1 0xE0 SHL DUP2 MSTORE PUSH1 0x1 PUSH1 0x1 PUSH1 0xA0 SHL SUB SWAP1 SWAP2 AND DUP2 DUP9 ADD SWAP1 DUP2 MSTORE PUSH1 0x20 DUP2 ADD DUP12 SWAP1 MSTORE DUP7 SWAP1 DUP3 SWAP1 DUP16 SWAP1 DUP3 SWAP1 PUSH0 SWAP1 DUP3 SWAP1 PUSH1 0x40 ADD SUB SWAP3 GAS CALL DUP1 ISZERO PUSH2 0xC41 JUMPI PUSH2 0xC24 JUMPI JUMPDEST POP DUP4 DUP11 AND SWAP13 DUP14 SWAP3 DUP9 MLOAD SWAP5 DUP8 DUP7 PUSH1 0x24 DUP2 PUSH4 0x70A08231 PUSH1 0xE0 SHL SWAP9 DUP10 DUP3 MSTORE DUP14 ADDRESS SWAP1 DUP4 ADD MSTORE GAS STATICCALL SWAP6 DUP7 ISZERO PUSH2 0xC1A JUMPI PUSH0 SWAP7 PUSH2 0xBE5 JUMPI JUMPDEST POP SWAP2 DUP2 PUSH0 DUP1 SWAP5 DUP2 SWAP5 DUP14 MLOAD SWAP4 DUP5 SWAP3 DUP4 CALLDATACOPY DUP2 ADD DUP3 DUP2 MSTORE SUB SWAP3 GAS CALL SWAP1 RETURNDATASIZE ISZERO PUSH2 0xBDF JUMPI RETURNDATASIZE SWAP1 DUP2 GT PUSH2 0xBCC JUMPI DUP8 MLOAD SWAP1 PUSH2 0x8CE PUSH1 0x1F DUP3 ADD PUSH1 0x1F NOT AND DUP9 ADD DUP4 PUSH2 0xE14 JUMP JUMPDEST DUP2 MSTORE PUSH0 DUP7 RETURNDATASIZE SWAP3 ADD RETURNDATACOPY JUMPDEST ISZERO PUSH2 0xBBC JUMPI DUP6 MLOAD SWAP1 DUP2 MSTORE ADDRESS DUP6 DUP3 ADD MSTORE SWAP1 DUP4 DUP3 PUSH1 0x24 DUP2 DUP16 GAS STATICCALL DUP1 ISZERO PUSH2 0xB38 JUMPI PUSH0 SWAP1 PUSH2 0xB8D JUMPI JUMPDEST PUSH2 0x906 SWAP3 POP PUSH2 0xE4E JUMP JUMPDEST SWAP5 PUSH1 0x84 CALLDATALOAD DUP7 LT PUSH2 0xB71 JUMPI DUP11 DUP11 EQ ISZERO DUP1 PUSH2 0xB81 JUMPI JUMPDEST PUSH2 0xB71 JUMPI DUP5 MLOAD PUSH4 0x24A9D853 PUSH1 0xE0 SHL DUP2 MSTORE DUP4 DUP2 DUP7 DUP2 DUP6 GAS STATICCALL SWAP1 DUP2 ISZERO PUSH2 0xB38 JUMPI PUSH0 SWAP2 PUSH2 0xB42 JUMPI JUMPDEST POP PUSH2 0x94D PUSH2 0x2710 SWAP2 DUP9 PUSH2 0xE6F JUMP JUMPDEST DIV SWAP6 PUSH2 0x959 DUP8 DUP3 PUSH2 0xE4E JUMP JUMPDEST SWAP9 DUP3 EXTCODESIZE ISZERO PUSH2 0x3DE JUMPI DUP7 MLOAD PUSH4 0x846FA34D PUSH1 0xE0 SHL DUP2 MSTORE DUP7 DUP2 ADD DUP13 DUP2 MSTORE PUSH1 0x1 PUSH1 0x1 PUSH1 0xA0 SHL SUB SWAP1 SWAP3 AND PUSH1 0x20 DUP4 ADD MSTORE PUSH1 0x40 DUP3 ADD SWAP3 SWAP1 SWAP3 MSTORE PUSH0 SWAP1 DUP3 SWAP1 DUP2 SWAP1 PUSH1 0x60 ADD SUB DUP2 DUP4 DUP7 GAS CALL DUP1 ISZERO PUSH2 0xB38 JUMPI PUSH2 0xB23 JUMPI JUMPDEST POP DUP4 DUP4 DUP15 SWAP3 DUP8 MLOAD SWAP3 DUP4 DUP1 SWAP3 PUSH4 0xCACCD7F7 PUSH1 0xE0 SHL DUP3 MSTORE GAS STATICCALL SWAP1 DUP2 ISZERO PUSH2 0xB19 JUMPI DUP5 DUP9 DUP15 DUP6 SWAP5 PUSH2 0xA07 SWAP5 DUP11 SWAP9 SWAP8 SWAP2 PUSH2 0xAFC JUMPI JUMPDEST POP DUP6 DUP12 MLOAD DUP1 SWAP7 DUP2 SWAP6 DUP3 SWAP5 PUSH4 0xA9059CBB PUSH1 0xE0 SHL SWAP13 DUP14 DUP6 MSTORE DUP5 ADD PUSH1 0x20 SWAP1 SWAP4 SWAP3 SWAP2 SWAP4 PUSH1 0x40 DUP2 ADD SWAP5 PUSH1 0x1 DUP1 PUSH1 0xA0 SHL SUB AND DUP2 MSTORE ADD MSTORE JUMP JUMPDEST SUB SWAP3 GAS CALL SWAP2 DUP3 ISZERO PUSH2 0xAF1 JUMPI SWAP2 PUSH2 0xAD4 JUMPI JUMPDEST POP ISZERO PUSH2 0x31C JUMPI DUP8 DUP12 PUSH2 0xA53 SWAP4 DUP16 DUP7 SWAP5 DUP2 SLOAD AND SWAP2 DUP10 MLOAD SWAP7 DUP8 SWAP6 DUP7 SWAP5 DUP6 SWAP4 DUP5 MSTORE DUP12 DUP5 ADD PUSH1 0x20 SWAP1 SWAP4 SWAP3 SWAP2 SWAP4 PUSH1 0x40 DUP2 ADD SWAP5 PUSH1 0x1 DUP1 PUSH1 0xA0 SHL SUB AND DUP2 MSTORE ADD MSTORE JUMP JUMPDEST SUB SWAP3 GAS CALL SWAP2 DUP3 ISZERO PUSH2 0xACA JUMPI DUP13 SWAP3 PUSH2 0xAAD JUMPI JUMPDEST POP POP ISZERO PUSH2 0x2D7 JUMPI POP MLOAD SWAP2 DUP3 MSTORE PUSH1 0x20 DUP3 ADD SWAP3 SWAP1 SWAP3 MSTORE PUSH1 0x40 DUP2 ADD SWAP2 SWAP1 SWAP2 MSTORE PUSH32 0x743791ED120D099B4C527E3BCEF5A2E69C738C483EDE167D034FB7A031AFA944 SWAP1 DUP1 PUSH1 0x60 DUP2 ADD PUSH2 0x2CA JUMP JUMPDEST PUSH2 0xAC3 SWAP3 POP DUP1 RETURNDATASIZE LT PUSH2 0x30B JUMPI PUSH2 0x2FC DUP2 DUP4 PUSH2 0xE14 JUMP JUMPDEST PUSH0 DUP1 PUSH2 0xA65 JUMP JUMPDEST DUP5 MLOAD RETURNDATASIZE DUP15 DUP3 RETURNDATACOPY RETURNDATASIZE SWAP1 REVERT JUMPDEST PUSH2 0xAEB SWAP2 POP DUP5 RETURNDATASIZE DUP7 GT PUSH2 0x30B JUMPI PUSH2 0x2FC DUP2 DUP4 PUSH2 0xE14 JUMP JUMPDEST PUSH0 PUSH2 0xA18 JUMP JUMPDEST DUP8 MLOAD SWAP1 RETURNDATASIZE SWAP1 DUP3 RETURNDATACOPY RETURNDATASIZE SWAP1 REVERT JUMPDEST PUSH2 0xB13 SWAP2 POP DUP5 RETURNDATASIZE DUP7 GT PUSH2 0x37B JUMPI PUSH2 0x36C DUP2 DUP4 PUSH2 0xE14 JUMP JUMPDEST PUSH0 PUSH2 0x9D5 JUMP JUMPDEST DUP7 MLOAD RETURNDATASIZE DUP5 DUP3 RETURNDATACOPY RETURNDATASIZE SWAP1 REVERT JUMPDEST DUP4 SWAP14 POP PUSH2 0xB2F SWAP1 PUSH2 0xDEC JUMP JUMPDEST DUP4 PUSH0 SWAP14 POP PUSH2 0x9A5 JUMP JUMPDEST DUP7 MLOAD RETURNDATASIZE PUSH0 DUP3 RETURNDATACOPY RETURNDATASIZE SWAP1 REVERT JUMPDEST SWAP1 POP DUP4 DUP2 DUP2 RETURNDATASIZE DUP4 GT PUSH2 0xB6A JUMPI JUMPDEST PUSH2 0xB59 DUP2 DUP4 PUSH2 0xE14 JUMP JUMPDEST DUP2 ADD SUB SLT PUSH2 0x3DE JUMPI MLOAD PUSH2 0x94D PUSH2 0x93F JUMP JUMPDEST POP RETURNDATASIZE PUSH2 0xB4F JUMP JUMPDEST DUP5 MLOAD PUSH4 0x8199F5F3 PUSH1 0xE0 SHL DUP2 MSTORE DUP5 SWAP1 REVERT JUMPDEST POP DUP7 PUSH1 0x1 SHR DUP7 LT PUSH2 0x91A JUMP JUMPDEST POP DUP4 DUP3 DUP2 RETURNDATASIZE DUP4 GT PUSH2 0xBB5 JUMPI JUMPDEST PUSH2 0xBA3 DUP2 DUP4 PUSH2 0xE14 JUMP JUMPDEST DUP2 ADD SUB SLT PUSH2 0x3DE JUMPI PUSH2 0x906 SWAP2 MLOAD PUSH2 0x8FC JUMP JUMPDEST POP RETURNDATASIZE PUSH2 0xB99 JUMP JUMPDEST DUP6 MLOAD PUSH4 0x12171D83 PUSH1 0xE3 SHL DUP2 MSTORE DUP6 SWAP1 REVERT JUMPDEST PUSH1 0x41 DUP8 PUSH4 0x4E487B71 PUSH1 0xE0 SHL PUSH0 MSTORE MSTORE PUSH1 0x24 PUSH0 REVERT JUMPDEST POP PUSH2 0x8D7 JUMP JUMPDEST SWAP2 SWAP3 SWAP1 SWAP6 POP DUP8 DUP3 DUP2 RETURNDATASIZE DUP4 GT PUSH2 0xC13 JUMPI JUMPDEST PUSH2 0xBFF DUP2 DUP4 PUSH2 0xE14 JUMP JUMPDEST DUP2 ADD SUB SLT PUSH2 0x3DE JUMPI SWAP1 MLOAD SWAP5 SWAP1 SWAP2 SWAP1 PUSH0 PUSH2 0x891 JUMP JUMPDEST POP RETURNDATASIZE PUSH2 0xBF5 JUMP JUMPDEST DUP11 MLOAD RETURNDATASIZE PUSH0 DUP3 RETURNDATACOPY RETURNDATASIZE SWAP1 REVERT JUMPDEST PUSH2 0xC3A SWAP1 DUP7 RETURNDATASIZE DUP9 GT PUSH2 0x30B JUMPI PUSH2 0x2FC DUP2 DUP4 PUSH2 0xE14 JUMP JUMPDEST POP PUSH0 PUSH2 0x860 JUMP JUMPDEST DUP9 MLOAD RETURNDATASIZE PUSH0 DUP3 RETURNDATACOPY RETURNDATASIZE SWAP1 REVERT JUMPDEST DUP8 MLOAD PUSH4 0x12171D83 PUSH1 0xE3 SHL DUP2 MSTORE DUP8 SWAP1 REVERT JUMPDEST PUSH2 0xC72 SWAP2 POP DUP8 RETURNDATASIZE DUP10 GT PUSH2 0x30B JUMPI PUSH2 0x2FC DUP2 DUP4 PUSH2 0xE14 JUMP JUMPDEST PUSH0 PUSH2 0x818 JUMP JUMPDEST DUP10 MLOAD RETURNDATASIZE PUSH0 DUP3 RETURNDATACOPY RETURNDATASIZE SWAP1 REVERT JUMPDEST DUP8 MLOAD PUSH4 0xCEC13F7B PUSH1 0xE0 SHL DUP2 MSTORE DUP8 SWAP1 REVERT JUMPDEST PUSH2 0xCA9 SWAP2 POP DUP8 RETURNDATASIZE DUP10 GT PUSH2 0x30B JUMPI PUSH2 0x2FC DUP2 DUP4 PUSH2 0xE14 JUMP JUMPDEST PUSH0 PUSH2 0x7B2 JUMP JUMPDEST DUP8 MLOAD PUSH4 0x34617913 PUSH1 0xE1 SHL DUP2 MSTORE DUP8 SWAP1 REVERT JUMPDEST PUSH2 0xCD6 SWAP2 POP DUP8 RETURNDATASIZE DUP10 GT PUSH2 0x30B JUMPI PUSH2 0x2FC DUP2 DUP4 PUSH2 0xE14 JUMP JUMPDEST PUSH0 PUSH2 0x784 JUMP JUMPDEST DUP8 MLOAD PUSH4 0x664B28B PUSH1 0xE4 SHL DUP2 MSTORE DUP8 SWAP1 REVERT JUMPDEST DUP8 MLOAD PUSH4 0x6FDA65D PUSH1 0xE3 SHL DUP2 MSTORE DUP8 SWAP1 REVERT JUMPDEST DUP3 CALLVALUE PUSH2 0x3DE JUMPI PUSH1 0x20 CALLDATASIZE PUSH1 0x3 NOT ADD SLT PUSH2 0x3DE JUMPI PUSH2 0xD16 PUSH2 0xD7C JUMP JUMPDEST PUSH1 0x1 SLOAD PUSH1 0x1 PUSH1 0x1 PUSH1 0xA0 SHL SUB SWAP4 SWAP2 SWAP3 SWAP2 SWAP1 DUP5 AND CALLER SUB PUSH2 0xD70 JUMPI POP POP AND DUP1 PUSH12 0xFFFFFFFFFFFFFFFFFFFFFFFF PUSH1 0xA0 SHL PUSH1 0x2 SLOAD AND OR PUSH1 0x2 SSTORE PUSH32 0xF3F625A7D9E02778AFDFDF1BEA978D6565840D408866C70F5D25AADF77021D70 PUSH0 DUP1 LOG2 STOP JUMPDEST PUSH4 0x636A157 PUSH1 0xE1 SHL DUP2 MSTORE REVERT JUMPDEST PUSH1 0x4 CALLDATALOAD SWAP1 PUSH1 0x1 PUSH1 0x1 PUSH1 0xA0 SHL SUB DUP3 AND DUP3 SUB PUSH2 0x3DE JUMPI JUMP JUMPDEST PUSH1 0x24 CALLDATALOAD SWAP1 PUSH1 0x1 PUSH1 0x1 PUSH1 0xA0 SHL SUB DUP3 AND DUP3 SUB PUSH2 0x3DE JUMPI JUMP JUMPDEST PUSH1 0x44 CALLDATALOAD SWAP1 PUSH1 0x1 PUSH1 0x1 PUSH1 0xA0 SHL SUB DUP3 AND DUP3 SUB PUSH2 0x3DE JUMPI JUMP JUMPDEST SWAP2 DUP2 PUSH1 0x1F DUP5 ADD SLT ISZERO PUSH2 0x3DE JUMPI DUP3 CALLDATALOAD SWAP2 PUSH8 0xFFFFFFFFFFFFFFFF DUP4 GT PUSH2 0x3DE JUMPI PUSH1 0x20 DUP4 DUP2 DUP7 ADD SWAP6 ADD ADD GT PUSH2 0x3DE JUMPI JUMP JUMPDEST PUSH8 0xFFFFFFFFFFFFFFFF DUP2 GT PUSH2 0xE00 JUMPI PUSH1 0x40 MSTORE JUMP JUMPDEST PUSH4 0x4E487B71 PUSH1 0xE0 SHL PUSH0 MSTORE PUSH1 0x41 PUSH1 0x4 MSTORE PUSH1 0x24 PUSH0 REVERT JUMPDEST SWAP1 PUSH1 0x1F DUP1 NOT SWAP2 ADD AND DUP2 ADD SWAP1 DUP2 LT PUSH8 0xFFFFFFFFFFFFFFFF DUP3 GT OR PUSH2 0xE00 JUMPI PUSH1 0x40 MSTORE JUMP JUMPDEST SWAP1 DUP2 PUSH1 0x20 SWAP2 SUB SLT PUSH2 0x3DE JUMPI MLOAD DUP1 ISZERO ISZERO DUP2 SUB PUSH2 0x3DE JUMPI SWAP1 JUMP JUMPDEST SWAP2 SWAP1 DUP3 SUB SWAP2 DUP3 GT PUSH2 0xE5B JUMPI JUMP JUMPDEST PUSH4 0x4E487B71 PUSH1 0xE0 SHL PUSH0 MSTORE PUSH1 0x11 PUSH1 0x4 MSTORE PUSH1 0x24 PUSH0 REVERT JUMPDEST DUP2 DUP2 MUL SWAP3 SWAP2 DUP2 ISZERO SWAP2 DUP5 DIV EQ OR ISZERO PUSH2 0xE5B JUMPI JUMP JUMPDEST SWAP1 DUP2 PUSH1 0x20 SWAP2 SUB SLT PUSH2 0x3DE JUMPI MLOAD PUSH1 0x1 PUSH1 0x1 PUSH1 0xA0 SHL SUB DUP2 AND DUP2 SUB PUSH2 0x3DE JUMPI SWAP1 JUMP JUMPDEST PUSH1 0x2 SLOAD SWAP3 SWAP6 PUSH1 0x1 PUSH1 0x1 PUSH1 0xA0 SHL SUB SWAP4 DUP5 AND SWAP6 SWAP4 SWAP5 SWAP1 SWAP4 SWAP3 SWAP1 DUP7 ISZERO PUSH2 0x101D JUMPI PUSH1 0x40 SWAP8 DUP9 MLOAD SWAP3 PUSH1 0x20 DUP5 ADD SWAP5 DUP6 MSTORE PUSH12 0xFFFFFFFFFFFFFFFFFFFFFFFF NOT SWAP1 PUSH1 0x60 SHL AND DUP10 DUP5 ADD MSTORE PUSH1 0x54 DUP4 ADD MSTORE PUSH1 0x74 DUP3 ADD MSTORE PUSH1 0x74 DUP2 MSTORE PUSH1 0xA0 DUP2 ADD PUSH8 0xFFFFFFFFFFFFFFFF SWAP3 DUP3 DUP3 LT DUP5 DUP4 GT OR PUSH2 0xE00 JUMPI DUP2 DUP10 MSTORE DUP3 MLOAD SWAP1 KECCAK256 PUSH1 0xC0 DUP4 ADD SWAP1 PUSH32 0x1954726F6E205369676E6564204D6573736167653A0A33320000000000000000 DUP3 MSTORE PUSH1 0xD8 DUP5 ADD MSTORE PUSH1 0x38 DUP3 MSTORE PUSH2 0x100 DUP4 ADD SWAP4 DUP3 DUP6 LT SWAP1 DUP6 GT OR PUSH2 0xE00 JUMPI PUSH1 0x41 SWAP2 DUP5 DUP11 MSTORE MLOAD SWAP1 KECCAK256 SWAP5 SUB PUSH2 0xFD7 JUMPI POP POP DUP5 DUP2 ADD CALLDATALOAD PUSH0 BYTE PUSH1 0x1B DUP2 LT PUSH2 0xFC5 JUMPI JUMPDEST PUSH1 0x20 SWAP3 DUP4 PUSH0 SWAP4 PUSH1 0xFF PUSH1 0x80 SWAP5 DUP11 MLOAD SWAP5 DUP6 MSTORE AND DUP3 DUP5 ADD MSTORE DUP1 CALLDATALOAD DUP10 DUP5 ADD MSTORE ADD CALLDATALOAD PUSH1 0x60 DUP3 ADD MSTORE DUP3 DUP1 MSTORE PUSH1 0x1 GAS STATICCALL ISZERO PUSH2 0xFBB JUMPI PUSH0 MLOAD AND SUB PUSH2 0xFAB JUMPI POP JUMP JUMPDEST MLOAD PUSH4 0x8BAA579F PUSH1 0xE0 SHL DUP2 MSTORE PUSH1 0x4 SWAP1 REVERT JUMPDEST DUP3 MLOAD RETURNDATASIZE PUSH0 DUP3 RETURNDATACOPY RETURNDATASIZE SWAP1 REVERT JUMPDEST PUSH1 0x1B ADD SWAP1 PUSH1 0xFF DUP3 GT PUSH2 0xE5B JUMPI SWAP1 PUSH2 0xF72 JUMP JUMPDEST PUSH3 0x461BCD PUSH1 0xE5 SHL DUP3 MSTORE PUSH1 0x20 PUSH2 0x104 DUP3 ADD MSTORE PUSH1 0x18 PUSH2 0x124 DUP3 ADD MSTORE PUSH32 0x496E76616C6964207369676E6174757265206C656E6774680000000000000000 PUSH2 0x144 SWAP1 SWAP2 ADD MSTORE PUSH1 0x64 SWAP1 REVERT JUMPDEST POP POP POP POP POP POP POP POP JUMP INVALID LOG2 PUSH5 0x6970667358 0x22 SLT KECCAK256 0x4D 0xCE 0x2C ADDMOD 0xED 0xAB SWAP9 PUSH10 0xC02ED3A16FDD9A881BEF PUSH3 0xFCE59B DUP8 0x2C EXP PUSH2 0x525E 0xE7 0xD1 SSTORE CREATE PUSH5 0x736F6C6343 STOP ADDMOD XOR STOP CALLER "},"methodIdentifiers":{"authorizer()":"d09edf31","factory()":"c45a0155","initialize(address,address,address)":"c0c53b8b","merchantAddress()":"9df8ed43","payDirect(bytes32,address,uint256,uint256,bytes)":"e47c6f3c","payWithSwap(bytes32,address,address,uint256,uint256,uint256,address,address,bytes,bytes)":"0d374224","rescueToken(address,uint256)":"33f3d628","setAuthorizer(address)":"058a628f"}}}}}