{"contracts/tron/MerchantFactory.sol":{"MerchantFactory":{"abi":[{"inputs":[{"internalType":"address","name":"_devAddress","type":"address"},{"internalType":"address","name":"_splitterLogicImpl","type":"address"}],"stateMutability":"nonpayable","type":"constructor"},{"anonymous":false,"inputs":[{"indexed":true,"internalType":"address","name":"newAuthorizer","type":"address"}],"name":"AuthorizerUpdated","type":"event"},{"anonymous":false,"inputs":[{"indexed":true,"internalType":"address","name":"authorizer","type":"address"}],"name":"DefaultAuthorizerSet","type":"event"},{"anonymous":false,"inputs":[{"indexed":true,"internalType":"address","name":"merchant","type":"address"},{"indexed":false,"internalType":"address","name":"cloneAddress","type":"address"}],"name":"MerchantCloneDeployed","type":"event"},{"anonymous":false,"inputs":[{"indexed":true,"internalType":"bytes32","name":"paymentId","type":"bytes32"},{"indexed":true,"internalType":"address","name":"clone","type":"address"},{"indexed":true,"internalType":"address","name":"token","type":"address"},{"indexed":false,"internalType":"uint256","name":"amount","type":"uint256"}],"name":"PaymentRecorded","type":"event"},{"anonymous":false,"inputs":[{"indexed":true,"internalType":"bytes32","name":"requestId","type":"bytes32"}],"name":"RescueTokenCancelled","type":"event"},{"anonymous":false,"inputs":[{"indexed":true,"internalType":"bytes32","name":"requestId","type":"bytes32"},{"indexed":true,"internalType":"address","name":"clone","type":"address"},{"indexed":false,"internalType":"address","name":"token","type":"address"},{"indexed":false,"internalType":"uint256","name":"amount","type":"uint256"}],"name":"RescueTokenExecuted","type":"event"},{"anonymous":false,"inputs":[{"indexed":true,"internalType":"bytes32","name":"requestId","type":"bytes32"},{"indexed":true,"internalType":"address","name":"clone","type":"address"},{"indexed":false,"internalType":"address","name":"token","type":"address"},{"indexed":false,"internalType":"uint256","name":"amount","type":"uint256"},{"indexed":false,"internalType":"uint256","name":"executeTime","type":"uint256"}],"name":"RescueTokenProposed","type":"event"},{"inputs":[],"name":"TIMELOCK_DELAY","outputs":[{"internalType":"uint256","name":"","type":"uint256"}],"stateMutability":"view","type":"function"},{"inputs":[{"internalType":"address","name":"","type":"address"}],"name":"allowedRouters","outputs":[{"internalType":"bool","name":"","type":"bool"}],"stateMutability":"view","type":"function"},{"inputs":[],"name":"authorizer","outputs":[{"internalType":"address","name":"","type":"address"}],"stateMutability":"view","type":"function"},{"inputs":[{"internalType":"bytes32","name":"requestId","type":"bytes32"}],"name":"cancelRescueToken","outputs":[],"stateMutability":"nonpayable","type":"function"},{"inputs":[{"internalType":"address","name":"merchant","type":"address"},{"internalType":"address","name":"_authorizer","type":"address"}],"name":"createMerchantSplitter","outputs":[{"internalType":"address","name":"","type":"address"}],"stateMutability":"nonpayable","type":"function"},{"inputs":[{"internalType":"address","name":"merchant","type":"address"}],"name":"createMerchantSplitter","outputs":[{"internalType":"address","name":"","type":"address"}],"stateMutability":"nonpayable","type":"function"},{"inputs":[],"name":"developerAddress","outputs":[{"internalType":"address","name":"","type":"address"}],"stateMutability":"view","type":"function"},{"inputs":[{"internalType":"bytes32","name":"requestId","type":"bytes32"}],"name":"executeRescueToken","outputs":[],"stateMutability":"nonpayable","type":"function"},{"inputs":[],"name":"feeBps","outputs":[{"internalType":"uint256","name":"","type":"uint256"}],"stateMutability":"view","type":"function"},{"inputs":[{"internalType":"bytes32","name":"","type":"bytes32"}],"name":"globalProcessedPayments","outputs":[{"internalType":"bool","name":"","type":"bool"}],"stateMutability":"view","type":"function"},{"inputs":[{"internalType":"address","name":"","type":"address"}],"name":"isClone","outputs":[{"internalType":"bool","name":"","type":"bool"}],"stateMutability":"view","type":"function"},{"inputs":[{"internalType":"address","name":"router","type":"address"}],"name":"isRouterAllowed","outputs":[{"internalType":"bool","name":"","type":"bool"}],"stateMutability":"view","type":"function"},{"inputs":[{"internalType":"address","name":"token","type":"address"},{"internalType":"uint256","name":"amount","type":"uint256"}],"name":"merchantRescueToken","outputs":[],"stateMutability":"nonpayable","type":"function"},{"inputs":[{"internalType":"address","name":"","type":"address"}],"name":"merchantSplitters","outputs":[{"internalType":"address","name":"","type":"address"}],"stateMutability":"view","type":"function"},{"inputs":[],"name":"owner","outputs":[{"internalType":"address","name":"","type":"address"}],"stateMutability":"view","type":"function"},{"inputs":[],"name":"pause","outputs":[],"stateMutability":"nonpayable","type":"function"},{"inputs":[],"name":"paused","outputs":[{"internalType":"bool","name":"","type":"bool"}],"stateMutability":"view","type":"function"},{"inputs":[{"internalType":"address","name":"_clone","type":"address"},{"internalType":"address","name":"token","type":"address"},{"internalType":"uint256","name":"amount","type":"uint256"}],"name":"proposeRescueToken","outputs":[{"internalType":"bytes32","name":"requestId","type":"bytes32"}],"stateMutability":"nonpayable","type":"function"},{"inputs":[{"internalType":"bytes32","name":"paymentId","type":"bytes32"},{"internalType":"address","name":"token","type":"address"},{"internalType":"uint256","name":"amount","type":"uint256"}],"name":"recordPayment","outputs":[],"stateMutability":"nonpayable","type":"function"},{"inputs":[{"internalType":"bytes32","name":"","type":"bytes32"}],"name":"rescueData","outputs":[{"internalType":"bytes","name":"","type":"bytes"}],"stateMutability":"view","type":"function"},{"inputs":[{"internalType":"bytes32","name":"","type":"bytes32"}],"name":"rescueRequests","outputs":[{"internalType":"uint256","name":"","type":"uint256"}],"stateMutability":"view","type":"function"},{"inputs":[{"internalType":"address","name":"_newAuthorizer","type":"address"}],"name":"setAuthorizer","outputs":[],"stateMutability":"nonpayable","type":"function"},{"inputs":[{"internalType":"address","name":"_newDev","type":"address"}],"name":"setDeveloperAddress","outputs":[],"stateMutability":"nonpayable","type":"function"},{"inputs":[{"internalType":"uint256","name":"_bps","type":"uint256"}],"name":"setFeeBps","outputs":[],"stateMutability":"nonpayable","type":"function"},{"inputs":[],"name":"splitterLogicImpl","outputs":[{"internalType":"address","name":"","type":"address"}],"stateMutability":"view","type":"function"},{"inputs":[{"internalType":"address","name":"router","type":"address"},{"internalType":"bool","name":"status","type":"bool"}],"name":"toggleRouterAllowlist","outputs":[],"stateMutability":"nonpayable","type":"function"},{"inputs":[{"internalType":"address","name":"newOwner","type":"address"}],"name":"transferOwnership","outputs":[],"stateMutability":"nonpayable","type":"function"},{"inputs":[],"name":"unpause","outputs":[],"stateMutability":"nonpayable","type":"function"},{"inputs":[{"internalType":"address","name":"_clone","type":"address"},{"internalType":"address","name":"_newAuthorizer","type":"address"}],"name":"updateCloneAuthorizer","outputs":[],"stateMutability":"nonpayable","type":"function"}],"evm":{"bytecode":{"linkReferences":{},"object":"60803461014b57601f61155a38819003918201601f19168301916001600160401b0383118484101761014f57808492604094855283398101031261014b57610052602061004b83610163565b9201610163565b600a6002556001600160a01b0391821691908215610106571680156100d25760018060a01b03199133835f5416175f5582600154161760015581600354161760035533906004541617600455604051337edf7d8d0088b4dec0a2f0541dcba27d872a7f66af9823586edbfb14fbf612cd195f80a26113e290816101788239f35b60405162461bcd60e51b815260206004820152600c60248201526b125b9d985b1a59081a5b5c1b60a21b6044820152606490fd5b60405162461bcd60e51b815260206004820152601360248201527f496e76616c6964206465762061646472657373000000000000000000000000006044820152606490fd5b5f80fd5b634e487b7160e01b5f52604160045260245ffd5b51906001600160a01b038216820361014b5756fe60806040818152600480361015610014575f80fd5b5f925f3560e01c908162ae36761461111457508063058a628f146110a757806309b6f1711461104b5780631b2cc96814610f7557806324a9d85314610f56578063250fa03a14610dc157806337c68b8814610bc95780633ab4b486146109ef5780633f4ba83a146109bb578063540e7a6c146106fd57838163569f8cc81461065557508063599dec681461061a5780635ba1c1a9146105fc5780635c975abb146105d757806361771e49146102845780636c2a0d74146105b057806372c27b621461058257806377d44149146105125780638456cb59146104d9578063846fa34d146103c15780638918c79e146103985780638da5cb5b146103705780639aba6a0f14610344578063ade36e1d146102c2578063c646aee214610284578063caccd7f714610257578063d09edf3114610230578063dcc345f2146101e35763f2fde38b14610160575f80fd5b346101df5760203660031901126101df5761017961114e565b835491906001600160a01b0390610193338386161461128a565b169283156101ad5750506001600160a01b03191617815580f35b906020606492519162461bcd60e51b8352820152600c60248201526b5a65726f206164647265737360a01b6044820152fd5b8280fd5b833461022d57602036600319011261022d576101fd61114e565b81546001600160a01b039190610216908316331461128a565b166001600160601b0360a01b600154161760015580f35b80fd5b50346101df57826003193601126101df575490516001600160a01b03909116815260209150f35b50503461028057816003193601126102805760015490516001600160a01b039091168152602090f35b5080fd5b5050346102805760203660031901126102805760209160ff9082906001600160a01b036102af61114e565b1681526005855220541690519015158152f35b5090346101df5760203660031901126101df5761034191356102ee60018060a01b03855416331461128a565b80845260096020526103048285205415156112c2565b807f8f1aafee48488f6068a10e3d41fb46866c088ae8ce01798a83191869c93a52f08580a2835260096020528281812055600a602052822061132a565b80f35b50346101df5760203660031901126101df578160209360ff923581526007855220541690519015158152f35b505034610280578160031936011261028057905490516001600160a01b039091168152602090f35b50503461028057816003193601126102805760035490516001600160a01b039091168152602090f35b5090346101df5760603660031901126101df5781356103de611164565b913385526020936008855260ff828720541615610499578286526007855260ff8287205416610458575081855260078452808520805460ff191660011790555160443581526001600160a01b039092169233927fe71f2d4fc99f7d557282a41e699063e3ff6752f44a7e31aae25bd2666740c5139190a480f35b84606492519162461bcd60e51b8352820152601960248201527f5061796d656e7420616c72656164792070726f636573736564000000000000006044820152fd5b8480606493519262461bcd60e51b845283015260248201527f43616c6c6572206973206e6f742061207265676973746572656420636c6f6e656044820152fd5b833461022d578060031936011261022d578054610500336001600160a01b0383161461128a565b60ff60a01b1916600160a01b17815580f35b50913461022d576020928360031936011261028057929092358352600a815261053c8284206111da565b82519382859384528251928382860152825b84811061056c57505050828201840152601f01601f19168101030190f35b818101830151888201880152879550820161054e565b838234610280576020366003190112610280576105a960018060a01b03835416331461128a565b3560025580f35b50346101df5760203660031901126101df5760209282913581526009845220549051908152f35b50503461028057816003193601126102805760ff6020925460a01c1690519015158152f35b505034610280578160031936011261028057602090516202a3008152f35b505034610280576020366003190112610280576020916001600160a01b039082908261064461114e565b168152600685522054169051908152f35b929050346106f957806003193601126106f95761067061114e565b610678611164565b9060018060a01b03809161069082885416331461128a565b1680865260086020526106a860ff8588205416611372565b803b156106f5578592836024928651978895869463058a628f60e01b865216908401525af19081156106ec57506106dc5750f35b6106e5906111b2565b61022d5780f35b513d84823e3d90fd5b8580fd5b5050fd5b5090346101df576060928360031936011261022d5761071a61114e565b610722611164565b82546001600160a01b0396919060443590610740908916331461128a565b8784169485815260209860088a5261075d60ff8984205416611372565b8751958a8701916001600160601b03198092881b168352851694861b1660348701528260488701524260688701526068865260a086019567ffffffffffffffff96818110888211176109a8578952519020976202a30042018042116109955789835260098b5288832055875195878b880152848988015283868801528587526080870187811082821117610982578952898352600a8b5288832091875191821161096f575091818a969594936108148b945461117a565b8d601f8211610936575b50508c98601f8211600114610896577f1bdb25bc80d6550a01487654162d2b7bcbaeca17b410f1a7ae2352799491237598998291859261088b575b50508160011b915f199060031b1c19161790555b86815260098b5220549087519283528983015286820152a351908152f35b015190505f80610859565b8d90601f1983168486528286209286905b8282106109055750509a8392916001947f1bdb25bc80d6550a01487654162d2b7bcbaeca17b410f1a7ae235279949123759c9d106108ed575b505050811b01905561086d565b01515f1960f88460031b161c191690555f80806108e0565b929497509497999b95989a509181600181928887015181550196019401918e9a9895928e9794929c9a98959c6108a7565b83855280852061095e92601f850160051c8201928510610965575b601f0160051c0190611314565b5f8d61081e565b9091508190610951565b634e487b7160e01b845260419052602483fd5b604183634e487b7160e01b5f525260245ffd5b634e487b7160e01b835260118252602483fd5b60418b634e487b7160e01b5f525260245ffd5b833461022d578060031936011261022d576109e060018060a01b03825416331461128a565b5f805460ff60a01b1916905580f35b5090346101df576020928360031936011261022d57506001600160a01b039182610a1761114e565b1690815f526006855283835f205416610b86576003548351733d602d80600a3d3981f3363d3d373d3d3d363d7360601b815260609190911b6bffffffffffffffffffffffff191660148201526e5af43d82803e903d91602b57fd5bf360881b6028820152936037855ff081603787019182875216958615610b4c575050815416843b15610b4857835163c0c53b8b60e01b815291820183905230602483015260448201525f8160648183885af18015610b3e57610b2f575b50805f5260068452815f20836001600160601b0360a01b825416179055825f5260088452815f20600160ff198254161790557fc1f9d081289e627d16e20e8ce42a4f26358883fdd78c0ea20ac02134c20320ae848351858152a251908152f35b610b38906111b2565b5f610acf565b83513d5f823e3d90fd5b5f80fd5b9075115490cc4c4d8dce8818dc99585d194819985a5b195960521b607b6064938a62461bcd60e51b8552603b8201526016605b8201520152fd5b825162461bcd60e51b8152908101859052601c60248201527f4d65726368616e7420616c726561647920686173206120636c6f6e65000000006044820152606490fd5b50823461022d578260031936011261022d5750610be461114e565b91610bed611164565b915f60018060a01b0380951691825f526020956006875280855f205416610d7e576003548551733d602d80600a3d3981f3363d3d373d3d3d363d7360601b815260609190911b6bffffffffffffffffffffffff191660148201526e5af43d82803e903d91602b57fd5bf360881b6028820152956037875ff082603789019182895216978815610d4457505080821615610d3a575b863b15610b4857855163c0c53b8b60e01b81529283018590523060248401521660448201525f8160648183895af18015610d305790849291610d1c575b508281526006865281812080546001600160a01b031916861790558481526008865220805460ff1916600117905581518381527fc1f9d081289e627d16e20e8ce42a4f26358883fdd78c0ea20ac02134c20320ae908590a251908152f35b9050610d2891506111b2565b815f86610cbe565b84513d5f823e3d90fd5b5080825416610c81565b9075115490cc4c4d8dce8818dc99585d194819985a5b195960521b607b6064938c62461bcd60e51b8552603b8201526016605b8201520152fd5b845162461bcd60e51b8152808301889052601c60248201527f4d65726368616e7420616c726561647920686173206120636c6f6e65000000006044820152606490fd5b5090346101df57602080600319360112610f525783546001600160a01b0393803591610df0908616331461128a565b8186526009835283862054610e068115156112c2565b4210610f1d57818652600a8352610e1e8487206111da565b90606082805181010312610f0f5786610e38858401611300565b96806060610e47898701611300565b9501519816931691833b1561028057865163067e7ac560e31b81526001600160a01b0384169181019182526020820189905290829082908190604001038183885af18015610f1357610ef3575b505084516001600160a01b03919091168152602081019590955261034194600a9392919082907f05db6a65e184fde5dac11952c68d57e85ff97bb19ed7514f55990b90fc6b013890604090a3855260098152848381205552822061132a565b610f019095949392956111b2565b610f0f57909192865f610e94565b8680fd5b87513d84823e3d90fd5b835162461bcd60e51b8152908101839052600f60248201526e54696d656c6f636b2061637469766560881b6044820152606490fd5b8380fd5b5050346102805781600319360112610280576020906002549051908152f35b509034610b485780600319360112610b4857610f8f61114e565b335f9081526006602052829020546001600160a01b031692831561101257833b15610b4857825163067e7ac560e31b81526001600160a01b03909216908201908152602435602082015290925f9184919082908490829060400103925af19081156110095750610ffd575080f35b61100791506111b2565b005b513d5f823e3d90fd5b606490602084519162461bcd60e51b8352820152601360248201527227379031b637b732903337b91039b2b73232b960691b6044820152fd5b8234610b485780600319360112610b485761106461114e565b9060243591821515809303610b48575f546001600160a01b03919061108c908316331461128a565b165f5260056020525f209060ff801983541691161790555f80f35b5034610b48576020366003190112610b48576110c161114e565b5f546001600160a01b0391906110da908316331461128a565b1690816001600160601b0360a01b8254161790557ff3f625a7d9e02778afdfdf1bea978d6565840d408866c70f5d25aadf77021d705f80a2005b839034610b48576020366003190112610b485760209160ff906001600160a01b0361113d61114e565b165f52600884525f20541615158152f35b600435906001600160a01b0382168203610b4857565b602435906001600160a01b0382168203610b4857565b90600182811c921680156111a8575b602083101461119457565b634e487b7160e01b5f52602260045260245ffd5b91607f1691611189565b67ffffffffffffffff81116111c657604052565b634e487b7160e01b5f52604160045260245ffd5b90604051915f9080546111ec8161117a565b908186526020926001916001811690815f1461126c5750600114611233575b50505050829003601f01601f1916820167ffffffffffffffff8111838210176111c657604052565b909293505f52825f2091835f935b83851061125857505050508301015f80808061120b565b805488860183015293019284908201611241565b60ff191688860152505050151560051b84010190505f80808061120b565b1561129157565b60405162461bcd60e51b81526020600482015260096024820152682737ba1037bbb732b960b91b6044820152606490fd5b156112c957565b60405162461bcd60e51b815260206004820152600f60248201526e125b9d985b1a59081c995c5d595cdd608a1b6044820152606490fd5b51906001600160a01b0382168203610b4857565b81811061131f575050565b5f8155600101611314565b611334815461117a565b908161133e575050565b81601f5f931160011461134f575055565b90808391825261136e601f60208420940160051c840160018501611314565b5555565b1561137957565b60405162461bcd60e51b815260206004820152600b60248201526a4e6f74206120636c6f6e6560a81b6044820152606490fdfea264697066735822122048fc6bf2224bd9870d5557e3ec6224ed087cf0eb97577e7a498bbfe07f64c3a664736f6c63430008180033","opcodes":"PUSH1 0x80 CALLVALUE PUSH2 0x14B JUMPI PUSH1 0x1F PUSH2 0x155A CODESIZE DUP2 SWAP1 SUB SWAP2 DUP3 ADD PUSH1 0x1F NOT AND DUP4 ADD SWAP2 PUSH1 0x1 PUSH1 0x1 PUSH1 0x40 SHL SUB DUP4 GT DUP5 DUP5 LT OR PUSH2 0x14F JUMPI DUP1 DUP5 SWAP3 PUSH1 0x40 SWAP5 DUP6 MSTORE DUP4 CODECOPY DUP2 ADD SUB SLT PUSH2 0x14B JUMPI PUSH2 0x52 PUSH1 0x20 PUSH2 0x4B DUP4 PUSH2 0x163 JUMP JUMPDEST SWAP3 ADD PUSH2 0x163 JUMP JUMPDEST PUSH1 0xA PUSH1 0x2 SSTORE PUSH1 0x1 PUSH1 0x1 PUSH1 0xA0 SHL SUB SWAP2 DUP3 AND SWAP2 SWAP1 DUP3 ISZERO PUSH2 0x106 JUMPI AND DUP1 ISZERO PUSH2 0xD2 JUMPI PUSH1 0x1 DUP1 PUSH1 0xA0 SHL SUB NOT SWAP2 CALLER DUP4 PUSH0 SLOAD AND OR PUSH0 SSTORE DUP3 PUSH1 0x1 SLOAD AND OR PUSH1 0x1 SSTORE DUP2 PUSH1 0x3 SLOAD AND OR PUSH1 0x3 SSTORE CALLER SWAP1 PUSH1 0x4 SLOAD AND OR PUSH1 0x4 SSTORE PUSH1 0x40 MLOAD CALLER PUSH31 0xDF7D8D0088B4DEC0A2F0541DCBA27D872A7F66AF9823586EDBFB14FBF612CD NOT PUSH0 DUP1 LOG2 PUSH2 0x13E2 SWAP1 DUP2 PUSH2 0x178 DUP3 CODECOPY RETURN JUMPDEST PUSH1 0x40 MLOAD PUSH3 0x461BCD PUSH1 0xE5 SHL DUP2 MSTORE PUSH1 0x20 PUSH1 0x4 DUP3 ADD MSTORE PUSH1 0xC PUSH1 0x24 DUP3 ADD MSTORE PUSH12 0x125B9D985B1A59081A5B5C1B PUSH1 0xA2 SHL PUSH1 0x44 DUP3 ADD MSTORE PUSH1 0x64 SWAP1 REVERT JUMPDEST PUSH1 0x40 MLOAD PUSH3 0x461BCD PUSH1 0xE5 SHL DUP2 MSTORE PUSH1 0x20 PUSH1 0x4 DUP3 ADD MSTORE PUSH1 0x13 PUSH1 0x24 DUP3 ADD MSTORE PUSH32 0x496E76616C696420646576206164647265737300000000000000000000000000 PUSH1 0x44 DUP3 ADD MSTORE PUSH1 0x64 SWAP1 REVERT JUMPDEST PUSH0 DUP1 REVERT JUMPDEST PUSH4 0x4E487B71 PUSH1 0xE0 SHL PUSH0 MSTORE PUSH1 0x41 PUSH1 0x4 MSTORE PUSH1 0x24 PUSH0 REVERT JUMPDEST MLOAD SWAP1 PUSH1 0x1 PUSH1 0x1 PUSH1 0xA0 SHL SUB DUP3 AND DUP3 SUB PUSH2 0x14B JUMPI JUMP INVALID PUSH1 0x80 PUSH1 0x40 DUP2 DUP2 MSTORE PUSH1 0x4 DUP1 CALLDATASIZE LT ISZERO PUSH2 0x14 JUMPI PUSH0 DUP1 REVERT JUMPDEST PUSH0 SWAP3 PUSH0 CALLDATALOAD PUSH1 0xE0 SHR SWAP1 DUP2 PUSH3 0xAE3676 EQ PUSH2 0x1114 JUMPI POP DUP1 PUSH4 0x58A628F EQ PUSH2 0x10A7 JUMPI DUP1 PUSH4 0x9B6F171 EQ PUSH2 0x104B JUMPI DUP1 PUSH4 0x1B2CC968 EQ PUSH2 0xF75 JUMPI DUP1 PUSH4 0x24A9D853 EQ PUSH2 0xF56 JUMPI DUP1 PUSH4 0x250FA03A EQ PUSH2 0xDC1 JUMPI DUP1 PUSH4 0x37C68B88 EQ PUSH2 0xBC9 JUMPI DUP1 PUSH4 0x3AB4B486 EQ PUSH2 0x9EF JUMPI DUP1 PUSH4 0x3F4BA83A EQ PUSH2 0x9BB JUMPI DUP1 PUSH4 0x540E7A6C EQ PUSH2 0x6FD JUMPI DUP4 DUP2 PUSH4 0x569F8CC8 EQ PUSH2 0x655 JUMPI POP DUP1 PUSH4 0x599DEC68 EQ PUSH2 0x61A JUMPI DUP1 PUSH4 0x5BA1C1A9 EQ PUSH2 0x5FC JUMPI DUP1 PUSH4 0x5C975ABB EQ PUSH2 0x5D7 JUMPI DUP1 PUSH4 0x61771E49 EQ PUSH2 0x284 JUMPI DUP1 PUSH4 0x6C2A0D74 EQ PUSH2 0x5B0 JUMPI DUP1 PUSH4 0x72C27B62 EQ PUSH2 0x582 JUMPI DUP1 PUSH4 0x77D44149 EQ PUSH2 0x512 JUMPI DUP1 PUSH4 0x8456CB59 EQ PUSH2 0x4D9 JUMPI DUP1 PUSH4 0x846FA34D EQ PUSH2 0x3C1 JUMPI DUP1 PUSH4 0x8918C79E EQ PUSH2 0x398 JUMPI DUP1 PUSH4 0x8DA5CB5B EQ PUSH2 0x370 JUMPI DUP1 PUSH4 0x9ABA6A0F EQ PUSH2 0x344 JUMPI DUP1 PUSH4 0xADE36E1D EQ PUSH2 0x2C2 JUMPI DUP1 PUSH4 0xC646AEE2 EQ PUSH2 0x284 JUMPI DUP1 PUSH4 0xCACCD7F7 EQ PUSH2 0x257 JUMPI DUP1 PUSH4 0xD09EDF31 EQ PUSH2 0x230 JUMPI DUP1 PUSH4 0xDCC345F2 EQ PUSH2 0x1E3 JUMPI PUSH4 0xF2FDE38B EQ PUSH2 0x160 JUMPI PUSH0 DUP1 REVERT JUMPDEST CALLVALUE PUSH2 0x1DF JUMPI PUSH1 0x20 CALLDATASIZE PUSH1 0x3 NOT ADD SLT PUSH2 0x1DF JUMPI PUSH2 0x179 PUSH2 0x114E JUMP JUMPDEST DUP4 SLOAD SWAP2 SWAP1 PUSH1 0x1 PUSH1 0x1 PUSH1 0xA0 SHL SUB SWAP1 PUSH2 0x193 CALLER DUP4 DUP7 AND EQ PUSH2 0x128A JUMP JUMPDEST AND SWAP3 DUP4 ISZERO PUSH2 0x1AD JUMPI POP POP PUSH1 0x1 PUSH1 0x1 PUSH1 0xA0 SHL SUB NOT AND OR DUP2 SSTORE DUP1 RETURN JUMPDEST SWAP1 PUSH1 0x20 PUSH1 0x64 SWAP3 MLOAD SWAP2 PUSH3 0x461BCD PUSH1 0xE5 SHL DUP4 MSTORE DUP3 ADD MSTORE PUSH1 0xC PUSH1 0x24 DUP3 ADD MSTORE PUSH12 0x5A65726F2061646472657373 PUSH1 0xA0 SHL PUSH1 0x44 DUP3 ADD MSTORE REVERT JUMPDEST DUP3 DUP1 REVERT JUMPDEST DUP4 CALLVALUE PUSH2 0x22D JUMPI PUSH1 0x20 CALLDATASIZE PUSH1 0x3 NOT ADD SLT PUSH2 0x22D JUMPI PUSH2 0x1FD PUSH2 0x114E JUMP JUMPDEST DUP2 SLOAD PUSH1 0x1 PUSH1 0x1 PUSH1 0xA0 SHL SUB SWAP2 SWAP1 PUSH2 0x216 SWAP1 DUP4 AND CALLER EQ PUSH2 0x128A JUMP JUMPDEST AND PUSH1 0x1 PUSH1 0x1 PUSH1 0x60 SHL SUB PUSH1 0xA0 SHL PUSH1 0x1 SLOAD AND OR PUSH1 0x1 SSTORE DUP1 RETURN JUMPDEST DUP1 REVERT JUMPDEST POP CALLVALUE PUSH2 0x1DF JUMPI DUP3 PUSH1 0x3 NOT CALLDATASIZE ADD SLT PUSH2 0x1DF JUMPI SLOAD SWAP1 MLOAD PUSH1 0x1 PUSH1 0x1 PUSH1 0xA0 SHL SUB SWAP1 SWAP2 AND DUP2 MSTORE PUSH1 0x20 SWAP2 POP RETURN JUMPDEST POP POP CALLVALUE PUSH2 0x280 JUMPI DUP2 PUSH1 0x3 NOT CALLDATASIZE ADD SLT PUSH2 0x280 JUMPI PUSH1 0x1 SLOAD SWAP1 MLOAD PUSH1 0x1 PUSH1 0x1 PUSH1 0xA0 SHL SUB SWAP1 SWAP2 AND DUP2 MSTORE PUSH1 0x20 SWAP1 RETURN JUMPDEST POP DUP1 REVERT JUMPDEST POP POP CALLVALUE PUSH2 0x280 JUMPI PUSH1 0x20 CALLDATASIZE PUSH1 0x3 NOT ADD SLT PUSH2 0x280 JUMPI PUSH1 0x20 SWAP2 PUSH1 0xFF SWAP1 DUP3 SWAP1 PUSH1 0x1 PUSH1 0x1 PUSH1 0xA0 SHL SUB PUSH2 0x2AF PUSH2 0x114E JUMP JUMPDEST AND DUP2 MSTORE PUSH1 0x5 DUP6 MSTORE KECCAK256 SLOAD AND SWAP1 MLOAD SWAP1 ISZERO ISZERO DUP2 MSTORE RETURN JUMPDEST POP SWAP1 CALLVALUE PUSH2 0x1DF JUMPI PUSH1 0x20 CALLDATASIZE PUSH1 0x3 NOT ADD SLT PUSH2 0x1DF JUMPI PUSH2 0x341 SWAP2 CALLDATALOAD PUSH2 0x2EE PUSH1 0x1 DUP1 PUSH1 0xA0 SHL SUB DUP6 SLOAD AND CALLER EQ PUSH2 0x128A JUMP JUMPDEST DUP1 DUP5 MSTORE PUSH1 0x9 PUSH1 0x20 MSTORE PUSH2 0x304 DUP3 DUP6 KECCAK256 SLOAD ISZERO ISZERO PUSH2 0x12C2 JUMP JUMPDEST DUP1 PUSH32 0x8F1AAFEE48488F6068A10E3D41FB46866C088AE8CE01798A83191869C93A52F0 DUP6 DUP1 LOG2 DUP4 MSTORE PUSH1 0x9 PUSH1 0x20 MSTORE DUP3 DUP2 DUP2 KECCAK256 SSTORE PUSH1 0xA PUSH1 0x20 MSTORE DUP3 KECCAK256 PUSH2 0x132A JUMP JUMPDEST DUP1 RETURN JUMPDEST POP CALLVALUE PUSH2 0x1DF JUMPI PUSH1 0x20 CALLDATASIZE PUSH1 0x3 NOT ADD SLT PUSH2 0x1DF JUMPI DUP2 PUSH1 0x20 SWAP4 PUSH1 0xFF SWAP3 CALLDATALOAD DUP2 MSTORE PUSH1 0x7 DUP6 MSTORE KECCAK256 SLOAD AND SWAP1 MLOAD SWAP1 ISZERO ISZERO DUP2 MSTORE RETURN JUMPDEST POP POP CALLVALUE PUSH2 0x280 JUMPI DUP2 PUSH1 0x3 NOT CALLDATASIZE ADD SLT PUSH2 0x280 JUMPI SWAP1 SLOAD SWAP1 MLOAD PUSH1 0x1 PUSH1 0x1 PUSH1 0xA0 SHL SUB SWAP1 SWAP2 AND DUP2 MSTORE PUSH1 0x20 SWAP1 RETURN JUMPDEST POP POP CALLVALUE PUSH2 0x280 JUMPI DUP2 PUSH1 0x3 NOT CALLDATASIZE ADD SLT PUSH2 0x280 JUMPI PUSH1 0x3 SLOAD SWAP1 MLOAD PUSH1 0x1 PUSH1 0x1 PUSH1 0xA0 SHL SUB SWAP1 SWAP2 AND DUP2 MSTORE PUSH1 0x20 SWAP1 RETURN JUMPDEST POP SWAP1 CALLVALUE PUSH2 0x1DF JUMPI PUSH1 0x60 CALLDATASIZE PUSH1 0x3 NOT ADD SLT PUSH2 0x1DF JUMPI DUP2 CALLDATALOAD PUSH2 0x3DE PUSH2 0x1164 JUMP JUMPDEST SWAP2 CALLER DUP6 MSTORE PUSH1 0x20 SWAP4 PUSH1 0x8 DUP6 MSTORE PUSH1 0xFF DUP3 DUP8 KECCAK256 SLOAD AND ISZERO PUSH2 0x499 JUMPI DUP3 DUP7 MSTORE PUSH1 0x7 DUP6 MSTORE PUSH1 0xFF DUP3 DUP8 KECCAK256 SLOAD AND PUSH2 0x458 JUMPI POP DUP2 DUP6 MSTORE PUSH1 0x7 DUP5 MSTORE DUP1 DUP6 KECCAK256 DUP1 SLOAD PUSH1 0xFF NOT AND PUSH1 0x1 OR SWAP1 SSTORE MLOAD PUSH1 0x44 CALLDATALOAD DUP2 MSTORE PUSH1 0x1 PUSH1 0x1 PUSH1 0xA0 SHL SUB SWAP1 SWAP3 AND SWAP3 CALLER SWAP3 PUSH32 0xE71F2D4FC99F7D557282A41E699063E3FF6752F44A7E31AAE25BD2666740C513 SWAP2 SWAP1 LOG4 DUP1 RETURN JUMPDEST DUP5 PUSH1 0x64 SWAP3 MLOAD SWAP2 PUSH3 0x461BCD PUSH1 0xE5 SHL DUP4 MSTORE DUP3 ADD MSTORE PUSH1 0x19 PUSH1 0x24 DUP3 ADD MSTORE PUSH32 0x5061796D656E7420616C72656164792070726F63657373656400000000000000 PUSH1 0x44 DUP3 ADD MSTORE REVERT JUMPDEST DUP5 DUP1 PUSH1 0x64 SWAP4 MLOAD SWAP3 PUSH3 0x461BCD PUSH1 0xE5 SHL DUP5 MSTORE DUP4 ADD MSTORE PUSH1 0x24 DUP3 ADD MSTORE PUSH32 0x43616C6C6572206973206E6F742061207265676973746572656420636C6F6E65 PUSH1 0x44 DUP3 ADD MSTORE REVERT JUMPDEST DUP4 CALLVALUE PUSH2 0x22D JUMPI DUP1 PUSH1 0x3 NOT CALLDATASIZE ADD SLT PUSH2 0x22D JUMPI DUP1 SLOAD PUSH2 0x500 CALLER PUSH1 0x1 PUSH1 0x1 PUSH1 0xA0 SHL SUB DUP4 AND EQ PUSH2 0x128A JUMP JUMPDEST PUSH1 0xFF PUSH1 0xA0 SHL NOT AND PUSH1 0x1 PUSH1 0xA0 SHL OR DUP2 SSTORE DUP1 RETURN JUMPDEST POP SWAP2 CALLVALUE PUSH2 0x22D JUMPI PUSH1 0x20 SWAP3 DUP4 PUSH1 0x3 NOT CALLDATASIZE ADD SLT PUSH2 0x280 JUMPI SWAP3 SWAP1 SWAP3 CALLDATALOAD DUP4 MSTORE PUSH1 0xA DUP2 MSTORE PUSH2 0x53C DUP3 DUP5 KECCAK256 PUSH2 0x11DA JUMP JUMPDEST DUP3 MLOAD SWAP4 DUP3 DUP6 SWAP4 DUP5 MSTORE DUP3 MLOAD SWAP3 DUP4 DUP3 DUP7 ADD MSTORE DUP3 JUMPDEST DUP5 DUP2 LT PUSH2 0x56C JUMPI POP POP POP DUP3 DUP3 ADD DUP5 ADD MSTORE PUSH1 0x1F ADD PUSH1 0x1F NOT AND DUP2 ADD SUB ADD SWAP1 RETURN JUMPDEST DUP2 DUP2 ADD DUP4 ADD MLOAD DUP9 DUP3 ADD DUP9 ADD MSTORE DUP8 SWAP6 POP DUP3 ADD PUSH2 0x54E JUMP JUMPDEST DUP4 DUP3 CALLVALUE PUSH2 0x280 JUMPI PUSH1 0x20 CALLDATASIZE PUSH1 0x3 NOT ADD SLT PUSH2 0x280 JUMPI PUSH2 0x5A9 PUSH1 0x1 DUP1 PUSH1 0xA0 SHL SUB DUP4 SLOAD AND CALLER EQ PUSH2 0x128A JUMP JUMPDEST CALLDATALOAD PUSH1 0x2 SSTORE DUP1 RETURN JUMPDEST POP CALLVALUE PUSH2 0x1DF JUMPI PUSH1 0x20 CALLDATASIZE PUSH1 0x3 NOT ADD SLT PUSH2 0x1DF JUMPI PUSH1 0x20 SWAP3 DUP3 SWAP2 CALLDATALOAD DUP2 MSTORE PUSH1 0x9 DUP5 MSTORE KECCAK256 SLOAD SWAP1 MLOAD SWAP1 DUP2 MSTORE RETURN JUMPDEST POP POP CALLVALUE PUSH2 0x280 JUMPI DUP2 PUSH1 0x3 NOT CALLDATASIZE ADD SLT PUSH2 0x280 JUMPI PUSH1 0xFF PUSH1 0x20 SWAP3 SLOAD PUSH1 0xA0 SHR AND SWAP1 MLOAD SWAP1 ISZERO ISZERO DUP2 MSTORE RETURN JUMPDEST POP POP CALLVALUE PUSH2 0x280 JUMPI DUP2 PUSH1 0x3 NOT CALLDATASIZE ADD SLT PUSH2 0x280 JUMPI PUSH1 0x20 SWAP1 MLOAD PUSH3 0x2A300 DUP2 MSTORE RETURN JUMPDEST POP POP CALLVALUE PUSH2 0x280 JUMPI PUSH1 0x20 CALLDATASIZE PUSH1 0x3 NOT ADD SLT PUSH2 0x280 JUMPI PUSH1 0x20 SWAP2 PUSH1 0x1 PUSH1 0x1 PUSH1 0xA0 SHL SUB SWAP1 DUP3 SWAP1 DUP3 PUSH2 0x644 PUSH2 0x114E JUMP JUMPDEST AND DUP2 MSTORE PUSH1 0x6 DUP6 MSTORE KECCAK256 SLOAD AND SWAP1 MLOAD SWAP1 DUP2 MSTORE RETURN JUMPDEST SWAP3 SWAP1 POP CALLVALUE PUSH2 0x6F9 JUMPI DUP1 PUSH1 0x3 NOT CALLDATASIZE ADD SLT PUSH2 0x6F9 JUMPI PUSH2 0x670 PUSH2 0x114E JUMP JUMPDEST PUSH2 0x678 PUSH2 0x1164 JUMP JUMPDEST SWAP1 PUSH1 0x1 DUP1 PUSH1 0xA0 SHL SUB DUP1 SWAP2 PUSH2 0x690 DUP3 DUP9 SLOAD AND CALLER EQ PUSH2 0x128A JUMP JUMPDEST AND DUP1 DUP7 MSTORE PUSH1 0x8 PUSH1 0x20 MSTORE PUSH2 0x6A8 PUSH1 0xFF DUP6 DUP9 KECCAK256 SLOAD AND PUSH2 0x1372 JUMP JUMPDEST DUP1 EXTCODESIZE ISZERO PUSH2 0x6F5 JUMPI DUP6 SWAP3 DUP4 PUSH1 0x24 SWAP3 DUP7 MLOAD SWAP8 DUP9 SWAP6 DUP7 SWAP5 PUSH4 0x58A628F PUSH1 0xE0 SHL DUP7 MSTORE AND SWAP1 DUP5 ADD MSTORE GAS CALL SWAP1 DUP2 ISZERO PUSH2 0x6EC JUMPI POP PUSH2 0x6DC JUMPI POP RETURN JUMPDEST PUSH2 0x6E5 SWAP1 PUSH2 0x11B2 JUMP JUMPDEST PUSH2 0x22D JUMPI DUP1 RETURN JUMPDEST MLOAD RETURNDATASIZE DUP5 DUP3 RETURNDATACOPY RETURNDATASIZE SWAP1 REVERT JUMPDEST DUP6 DUP1 REVERT JUMPDEST POP POP REVERT JUMPDEST POP SWAP1 CALLVALUE PUSH2 0x1DF JUMPI PUSH1 0x60 SWAP3 DUP4 PUSH1 0x3 NOT CALLDATASIZE ADD SLT PUSH2 0x22D JUMPI PUSH2 0x71A PUSH2 0x114E JUMP JUMPDEST PUSH2 0x722 PUSH2 0x1164 JUMP JUMPDEST DUP3 SLOAD PUSH1 0x1 PUSH1 0x1 PUSH1 0xA0 SHL SUB SWAP7 SWAP2 SWAP1 PUSH1 0x44 CALLDATALOAD SWAP1 PUSH2 0x740 SWAP1 DUP10 AND CALLER EQ PUSH2 0x128A JUMP JUMPDEST DUP8 DUP5 AND SWAP5 DUP6 DUP2 MSTORE PUSH1 0x20 SWAP9 PUSH1 0x8 DUP11 MSTORE PUSH2 0x75D PUSH1 0xFF DUP10 DUP5 KECCAK256 SLOAD AND PUSH2 0x1372 JUMP JUMPDEST DUP8 MLOAD SWAP6 DUP11 DUP8 ADD SWAP2 PUSH1 0x1 PUSH1 0x1 PUSH1 0x60 SHL SUB NOT DUP1 SWAP3 DUP9 SHL AND DUP4 MSTORE DUP6 AND SWAP5 DUP7 SHL AND PUSH1 0x34 DUP8 ADD MSTORE DUP3 PUSH1 0x48 DUP8 ADD MSTORE TIMESTAMP PUSH1 0x68 DUP8 ADD MSTORE PUSH1 0x68 DUP7 MSTORE PUSH1 0xA0 DUP7 ADD SWAP6 PUSH8 0xFFFFFFFFFFFFFFFF SWAP7 DUP2 DUP2 LT DUP9 DUP3 GT OR PUSH2 0x9A8 JUMPI DUP10 MSTORE MLOAD SWAP1 KECCAK256 SWAP8 PUSH3 0x2A300 TIMESTAMP ADD DUP1 TIMESTAMP GT PUSH2 0x995 JUMPI DUP10 DUP4 MSTORE PUSH1 0x9 DUP12 MSTORE DUP9 DUP4 KECCAK256 SSTORE DUP8 MLOAD SWAP6 DUP8 DUP12 DUP9 ADD MSTORE DUP5 DUP10 DUP9 ADD MSTORE DUP4 DUP7 DUP9 ADD MSTORE DUP6 DUP8 MSTORE PUSH1 0x80 DUP8 ADD DUP8 DUP2 LT DUP3 DUP3 GT OR PUSH2 0x982 JUMPI DUP10 MSTORE DUP10 DUP4 MSTORE PUSH1 0xA DUP12 MSTORE DUP9 DUP4 KECCAK256 SWAP2 DUP8 MLOAD SWAP2 DUP3 GT PUSH2 0x96F JUMPI POP SWAP2 DUP2 DUP11 SWAP7 SWAP6 SWAP5 SWAP4 PUSH2 0x814 DUP12 SWAP5 SLOAD PUSH2 0x117A JUMP JUMPDEST DUP14 PUSH1 0x1F DUP3 GT PUSH2 0x936 JUMPI JUMPDEST POP POP DUP13 SWAP9 PUSH1 0x1F DUP3 GT PUSH1 0x1 EQ PUSH2 0x896 JUMPI PUSH32 0x1BDB25BC80D6550A01487654162D2B7BCBAECA17B410F1A7AE23527994912375 SWAP9 SWAP10 DUP3 SWAP2 DUP6 SWAP3 PUSH2 0x88B JUMPI JUMPDEST POP POP DUP2 PUSH1 0x1 SHL SWAP2 PUSH0 NOT SWAP1 PUSH1 0x3 SHL SHR NOT AND OR SWAP1 SSTORE JUMPDEST DUP7 DUP2 MSTORE PUSH1 0x9 DUP12 MSTORE KECCAK256 SLOAD SWAP1 DUP8 MLOAD SWAP3 DUP4 MSTORE DUP10 DUP4 ADD MSTORE DUP7 DUP3 ADD MSTORE LOG3 MLOAD SWAP1 DUP2 MSTORE RETURN JUMPDEST ADD MLOAD SWAP1 POP PUSH0 DUP1 PUSH2 0x859 JUMP JUMPDEST DUP14 SWAP1 PUSH1 0x1F NOT DUP4 AND DUP5 DUP7 MSTORE DUP3 DUP7 KECCAK256 SWAP3 DUP7 SWAP1 JUMPDEST DUP3 DUP3 LT PUSH2 0x905 JUMPI POP POP SWAP11 DUP4 SWAP3 SWAP2 PUSH1 0x1 SWAP5 PUSH32 0x1BDB25BC80D6550A01487654162D2B7BCBAECA17B410F1A7AE23527994912375 SWAP13 SWAP14 LT PUSH2 0x8ED JUMPI JUMPDEST POP POP POP DUP2 SHL ADD SWAP1 SSTORE PUSH2 0x86D JUMP JUMPDEST ADD MLOAD PUSH0 NOT PUSH1 0xF8 DUP5 PUSH1 0x3 SHL AND SHR NOT AND SWAP1 SSTORE PUSH0 DUP1 DUP1 PUSH2 0x8E0 JUMP JUMPDEST SWAP3 SWAP5 SWAP8 POP SWAP5 SWAP8 SWAP10 SWAP12 SWAP6 SWAP9 SWAP11 POP SWAP2 DUP2 PUSH1 0x1 DUP2 SWAP3 DUP9 DUP8 ADD MLOAD DUP2 SSTORE ADD SWAP7 ADD SWAP5 ADD SWAP2 DUP15 SWAP11 SWAP9 SWAP6 SWAP3 DUP15 SWAP8 SWAP5 SWAP3 SWAP13 SWAP11 SWAP9 SWAP6 SWAP13 PUSH2 0x8A7 JUMP JUMPDEST DUP4 DUP6 MSTORE DUP1 DUP6 KECCAK256 PUSH2 0x95E SWAP3 PUSH1 0x1F DUP6 ADD PUSH1 0x5 SHR DUP3 ADD SWAP3 DUP6 LT PUSH2 0x965 JUMPI JUMPDEST PUSH1 0x1F ADD PUSH1 0x5 SHR ADD SWAP1 PUSH2 0x1314 JUMP JUMPDEST PUSH0 DUP14 PUSH2 0x81E JUMP JUMPDEST SWAP1 SWAP2 POP DUP2 SWAP1 PUSH2 0x951 JUMP JUMPDEST PUSH4 0x4E487B71 PUSH1 0xE0 SHL DUP5 MSTORE PUSH1 0x41 SWAP1 MSTORE PUSH1 0x24 DUP4 REVERT JUMPDEST PUSH1 0x41 DUP4 PUSH4 0x4E487B71 PUSH1 0xE0 SHL PUSH0 MSTORE MSTORE PUSH1 0x24 PUSH0 REVERT JUMPDEST PUSH4 0x4E487B71 PUSH1 0xE0 SHL DUP4 MSTORE PUSH1 0x11 DUP3 MSTORE PUSH1 0x24 DUP4 REVERT JUMPDEST PUSH1 0x41 DUP12 PUSH4 0x4E487B71 PUSH1 0xE0 SHL PUSH0 MSTORE MSTORE PUSH1 0x24 PUSH0 REVERT JUMPDEST DUP4 CALLVALUE PUSH2 0x22D JUMPI DUP1 PUSH1 0x3 NOT CALLDATASIZE ADD SLT PUSH2 0x22D JUMPI PUSH2 0x9E0 PUSH1 0x1 DUP1 PUSH1 0xA0 SHL SUB DUP3 SLOAD AND CALLER EQ PUSH2 0x128A JUMP JUMPDEST PUSH0 DUP1 SLOAD PUSH1 0xFF PUSH1 0xA0 SHL NOT AND SWAP1 SSTORE DUP1 RETURN JUMPDEST POP SWAP1 CALLVALUE PUSH2 0x1DF JUMPI PUSH1 0x20 SWAP3 DUP4 PUSH1 0x3 NOT CALLDATASIZE ADD SLT PUSH2 0x22D JUMPI POP PUSH1 0x1 PUSH1 0x1 PUSH1 0xA0 SHL SUB SWAP2 DUP3 PUSH2 0xA17 PUSH2 0x114E JUMP JUMPDEST AND SWAP1 DUP2 PUSH0 MSTORE PUSH1 0x6 DUP6 MSTORE DUP4 DUP4 PUSH0 KECCAK256 SLOAD AND PUSH2 0xB86 JUMPI PUSH1 0x3 SLOAD DUP4 MLOAD PUSH20 0x3D602D80600A3D3981F3363D3D373D3D3D363D73 PUSH1 0x60 SHL DUP2 MSTORE PUSH1 0x60 SWAP2 SWAP1 SWAP2 SHL PUSH12 0xFFFFFFFFFFFFFFFFFFFFFFFF NOT AND PUSH1 0x14 DUP3 ADD MSTORE PUSH15 0x5AF43D82803E903D91602B57FD5BF3 PUSH1 0x88 SHL PUSH1 0x28 DUP3 ADD MSTORE SWAP4 PUSH1 0x37 DUP6 PUSH0 CREATE DUP2 PUSH1 0x37 DUP8 ADD SWAP2 DUP3 DUP8 MSTORE AND SWAP6 DUP7 ISZERO PUSH2 0xB4C JUMPI POP POP DUP2 SLOAD AND DUP5 EXTCODESIZE ISZERO PUSH2 0xB48 JUMPI DUP4 MLOAD PUSH4 0xC0C53B8B PUSH1 0xE0 SHL DUP2 MSTORE SWAP2 DUP3 ADD DUP4 SWAP1 MSTORE ADDRESS PUSH1 0x24 DUP4 ADD MSTORE PUSH1 0x44 DUP3 ADD MSTORE PUSH0 DUP2 PUSH1 0x64 DUP2 DUP4 DUP9 GAS CALL DUP1 ISZERO PUSH2 0xB3E JUMPI PUSH2 0xB2F JUMPI JUMPDEST POP DUP1 PUSH0 MSTORE PUSH1 0x6 DUP5 MSTORE DUP2 PUSH0 KECCAK256 DUP4 PUSH1 0x1 PUSH1 0x1 PUSH1 0x60 SHL SUB PUSH1 0xA0 SHL DUP3 SLOAD AND OR SWAP1 SSTORE DUP3 PUSH0 MSTORE PUSH1 0x8 DUP5 MSTORE DUP2 PUSH0 KECCAK256 PUSH1 0x1 PUSH1 0xFF NOT DUP3 SLOAD AND OR SWAP1 SSTORE PUSH32 0xC1F9D081289E627D16E20E8CE42A4F26358883FDD78C0EA20AC02134C20320AE DUP5 DUP4 MLOAD DUP6 DUP2 MSTORE LOG2 MLOAD SWAP1 DUP2 MSTORE RETURN JUMPDEST PUSH2 0xB38 SWAP1 PUSH2 0x11B2 JUMP JUMPDEST PUSH0 PUSH2 0xACF JUMP JUMPDEST DUP4 MLOAD RETURNDATASIZE PUSH0 DUP3 RETURNDATACOPY RETURNDATASIZE SWAP1 REVERT JUMPDEST PUSH0 DUP1 REVERT JUMPDEST SWAP1 PUSH22 0x115490CC4C4D8DCE8818DC99585D194819985A5B1959 PUSH1 0x52 SHL PUSH1 0x7B PUSH1 0x64 SWAP4 DUP11 PUSH3 0x461BCD PUSH1 0xE5 SHL DUP6 MSTORE PUSH1 0x3B DUP3 ADD MSTORE PUSH1 0x16 PUSH1 0x5B DUP3 ADD MSTORE ADD MSTORE REVERT JUMPDEST DUP3 MLOAD PUSH3 0x461BCD PUSH1 0xE5 SHL DUP2 MSTORE SWAP1 DUP2 ADD DUP6 SWAP1 MSTORE PUSH1 0x1C PUSH1 0x24 DUP3 ADD MSTORE PUSH32 0x4D65726368616E7420616C726561647920686173206120636C6F6E6500000000 PUSH1 0x44 DUP3 ADD MSTORE PUSH1 0x64 SWAP1 REVERT JUMPDEST POP DUP3 CALLVALUE PUSH2 0x22D JUMPI DUP3 PUSH1 0x3 NOT CALLDATASIZE ADD SLT PUSH2 0x22D JUMPI POP PUSH2 0xBE4 PUSH2 0x114E JUMP JUMPDEST SWAP2 PUSH2 0xBED PUSH2 0x1164 JUMP JUMPDEST SWAP2 PUSH0 PUSH1 0x1 DUP1 PUSH1 0xA0 SHL SUB DUP1 SWAP6 AND SWAP2 DUP3 PUSH0 MSTORE PUSH1 0x20 SWAP6 PUSH1 0x6 DUP8 MSTORE DUP1 DUP6 PUSH0 KECCAK256 SLOAD AND PUSH2 0xD7E JUMPI PUSH1 0x3 SLOAD DUP6 MLOAD PUSH20 0x3D602D80600A3D3981F3363D3D373D3D3D363D73 PUSH1 0x60 SHL DUP2 MSTORE PUSH1 0x60 SWAP2 SWAP1 SWAP2 SHL PUSH12 0xFFFFFFFFFFFFFFFFFFFFFFFF NOT AND PUSH1 0x14 DUP3 ADD MSTORE PUSH15 0x5AF43D82803E903D91602B57FD5BF3 PUSH1 0x88 SHL PUSH1 0x28 DUP3 ADD MSTORE SWAP6 PUSH1 0x37 DUP8 PUSH0 CREATE DUP3 PUSH1 0x37 DUP10 ADD SWAP2 DUP3 DUP10 MSTORE AND SWAP8 DUP9 ISZERO PUSH2 0xD44 JUMPI POP POP DUP1 DUP3 AND ISZERO PUSH2 0xD3A JUMPI JUMPDEST DUP7 EXTCODESIZE ISZERO PUSH2 0xB48 JUMPI DUP6 MLOAD PUSH4 0xC0C53B8B PUSH1 0xE0 SHL DUP2 MSTORE SWAP3 DUP4 ADD DUP6 SWAP1 MSTORE ADDRESS PUSH1 0x24 DUP5 ADD MSTORE AND PUSH1 0x44 DUP3 ADD MSTORE PUSH0 DUP2 PUSH1 0x64 DUP2 DUP4 DUP10 GAS CALL DUP1 ISZERO PUSH2 0xD30 JUMPI SWAP1 DUP5 SWAP3 SWAP2 PUSH2 0xD1C JUMPI JUMPDEST POP DUP3 DUP2 MSTORE PUSH1 0x6 DUP7 MSTORE DUP2 DUP2 KECCAK256 DUP1 SLOAD PUSH1 0x1 PUSH1 0x1 PUSH1 0xA0 SHL SUB NOT AND DUP7 OR SWAP1 SSTORE DUP5 DUP2 MSTORE PUSH1 0x8 DUP7 MSTORE KECCAK256 DUP1 SLOAD PUSH1 0xFF NOT AND PUSH1 0x1 OR SWAP1 SSTORE DUP2 MLOAD DUP4 DUP2 MSTORE PUSH32 0xC1F9D081289E627D16E20E8CE42A4F26358883FDD78C0EA20AC02134C20320AE SWAP1 DUP6 SWAP1 LOG2 MLOAD SWAP1 DUP2 MSTORE RETURN JUMPDEST SWAP1 POP PUSH2 0xD28 SWAP2 POP PUSH2 0x11B2 JUMP JUMPDEST DUP2 PUSH0 DUP7 PUSH2 0xCBE JUMP JUMPDEST DUP5 MLOAD RETURNDATASIZE PUSH0 DUP3 RETURNDATACOPY RETURNDATASIZE SWAP1 REVERT JUMPDEST POP DUP1 DUP3 SLOAD AND PUSH2 0xC81 JUMP JUMPDEST SWAP1 PUSH22 0x115490CC4C4D8DCE8818DC99585D194819985A5B1959 PUSH1 0x52 SHL PUSH1 0x7B PUSH1 0x64 SWAP4 DUP13 PUSH3 0x461BCD PUSH1 0xE5 SHL DUP6 MSTORE PUSH1 0x3B DUP3 ADD MSTORE PUSH1 0x16 PUSH1 0x5B DUP3 ADD MSTORE ADD MSTORE REVERT JUMPDEST DUP5 MLOAD PUSH3 0x461BCD PUSH1 0xE5 SHL DUP2 MSTORE DUP1 DUP4 ADD DUP9 SWAP1 MSTORE PUSH1 0x1C PUSH1 0x24 DUP3 ADD MSTORE PUSH32 0x4D65726368616E7420616C726561647920686173206120636C6F6E6500000000 PUSH1 0x44 DUP3 ADD MSTORE PUSH1 0x64 SWAP1 REVERT JUMPDEST POP SWAP1 CALLVALUE PUSH2 0x1DF JUMPI PUSH1 0x20 DUP1 PUSH1 0x3 NOT CALLDATASIZE ADD SLT PUSH2 0xF52 JUMPI DUP4 SLOAD PUSH1 0x1 PUSH1 0x1 PUSH1 0xA0 SHL SUB SWAP4 DUP1 CALLDATALOAD SWAP2 PUSH2 0xDF0 SWAP1 DUP7 AND CALLER EQ PUSH2 0x128A JUMP JUMPDEST DUP2 DUP7 MSTORE PUSH1 0x9 DUP4 MSTORE DUP4 DUP7 KECCAK256 SLOAD PUSH2 0xE06 DUP2 ISZERO ISZERO PUSH2 0x12C2 JUMP JUMPDEST TIMESTAMP LT PUSH2 0xF1D JUMPI DUP2 DUP7 MSTORE PUSH1 0xA DUP4 MSTORE PUSH2 0xE1E DUP5 DUP8 KECCAK256 PUSH2 0x11DA JUMP JUMPDEST SWAP1 PUSH1 0x60 DUP3 DUP1 MLOAD DUP2 ADD SUB SLT PUSH2 0xF0F JUMPI DUP7 PUSH2 0xE38 DUP6 DUP5 ADD PUSH2 0x1300 JUMP JUMPDEST SWAP7 DUP1 PUSH1 0x60 PUSH2 0xE47 DUP10 DUP8 ADD PUSH2 0x1300 JUMP JUMPDEST SWAP6 ADD MLOAD SWAP9 AND SWAP4 AND SWAP2 DUP4 EXTCODESIZE ISZERO PUSH2 0x280 JUMPI DUP7 MLOAD PUSH4 0x67E7AC5 PUSH1 0xE3 SHL DUP2 MSTORE PUSH1 0x1 PUSH1 0x1 PUSH1 0xA0 SHL SUB DUP5 AND SWAP2 DUP2 ADD SWAP2 DUP3 MSTORE PUSH1 0x20 DUP3 ADD DUP10 SWAP1 MSTORE SWAP1 DUP3 SWAP1 DUP3 SWAP1 DUP2 SWAP1 PUSH1 0x40 ADD SUB DUP2 DUP4 DUP9 GAS CALL DUP1 ISZERO PUSH2 0xF13 JUMPI PUSH2 0xEF3 JUMPI JUMPDEST POP POP DUP5 MLOAD PUSH1 0x1 PUSH1 0x1 PUSH1 0xA0 SHL SUB SWAP2 SWAP1 SWAP2 AND DUP2 MSTORE PUSH1 0x20 DUP2 ADD SWAP6 SWAP1 SWAP6 MSTORE PUSH2 0x341 SWAP5 PUSH1 0xA SWAP4 SWAP3 SWAP2 SWAP1 DUP3 SWAP1 PUSH32 0x5DB6A65E184FDE5DAC11952C68D57E85FF97BB19ED7514F55990B90FC6B0138 SWAP1 PUSH1 0x40 SWAP1 LOG3 DUP6 MSTORE PUSH1 0x9 DUP2 MSTORE DUP5 DUP4 DUP2 KECCAK256 SSTORE MSTORE DUP3 KECCAK256 PUSH2 0x132A JUMP JUMPDEST PUSH2 0xF01 SWAP1 SWAP6 SWAP5 SWAP4 SWAP3 SWAP6 PUSH2 0x11B2 JUMP JUMPDEST PUSH2 0xF0F JUMPI SWAP1 SWAP2 SWAP3 DUP7 PUSH0 PUSH2 0xE94 JUMP JUMPDEST DUP7 DUP1 REVERT JUMPDEST DUP8 MLOAD RETURNDATASIZE DUP5 DUP3 RETURNDATACOPY RETURNDATASIZE SWAP1 REVERT JUMPDEST DUP4 MLOAD PUSH3 0x461BCD PUSH1 0xE5 SHL DUP2 MSTORE SWAP1 DUP2 ADD DUP4 SWAP1 MSTORE PUSH1 0xF PUSH1 0x24 DUP3 ADD MSTORE PUSH15 0x54696D656C6F636B20616374697665 PUSH1 0x88 SHL PUSH1 0x44 DUP3 ADD MSTORE PUSH1 0x64 SWAP1 REVERT JUMPDEST DUP4 DUP1 REVERT JUMPDEST POP POP CALLVALUE PUSH2 0x280 JUMPI DUP2 PUSH1 0x3 NOT CALLDATASIZE ADD SLT PUSH2 0x280 JUMPI PUSH1 0x20 SWAP1 PUSH1 0x2 SLOAD SWAP1 MLOAD SWAP1 DUP2 MSTORE RETURN JUMPDEST POP SWAP1 CALLVALUE PUSH2 0xB48 JUMPI DUP1 PUSH1 0x3 NOT CALLDATASIZE ADD SLT PUSH2 0xB48 JUMPI PUSH2 0xF8F PUSH2 0x114E JUMP JUMPDEST CALLER PUSH0 SWAP1 DUP2 MSTORE PUSH1 0x6 PUSH1 0x20 MSTORE DUP3 SWAP1 KECCAK256 SLOAD PUSH1 0x1 PUSH1 0x1 PUSH1 0xA0 SHL SUB AND SWAP3 DUP4 ISZERO PUSH2 0x1012 JUMPI DUP4 EXTCODESIZE ISZERO PUSH2 0xB48 JUMPI DUP3 MLOAD PUSH4 0x67E7AC5 PUSH1 0xE3 SHL DUP2 MSTORE PUSH1 0x1 PUSH1 0x1 PUSH1 0xA0 SHL SUB SWAP1 SWAP3 AND SWAP1 DUP3 ADD SWAP1 DUP2 MSTORE PUSH1 0x24 CALLDATALOAD PUSH1 0x20 DUP3 ADD MSTORE SWAP1 SWAP3 PUSH0 SWAP2 DUP5 SWAP2 SWAP1 DUP3 SWAP1 DUP5 SWAP1 DUP3 SWAP1 PUSH1 0x40 ADD SUB SWAP3 GAS CALL SWAP1 DUP2 ISZERO PUSH2 0x1009 JUMPI POP PUSH2 0xFFD JUMPI POP DUP1 RETURN JUMPDEST PUSH2 0x1007 SWAP2 POP PUSH2 0x11B2 JUMP JUMPDEST STOP JUMPDEST MLOAD RETURNDATASIZE PUSH0 DUP3 RETURNDATACOPY RETURNDATASIZE SWAP1 REVERT JUMPDEST PUSH1 0x64 SWAP1 PUSH1 0x20 DUP5 MLOAD SWAP2 PUSH3 0x461BCD PUSH1 0xE5 SHL DUP4 MSTORE DUP3 ADD MSTORE PUSH1 0x13 PUSH1 0x24 DUP3 ADD MSTORE PUSH19 0x27379031B637B732903337B91039B2B73232B9 PUSH1 0x69 SHL PUSH1 0x44 DUP3 ADD MSTORE REVERT JUMPDEST DUP3 CALLVALUE PUSH2 0xB48 JUMPI DUP1 PUSH1 0x3 NOT CALLDATASIZE ADD SLT PUSH2 0xB48 JUMPI PUSH2 0x1064 PUSH2 0x114E JUMP JUMPDEST SWAP1 PUSH1 0x24 CALLDATALOAD SWAP2 DUP3 ISZERO ISZERO DUP1 SWAP4 SUB PUSH2 0xB48 JUMPI PUSH0 SLOAD PUSH1 0x1 PUSH1 0x1 PUSH1 0xA0 SHL SUB SWAP2 SWAP1 PUSH2 0x108C SWAP1 DUP4 AND CALLER EQ PUSH2 0x128A JUMP JUMPDEST AND PUSH0 MSTORE PUSH1 0x5 PUSH1 0x20 MSTORE PUSH0 KECCAK256 SWAP1 PUSH1 0xFF DUP1 NOT DUP4 SLOAD AND SWAP2 AND OR SWAP1 SSTORE PUSH0 DUP1 RETURN JUMPDEST POP CALLVALUE PUSH2 0xB48 JUMPI PUSH1 0x20 CALLDATASIZE PUSH1 0x3 NOT ADD SLT PUSH2 0xB48 JUMPI PUSH2 0x10C1 PUSH2 0x114E JUMP JUMPDEST PUSH0 SLOAD PUSH1 0x1 PUSH1 0x1 PUSH1 0xA0 SHL SUB SWAP2 SWAP1 PUSH2 0x10DA SWAP1 DUP4 AND CALLER EQ PUSH2 0x128A JUMP JUMPDEST AND SWAP1 DUP2 PUSH1 0x1 PUSH1 0x1 PUSH1 0x60 SHL SUB PUSH1 0xA0 SHL DUP3 SLOAD AND OR SWAP1 SSTORE PUSH32 0xF3F625A7D9E02778AFDFDF1BEA978D6565840D408866C70F5D25AADF77021D70 PUSH0 DUP1 LOG2 STOP JUMPDEST DUP4 SWAP1 CALLVALUE PUSH2 0xB48 JUMPI PUSH1 0x20 CALLDATASIZE PUSH1 0x3 NOT ADD SLT PUSH2 0xB48 JUMPI PUSH1 0x20 SWAP2 PUSH1 0xFF SWAP1 PUSH1 0x1 PUSH1 0x1 PUSH1 0xA0 SHL SUB PUSH2 0x113D PUSH2 0x114E JUMP JUMPDEST AND PUSH0 MSTORE PUSH1 0x8 DUP5 MSTORE PUSH0 KECCAK256 SLOAD AND ISZERO ISZERO DUP2 MSTORE RETURN JUMPDEST PUSH1 0x4 CALLDATALOAD SWAP1 PUSH1 0x1 PUSH1 0x1 PUSH1 0xA0 SHL SUB DUP3 AND DUP3 SUB PUSH2 0xB48 JUMPI JUMP JUMPDEST PUSH1 0x24 CALLDATALOAD SWAP1 PUSH1 0x1 PUSH1 0x1 PUSH1 0xA0 SHL SUB DUP3 AND DUP3 SUB PUSH2 0xB48 JUMPI JUMP JUMPDEST SWAP1 PUSH1 0x1 DUP3 DUP2 SHR SWAP3 AND DUP1 ISZERO PUSH2 0x11A8 JUMPI JUMPDEST PUSH1 0x20 DUP4 LT EQ PUSH2 0x1194 JUMPI JUMP JUMPDEST PUSH4 0x4E487B71 PUSH1 0xE0 SHL PUSH0 MSTORE PUSH1 0x22 PUSH1 0x4 MSTORE PUSH1 0x24 PUSH0 REVERT JUMPDEST SWAP2 PUSH1 0x7F AND SWAP2 PUSH2 0x1189 JUMP JUMPDEST PUSH8 0xFFFFFFFFFFFFFFFF DUP2 GT PUSH2 0x11C6 JUMPI PUSH1 0x40 MSTORE JUMP JUMPDEST PUSH4 0x4E487B71 PUSH1 0xE0 SHL PUSH0 MSTORE PUSH1 0x41 PUSH1 0x4 MSTORE PUSH1 0x24 PUSH0 REVERT JUMPDEST SWAP1 PUSH1 0x40 MLOAD SWAP2 PUSH0 SWAP1 DUP1 SLOAD PUSH2 0x11EC DUP2 PUSH2 0x117A JUMP JUMPDEST SWAP1 DUP2 DUP7 MSTORE PUSH1 0x20 SWAP3 PUSH1 0x1 SWAP2 PUSH1 0x1 DUP2 AND SWAP1 DUP2 PUSH0 EQ PUSH2 0x126C JUMPI POP PUSH1 0x1 EQ PUSH2 0x1233 JUMPI JUMPDEST POP POP POP POP DUP3 SWAP1 SUB PUSH1 0x1F ADD PUSH1 0x1F NOT AND DUP3 ADD PUSH8 0xFFFFFFFFFFFFFFFF DUP2 GT DUP4 DUP3 LT OR PUSH2 0x11C6 JUMPI PUSH1 0x40 MSTORE JUMP JUMPDEST SWAP1 SWAP3 SWAP4 POP PUSH0 MSTORE DUP3 PUSH0 KECCAK256 SWAP2 DUP4 PUSH0 SWAP4 JUMPDEST DUP4 DUP6 LT PUSH2 0x1258 JUMPI POP POP POP POP DUP4 ADD ADD PUSH0 DUP1 DUP1 DUP1 PUSH2 0x120B JUMP JUMPDEST DUP1 SLOAD DUP9 DUP7 ADD DUP4 ADD MSTORE SWAP4 ADD SWAP3 DUP5 SWAP1 DUP3 ADD PUSH2 0x1241 JUMP JUMPDEST PUSH1 0xFF NOT AND DUP9 DUP7 ADD MSTORE POP POP POP ISZERO ISZERO PUSH1 0x5 SHL DUP5 ADD ADD SWAP1 POP PUSH0 DUP1 DUP1 DUP1 PUSH2 0x120B JUMP JUMPDEST ISZERO PUSH2 0x1291 JUMPI JUMP JUMPDEST PUSH1 0x40 MLOAD PUSH3 0x461BCD PUSH1 0xE5 SHL DUP2 MSTORE PUSH1 0x20 PUSH1 0x4 DUP3 ADD MSTORE PUSH1 0x9 PUSH1 0x24 DUP3 ADD MSTORE PUSH9 0x2737BA1037BBB732B9 PUSH1 0xB9 SHL PUSH1 0x44 DUP3 ADD MSTORE PUSH1 0x64 SWAP1 REVERT JUMPDEST ISZERO PUSH2 0x12C9 JUMPI JUMP JUMPDEST PUSH1 0x40 MLOAD PUSH3 0x461BCD PUSH1 0xE5 SHL DUP2 MSTORE PUSH1 0x20 PUSH1 0x4 DUP3 ADD MSTORE PUSH1 0xF PUSH1 0x24 DUP3 ADD MSTORE PUSH15 0x125B9D985B1A59081C995C5D595CDD PUSH1 0x8A SHL PUSH1 0x44 DUP3 ADD MSTORE PUSH1 0x64 SWAP1 REVERT JUMPDEST MLOAD SWAP1 PUSH1 0x1 PUSH1 0x1 PUSH1 0xA0 SHL SUB DUP3 AND DUP3 SUB PUSH2 0xB48 JUMPI JUMP JUMPDEST DUP2 DUP2 LT PUSH2 0x131F JUMPI POP POP JUMP JUMPDEST PUSH0 DUP2 SSTORE PUSH1 0x1 ADD PUSH2 0x1314 JUMP JUMPDEST PUSH2 0x1334 DUP2 SLOAD PUSH2 0x117A JUMP JUMPDEST SWAP1 DUP2 PUSH2 0x133E JUMPI POP POP JUMP JUMPDEST DUP2 PUSH1 0x1F PUSH0 SWAP4 GT PUSH1 0x1 EQ PUSH2 0x134F JUMPI POP SSTORE JUMP JUMPDEST SWAP1 DUP1 DUP4 SWAP2 DUP3 MSTORE PUSH2 0x136E PUSH1 0x1F PUSH1 0x20 DUP5 KECCAK256 SWAP5 ADD PUSH1 0x5 SHR DUP5 ADD PUSH1 0x1 DUP6 ADD PUSH2 0x1314 JUMP JUMPDEST SSTORE SSTORE JUMP JUMPDEST ISZERO PUSH2 0x1379 JUMPI JUMP JUMPDEST PUSH1 0x40 MLOAD PUSH3 0x461BCD PUSH1 0xE5 SHL DUP2 MSTORE PUSH1 0x20 PUSH1 0x4 DUP3 ADD MSTORE PUSH1 0xB PUSH1 0x24 DUP3 ADD MSTORE PUSH11 0x4E6F74206120636C6F6E65 PUSH1 0xA8 SHL PUSH1 0x44 DUP3 ADD MSTORE PUSH1 0x64 SWAP1 REVERT INVALID LOG2 PUSH5 0x6970667358 0x22 SLT KECCAK256 BASEFEE 0xFC PUSH12 0xF2224BD9870D5557E3EC6224 0xED ADDMOD PUSH29 0xF0EB97577E7A498BBFE07F64C3A664736F6C6343000818003300000000 "},"methodIdentifiers":{"TIMELOCK_DELAY()":"5ba1c1a9","allowedRouters(address)":"c646aee2","authorizer()":"d09edf31","cancelRescueToken(bytes32)":"ade36e1d","createMerchantSplitter(address)":"3ab4b486","createMerchantSplitter(address,address)":"37c68b88","developerAddress()":"caccd7f7","executeRescueToken(bytes32)":"250fa03a","feeBps()":"24a9d853","globalProcessedPayments(bytes32)":"9aba6a0f","isClone(address)":"00ae3676","isRouterAllowed(address)":"61771e49","merchantRescueToken(address,uint256)":"1b2cc968","merchantSplitters(address)":"599dec68","owner()":"8da5cb5b","pause()":"8456cb59","paused()":"5c975abb","proposeRescueToken(address,address,uint256)":"540e7a6c","recordPayment(bytes32,address,uint256)":"846fa34d","rescueData(bytes32)":"77d44149","rescueRequests(bytes32)":"6c2a0d74","setAuthorizer(address)":"058a628f","setDeveloperAddress(address)":"dcc345f2","setFeeBps(uint256)":"72c27b62","splitterLogicImpl()":"8918c79e","toggleRouterAllowlist(address,bool)":"09b6f171","transferOwnership(address)":"f2fde38b","unpause()":"3f4ba83a","updateCloneAuthorizer(address,address)":"569f8cc8"}}}}}