{"contracts/SplitterLogic.sol":{"SplitterLogic":{"abi":[{"inputs":[],"stateMutability":"nonpayable","type":"constructor"},{"inputs":[],"name":"AlreadyInitialized","type":"error"},{"inputs":[],"name":"ECDSAInvalidSignature","type":"error"},{"inputs":[{"internalType":"uint256","name":"length","type":"uint256"}],"name":"ECDSAInvalidSignatureLength","type":"error"},{"inputs":[{"internalType":"bytes32","name":"s","type":"bytes32"}],"name":"ECDSAInvalidSignatureS","type":"error"},{"inputs":[],"name":"FactoryPaused","type":"error"},{"inputs":[],"name":"InvalidInitialization","type":"error"},{"inputs":[],"name":"InvalidSignature","type":"error"},{"inputs":[],"name":"NotInitializing","type":"error"},{"inputs":[],"name":"OnlyFactory","type":"error"},{"inputs":[],"name":"PaymentAlreadyProcessed","type":"error"},{"inputs":[],"name":"PaymentExpired","type":"error"},{"inputs":[],"name":"ReentrancyGuardReentrantCall","type":"error"},{"inputs":[],"name":"RouterNotAllowed","type":"error"},{"inputs":[],"name":"SlippageExceeded","type":"error"},{"inputs":[],"name":"TransferFailed","type":"error"},{"inputs":[],"name":"ZeroAddress","type":"error"},{"anonymous":false,"inputs":[{"indexed":true,"internalType":"address","name":"newAuthorizer","type":"address"}],"name":"AuthorizerUpdated","type":"event"},{"anonymous":false,"inputs":[],"name":"EIP712DomainChanged","type":"event"},{"anonymous":false,"inputs":[{"indexed":false,"internalType":"uint64","name":"version","type":"uint64"}],"name":"Initialized","type":"event"},{"anonymous":false,"inputs":[{"indexed":true,"internalType":"bytes32","name":"paymentId","type":"bytes32"},{"indexed":true,"internalType":"address","name":"tokenIn","type":"address"},{"indexed":true,"internalType":"address","name":"tokenOut","type":"address"},{"indexed":false,"internalType":"uint256","name":"amountIn","type":"uint256"},{"indexed":false,"internalType":"uint256","name":"merchantReceived","type":"uint256"},{"indexed":false,"internalType":"uint256","name":"devFee","type":"uint256"}],"name":"PaymentProcessed","type":"event"},{"inputs":[],"name":"AUTHORIZED_PAYMENT_TYPEHASH","outputs":[{"internalType":"bytes32","name":"","type":"bytes32"}],"stateMutability":"view","type":"function"},{"inputs":[],"name":"authorizer","outputs":[{"internalType":"address","name":"","type":"address"}],"stateMutability":"view","type":"function"},{"inputs":[],"name":"eip712Domain","outputs":[{"internalType":"bytes1","name":"fields","type":"bytes1"},{"internalType":"string","name":"name","type":"string"},{"internalType":"string","name":"version","type":"string"},{"internalType":"uint256","name":"chainId","type":"uint256"},{"internalType":"address","name":"verifyingContract","type":"address"},{"internalType":"bytes32","name":"salt","type":"bytes32"},{"internalType":"uint256[]","name":"extensions","type":"uint256[]"}],"stateMutability":"view","type":"function"},{"inputs":[],"name":"factory","outputs":[{"internalType":"address","name":"","type":"address"}],"stateMutability":"view","type":"function"},{"inputs":[{"internalType":"address","name":"_merchantAddress","type":"address"},{"internalType":"address","name":"_factory","type":"address"},{"internalType":"address","name":"_authorizer","type":"address"}],"name":"initialize","outputs":[],"stateMutability":"nonpayable","type":"function"},{"inputs":[],"name":"merchantAddress","outputs":[{"internalType":"address","name":"","type":"address"}],"stateMutability":"view","type":"function"},{"inputs":[{"internalType":"bytes32","name":"paymentId","type":"bytes32"},{"internalType":"address","name":"token","type":"address"},{"internalType":"uint256","name":"amount","type":"uint256"},{"internalType":"uint256","name":"expiry","type":"uint256"},{"internalType":"bytes","name":"signature","type":"bytes"}],"name":"payDirect","outputs":[],"stateMutability":"nonpayable","type":"function"},{"inputs":[{"internalType":"bytes32","name":"paymentId","type":"bytes32"},{"internalType":"address","name":"tokenIn","type":"address"},{"internalType":"address","name":"tokenOut","type":"address"},{"internalType":"uint256","name":"amountIn","type":"uint256"},{"internalType":"uint256","name":"minAmountOut","type":"uint256"},{"internalType":"uint256","name":"expiry","type":"uint256"},{"internalType":"address","name":"router","type":"address"},{"internalType":"address","name":"spender","type":"address"},{"internalType":"bytes","name":"swapData","type":"bytes"},{"internalType":"bytes","name":"signature","type":"bytes"}],"name":"payWithSwap","outputs":[],"stateMutability":"nonpayable","type":"function"},{"inputs":[{"internalType":"address","name":"token","type":"address"},{"internalType":"uint256","name":"amount","type":"uint256"}],"name":"rescueToken","outputs":[],"stateMutability":"nonpayable","type":"function"},{"inputs":[{"internalType":"address","name":"_newAuthorizer","type":"address"}],"name":"setAuthorizer","outputs":[],"stateMutability":"nonpayable","type":"function"}],"evm":{"bytecode":{"linkReferences":{},"object":"608080604052346100dc5760017f9b779b17422d0df92223018b32b4d1fa46e071723d6817e2486d003becc55f00557ff0c57e16840df040f15088dc2f81fe391c3923bec73e23a9662efc9c229c6a009081549060ff8260401c166100cd57506001600160401b036002600160401b031982821601610088575b604051611a0590816100e18239f35b6001600160401b031990911681179091556040519081527fc7f505b2f371ae2175ee4913f4499e1f2633a7b5936321eed1cdaeb6115181d290602090a15f8080610079565b63f92ee8a960e01b8152600490fd5b5f80fdfe6080806040526004361015610012575f80fd5b5f905f3560e01c908163058a628f14611254575080630d37422414610cde57806333f3d62814610bcb57806384b0196e14610a4d5780639df8ed4314610a26578063bcc2a046146109eb578063c0c53b8b146104c5578063c45a01551461049c578063d09edf31146104735763e47c6f3c1461008c575f80fd5b346104705760a0366003190112610470576004356100a86112e8565b90604435906064356084356001600160401b03811161046c576100cf903690600401611314565b906100d861146f565b82421161045a576100eb928587866114b1565b600154604051635c975abb60e01b81526001600160a01b0391821694919060209081816004818a5afa90811561033457889161043d575b5061042b57604051638da5cb5b60e01b815281816004818a5afa8015610334578391899161040e575b5016156103fc576040516324a9d85360e01b815281816004818a5afa9081156103345788916103c9575b50610183612710918761143d565b049261018f848761141c565b92873b156103b85760405163846fa34d60e01b8152600481018790526001600160a01b038316602482015260448101889052898082606481838e5af19182156103bc5785926103a1575b505060405163caccd7f760e01b815292821698839060049082905afa918215610396578992610367575b506040516323b872dd60e01b8082523360048301526001600160a01b039390931660248201526044810186905283816064818d8d5af190811561035c578a9161033f575b50156102f5578854604051928352336004840152166001600160a01b031660248201526044810183905281816064818b8b5af1918215610334578892610307575b5050156102f55760408051948552602085019190915283015282917f743791ed120d099b4c527e3bcef5a2e69c738c483ede167d034fb7a031afa9449080606081015b0390a460017f9b779b17422d0df92223018b32b4d1fa46e071723d6817e2486d003becc55f005580f35b6040516312171d8360e31b8152600490fd5b6103269250803d1061032d575b61031e81836113c8565b8101906113e9565b5f80610288565b503d610314565b6040513d8a823e3d90fd5b6103569150843d861161032d5761031e81836113c8565b5f610247565b6040513d8c823e3d90fd5b610388919250833d851161038f575b61038081836113c8565b810190611450565b905f610203565b503d610376565b6040513d8b823e3d90fd5b6103ac91925061137f565b6103b85782895f6101d9565b8880fd5b50604051903d90823e3d90fd5b90508181813d83116103f5575b6103e081836113c8565b810103126103f15751610183610175565b5f80fd5b503d6103d6565b60405163d92e233d60e01b8152600490fd5b6104259150833d851161038f5761038081836113c8565b5f61014b565b604051633461791360e11b8152600490fd5b6104549150823d841161032d5761031e81836113c8565b5f610122565b604051630664b28b60e41b8152600490fd5b8580fd5b80fd5b50346104705780600319360112610470576002546040516001600160a01b039091168152602090f35b50346104705780600319360112610470576001546040516001600160a01b039091168152602090f35b5034610470576060366003190112610470576104df6112d2565b906104e86112e8565b916104f16112fe565b905f8051602061199083398151915254916001600160401b038316801590816109db575b60011490816109d1575b1590816109c8575b506109b65760016001600160401b03198416175f805160206119908339815191525560ff8360401c161561098a575b6001600160a01b038216158015610979575b6103fc576040519461057986611392565b60128652712732b7a830bcb6b2b73a29b83634ba3a32b960711b6020870152604051956105a587611392565b60018752603160f81b60208801526105bb6117c2565b6105c36117c2565b8051906001600160401b0382116109655781906105ed5f80516020611930833981519152546116c8565b601f81116108ea575b50602090601f831160011461085e578892610853575b50508160011b915f199060031b1c1916175f80516020611930833981519152555b85516001600160401b03811161083f576106545f80516020611950833981519152546116c8565b601f81116107cb575b506020601f8211600114610742578190879860ff9892610737575b50508160011b915f199060031b1c1916175f80516020611950833981519152555b85546001600160a01b03199081166001600160a01b0394851617875560018054821692851692909217909155600280549091169190921617905560401c16156106df5780f35b68ff0000000000000000195f8051602061199083398151915254165f80516020611990833981519152557fc7f505b2f371ae2175ee4913f4499e1f2633a7b5936321eed1cdaeb6115181d2602060405160018152a180f35b015190505f80610678565b5f8051602061195083398151915287525f805160206119b083398151915297601f198316885b8181106107b357509160ff98999184600195941061079b575b505050811b015f8051602061195083398151915255610699565b01515f1960f88460031b161c191690555f8080610781565b838301518b556001909a019960209384019301610768565b5f805160206119508339815191528752601f820160051c5f805160206119b083398151915201906020831061082a575b601f0160051c5f805160206119b083398151915201905b81811061081f575061065d565b878155600101610812565b5f805160206119b083398151915291506107fb565b634e487b7160e01b86526041600452602486fd5b015190505f8061060c565b92505f8051602061193083398151915288525f805160206119708339815191529088935b601f19841685106108cf576001945083601f198116106108b7575b505050811b015f805160206119308339815191525561062d565b01515f1960f88460031b161c191690555f808061089d565b81810151835560209485019460019093019290910190610882565b9091505f805160206119308339815191528852601f830160051c5f805160206119708339815191520160208410610951575b908392915b601f820160051c5f8051602061197083398151915201811061094357506105f6565b898155849350600101610921565b505f8051602061197083398151915261091c565b634e487b7160e01b87526041600452602487fd5b506001600160a01b03851615610568565b68ffffffffffffffffff19831668010000000000000001175f8051602061199083398151915255610556565b60405163f92ee8a960e01b8152600490fd5b9050155f610527565b303b15915061051f565b604085901c60ff16159150610515565b503461047057806003193601126104705760206040517fdf2547f32aa5f7bd0d10ba8cd1c90409ddfcdcc012c7b9d004fad2d87c5d84e88152f35b5034610470578060031936011261047057546040516001600160a01b039091168152602090f35b50346104705780600319360112610470576040515f805160206119308339815191528054925f83610a7d866116c8565b91828252602094600197866001821691825f14610bab575050600114610b62575b50610aab925003846113c8565b610ab3611700565b9160405191818301938385106001600160401b03861117610b4e5792828793610b0a889688604052858552610afc60405198600f60f81b8a5260e0858b015260e08a0190611341565b9088820360408a0152611341565b924660608801523060808801528460a088015286840360c088015251928381520195925b828110610b3b5785870386f35b8351875295810195928101928401610b2e565b634e487b7160e01b5f52604160045260245ffd5b9150505f5283835f80516020611970833981519152875f915b858310610b92575050610aab93508201015f610a9e565b80919294505483858a0101520191018490878793610b7b565b60ff191685820152610aab95151560051b85010192505f9150610a9e9050565b503461047057604036600319011261047057610be56112d2565b6001546001600160a01b039081169133839003610ccc576040518093638da5cb5b60e01b825281600460209687935afa918215610cc1578492610c5f928791610ca4575b5060405163a9059cbb60e01b81526001600160a01b03909116600482015260248035908201529384928391889183906044820190565b0393165af1918215610c99578392610c7c575b5050156102f55780f35b610c929250803d1061032d5761031e81836113c8565b5f80610c72565b6040513d85823e3d90fd5b610cbb9150843d861161038f5761038081836113c8565b5f610c29565b6040513d87823e3d90fd5b604051630636a15760e11b8152600490fd5b50346103f1576101403660031901126103f157600435610cfc6112e8565b90610d056112fe565b60c4359260a43592916064356001600160a01b03808716908188036103f15760e4359681881688036103f1576001600160401b03610104358181116103f157610d52903690600401611314565b929091610124359081116103f157610d6e903690600401611314565b90610d7761146f565b82421161045a57610d8a92888b8d6114b1565b82600154169660405194635c975abb60e01b865260209586816004818d5afa90811561110d575f91611237575b5061042b57604051906361771e4960e01b8252600482015285816024818c5afa90811561110d575f9161121a575b5015611208576040516323b872dd60e01b815233600482015230602482015260448101879052908416999085816064815f8f5af190811561110d575f916111eb575b50156102f55760405163095ea7b360e01b81526001600160a01b039190911660048201526024810186905284816044815f8e5af1801561110d576111ce575b50828616998a926040519286846024816370a0823160e01b988982523060048301525afa93841561110d575f94611199575b5091815f809481946040519384928337810182815203925af13d15611194573d610ec181611401565b90610ecf60405192836113c8565b81525f863d92013e5b156102f55760405191825230600483015283826024818d5afa801561110d575f90611165575b610f08925061141c565b946084358610611147578888141580611159575b611147576040516324a9d85360e01b81528381600481855afa90811561110d575f91611118575b50610f51612710918861143d565b0495610f5d878261141c565b95823b156103f15760405163846fa34d60e01b8152600481018a90526001600160a01b0391909116602482015260448101919091525f8160648183865af1801561110d576110f3575b5090826004926040519384809263caccd7f760e01b82525afa91821561035c578a926110d4575b5060405163a9059cbb60e01b8082526001600160a01b039390931660048201526024810187905283816044818e8e5af19081156110c9578b916110ac575b50156102f5578954604051928352166001600160a01b031660048201526024810184905281816044818c8c5af191821561039657899261108f575b5050156102f5576102cb7f743791ed120d099b4c527e3bcef5a2e69c738c483ede167d034fb7a031afa94493604051938493846040919493926060820195825260208201520152565b6110a59250803d1061032d5761031e81836113c8565b5f80611046565b6110c39150843d861161032d5761031e81836113c8565b5f61100b565b6040513d8d823e3d90fd5b6110ec919250833d851161038f5761038081836113c8565b905f610fcd565b600492919a506111029061137f565b825f9a919250610fa6565b6040513d5f823e3d90fd5b90508381813d8311611140575b61112f81836113c8565b810103126103f15751610f51610f43565b503d611125565b604051638199f5f360e01b8152600490fd5b508360011c8610610f1c565b508382813d831161118d575b61117b81836113c8565b810103126103f157610f089151610efe565b503d611171565b610ed8565b91929093508682813d83116111c7575b6111b381836113c8565b810103126103f1579051929091905f610e98565b503d6111a9565b6111e490853d871161032d5761031e81836113c8565b505f610e66565b6112029150863d881161032d5761031e81836113c8565b5f610e27565b60405163cec13f7b60e01b8152600490fd5b6112319150863d881161032d5761031e81836113c8565b5f610de5565b61124e9150873d891161032d5761031e81836113c8565b5f610db7565b346103f15760203660031901126103f15761126d6112d2565b6001546001600160a01b039290831633036112c3575016806bffffffffffffffffffffffff60a01b60025416176002557ff3f625a7d9e02778afdfdf1bea978d6565840d408866c70f5d25aadf77021d705f80a2005b630636a15760e11b8152600490fd5b600435906001600160a01b03821682036103f157565b602435906001600160a01b03821682036103f157565b604435906001600160a01b03821682036103f157565b9181601f840112156103f1578235916001600160401b0383116103f157602083818601950101116103f157565b91908251928382525f5b84811061136b575050825f602080949584010152601f8019910116010190565b60208183018101518483018201520161134b565b6001600160401b038111610b4e57604052565b604081019081106001600160401b03821117610b4e57604052565b60c081019081106001600160401b03821117610b4e57604052565b90601f801991011681019081106001600160401b03821117610b4e57604052565b908160209103126103f1575180151581036103f15790565b6001600160401b038111610b4e57601f01601f191660200190565b9190820391821161142957565b634e487b7160e01b5f52601160045260245ffd5b8181029291811591840414171561142957565b908160209103126103f157516001600160a01b03811681036103f15790565b7f9b779b17422d0df92223018b32b4d1fa46e071723d6817e2486d003becc55f00600281541461149f5760029055565b604051633ee5aeb560e01b8152600490fd5b60025493956001600160a01b039485169592939092919086156116be5760409788519187602097888501957fdf2547f32aa5f7bd0d10ba8cd1c90409ddfcdcc012c7b9d004fad2d87c5d84e887528c860152166060840152608083015260a082015260a08152611520816113ad565b51902086515f905f80516020611930833981519152918254611541816116c8565b90818452888401946001918a6001821691825f1461169a57505060011461164a575b5050509061157781604295949303826113c8565b519020611582611700565b868151910120895190878201927f8b73c3c69bb8fe3d512ecc4cf759cc79239f7b179b0ffacaa9a75d522b39400f84528b83015260608201524660808201523060a082015260a081526115d4816113ad565b5190209088519161190160f01b835260028301526022820152206115f783611401565b91611604885193846113c8565b83835236848201116103f1578484611628955f9361163198870137840101526117f0565b9092919261182a565b160361163a5750565b51638baa579f60e01b8152600490fd5b899296959493505f525f80516020611970833981519152955f915b81831061168357509495509293509091820101611577826042611563565b8754858401850152968701968a9390920191611665565b60ff1916885293151560051b86019093019350611577925084915060429050611563565b5050505050505050565b90600182811c921680156116f6575b60208310146116e257565b634e487b7160e01b5f52602260045260245ffd5b91607f16916116d7565b604051905f825f8051602061195083398151915291825492611721846116c8565b8084529360209160019182811690811561179c575060011461174f575b50505061174d925003836113c8565b565b5f9081525f805160206119b08339815191529590935091905b828410611784575061174d9450505081016020015f808061173e565b85548885018301529485019487945092810192611768565b925050506020925061174d94915060ff191682840152151560051b8201015f808061173e565b60ff5f805160206119908339815191525460401c16156117de57565b604051631afcd79f60e31b8152600490fd5b8151919060418303611820576118199250602082015190606060408401519301515f1a906118ad565b9192909190565b50505f9160029190565b6004811015611899578061183c575050565b600181036118565760405163f645eedf60e01b8152600490fd5b600281036118775760405163fce698f760e01b815260048101839052602490fd5b6003146118815750565b602490604051906335e2f38360e21b82526004820152fd5b634e487b7160e01b5f52602160045260245ffd5b91907f7fffffffffffffffffffffffffffffff5d576e7357a4501ddfe92f46681b20a08411611924579160209360809260ff5f9560405194855216868401526040830152606082015282805260015afa1561110d575f516001600160a01b0381161561191a57905f905f90565b505f906001905f90565b5050505f916003919056fea16a46d94261c7517cc8ff89f61c0ce93598e3c849801011dee649a6a557d102a16a46d94261c7517cc8ff89f61c0ce93598e3c849801011dee649a6a557d10342ad5d3e1f2e6e70edcf6d991b8a3023d3fca8047a131592f9edb9fd9b89d57df0c57e16840df040f15088dc2f81fe391c3923bec73e23a9662efc9c229c6a005f9ce34815f8e11431c7bb75a8e6886a91478f7ffc1dbb0a98dc240fddd76b75a26469706673582212208dfdf3ef5620a63467c65933244d72194713447df9075ffd863a2f979922b13c64736f6c63430008180033","opcodes":"PUSH1 0x80 DUP1 PUSH1 0x40 MSTORE CALLVALUE PUSH2 0xDC JUMPI PUSH1 0x1 PUSH32 0x9B779B17422D0DF92223018B32B4D1FA46E071723D6817E2486D003BECC55F00 SSTORE PUSH32 0xF0C57E16840DF040F15088DC2F81FE391C3923BEC73E23A9662EFC9C229C6A00 SWAP1 DUP2 SLOAD SWAP1 PUSH1 0xFF DUP3 PUSH1 0x40 SHR AND PUSH2 0xCD JUMPI POP PUSH1 0x1 PUSH1 0x1 PUSH1 0x40 SHL SUB PUSH1 0x2 PUSH1 0x1 PUSH1 0x40 SHL SUB NOT DUP3 DUP3 AND ADD PUSH2 0x88 JUMPI JUMPDEST PUSH1 0x40 MLOAD PUSH2 0x1A05 SWAP1 DUP2 PUSH2 0xE1 DUP3 CODECOPY RETURN JUMPDEST PUSH1 0x1 PUSH1 0x1 PUSH1 0x40 SHL SUB NOT SWAP1 SWAP2 AND DUP2 OR SWAP1 SWAP2 SSTORE PUSH1 0x40 MLOAD SWAP1 DUP2 MSTORE PUSH32 0xC7F505B2F371AE2175EE4913F4499E1F2633A7B5936321EED1CDAEB6115181D2 SWAP1 PUSH1 0x20 SWAP1 LOG1 PUSH0 DUP1 DUP1 PUSH2 0x79 JUMP JUMPDEST PUSH4 0xF92EE8A9 PUSH1 0xE0 SHL DUP2 MSTORE PUSH1 0x4 SWAP1 REVERT JUMPDEST PUSH0 DUP1 REVERT INVALID PUSH1 0x80 DUP1 PUSH1 0x40 MSTORE PUSH1 0x4 CALLDATASIZE LT ISZERO PUSH2 0x12 JUMPI PUSH0 DUP1 REVERT JUMPDEST PUSH0 SWAP1 PUSH0 CALLDATALOAD PUSH1 0xE0 SHR SWAP1 DUP2 PUSH4 0x58A628F EQ PUSH2 0x1254 JUMPI POP DUP1 PUSH4 0xD374224 EQ PUSH2 0xCDE JUMPI DUP1 PUSH4 0x33F3D628 EQ PUSH2 0xBCB JUMPI DUP1 PUSH4 0x84B0196E EQ PUSH2 0xA4D JUMPI DUP1 PUSH4 0x9DF8ED43 EQ PUSH2 0xA26 JUMPI DUP1 PUSH4 0xBCC2A046 EQ PUSH2 0x9EB JUMPI DUP1 PUSH4 0xC0C53B8B EQ PUSH2 0x4C5 JUMPI DUP1 PUSH4 0xC45A0155 EQ PUSH2 0x49C JUMPI DUP1 PUSH4 0xD09EDF31 EQ PUSH2 0x473 JUMPI PUSH4 0xE47C6F3C EQ PUSH2 0x8C JUMPI PUSH0 DUP1 REVERT JUMPDEST CALLVALUE PUSH2 0x470 JUMPI PUSH1 0xA0 CALLDATASIZE PUSH1 0x3 NOT ADD SLT PUSH2 0x470 JUMPI PUSH1 0x4 CALLDATALOAD PUSH2 0xA8 PUSH2 0x12E8 JUMP JUMPDEST SWAP1 PUSH1 0x44 CALLDATALOAD SWAP1 PUSH1 0x64 CALLDATALOAD PUSH1 0x84 CALLDATALOAD PUSH1 0x1 PUSH1 0x1 PUSH1 0x40 SHL SUB DUP2 GT PUSH2 0x46C JUMPI PUSH2 0xCF SWAP1 CALLDATASIZE SWAP1 PUSH1 0x4 ADD PUSH2 0x1314 JUMP JUMPDEST SWAP1 PUSH2 0xD8 PUSH2 0x146F JUMP JUMPDEST DUP3 TIMESTAMP GT PUSH2 0x45A JUMPI PUSH2 0xEB SWAP3 DUP6 DUP8 DUP7 PUSH2 0x14B1 JUMP JUMPDEST PUSH1 0x1 SLOAD PUSH1 0x40 MLOAD PUSH4 0x5C975ABB PUSH1 0xE0 SHL DUP2 MSTORE PUSH1 0x1 PUSH1 0x1 PUSH1 0xA0 SHL SUB SWAP2 DUP3 AND SWAP5 SWAP2 SWAP1 PUSH1 0x20 SWAP1 DUP2 DUP2 PUSH1 0x4 DUP2 DUP11 GAS STATICCALL SWAP1 DUP2 ISZERO PUSH2 0x334 JUMPI DUP9 SWAP2 PUSH2 0x43D JUMPI JUMPDEST POP PUSH2 0x42B JUMPI PUSH1 0x40 MLOAD PUSH4 0x8DA5CB5B PUSH1 0xE0 SHL DUP2 MSTORE DUP2 DUP2 PUSH1 0x4 DUP2 DUP11 GAS STATICCALL DUP1 ISZERO PUSH2 0x334 JUMPI DUP4 SWAP2 DUP10 SWAP2 PUSH2 0x40E JUMPI JUMPDEST POP AND ISZERO PUSH2 0x3FC JUMPI PUSH1 0x40 MLOAD PUSH4 0x24A9D853 PUSH1 0xE0 SHL DUP2 MSTORE DUP2 DUP2 PUSH1 0x4 DUP2 DUP11 GAS STATICCALL SWAP1 DUP2 ISZERO PUSH2 0x334 JUMPI DUP9 SWAP2 PUSH2 0x3C9 JUMPI JUMPDEST POP PUSH2 0x183 PUSH2 0x2710 SWAP2 DUP8 PUSH2 0x143D JUMP JUMPDEST DIV SWAP3 PUSH2 0x18F DUP5 DUP8 PUSH2 0x141C JUMP JUMPDEST SWAP3 DUP8 EXTCODESIZE ISZERO PUSH2 0x3B8 JUMPI PUSH1 0x40 MLOAD PUSH4 0x846FA34D PUSH1 0xE0 SHL DUP2 MSTORE PUSH1 0x4 DUP2 ADD DUP8 SWAP1 MSTORE PUSH1 0x1 PUSH1 0x1 PUSH1 0xA0 SHL SUB DUP4 AND PUSH1 0x24 DUP3 ADD MSTORE PUSH1 0x44 DUP2 ADD DUP9 SWAP1 MSTORE DUP10 DUP1 DUP3 PUSH1 0x64 DUP2 DUP4 DUP15 GAS CALL SWAP2 DUP3 ISZERO PUSH2 0x3BC JUMPI DUP6 SWAP3 PUSH2 0x3A1 JUMPI JUMPDEST POP POP PUSH1 0x40 MLOAD PUSH4 0xCACCD7F7 PUSH1 0xE0 SHL DUP2 MSTORE SWAP3 DUP3 AND SWAP9 DUP4 SWAP1 PUSH1 0x4 SWAP1 DUP3 SWAP1 GAS STATICCALL SWAP2 DUP3 ISZERO PUSH2 0x396 JUMPI DUP10 SWAP3 PUSH2 0x367 JUMPI JUMPDEST POP PUSH1 0x40 MLOAD PUSH4 0x23B872DD PUSH1 0xE0 SHL DUP1 DUP3 MSTORE CALLER PUSH1 0x4 DUP4 ADD MSTORE PUSH1 0x1 PUSH1 0x1 PUSH1 0xA0 SHL SUB SWAP4 SWAP1 SWAP4 AND PUSH1 0x24 DUP3 ADD MSTORE PUSH1 0x44 DUP2 ADD DUP7 SWAP1 MSTORE DUP4 DUP2 PUSH1 0x64 DUP2 DUP14 DUP14 GAS CALL SWAP1 DUP2 ISZERO PUSH2 0x35C JUMPI DUP11 SWAP2 PUSH2 0x33F JUMPI JUMPDEST POP ISZERO PUSH2 0x2F5 JUMPI DUP9 SLOAD PUSH1 0x40 MLOAD SWAP3 DUP4 MSTORE CALLER PUSH1 0x4 DUP5 ADD MSTORE AND PUSH1 0x1 PUSH1 0x1 PUSH1 0xA0 SHL SUB AND PUSH1 0x24 DUP3 ADD MSTORE PUSH1 0x44 DUP2 ADD DUP4 SWAP1 MSTORE DUP2 DUP2 PUSH1 0x64 DUP2 DUP12 DUP12 GAS CALL SWAP2 DUP3 ISZERO PUSH2 0x334 JUMPI DUP9 SWAP3 PUSH2 0x307 JUMPI JUMPDEST POP POP ISZERO PUSH2 0x2F5 JUMPI PUSH1 0x40 DUP1 MLOAD SWAP5 DUP6 MSTORE PUSH1 0x20 DUP6 ADD SWAP2 SWAP1 SWAP2 MSTORE DUP4 ADD MSTORE DUP3 SWAP2 PUSH32 0x743791ED120D099B4C527E3BCEF5A2E69C738C483EDE167D034FB7A031AFA944 SWAP1 DUP1 PUSH1 0x60 DUP2 ADD JUMPDEST SUB SWAP1 LOG4 PUSH1 0x1 PUSH32 0x9B779B17422D0DF92223018B32B4D1FA46E071723D6817E2486D003BECC55F00 SSTORE DUP1 RETURN JUMPDEST PUSH1 0x40 MLOAD PUSH4 0x12171D83 PUSH1 0xE3 SHL DUP2 MSTORE PUSH1 0x4 SWAP1 REVERT JUMPDEST PUSH2 0x326 SWAP3 POP DUP1 RETURNDATASIZE LT PUSH2 0x32D JUMPI JUMPDEST PUSH2 0x31E DUP2 DUP4 PUSH2 0x13C8 JUMP JUMPDEST DUP2 ADD SWAP1 PUSH2 0x13E9 JUMP JUMPDEST PUSH0 DUP1 PUSH2 0x288 JUMP JUMPDEST POP RETURNDATASIZE PUSH2 0x314 JUMP JUMPDEST PUSH1 0x40 MLOAD RETURNDATASIZE DUP11 DUP3 RETURNDATACOPY RETURNDATASIZE SWAP1 REVERT JUMPDEST PUSH2 0x356 SWAP2 POP DUP5 RETURNDATASIZE DUP7 GT PUSH2 0x32D JUMPI PUSH2 0x31E DUP2 DUP4 PUSH2 0x13C8 JUMP JUMPDEST PUSH0 PUSH2 0x247 JUMP JUMPDEST PUSH1 0x40 MLOAD RETURNDATASIZE DUP13 DUP3 RETURNDATACOPY RETURNDATASIZE SWAP1 REVERT JUMPDEST PUSH2 0x388 SWAP2 SWAP3 POP DUP4 RETURNDATASIZE DUP6 GT PUSH2 0x38F JUMPI JUMPDEST PUSH2 0x380 DUP2 DUP4 PUSH2 0x13C8 JUMP JUMPDEST DUP2 ADD SWAP1 PUSH2 0x1450 JUMP JUMPDEST SWAP1 PUSH0 PUSH2 0x203 JUMP JUMPDEST POP RETURNDATASIZE PUSH2 0x376 JUMP JUMPDEST PUSH1 0x40 MLOAD RETURNDATASIZE DUP12 DUP3 RETURNDATACOPY RETURNDATASIZE SWAP1 REVERT JUMPDEST PUSH2 0x3AC SWAP2 SWAP3 POP PUSH2 0x137F JUMP JUMPDEST PUSH2 0x3B8 JUMPI DUP3 DUP10 PUSH0 PUSH2 0x1D9 JUMP JUMPDEST DUP9 DUP1 REVERT JUMPDEST POP PUSH1 0x40 MLOAD SWAP1 RETURNDATASIZE SWAP1 DUP3 RETURNDATACOPY RETURNDATASIZE SWAP1 REVERT JUMPDEST SWAP1 POP DUP2 DUP2 DUP2 RETURNDATASIZE DUP4 GT PUSH2 0x3F5 JUMPI JUMPDEST PUSH2 0x3E0 DUP2 DUP4 PUSH2 0x13C8 JUMP JUMPDEST DUP2 ADD SUB SLT PUSH2 0x3F1 JUMPI MLOAD PUSH2 0x183 PUSH2 0x175 JUMP JUMPDEST PUSH0 DUP1 REVERT JUMPDEST POP RETURNDATASIZE PUSH2 0x3D6 JUMP JUMPDEST PUSH1 0x40 MLOAD PUSH4 0xD92E233D PUSH1 0xE0 SHL DUP2 MSTORE PUSH1 0x4 SWAP1 REVERT JUMPDEST PUSH2 0x425 SWAP2 POP DUP4 RETURNDATASIZE DUP6 GT PUSH2 0x38F JUMPI PUSH2 0x380 DUP2 DUP4 PUSH2 0x13C8 JUMP JUMPDEST PUSH0 PUSH2 0x14B JUMP JUMPDEST PUSH1 0x40 MLOAD PUSH4 0x34617913 PUSH1 0xE1 SHL DUP2 MSTORE PUSH1 0x4 SWAP1 REVERT JUMPDEST PUSH2 0x454 SWAP2 POP DUP3 RETURNDATASIZE DUP5 GT PUSH2 0x32D JUMPI PUSH2 0x31E DUP2 DUP4 PUSH2 0x13C8 JUMP JUMPDEST PUSH0 PUSH2 0x122 JUMP JUMPDEST PUSH1 0x40 MLOAD PUSH4 0x664B28B PUSH1 0xE4 SHL DUP2 MSTORE PUSH1 0x4 SWAP1 REVERT JUMPDEST DUP6 DUP1 REVERT JUMPDEST DUP1 REVERT JUMPDEST POP CALLVALUE PUSH2 0x470 JUMPI DUP1 PUSH1 0x3 NOT CALLDATASIZE ADD SLT PUSH2 0x470 JUMPI PUSH1 0x2 SLOAD PUSH1 0x40 MLOAD PUSH1 0x1 PUSH1 0x1 PUSH1 0xA0 SHL SUB SWAP1 SWAP2 AND DUP2 MSTORE PUSH1 0x20 SWAP1 RETURN JUMPDEST POP CALLVALUE PUSH2 0x470 JUMPI DUP1 PUSH1 0x3 NOT CALLDATASIZE ADD SLT PUSH2 0x470 JUMPI PUSH1 0x1 SLOAD PUSH1 0x40 MLOAD PUSH1 0x1 PUSH1 0x1 PUSH1 0xA0 SHL SUB SWAP1 SWAP2 AND DUP2 MSTORE PUSH1 0x20 SWAP1 RETURN JUMPDEST POP CALLVALUE PUSH2 0x470 JUMPI PUSH1 0x60 CALLDATASIZE PUSH1 0x3 NOT ADD SLT PUSH2 0x470 JUMPI PUSH2 0x4DF PUSH2 0x12D2 JUMP JUMPDEST SWAP1 PUSH2 0x4E8 PUSH2 0x12E8 JUMP JUMPDEST SWAP2 PUSH2 0x4F1 PUSH2 0x12FE JUMP JUMPDEST SWAP1 PUSH0 DUP1 MLOAD PUSH1 0x20 PUSH2 0x1990 DUP4 CODECOPY DUP2 MLOAD SWAP2 MSTORE SLOAD SWAP2 PUSH1 0x1 PUSH1 0x1 PUSH1 0x40 SHL SUB DUP4 AND DUP1 ISZERO SWAP1 DUP2 PUSH2 0x9DB JUMPI JUMPDEST PUSH1 0x1 EQ SWAP1 DUP2 PUSH2 0x9D1 JUMPI JUMPDEST ISZERO SWAP1 DUP2 PUSH2 0x9C8 JUMPI JUMPDEST POP PUSH2 0x9B6 JUMPI PUSH1 0x1 PUSH1 0x1 PUSH1 0x1 PUSH1 0x40 SHL SUB NOT DUP5 AND OR PUSH0 DUP1 MLOAD PUSH1 0x20 PUSH2 0x1990 DUP4 CODECOPY DUP2 MLOAD SWAP2 MSTORE SSTORE PUSH1 0xFF DUP4 PUSH1 0x40 SHR AND ISZERO PUSH2 0x98A JUMPI JUMPDEST PUSH1 0x1 PUSH1 0x1 PUSH1 0xA0 SHL SUB DUP3 AND ISZERO DUP1 ISZERO PUSH2 0x979 JUMPI JUMPDEST PUSH2 0x3FC JUMPI PUSH1 0x40 MLOAD SWAP5 PUSH2 0x579 DUP7 PUSH2 0x1392 JUMP JUMPDEST PUSH1 0x12 DUP7 MSTORE PUSH18 0x2732B7A830BCB6B2B73A29B83634BA3A32B9 PUSH1 0x71 SHL PUSH1 0x20 DUP8 ADD MSTORE PUSH1 0x40 MLOAD SWAP6 PUSH2 0x5A5 DUP8 PUSH2 0x1392 JUMP JUMPDEST PUSH1 0x1 DUP8 MSTORE PUSH1 0x31 PUSH1 0xF8 SHL PUSH1 0x20 DUP9 ADD MSTORE PUSH2 0x5BB PUSH2 0x17C2 JUMP JUMPDEST PUSH2 0x5C3 PUSH2 0x17C2 JUMP JUMPDEST DUP1 MLOAD SWAP1 PUSH1 0x1 PUSH1 0x1 PUSH1 0x40 SHL SUB DUP3 GT PUSH2 0x965 JUMPI DUP2 SWAP1 PUSH2 0x5ED PUSH0 DUP1 MLOAD PUSH1 0x20 PUSH2 0x1930 DUP4 CODECOPY DUP2 MLOAD SWAP2 MSTORE SLOAD PUSH2 0x16C8 JUMP JUMPDEST PUSH1 0x1F DUP2 GT PUSH2 0x8EA JUMPI JUMPDEST POP PUSH1 0x20 SWAP1 PUSH1 0x1F DUP4 GT PUSH1 0x1 EQ PUSH2 0x85E JUMPI DUP9 SWAP3 PUSH2 0x853 JUMPI JUMPDEST POP POP DUP2 PUSH1 0x1 SHL SWAP2 PUSH0 NOT SWAP1 PUSH1 0x3 SHL SHR NOT AND OR PUSH0 DUP1 MLOAD PUSH1 0x20 PUSH2 0x1930 DUP4 CODECOPY DUP2 MLOAD SWAP2 MSTORE SSTORE JUMPDEST DUP6 MLOAD PUSH1 0x1 PUSH1 0x1 PUSH1 0x40 SHL SUB DUP2 GT PUSH2 0x83F JUMPI PUSH2 0x654 PUSH0 DUP1 MLOAD PUSH1 0x20 PUSH2 0x1950 DUP4 CODECOPY DUP2 MLOAD SWAP2 MSTORE SLOAD PUSH2 0x16C8 JUMP JUMPDEST PUSH1 0x1F DUP2 GT PUSH2 0x7CB JUMPI JUMPDEST POP PUSH1 0x20 PUSH1 0x1F DUP3 GT PUSH1 0x1 EQ PUSH2 0x742 JUMPI DUP2 SWAP1 DUP8 SWAP9 PUSH1 0xFF SWAP9 SWAP3 PUSH2 0x737 JUMPI JUMPDEST POP POP DUP2 PUSH1 0x1 SHL SWAP2 PUSH0 NOT SWAP1 PUSH1 0x3 SHL SHR NOT AND OR PUSH0 DUP1 MLOAD PUSH1 0x20 PUSH2 0x1950 DUP4 CODECOPY DUP2 MLOAD SWAP2 MSTORE SSTORE JUMPDEST DUP6 SLOAD PUSH1 0x1 PUSH1 0x1 PUSH1 0xA0 SHL SUB NOT SWAP1 DUP2 AND PUSH1 0x1 PUSH1 0x1 PUSH1 0xA0 SHL SUB SWAP5 DUP6 AND OR DUP8 SSTORE PUSH1 0x1 DUP1 SLOAD DUP3 AND SWAP3 DUP6 AND SWAP3 SWAP1 SWAP3 OR SWAP1 SWAP2 SSTORE PUSH1 0x2 DUP1 SLOAD SWAP1 SWAP2 AND SWAP2 SWAP1 SWAP3 AND OR SWAP1 SSTORE PUSH1 0x40 SHR AND ISZERO PUSH2 0x6DF JUMPI DUP1 RETURN JUMPDEST PUSH9 0xFF0000000000000000 NOT PUSH0 DUP1 MLOAD PUSH1 0x20 PUSH2 0x1990 DUP4 CODECOPY DUP2 MLOAD SWAP2 MSTORE SLOAD AND PUSH0 DUP1 MLOAD PUSH1 0x20 PUSH2 0x1990 DUP4 CODECOPY DUP2 MLOAD SWAP2 MSTORE SSTORE PUSH32 0xC7F505B2F371AE2175EE4913F4499E1F2633A7B5936321EED1CDAEB6115181D2 PUSH1 0x20 PUSH1 0x40 MLOAD PUSH1 0x1 DUP2 MSTORE LOG1 DUP1 RETURN JUMPDEST ADD MLOAD SWAP1 POP PUSH0 DUP1 PUSH2 0x678 JUMP JUMPDEST PUSH0 DUP1 MLOAD PUSH1 0x20 PUSH2 0x1950 DUP4 CODECOPY DUP2 MLOAD SWAP2 MSTORE DUP8 MSTORE PUSH0 DUP1 MLOAD PUSH1 0x20 PUSH2 0x19B0 DUP4 CODECOPY DUP2 MLOAD SWAP2 MSTORE SWAP8 PUSH1 0x1F NOT DUP4 AND DUP9 JUMPDEST DUP2 DUP2 LT PUSH2 0x7B3 JUMPI POP SWAP2 PUSH1 0xFF SWAP9 SWAP10 SWAP2 DUP5 PUSH1 0x1 SWAP6 SWAP5 LT PUSH2 0x79B JUMPI JUMPDEST POP POP POP DUP2 SHL ADD PUSH0 DUP1 MLOAD PUSH1 0x20 PUSH2 0x1950 DUP4 CODECOPY DUP2 MLOAD SWAP2 MSTORE SSTORE PUSH2 0x699 JUMP JUMPDEST ADD MLOAD PUSH0 NOT PUSH1 0xF8 DUP5 PUSH1 0x3 SHL AND SHR NOT AND SWAP1 SSTORE PUSH0 DUP1 DUP1 PUSH2 0x781 JUMP JUMPDEST DUP4 DUP4 ADD MLOAD DUP12 SSTORE PUSH1 0x1 SWAP1 SWAP11 ADD SWAP10 PUSH1 0x20 SWAP4 DUP5 ADD SWAP4 ADD PUSH2 0x768 JUMP JUMPDEST PUSH0 DUP1 MLOAD PUSH1 0x20 PUSH2 0x1950 DUP4 CODECOPY DUP2 MLOAD SWAP2 MSTORE DUP8 MSTORE PUSH1 0x1F DUP3 ADD PUSH1 0x5 SHR PUSH0 DUP1 MLOAD PUSH1 0x20 PUSH2 0x19B0 DUP4 CODECOPY DUP2 MLOAD SWAP2 MSTORE ADD SWAP1 PUSH1 0x20 DUP4 LT PUSH2 0x82A JUMPI JUMPDEST PUSH1 0x1F ADD PUSH1 0x5 SHR PUSH0 DUP1 MLOAD PUSH1 0x20 PUSH2 0x19B0 DUP4 CODECOPY DUP2 MLOAD SWAP2 MSTORE ADD SWAP1 JUMPDEST DUP2 DUP2 LT PUSH2 0x81F JUMPI POP PUSH2 0x65D JUMP JUMPDEST DUP8 DUP2 SSTORE PUSH1 0x1 ADD PUSH2 0x812 JUMP JUMPDEST PUSH0 DUP1 MLOAD PUSH1 0x20 PUSH2 0x19B0 DUP4 CODECOPY DUP2 MLOAD SWAP2 MSTORE SWAP2 POP PUSH2 0x7FB JUMP JUMPDEST PUSH4 0x4E487B71 PUSH1 0xE0 SHL DUP7 MSTORE PUSH1 0x41 PUSH1 0x4 MSTORE PUSH1 0x24 DUP7 REVERT JUMPDEST ADD MLOAD SWAP1 POP PUSH0 DUP1 PUSH2 0x60C JUMP JUMPDEST SWAP3 POP PUSH0 DUP1 MLOAD PUSH1 0x20 PUSH2 0x1930 DUP4 CODECOPY DUP2 MLOAD SWAP2 MSTORE DUP9 MSTORE PUSH0 DUP1 MLOAD PUSH1 0x20 PUSH2 0x1970 DUP4 CODECOPY DUP2 MLOAD SWAP2 MSTORE SWAP1 DUP9 SWAP4 JUMPDEST PUSH1 0x1F NOT DUP5 AND DUP6 LT PUSH2 0x8CF JUMPI PUSH1 0x1 SWAP5 POP DUP4 PUSH1 0x1F NOT DUP2 AND LT PUSH2 0x8B7 JUMPI JUMPDEST POP POP POP DUP2 SHL ADD PUSH0 DUP1 MLOAD PUSH1 0x20 PUSH2 0x1930 DUP4 CODECOPY DUP2 MLOAD SWAP2 MSTORE SSTORE PUSH2 0x62D JUMP JUMPDEST ADD MLOAD PUSH0 NOT PUSH1 0xF8 DUP5 PUSH1 0x3 SHL AND SHR NOT AND SWAP1 SSTORE PUSH0 DUP1 DUP1 PUSH2 0x89D JUMP JUMPDEST DUP2 DUP2 ADD MLOAD DUP4 SSTORE PUSH1 0x20 SWAP5 DUP6 ADD SWAP5 PUSH1 0x1 SWAP1 SWAP4 ADD SWAP3 SWAP1 SWAP2 ADD SWAP1 PUSH2 0x882 JUMP JUMPDEST SWAP1 SWAP2 POP PUSH0 DUP1 MLOAD PUSH1 0x20 PUSH2 0x1930 DUP4 CODECOPY DUP2 MLOAD SWAP2 MSTORE DUP9 MSTORE PUSH1 0x1F DUP4 ADD PUSH1 0x5 SHR PUSH0 DUP1 MLOAD PUSH1 0x20 PUSH2 0x1970 DUP4 CODECOPY DUP2 MLOAD SWAP2 MSTORE ADD PUSH1 0x20 DUP5 LT PUSH2 0x951 JUMPI JUMPDEST SWAP1 DUP4 SWAP3 SWAP2 JUMPDEST PUSH1 0x1F DUP3 ADD PUSH1 0x5 SHR PUSH0 DUP1 MLOAD PUSH1 0x20 PUSH2 0x1970 DUP4 CODECOPY DUP2 MLOAD SWAP2 MSTORE ADD DUP2 LT PUSH2 0x943 JUMPI POP PUSH2 0x5F6 JUMP JUMPDEST DUP10 DUP2 SSTORE DUP5 SWAP4 POP PUSH1 0x1 ADD PUSH2 0x921 JUMP JUMPDEST POP PUSH0 DUP1 MLOAD PUSH1 0x20 PUSH2 0x1970 DUP4 CODECOPY DUP2 MLOAD SWAP2 MSTORE PUSH2 0x91C JUMP JUMPDEST PUSH4 0x4E487B71 PUSH1 0xE0 SHL DUP8 MSTORE PUSH1 0x41 PUSH1 0x4 MSTORE PUSH1 0x24 DUP8 REVERT JUMPDEST POP PUSH1 0x1 PUSH1 0x1 PUSH1 0xA0 SHL SUB DUP6 AND ISZERO PUSH2 0x568 JUMP JUMPDEST PUSH9 0xFFFFFFFFFFFFFFFFFF NOT DUP4 AND PUSH9 0x10000000000000001 OR PUSH0 DUP1 MLOAD PUSH1 0x20 PUSH2 0x1990 DUP4 CODECOPY DUP2 MLOAD SWAP2 MSTORE SSTORE PUSH2 0x556 JUMP JUMPDEST PUSH1 0x40 MLOAD PUSH4 0xF92EE8A9 PUSH1 0xE0 SHL DUP2 MSTORE PUSH1 0x4 SWAP1 REVERT JUMPDEST SWAP1 POP ISZERO PUSH0 PUSH2 0x527 JUMP JUMPDEST ADDRESS EXTCODESIZE ISZERO SWAP2 POP PUSH2 0x51F JUMP JUMPDEST PUSH1 0x40 DUP6 SWAP1 SHR PUSH1 0xFF AND ISZERO SWAP2 POP PUSH2 0x515 JUMP JUMPDEST POP CALLVALUE PUSH2 0x470 JUMPI DUP1 PUSH1 0x3 NOT CALLDATASIZE ADD SLT PUSH2 0x470 JUMPI PUSH1 0x20 PUSH1 0x40 MLOAD PUSH32 0xDF2547F32AA5F7BD0D10BA8CD1C90409DDFCDCC012C7B9D004FAD2D87C5D84E8 DUP2 MSTORE RETURN JUMPDEST POP CALLVALUE PUSH2 0x470 JUMPI DUP1 PUSH1 0x3 NOT CALLDATASIZE ADD SLT PUSH2 0x470 JUMPI SLOAD PUSH1 0x40 MLOAD PUSH1 0x1 PUSH1 0x1 PUSH1 0xA0 SHL SUB SWAP1 SWAP2 AND DUP2 MSTORE PUSH1 0x20 SWAP1 RETURN JUMPDEST POP CALLVALUE PUSH2 0x470 JUMPI DUP1 PUSH1 0x3 NOT CALLDATASIZE ADD SLT PUSH2 0x470 JUMPI PUSH1 0x40 MLOAD PUSH0 DUP1 MLOAD PUSH1 0x20 PUSH2 0x1930 DUP4 CODECOPY DUP2 MLOAD SWAP2 MSTORE DUP1 SLOAD SWAP3 PUSH0 DUP4 PUSH2 0xA7D DUP7 PUSH2 0x16C8 JUMP JUMPDEST SWAP2 DUP3 DUP3 MSTORE PUSH1 0x20 SWAP5 PUSH1 0x1 SWAP8 DUP7 PUSH1 0x1 DUP3 AND SWAP2 DUP3 PUSH0 EQ PUSH2 0xBAB JUMPI POP POP PUSH1 0x1 EQ PUSH2 0xB62 JUMPI JUMPDEST POP PUSH2 0xAAB SWAP3 POP SUB DUP5 PUSH2 0x13C8 JUMP JUMPDEST PUSH2 0xAB3 PUSH2 0x1700 JUMP JUMPDEST SWAP2 PUSH1 0x40 MLOAD SWAP2 DUP2 DUP4 ADD SWAP4 DUP4 DUP6 LT PUSH1 0x1 PUSH1 0x1 PUSH1 0x40 SHL SUB DUP7 GT OR PUSH2 0xB4E JUMPI SWAP3 DUP3 DUP8 SWAP4 PUSH2 0xB0A DUP9 SWAP7 DUP9 PUSH1 0x40 MSTORE DUP6 DUP6 MSTORE PUSH2 0xAFC PUSH1 0x40 MLOAD SWAP9 PUSH1 0xF PUSH1 0xF8 SHL DUP11 MSTORE PUSH1 0xE0 DUP6 DUP12 ADD MSTORE PUSH1 0xE0 DUP11 ADD SWAP1 PUSH2 0x1341 JUMP JUMPDEST SWAP1 DUP9 DUP3 SUB PUSH1 0x40 DUP11 ADD MSTORE PUSH2 0x1341 JUMP JUMPDEST SWAP3 CHAINID PUSH1 0x60 DUP9 ADD MSTORE ADDRESS PUSH1 0x80 DUP9 ADD MSTORE DUP5 PUSH1 0xA0 DUP9 ADD MSTORE DUP7 DUP5 SUB PUSH1 0xC0 DUP9 ADD MSTORE MLOAD SWAP3 DUP4 DUP2 MSTORE ADD SWAP6 SWAP3 JUMPDEST DUP3 DUP2 LT PUSH2 0xB3B JUMPI DUP6 DUP8 SUB DUP7 RETURN JUMPDEST DUP4 MLOAD DUP8 MSTORE SWAP6 DUP2 ADD SWAP6 SWAP3 DUP2 ADD SWAP3 DUP5 ADD PUSH2 0xB2E JUMP JUMPDEST PUSH4 0x4E487B71 PUSH1 0xE0 SHL PUSH0 MSTORE PUSH1 0x41 PUSH1 0x4 MSTORE PUSH1 0x24 PUSH0 REVERT JUMPDEST SWAP2 POP POP PUSH0 MSTORE DUP4 DUP4 PUSH0 DUP1 MLOAD PUSH1 0x20 PUSH2 0x1970 DUP4 CODECOPY DUP2 MLOAD SWAP2 MSTORE DUP8 PUSH0 SWAP2 JUMPDEST DUP6 DUP4 LT PUSH2 0xB92 JUMPI POP POP PUSH2 0xAAB SWAP4 POP DUP3 ADD ADD PUSH0 PUSH2 0xA9E JUMP JUMPDEST DUP1 SWAP2 SWAP3 SWAP5 POP SLOAD DUP4 DUP6 DUP11 ADD ADD MSTORE ADD SWAP2 ADD DUP5 SWAP1 DUP8 DUP8 SWAP4 PUSH2 0xB7B JUMP JUMPDEST PUSH1 0xFF NOT AND DUP6 DUP3 ADD MSTORE PUSH2 0xAAB SWAP6 ISZERO ISZERO PUSH1 0x5 SHL DUP6 ADD ADD SWAP3 POP PUSH0 SWAP2 POP PUSH2 0xA9E SWAP1 POP JUMP JUMPDEST POP CALLVALUE PUSH2 0x470 JUMPI PUSH1 0x40 CALLDATASIZE PUSH1 0x3 NOT ADD SLT PUSH2 0x470 JUMPI PUSH2 0xBE5 PUSH2 0x12D2 JUMP JUMPDEST PUSH1 0x1 SLOAD PUSH1 0x1 PUSH1 0x1 PUSH1 0xA0 SHL SUB SWAP1 DUP2 AND SWAP2 CALLER DUP4 SWAP1 SUB PUSH2 0xCCC JUMPI PUSH1 0x40 MLOAD DUP1 SWAP4 PUSH4 0x8DA5CB5B PUSH1 0xE0 SHL DUP3 MSTORE DUP2 PUSH1 0x4 PUSH1 0x20 SWAP7 DUP8 SWAP4 GAS STATICCALL SWAP2 DUP3 ISZERO PUSH2 0xCC1 JUMPI DUP5 SWAP3 PUSH2 0xC5F SWAP3 DUP8 SWAP2 PUSH2 0xCA4 JUMPI JUMPDEST POP PUSH1 0x40 MLOAD PUSH4 0xA9059CBB PUSH1 0xE0 SHL DUP2 MSTORE PUSH1 0x1 PUSH1 0x1 PUSH1 0xA0 SHL SUB SWAP1 SWAP2 AND PUSH1 0x4 DUP3 ADD MSTORE PUSH1 0x24 DUP1 CALLDATALOAD SWAP1 DUP3 ADD MSTORE SWAP4 DUP5 SWAP3 DUP4 SWAP2 DUP9 SWAP2 DUP4 SWAP1 PUSH1 0x44 DUP3 ADD SWAP1 JUMP JUMPDEST SUB SWAP4 AND GAS CALL SWAP2 DUP3 ISZERO PUSH2 0xC99 JUMPI DUP4 SWAP3 PUSH2 0xC7C JUMPI JUMPDEST POP POP ISZERO PUSH2 0x2F5 JUMPI DUP1 RETURN JUMPDEST PUSH2 0xC92 SWAP3 POP DUP1 RETURNDATASIZE LT PUSH2 0x32D JUMPI PUSH2 0x31E DUP2 DUP4 PUSH2 0x13C8 JUMP JUMPDEST PUSH0 DUP1 PUSH2 0xC72 JUMP JUMPDEST PUSH1 0x40 MLOAD RETURNDATASIZE DUP6 DUP3 RETURNDATACOPY RETURNDATASIZE SWAP1 REVERT JUMPDEST PUSH2 0xCBB SWAP2 POP DUP5 RETURNDATASIZE DUP7 GT PUSH2 0x38F JUMPI PUSH2 0x380 DUP2 DUP4 PUSH2 0x13C8 JUMP JUMPDEST PUSH0 PUSH2 0xC29 JUMP JUMPDEST PUSH1 0x40 MLOAD RETURNDATASIZE DUP8 DUP3 RETURNDATACOPY RETURNDATASIZE SWAP1 REVERT JUMPDEST PUSH1 0x40 MLOAD PUSH4 0x636A157 PUSH1 0xE1 SHL DUP2 MSTORE PUSH1 0x4 SWAP1 REVERT JUMPDEST POP CALLVALUE PUSH2 0x3F1 JUMPI PUSH2 0x140 CALLDATASIZE PUSH1 0x3 NOT ADD SLT PUSH2 0x3F1 JUMPI PUSH1 0x4 CALLDATALOAD PUSH2 0xCFC PUSH2 0x12E8 JUMP JUMPDEST SWAP1 PUSH2 0xD05 PUSH2 0x12FE JUMP JUMPDEST PUSH1 0xC4 CALLDATALOAD SWAP3 PUSH1 0xA4 CALLDATALOAD SWAP3 SWAP2 PUSH1 0x64 CALLDATALOAD PUSH1 0x1 PUSH1 0x1 PUSH1 0xA0 SHL SUB DUP1 DUP8 AND SWAP1 DUP2 DUP9 SUB PUSH2 0x3F1 JUMPI PUSH1 0xE4 CALLDATALOAD SWAP7 DUP2 DUP9 AND DUP9 SUB PUSH2 0x3F1 JUMPI PUSH1 0x1 PUSH1 0x1 PUSH1 0x40 SHL SUB PUSH2 0x104 CALLDATALOAD DUP2 DUP2 GT PUSH2 0x3F1 JUMPI PUSH2 0xD52 SWAP1 CALLDATASIZE SWAP1 PUSH1 0x4 ADD PUSH2 0x1314 JUMP JUMPDEST SWAP3 SWAP1 SWAP2 PUSH2 0x124 CALLDATALOAD SWAP1 DUP2 GT PUSH2 0x3F1 JUMPI PUSH2 0xD6E SWAP1 CALLDATASIZE SWAP1 PUSH1 0x4 ADD PUSH2 0x1314 JUMP JUMPDEST SWAP1 PUSH2 0xD77 PUSH2 0x146F JUMP JUMPDEST DUP3 TIMESTAMP GT PUSH2 0x45A JUMPI PUSH2 0xD8A SWAP3 DUP9 DUP12 DUP14 PUSH2 0x14B1 JUMP JUMPDEST DUP3 PUSH1 0x1 SLOAD AND SWAP7 PUSH1 0x40 MLOAD SWAP5 PUSH4 0x5C975ABB PUSH1 0xE0 SHL DUP7 MSTORE PUSH1 0x20 SWAP6 DUP7 DUP2 PUSH1 0x4 DUP2 DUP14 GAS STATICCALL SWAP1 DUP2 ISZERO PUSH2 0x110D JUMPI PUSH0 SWAP2 PUSH2 0x1237 JUMPI JUMPDEST POP PUSH2 0x42B JUMPI PUSH1 0x40 MLOAD SWAP1 PUSH4 0x61771E49 PUSH1 0xE0 SHL DUP3 MSTORE PUSH1 0x4 DUP3 ADD MSTORE DUP6 DUP2 PUSH1 0x24 DUP2 DUP13 GAS STATICCALL SWAP1 DUP2 ISZERO PUSH2 0x110D JUMPI PUSH0 SWAP2 PUSH2 0x121A JUMPI JUMPDEST POP ISZERO PUSH2 0x1208 JUMPI PUSH1 0x40 MLOAD PUSH4 0x23B872DD PUSH1 0xE0 SHL DUP2 MSTORE CALLER PUSH1 0x4 DUP3 ADD MSTORE ADDRESS PUSH1 0x24 DUP3 ADD MSTORE PUSH1 0x44 DUP2 ADD DUP8 SWAP1 MSTORE SWAP1 DUP5 AND SWAP10 SWAP1 DUP6 DUP2 PUSH1 0x64 DUP2 PUSH0 DUP16 GAS CALL SWAP1 DUP2 ISZERO PUSH2 0x110D JUMPI PUSH0 SWAP2 PUSH2 0x11EB JUMPI JUMPDEST POP ISZERO PUSH2 0x2F5 JUMPI PUSH1 0x40 MLOAD PUSH4 0x95EA7B3 PUSH1 0xE0 SHL DUP2 MSTORE PUSH1 0x1 PUSH1 0x1 PUSH1 0xA0 SHL SUB SWAP2 SWAP1 SWAP2 AND PUSH1 0x4 DUP3 ADD MSTORE PUSH1 0x24 DUP2 ADD DUP7 SWAP1 MSTORE DUP5 DUP2 PUSH1 0x44 DUP2 PUSH0 DUP15 GAS CALL DUP1 ISZERO PUSH2 0x110D JUMPI PUSH2 0x11CE JUMPI JUMPDEST POP DUP3 DUP7 AND SWAP10 DUP11 SWAP3 PUSH1 0x40 MLOAD SWAP3 DUP7 DUP5 PUSH1 0x24 DUP2 PUSH4 0x70A08231 PUSH1 0xE0 SHL SWAP9 DUP10 DUP3 MSTORE ADDRESS PUSH1 0x4 DUP4 ADD MSTORE GAS STATICCALL SWAP4 DUP5 ISZERO PUSH2 0x110D JUMPI PUSH0 SWAP5 PUSH2 0x1199 JUMPI JUMPDEST POP SWAP2 DUP2 PUSH0 DUP1 SWAP5 DUP2 SWAP5 PUSH1 0x40 MLOAD SWAP4 DUP5 SWAP3 DUP4 CALLDATACOPY DUP2 ADD DUP3 DUP2 MSTORE SUB SWAP3 GAS CALL RETURNDATASIZE ISZERO PUSH2 0x1194 JUMPI RETURNDATASIZE PUSH2 0xEC1 DUP2 PUSH2 0x1401 JUMP JUMPDEST SWAP1 PUSH2 0xECF PUSH1 0x40 MLOAD SWAP3 DUP4 PUSH2 0x13C8 JUMP JUMPDEST DUP2 MSTORE PUSH0 DUP7 RETURNDATASIZE SWAP3 ADD RETURNDATACOPY JUMPDEST ISZERO PUSH2 0x2F5 JUMPI PUSH1 0x40 MLOAD SWAP2 DUP3 MSTORE ADDRESS PUSH1 0x4 DUP4 ADD MSTORE DUP4 DUP3 PUSH1 0x24 DUP2 DUP14 GAS STATICCALL DUP1 ISZERO PUSH2 0x110D JUMPI PUSH0 SWAP1 PUSH2 0x1165 JUMPI JUMPDEST PUSH2 0xF08 SWAP3 POP PUSH2 0x141C JUMP JUMPDEST SWAP5 PUSH1 0x84 CALLDATALOAD DUP7 LT PUSH2 0x1147 JUMPI DUP9 DUP9 EQ ISZERO DUP1 PUSH2 0x1159 JUMPI JUMPDEST PUSH2 0x1147 JUMPI PUSH1 0x40 MLOAD PUSH4 0x24A9D853 PUSH1 0xE0 SHL DUP2 MSTORE DUP4 DUP2 PUSH1 0x4 DUP2 DUP6 GAS STATICCALL SWAP1 DUP2 ISZERO PUSH2 0x110D JUMPI PUSH0 SWAP2 PUSH2 0x1118 JUMPI JUMPDEST POP PUSH2 0xF51 PUSH2 0x2710 SWAP2 DUP9 PUSH2 0x143D JUMP JUMPDEST DIV SWAP6 PUSH2 0xF5D DUP8 DUP3 PUSH2 0x141C JUMP JUMPDEST SWAP6 DUP3 EXTCODESIZE ISZERO PUSH2 0x3F1 JUMPI PUSH1 0x40 MLOAD PUSH4 0x846FA34D PUSH1 0xE0 SHL DUP2 MSTORE PUSH1 0x4 DUP2 ADD DUP11 SWAP1 MSTORE PUSH1 0x1 PUSH1 0x1 PUSH1 0xA0 SHL SUB SWAP2 SWAP1 SWAP2 AND PUSH1 0x24 DUP3 ADD MSTORE PUSH1 0x44 DUP2 ADD SWAP2 SWAP1 SWAP2 MSTORE PUSH0 DUP2 PUSH1 0x64 DUP2 DUP4 DUP7 GAS CALL DUP1 ISZERO PUSH2 0x110D JUMPI PUSH2 0x10F3 JUMPI JUMPDEST POP SWAP1 DUP3 PUSH1 0x4 SWAP3 PUSH1 0x40 MLOAD SWAP4 DUP5 DUP1 SWAP3 PUSH4 0xCACCD7F7 PUSH1 0xE0 SHL DUP3 MSTORE GAS STATICCALL SWAP2 DUP3 ISZERO PUSH2 0x35C JUMPI DUP11 SWAP3 PUSH2 0x10D4 JUMPI JUMPDEST POP PUSH1 0x40 MLOAD PUSH4 0xA9059CBB PUSH1 0xE0 SHL DUP1 DUP3 MSTORE PUSH1 0x1 PUSH1 0x1 PUSH1 0xA0 SHL SUB SWAP4 SWAP1 SWAP4 AND PUSH1 0x4 DUP3 ADD MSTORE PUSH1 0x24 DUP2 ADD DUP8 SWAP1 MSTORE DUP4 DUP2 PUSH1 0x44 DUP2 DUP15 DUP15 GAS CALL SWAP1 DUP2 ISZERO PUSH2 0x10C9 JUMPI DUP12 SWAP2 PUSH2 0x10AC JUMPI JUMPDEST POP ISZERO PUSH2 0x2F5 JUMPI DUP10 SLOAD PUSH1 0x40 MLOAD SWAP3 DUP4 MSTORE AND PUSH1 0x1 PUSH1 0x1 PUSH1 0xA0 SHL SUB AND PUSH1 0x4 DUP3 ADD MSTORE PUSH1 0x24 DUP2 ADD DUP5 SWAP1 MSTORE DUP2 DUP2 PUSH1 0x44 DUP2 DUP13 DUP13 GAS CALL SWAP2 DUP3 ISZERO PUSH2 0x396 JUMPI DUP10 SWAP3 PUSH2 0x108F JUMPI JUMPDEST POP POP ISZERO PUSH2 0x2F5 JUMPI PUSH2 0x2CB PUSH32 0x743791ED120D099B4C527E3BCEF5A2E69C738C483EDE167D034FB7A031AFA944 SWAP4 PUSH1 0x40 MLOAD SWAP4 DUP5 SWAP4 DUP5 PUSH1 0x40 SWAP2 SWAP5 SWAP4 SWAP3 PUSH1 0x60 DUP3 ADD SWAP6 DUP3 MSTORE PUSH1 0x20 DUP3 ADD MSTORE ADD MSTORE JUMP JUMPDEST PUSH2 0x10A5 SWAP3 POP DUP1 RETURNDATASIZE LT PUSH2 0x32D JUMPI PUSH2 0x31E DUP2 DUP4 PUSH2 0x13C8 JUMP JUMPDEST PUSH0 DUP1 PUSH2 0x1046 JUMP JUMPDEST PUSH2 0x10C3 SWAP2 POP DUP5 RETURNDATASIZE DUP7 GT PUSH2 0x32D JUMPI PUSH2 0x31E DUP2 DUP4 PUSH2 0x13C8 JUMP JUMPDEST PUSH0 PUSH2 0x100B JUMP JUMPDEST PUSH1 0x40 MLOAD RETURNDATASIZE DUP14 DUP3 RETURNDATACOPY RETURNDATASIZE SWAP1 REVERT JUMPDEST PUSH2 0x10EC SWAP2 SWAP3 POP DUP4 RETURNDATASIZE DUP6 GT PUSH2 0x38F JUMPI PUSH2 0x380 DUP2 DUP4 PUSH2 0x13C8 JUMP JUMPDEST SWAP1 PUSH0 PUSH2 0xFCD JUMP JUMPDEST PUSH1 0x4 SWAP3 SWAP2 SWAP11 POP PUSH2 0x1102 SWAP1 PUSH2 0x137F JUMP JUMPDEST DUP3 PUSH0 SWAP11 SWAP2 SWAP3 POP PUSH2 0xFA6 JUMP JUMPDEST PUSH1 0x40 MLOAD RETURNDATASIZE PUSH0 DUP3 RETURNDATACOPY RETURNDATASIZE SWAP1 REVERT JUMPDEST SWAP1 POP DUP4 DUP2 DUP2 RETURNDATASIZE DUP4 GT PUSH2 0x1140 JUMPI JUMPDEST PUSH2 0x112F DUP2 DUP4 PUSH2 0x13C8 JUMP JUMPDEST DUP2 ADD SUB SLT PUSH2 0x3F1 JUMPI MLOAD PUSH2 0xF51 PUSH2 0xF43 JUMP JUMPDEST POP RETURNDATASIZE PUSH2 0x1125 JUMP JUMPDEST PUSH1 0x40 MLOAD PUSH4 0x8199F5F3 PUSH1 0xE0 SHL DUP2 MSTORE PUSH1 0x4 SWAP1 REVERT JUMPDEST POP DUP4 PUSH1 0x1 SHR DUP7 LT PUSH2 0xF1C JUMP JUMPDEST POP DUP4 DUP3 DUP2 RETURNDATASIZE DUP4 GT PUSH2 0x118D JUMPI JUMPDEST PUSH2 0x117B DUP2 DUP4 PUSH2 0x13C8 JUMP JUMPDEST DUP2 ADD SUB SLT PUSH2 0x3F1 JUMPI PUSH2 0xF08 SWAP2 MLOAD PUSH2 0xEFE JUMP JUMPDEST POP RETURNDATASIZE PUSH2 0x1171 JUMP JUMPDEST PUSH2 0xED8 JUMP JUMPDEST SWAP2 SWAP3 SWAP1 SWAP4 POP DUP7 DUP3 DUP2 RETURNDATASIZE DUP4 GT PUSH2 0x11C7 JUMPI JUMPDEST PUSH2 0x11B3 DUP2 DUP4 PUSH2 0x13C8 JUMP JUMPDEST DUP2 ADD SUB SLT PUSH2 0x3F1 JUMPI SWAP1 MLOAD SWAP3 SWAP1 SWAP2 SWAP1 PUSH0 PUSH2 0xE98 JUMP JUMPDEST POP RETURNDATASIZE PUSH2 0x11A9 JUMP JUMPDEST PUSH2 0x11E4 SWAP1 DUP6 RETURNDATASIZE DUP8 GT PUSH2 0x32D JUMPI PUSH2 0x31E DUP2 DUP4 PUSH2 0x13C8 JUMP JUMPDEST POP PUSH0 PUSH2 0xE66 JUMP JUMPDEST PUSH2 0x1202 SWAP2 POP DUP7 RETURNDATASIZE DUP9 GT PUSH2 0x32D JUMPI PUSH2 0x31E DUP2 DUP4 PUSH2 0x13C8 JUMP JUMPDEST PUSH0 PUSH2 0xE27 JUMP JUMPDEST PUSH1 0x40 MLOAD PUSH4 0xCEC13F7B PUSH1 0xE0 SHL DUP2 MSTORE PUSH1 0x4 SWAP1 REVERT JUMPDEST PUSH2 0x1231 SWAP2 POP DUP7 RETURNDATASIZE DUP9 GT PUSH2 0x32D JUMPI PUSH2 0x31E DUP2 DUP4 PUSH2 0x13C8 JUMP JUMPDEST PUSH0 PUSH2 0xDE5 JUMP JUMPDEST PUSH2 0x124E SWAP2 POP DUP8 RETURNDATASIZE DUP10 GT PUSH2 0x32D JUMPI PUSH2 0x31E DUP2 DUP4 PUSH2 0x13C8 JUMP JUMPDEST PUSH0 PUSH2 0xDB7 JUMP JUMPDEST CALLVALUE PUSH2 0x3F1 JUMPI PUSH1 0x20 CALLDATASIZE PUSH1 0x3 NOT ADD SLT PUSH2 0x3F1 JUMPI PUSH2 0x126D PUSH2 0x12D2 JUMP JUMPDEST PUSH1 0x1 SLOAD PUSH1 0x1 PUSH1 0x1 PUSH1 0xA0 SHL SUB SWAP3 SWAP1 DUP4 AND CALLER SUB PUSH2 0x12C3 JUMPI POP AND DUP1 PUSH12 0xFFFFFFFFFFFFFFFFFFFFFFFF PUSH1 0xA0 SHL PUSH1 0x2 SLOAD AND OR PUSH1 0x2 SSTORE PUSH32 0xF3F625A7D9E02778AFDFDF1BEA978D6565840D408866C70F5D25AADF77021D70 PUSH0 DUP1 LOG2 STOP JUMPDEST PUSH4 0x636A157 PUSH1 0xE1 SHL DUP2 MSTORE PUSH1 0x4 SWAP1 REVERT JUMPDEST PUSH1 0x4 CALLDATALOAD SWAP1 PUSH1 0x1 PUSH1 0x1 PUSH1 0xA0 SHL SUB DUP3 AND DUP3 SUB PUSH2 0x3F1 JUMPI JUMP JUMPDEST PUSH1 0x24 CALLDATALOAD SWAP1 PUSH1 0x1 PUSH1 0x1 PUSH1 0xA0 SHL SUB DUP3 AND DUP3 SUB PUSH2 0x3F1 JUMPI JUMP JUMPDEST PUSH1 0x44 CALLDATALOAD SWAP1 PUSH1 0x1 PUSH1 0x1 PUSH1 0xA0 SHL SUB DUP3 AND DUP3 SUB PUSH2 0x3F1 JUMPI JUMP JUMPDEST SWAP2 DUP2 PUSH1 0x1F DUP5 ADD SLT ISZERO PUSH2 0x3F1 JUMPI DUP3 CALLDATALOAD SWAP2 PUSH1 0x1 PUSH1 0x1 PUSH1 0x40 SHL SUB DUP4 GT PUSH2 0x3F1 JUMPI PUSH1 0x20 DUP4 DUP2 DUP7 ADD SWAP6 ADD ADD GT PUSH2 0x3F1 JUMPI JUMP JUMPDEST SWAP2 SWAP1 DUP3 MLOAD SWAP3 DUP4 DUP3 MSTORE PUSH0 JUMPDEST DUP5 DUP2 LT PUSH2 0x136B JUMPI POP POP DUP3 PUSH0 PUSH1 0x20 DUP1 SWAP5 SWAP6 DUP5 ADD ADD MSTORE PUSH1 0x1F DUP1 NOT SWAP2 ADD AND ADD ADD SWAP1 JUMP JUMPDEST PUSH1 0x20 DUP2 DUP4 ADD DUP2 ADD MLOAD DUP5 DUP4 ADD DUP3 ADD MSTORE ADD PUSH2 0x134B JUMP JUMPDEST PUSH1 0x1 PUSH1 0x1 PUSH1 0x40 SHL SUB DUP2 GT PUSH2 0xB4E JUMPI PUSH1 0x40 MSTORE JUMP JUMPDEST PUSH1 0x40 DUP2 ADD SWAP1 DUP2 LT PUSH1 0x1 PUSH1 0x1 PUSH1 0x40 SHL SUB DUP3 GT OR PUSH2 0xB4E JUMPI PUSH1 0x40 MSTORE JUMP JUMPDEST PUSH1 0xC0 DUP2 ADD SWAP1 DUP2 LT PUSH1 0x1 PUSH1 0x1 PUSH1 0x40 SHL SUB DUP3 GT OR PUSH2 0xB4E JUMPI PUSH1 0x40 MSTORE JUMP JUMPDEST SWAP1 PUSH1 0x1F DUP1 NOT SWAP2 ADD AND DUP2 ADD SWAP1 DUP2 LT PUSH1 0x1 PUSH1 0x1 PUSH1 0x40 SHL SUB DUP3 GT OR PUSH2 0xB4E JUMPI PUSH1 0x40 MSTORE JUMP JUMPDEST SWAP1 DUP2 PUSH1 0x20 SWAP2 SUB SLT PUSH2 0x3F1 JUMPI MLOAD DUP1 ISZERO ISZERO DUP2 SUB PUSH2 0x3F1 JUMPI SWAP1 JUMP JUMPDEST PUSH1 0x1 PUSH1 0x1 PUSH1 0x40 SHL SUB DUP2 GT PUSH2 0xB4E JUMPI PUSH1 0x1F ADD PUSH1 0x1F NOT AND PUSH1 0x20 ADD SWAP1 JUMP JUMPDEST SWAP2 SWAP1 DUP3 SUB SWAP2 DUP3 GT PUSH2 0x1429 JUMPI JUMP JUMPDEST PUSH4 0x4E487B71 PUSH1 0xE0 SHL PUSH0 MSTORE PUSH1 0x11 PUSH1 0x4 MSTORE PUSH1 0x24 PUSH0 REVERT JUMPDEST DUP2 DUP2 MUL SWAP3 SWAP2 DUP2 ISZERO SWAP2 DUP5 DIV EQ OR ISZERO PUSH2 0x1429 JUMPI JUMP JUMPDEST SWAP1 DUP2 PUSH1 0x20 SWAP2 SUB SLT PUSH2 0x3F1 JUMPI MLOAD PUSH1 0x1 PUSH1 0x1 PUSH1 0xA0 SHL SUB DUP2 AND DUP2 SUB PUSH2 0x3F1 JUMPI SWAP1 JUMP JUMPDEST PUSH32 0x9B779B17422D0DF92223018B32B4D1FA46E071723D6817E2486D003BECC55F00 PUSH1 0x2 DUP2 SLOAD EQ PUSH2 0x149F JUMPI PUSH1 0x2 SWAP1 SSTORE JUMP JUMPDEST PUSH1 0x40 MLOAD PUSH4 0x3EE5AEB5 PUSH1 0xE0 SHL DUP2 MSTORE PUSH1 0x4 SWAP1 REVERT JUMPDEST PUSH1 0x2 SLOAD SWAP4 SWAP6 PUSH1 0x1 PUSH1 0x1 PUSH1 0xA0 SHL SUB SWAP5 DUP6 AND SWAP6 SWAP3 SWAP4 SWAP1 SWAP3 SWAP2 SWAP1 DUP7 ISZERO PUSH2 0x16BE JUMPI PUSH1 0x40 SWAP8 DUP9 MLOAD SWAP2 DUP8 PUSH1 0x20 SWAP8 DUP9 DUP6 ADD SWAP6 PUSH32 0xDF2547F32AA5F7BD0D10BA8CD1C90409DDFCDCC012C7B9D004FAD2D87C5D84E8 DUP8 MSTORE DUP13 DUP7 ADD MSTORE AND PUSH1 0x60 DUP5 ADD MSTORE PUSH1 0x80 DUP4 ADD MSTORE PUSH1 0xA0 DUP3 ADD MSTORE PUSH1 0xA0 DUP2 MSTORE PUSH2 0x1520 DUP2 PUSH2 0x13AD JUMP JUMPDEST MLOAD SWAP1 KECCAK256 DUP7 MLOAD PUSH0 SWAP1 PUSH0 DUP1 MLOAD PUSH1 0x20 PUSH2 0x1930 DUP4 CODECOPY DUP2 MLOAD SWAP2 MSTORE SWAP2 DUP3 SLOAD PUSH2 0x1541 DUP2 PUSH2 0x16C8 JUMP JUMPDEST SWAP1 DUP2 DUP5 MSTORE DUP9 DUP5 ADD SWAP5 PUSH1 0x1 SWAP2 DUP11 PUSH1 0x1 DUP3 AND SWAP2 DUP3 PUSH0 EQ PUSH2 0x169A JUMPI POP POP PUSH1 0x1 EQ PUSH2 0x164A JUMPI JUMPDEST POP POP POP SWAP1 PUSH2 0x1577 DUP2 PUSH1 0x42 SWAP6 SWAP5 SWAP4 SUB DUP3 PUSH2 0x13C8 JUMP JUMPDEST MLOAD SWAP1 KECCAK256 PUSH2 0x1582 PUSH2 0x1700 JUMP JUMPDEST DUP7 DUP2 MLOAD SWAP2 ADD KECCAK256 DUP10 MLOAD SWAP1 DUP8 DUP3 ADD SWAP3 PUSH32 0x8B73C3C69BB8FE3D512ECC4CF759CC79239F7B179B0FFACAA9A75D522B39400F DUP5 MSTORE DUP12 DUP4 ADD MSTORE PUSH1 0x60 DUP3 ADD MSTORE CHAINID PUSH1 0x80 DUP3 ADD MSTORE ADDRESS PUSH1 0xA0 DUP3 ADD MSTORE PUSH1 0xA0 DUP2 MSTORE PUSH2 0x15D4 DUP2 PUSH2 0x13AD JUMP JUMPDEST MLOAD SWAP1 KECCAK256 SWAP1 DUP9 MLOAD SWAP2 PUSH2 0x1901 PUSH1 0xF0 SHL DUP4 MSTORE PUSH1 0x2 DUP4 ADD MSTORE PUSH1 0x22 DUP3 ADD MSTORE KECCAK256 PUSH2 0x15F7 DUP4 PUSH2 0x1401 JUMP JUMPDEST SWAP2 PUSH2 0x1604 DUP9 MLOAD SWAP4 DUP5 PUSH2 0x13C8 JUMP JUMPDEST DUP4 DUP4 MSTORE CALLDATASIZE DUP5 DUP3 ADD GT PUSH2 0x3F1 JUMPI DUP5 DUP5 PUSH2 0x1628 SWAP6 PUSH0 SWAP4 PUSH2 0x1631 SWAP9 DUP8 ADD CALLDATACOPY DUP5 ADD ADD MSTORE PUSH2 0x17F0 JUMP JUMPDEST SWAP1 SWAP3 SWAP2 SWAP3 PUSH2 0x182A JUMP JUMPDEST AND SUB PUSH2 0x163A JUMPI POP JUMP JUMPDEST MLOAD PUSH4 0x8BAA579F PUSH1 0xE0 SHL DUP2 MSTORE PUSH1 0x4 SWAP1 REVERT JUMPDEST DUP10 SWAP3 SWAP7 SWAP6 SWAP5 SWAP4 POP PUSH0 MSTORE PUSH0 DUP1 MLOAD PUSH1 0x20 PUSH2 0x1970 DUP4 CODECOPY DUP2 MLOAD SWAP2 MSTORE SWAP6 PUSH0 SWAP2 JUMPDEST DUP2 DUP4 LT PUSH2 0x1683 JUMPI POP SWAP5 SWAP6 POP SWAP3 SWAP4 POP SWAP1 SWAP2 DUP3 ADD ADD PUSH2 0x1577 DUP3 PUSH1 0x42 PUSH2 0x1563 JUMP JUMPDEST DUP8 SLOAD DUP6 DUP5 ADD DUP6 ADD MSTORE SWAP7 DUP8 ADD SWAP7 DUP11 SWAP4 SWAP1 SWAP3 ADD SWAP2 PUSH2 0x1665 JUMP JUMPDEST PUSH1 0xFF NOT AND DUP9 MSTORE SWAP4 ISZERO ISZERO PUSH1 0x5 SHL DUP7 ADD SWAP1 SWAP4 ADD SWAP4 POP PUSH2 0x1577 SWAP3 POP DUP5 SWAP2 POP PUSH1 0x42 SWAP1 POP PUSH2 0x1563 JUMP JUMPDEST POP POP POP POP POP POP POP POP JUMP JUMPDEST SWAP1 PUSH1 0x1 DUP3 DUP2 SHR SWAP3 AND DUP1 ISZERO PUSH2 0x16F6 JUMPI JUMPDEST PUSH1 0x20 DUP4 LT EQ PUSH2 0x16E2 JUMPI JUMP JUMPDEST PUSH4 0x4E487B71 PUSH1 0xE0 SHL PUSH0 MSTORE PUSH1 0x22 PUSH1 0x4 MSTORE PUSH1 0x24 PUSH0 REVERT JUMPDEST SWAP2 PUSH1 0x7F AND SWAP2 PUSH2 0x16D7 JUMP JUMPDEST PUSH1 0x40 MLOAD SWAP1 PUSH0 DUP3 PUSH0 DUP1 MLOAD PUSH1 0x20 PUSH2 0x1950 DUP4 CODECOPY DUP2 MLOAD SWAP2 MSTORE SWAP2 DUP3 SLOAD SWAP3 PUSH2 0x1721 DUP5 PUSH2 0x16C8 JUMP JUMPDEST DUP1 DUP5 MSTORE SWAP4 PUSH1 0x20 SWAP2 PUSH1 0x1 SWAP2 DUP3 DUP2 AND SWAP1 DUP2 ISZERO PUSH2 0x179C JUMPI POP PUSH1 0x1 EQ PUSH2 0x174F JUMPI JUMPDEST POP POP POP PUSH2 0x174D SWAP3 POP SUB DUP4 PUSH2 0x13C8 JUMP JUMPDEST JUMP JUMPDEST PUSH0 SWAP1 DUP2 MSTORE PUSH0 DUP1 MLOAD PUSH1 0x20 PUSH2 0x19B0 DUP4 CODECOPY DUP2 MLOAD SWAP2 MSTORE SWAP6 SWAP1 SWAP4 POP SWAP2 SWAP1 JUMPDEST DUP3 DUP5 LT PUSH2 0x1784 JUMPI POP PUSH2 0x174D SWAP5 POP POP POP DUP2 ADD PUSH1 0x20 ADD PUSH0 DUP1 DUP1 PUSH2 0x173E JUMP JUMPDEST DUP6 SLOAD DUP9 DUP6 ADD DUP4 ADD MSTORE SWAP5 DUP6 ADD SWAP5 DUP8 SWAP5 POP SWAP3 DUP2 ADD SWAP3 PUSH2 0x1768 JUMP JUMPDEST SWAP3 POP POP POP PUSH1 0x20 SWAP3 POP PUSH2 0x174D SWAP5 SWAP2 POP PUSH1 0xFF NOT AND DUP3 DUP5 ADD MSTORE ISZERO ISZERO PUSH1 0x5 SHL DUP3 ADD ADD PUSH0 DUP1 DUP1 PUSH2 0x173E JUMP JUMPDEST PUSH1 0xFF PUSH0 DUP1 MLOAD PUSH1 0x20 PUSH2 0x1990 DUP4 CODECOPY DUP2 MLOAD SWAP2 MSTORE SLOAD PUSH1 0x40 SHR AND ISZERO PUSH2 0x17DE JUMPI JUMP JUMPDEST PUSH1 0x40 MLOAD PUSH4 0x1AFCD79F PUSH1 0xE3 SHL DUP2 MSTORE PUSH1 0x4 SWAP1 REVERT JUMPDEST DUP2 MLOAD SWAP2 SWAP1 PUSH1 0x41 DUP4 SUB PUSH2 0x1820 JUMPI PUSH2 0x1819 SWAP3 POP PUSH1 0x20 DUP3 ADD MLOAD SWAP1 PUSH1 0x60 PUSH1 0x40 DUP5 ADD MLOAD SWAP4 ADD MLOAD PUSH0 BYTE SWAP1 PUSH2 0x18AD JUMP JUMPDEST SWAP2 SWAP3 SWAP1 SWAP2 SWAP1 JUMP JUMPDEST POP POP PUSH0 SWAP2 PUSH1 0x2 SWAP2 SWAP1 JUMP JUMPDEST PUSH1 0x4 DUP2 LT ISZERO PUSH2 0x1899 JUMPI DUP1 PUSH2 0x183C JUMPI POP POP JUMP JUMPDEST PUSH1 0x1 DUP2 SUB PUSH2 0x1856 JUMPI PUSH1 0x40 MLOAD PUSH4 0xF645EEDF PUSH1 0xE0 SHL DUP2 MSTORE PUSH1 0x4 SWAP1 REVERT JUMPDEST PUSH1 0x2 DUP2 SUB PUSH2 0x1877 JUMPI PUSH1 0x40 MLOAD PUSH4 0xFCE698F7 PUSH1 0xE0 SHL DUP2 MSTORE PUSH1 0x4 DUP2 ADD DUP4 SWAP1 MSTORE PUSH1 0x24 SWAP1 REVERT JUMPDEST PUSH1 0x3 EQ PUSH2 0x1881 JUMPI POP JUMP JUMPDEST PUSH1 0x24 SWAP1 PUSH1 0x40 MLOAD SWAP1 PUSH4 0x35E2F383 PUSH1 0xE2 SHL DUP3 MSTORE PUSH1 0x4 DUP3 ADD MSTORE REVERT JUMPDEST PUSH4 0x4E487B71 PUSH1 0xE0 SHL PUSH0 MSTORE PUSH1 0x21 PUSH1 0x4 MSTORE PUSH1 0x24 PUSH0 REVERT JUMPDEST SWAP2 SWAP1 PUSH32 0x7FFFFFFFFFFFFFFFFFFFFFFFFFFFFFFF5D576E7357A4501DDFE92F46681B20A0 DUP5 GT PUSH2 0x1924 JUMPI SWAP2 PUSH1 0x20 SWAP4 PUSH1 0x80 SWAP3 PUSH1 0xFF PUSH0 SWAP6 PUSH1 0x40 MLOAD SWAP5 DUP6 MSTORE AND DUP7 DUP5 ADD MSTORE PUSH1 0x40 DUP4 ADD MSTORE PUSH1 0x60 DUP3 ADD MSTORE DUP3 DUP1 MSTORE PUSH1 0x1 GAS STATICCALL ISZERO PUSH2 0x110D JUMPI PUSH0 MLOAD PUSH1 0x1 PUSH1 0x1 PUSH1 0xA0 SHL SUB DUP2 AND ISZERO PUSH2 0x191A JUMPI SWAP1 PUSH0 SWAP1 PUSH0 SWAP1 JUMP JUMPDEST POP PUSH0 SWAP1 PUSH1 0x1 SWAP1 PUSH0 SWAP1 JUMP JUMPDEST POP POP POP PUSH0 SWAP2 PUSH1 0x3 SWAP2 SWAP1 JUMP INVALID LOG1 PUSH11 0x46D94261C7517CC8FF89F6 SHR 0xC 0xE9 CALLDATALOAD SWAP9 0xE3 0xC8 BLOBHASH DUP1 LT GT 0xDE 0xE6 BLOBHASH 0xA6 0xA5 JUMPI 0xD1 MUL LOG1 PUSH11 0x46D94261C7517CC8FF89F6 SHR 0xC 0xE9 CALLDATALOAD SWAP9 0xE3 0xC8 BLOBHASH DUP1 LT GT 0xDE 0xE6 BLOBHASH 0xA6 0xA5 JUMPI 0xD1 SUB TIMESTAMP 0xAD TSTORE RETURNDATACOPY 0x1F 0x2E PUSH15 0x70EDCF6D991B8A3023D3FCA8047A13 ISZERO SWAP3 0xF9 0xED 0xB9 REVERT SWAP12 DUP10 0xD5 PUSH30 0xF0C57E16840DF040F15088DC2F81FE391C3923BEC73E23A9662EFC9C229C PUSH11 0x5F9CE34815F8E11431C7 0xBB PUSH22 0xA8E6886A91478F7FFC1DBB0A98DC240FDDD76B75A264 PUSH10 0x706673582212208DFDF3 0xEF JUMP KECCAK256 0xA6 CALLVALUE PUSH8 0xC65933244D721947 SGT PREVRANDAO PUSH30 0xF9075FFD863A2F979922B13C64736F6C6343000818003300000000000000 "},"methodIdentifiers":{"AUTHORIZED_PAYMENT_TYPEHASH()":"bcc2a046","authorizer()":"d09edf31","eip712Domain()":"84b0196e","factory()":"c45a0155","initialize(address,address,address)":"c0c53b8b","merchantAddress()":"9df8ed43","payDirect(bytes32,address,uint256,uint256,bytes)":"e47c6f3c","payWithSwap(bytes32,address,address,uint256,uint256,uint256,address,address,bytes,bytes)":"0d374224","rescueToken(address,uint256)":"33f3d628","setAuthorizer(address)":"058a628f"}}}}}