{
  "_format": "hh-sol-artifact-1",
  "contractName": "SplitterLogic",
  "sourceName": "contracts/tron/SplitterLogic.sol",
  "abi": [
    {
      "inputs": [],
      "name": "AlreadyInitialized",
      "type": "error"
    },
    {
      "inputs": [],
      "name": "FactoryPaused",
      "type": "error"
    },
    {
      "inputs": [],
      "name": "InvalidSignature",
      "type": "error"
    },
    {
      "inputs": [],
      "name": "OnlyFactory",
      "type": "error"
    },
    {
      "inputs": [],
      "name": "PaymentExpired",
      "type": "error"
    },
    {
      "inputs": [],
      "name": "ReentrantCall",
      "type": "error"
    },
    {
      "inputs": [],
      "name": "RouterNotAllowed",
      "type": "error"
    },
    {
      "inputs": [],
      "name": "SlippageExceeded",
      "type": "error"
    },
    {
      "inputs": [],
      "name": "TransferFailed",
      "type": "error"
    },
    {
      "inputs": [],
      "name": "ZeroAddress",
      "type": "error"
    },
    {
      "anonymous": false,
      "inputs": [
        {
          "indexed": true,
          "internalType": "address",
          "name": "newAuthorizer",
          "type": "address"
        }
      ],
      "name": "AuthorizerUpdated",
      "type": "event"
    },
    {
      "anonymous": false,
      "inputs": [
        {
          "indexed": true,
          "internalType": "bytes32",
          "name": "paymentId",
          "type": "bytes32"
        },
        {
          "indexed": true,
          "internalType": "address",
          "name": "tokenIn",
          "type": "address"
        },
        {
          "indexed": true,
          "internalType": "address",
          "name": "tokenOut",
          "type": "address"
        },
        {
          "indexed": false,
          "internalType": "uint256",
          "name": "amountIn",
          "type": "uint256"
        },
        {
          "indexed": false,
          "internalType": "uint256",
          "name": "merchantReceived",
          "type": "uint256"
        },
        {
          "indexed": false,
          "internalType": "uint256",
          "name": "devFee",
          "type": "uint256"
        }
      ],
      "name": "PaymentProcessed",
      "type": "event"
    },
    {
      "inputs": [],
      "name": "authorizer",
      "outputs": [
        {
          "internalType": "address",
          "name": "",
          "type": "address"
        }
      ],
      "stateMutability": "view",
      "type": "function"
    },
    {
      "inputs": [],
      "name": "factory",
      "outputs": [
        {
          "internalType": "address",
          "name": "",
          "type": "address"
        }
      ],
      "stateMutability": "view",
      "type": "function"
    },
    {
      "inputs": [
        {
          "internalType": "address",
          "name": "_merchantAddress",
          "type": "address"
        },
        {
          "internalType": "address",
          "name": "_factory",
          "type": "address"
        },
        {
          "internalType": "address",
          "name": "_authorizer",
          "type": "address"
        }
      ],
      "name": "initialize",
      "outputs": [],
      "stateMutability": "nonpayable",
      "type": "function"
    },
    {
      "inputs": [],
      "name": "merchantAddress",
      "outputs": [
        {
          "internalType": "address",
          "name": "",
          "type": "address"
        }
      ],
      "stateMutability": "view",
      "type": "function"
    },
    {
      "inputs": [
        {
          "internalType": "bytes32",
          "name": "paymentId",
          "type": "bytes32"
        },
        {
          "internalType": "address",
          "name": "token",
          "type": "address"
        },
        {
          "internalType": "uint256",
          "name": "amount",
          "type": "uint256"
        },
        {
          "internalType": "uint256",
          "name": "expiry",
          "type": "uint256"
        },
        {
          "internalType": "bytes",
          "name": "signature",
          "type": "bytes"
        }
      ],
      "name": "payDirect",
      "outputs": [],
      "stateMutability": "nonpayable",
      "type": "function"
    },
    {
      "inputs": [
        {
          "internalType": "bytes32",
          "name": "paymentId",
          "type": "bytes32"
        },
        {
          "internalType": "address",
          "name": "tokenIn",
          "type": "address"
        },
        {
          "internalType": "address",
          "name": "tokenOut",
          "type": "address"
        },
        {
          "internalType": "uint256",
          "name": "amountIn",
          "type": "uint256"
        },
        {
          "internalType": "uint256",
          "name": "minAmountOut",
          "type": "uint256"
        },
        {
          "internalType": "uint256",
          "name": "expiry",
          "type": "uint256"
        },
        {
          "internalType": "address",
          "name": "router",
          "type": "address"
        },
        {
          "internalType": "address",
          "name": "spender",
          "type": "address"
        },
        {
          "internalType": "bytes",
          "name": "swapData",
          "type": "bytes"
        },
        {
          "internalType": "bytes",
          "name": "signature",
          "type": "bytes"
        }
      ],
      "name": "payWithSwap",
      "outputs": [],
      "stateMutability": "nonpayable",
      "type": "function"
    },
    {
      "inputs": [
        {
          "internalType": "address",
          "name": "token",
          "type": "address"
        },
        {
          "internalType": "uint256",
          "name": "amount",
          "type": "uint256"
        }
      ],
      "name": "rescueToken",
      "outputs": [],
      "stateMutability": "nonpayable",
      "type": "function"
    },
    {
      "inputs": [
        {
          "internalType": "address",
          "name": "_newAuthorizer",
          "type": "address"
        }
      ],
      "name": "setAuthorizer",
      "outputs": [],
      "stateMutability": "nonpayable",
      "type": "function"
    }
  ],
  "bytecode": "0x608080604052346100165761105d908161001b8239f35b5f80fdfe60806040818152600480361015610014575f80fd5b5f925f3560e01c908163058a628f14610cfc575080630d3742241461068d57806333f3d628146105705780639df8ed4314610548578063c0c53b8b14610493578063c45a01551461046a578063d09edf311461043d5763e47c6f3c14610078575f80fd5b346104395760a0366003190112610439578035610093610d92565b6044356064359460843567ffffffffffffffff8111610435576100b99036908701610dbe565b906002549760ff8960a81c166104255760ff60a81b19988916600160a81b1760025542811061041557906100f09291858789610ea1565b6001548151635c975abb60e01b81526001600160a01b039182169691929190602090818184818c5afa908115610312578b916103f8575b506103e95782516324a9d85360e01b8152818184818c5afa908115610312578b916103b6575b5061015b6127109187610e6f565b04936101678587610e4e565b96893b156103a857845163846fa34d60e01b81528085018a81526001600160a01b0383166020820152604081018990528d9190829082908e9082908490829060600103925af180156103ac579186949391869361038c575b505082169a86519384809263caccd7f760e01b82525afa918215610382578c92610353575b5089838d875192838092816102268d6323b872dd60e01b9a8b84528d3390850160409194939294606082019560018060a01b0380921683521660208201520152565b03925af1908115610349578d9161032c575b501561031c578b5485519283523385840190815291166001600160a01b0316602082015260408101889052829082908d908290819060600103918d5af1918215610312578b926102e5575b5050156102d7575051918252602082019290925260408101919091528291907f743791ed120d099b4c527e3bcef5a2e69c738c483ede167d034fb7a031afa9449080606081015b0390a46002541660025580f35b90516312171d8360e31b8152fd5b6103049250803d1061030b575b6102fc8183610e14565b810190610e36565b5f80610283565b503d6102f2565b84513d8d823e3d90fd5b84516312171d8360e31b81528490fd5b6103439150843d861161030b576102fc8183610e14565b5f610238565b86513d8f823e3d90fd5b610374919250833d851161037b575b61036c8183610e14565b810190610e82565b905f6101e4565b503d610362565b85513d8e823e3d90fd5b90925061039a919450610dec565b6103a8578284928d5f6101bf565b8b80fd5b87513d84823e3d90fd5b90508181813d83116103e2575b6103cd8183610e14565b810103126103de575161015b61014d565b5f80fd5b503d6103c3565b509051633461791360e11b8152fd5b61040f9150823d841161030b576102fc8183610e14565b5f610127565b8351630664b28b60e41b81528890fd5b83516306fda65d60e31b81528890fd5b8780fd5b8280fd5b50503461046657816003193601126104665760025490516001600160a01b039091168152602090f35b5080fd5b50503461046657816003193601126104665760015490516001600160a01b039091168152602090f35b5034610439576060366003190112610439576104ad610d7c565b6104b5610d92565b926104be610da8565b936002549360ff8560a01c1661053b576001600160a01b039384169283158015610531575b61052457505085546001600160a01b03199081169092178655600180549092169083161790556001600160a81b0319909116911617600160a01b1760025580f35b5163d92e233d60e01b8152fd5b50848316156104e3565b825162dc149f60e41b8152fd5b505034610466578160031936011261046657905490516001600160a01b039091168152602090f35b50903461043957806003193601126104395761058a610d7c565b6001546001600160a01b03908116913383900361067d5783518093638da5cb5b60e01b8252818760209687935afa90811561067357916106049185938991610656575b50865163a9059cbb60e01b81526001600160a01b0390911688820190815260243560208201529094859384928b9291849160400190565b0393165af191821561064c57859261062f575b505015610622578280f35b516312171d8360e31b8152fd5b6106459250803d1061030b576102fc8183610e14565b5f80610617565b83513d87823e3d90fd5b61066d9150843d861161037b5761036c8183610e14565b5f6105cd565b85513d89823e3d90fd5b50505051630636a15760e11b8152fd5b509190346103de576101403660031901126103de578235926106ad610d92565b936106b6610da8565b6001600160a01b039360c4359360643593929186861686036103de5760e4359187831683036103de5767ffffffffffffffff92610104358481116103de576107019036908401610dbe565b9990610124359a868c116103de5761071e60ff9c36908701610dbe565b906002549d8e60a81c16610cec5760ff60a81b199d8e16600160a81b1760025560a4354211610cdc57908f918b8d6107599460a43592610ea1565b826001541696865194635c975abb60e01b8652602095868189818d5afa908115610c78575f91610cbf575b50610caf5787516361771e4960e01b8152858e168882015286816024818d5afa908115610c78575f91610c92575b5015610c82578b9c9d9e9f8686610806929e9c9d9e169e8f8a5f8d518096819582946323b872dd60e01b845230903390850160409194939294606082019560018060a01b0380921683521660208201520152565b03925af1908115610c78575f91610c5b575b5015610c4b57875163095ea7b360e01b81526001600160a01b03909116818801908152602081018b9052869082908f9082905f90829060400103925af18015610c4157610c24575b50838a169c8d9288519487866024816370a0823160e01b988982528d30908301525afa958615610c1a575f96610be5575b5091815f809481948d519384928337810182815203925af1903d15610bdf573d908111610bcc578751906108ce601f8201601f1916880183610e14565b81525f863d92013e5b15610bbc57855190815230858201529083826024818f5afa8015610b38575f90610b8d575b6109069250610e4e565b946084358610610b71578a8a141580610b81575b610b715784516324a9d85360e01b815283818681855afa908115610b38575f91610b42575b5061094d6127109188610e6f565b04956109598782610e4e565b98823b156103de57865163846fa34d60e01b81528681018c81526001600160a01b03909216602083015260408201929092525f9082908190606001038183865af18015610b3857610b23575b5083838e9287519283809263caccd7f760e01b82525afa908115610b195784888e8594610a07948a989791610afc575b50858b5180968195829463a9059cbb60e01b9c8d8552840160209093929193604081019460018060a01b031681520152565b03925af1918215610af15791610ad4575b501561031c57878b610a53938f86948154169189519687958694859384528b840160209093929193604081019460018060a01b031681520152565b03925af1918215610aca578c92610aad575b5050156102d7575051918252602082019290925260408101919091527f743791ed120d099b4c527e3bcef5a2e69c738c483ede167d034fb7a031afa9449080606081016102ca565b610ac39250803d1061030b576102fc8183610e14565b5f80610a65565b84513d8e823e3d90fd5b610aeb9150843d861161030b576102fc8183610e14565b5f610a18565b8751903d90823e3d90fd5b610b139150843d861161037b5761036c8183610e14565b5f6109d5565b86513d84823e3d90fd5b839d50610b2f90610dec565b835f9d506109a5565b86513d5f823e3d90fd5b90508381813d8311610b6a575b610b598183610e14565b810103126103de575161094d61093f565b503d610b4f565b8451638199f5f360e01b81528490fd5b508660011c861061091a565b508382813d8311610bb5575b610ba38183610e14565b810103126103de5761090691516108fc565b503d610b99565b85516312171d8360e31b81528590fd5b604187634e487b7160e01b5f525260245ffd5b506108d7565b91929095508782813d8311610c13575b610bff8183610e14565b810103126103de579051949091905f610891565b503d610bf5565b8a513d5f823e3d90fd5b610c3a90863d881161030b576102fc8183610e14565b505f610860565b88513d5f823e3d90fd5b87516312171d8360e31b81528790fd5b610c729150873d891161030b576102fc8183610e14565b5f610818565b89513d5f823e3d90fd5b875163cec13f7b60e01b81528790fd5b610ca99150873d891161030b576102fc8183610e14565b5f6107b2565b8751633461791360e11b81528790fd5b610cd69150873d891161030b576102fc8183610e14565b5f610784565b8751630664b28b60e41b81528790fd5b87516306fda65d60e31b81528790fd5b82346103de5760203660031901126103de57610d16610d7c565b6001546001600160a01b03939192919084163303610d7057505016806bffffffffffffffffffffffff60a01b60025416176002557ff3f625a7d9e02778afdfdf1bea978d6565840d408866c70f5d25aadf77021d705f80a2005b630636a15760e11b8152fd5b600435906001600160a01b03821682036103de57565b602435906001600160a01b03821682036103de57565b604435906001600160a01b03821682036103de57565b9181601f840112156103de5782359167ffffffffffffffff83116103de57602083818601950101116103de57565b67ffffffffffffffff8111610e0057604052565b634e487b7160e01b5f52604160045260245ffd5b90601f8019910116810190811067ffffffffffffffff821117610e0057604052565b908160209103126103de575180151581036103de5790565b91908203918211610e5b57565b634e487b7160e01b5f52601160045260245ffd5b81810292918115918404141715610e5b57565b908160209103126103de57516001600160a01b03811681036103de5790565b60025492956001600160a01b0393841695939490939290861561101d57604097885192602084019485526bffffffffffffffffffffffff199060601b1689840152605483015260748201526074815260a0810167ffffffffffffffff9282821084831117610e00578189528251902060c08301907f1954726f6e205369676e6564204d6573736167653a0a33320000000000000000825260d88401526038825261010083019382851090851117610e0057604191848a525190209403610fd7575050848101355f1a601b8110610fc5575b602092835f9360ff6080948a5194855216828401528035898401520135606082015282805260015afa15610fbb575f511603610fab5750565b51638baa579f60e01b8152600490fd5b82513d5f823e3d90fd5b601b019060ff8211610e5b5790610f72565b62461bcd60e51b8252602061010482015260186101248201527f496e76616c6964207369676e6174757265206c656e677468000000000000000061014490910152606490fd5b505050505050505056fea26469706673582212204dce2c08edab9869c02ed3a16fdd9a881bef62fce59b872c0a61525ee7d155f064736f6c63430008180033",
  "linkReferences": {},
  "deployedLinkReferences": {}
}