{
  "_format": "hh-sol-artifact-1",
  "contractName": "MerchantFactory",
  "sourceName": "contracts/tron/MerchantFactory.sol",
  "abi": [
    {
      "inputs": [
        {
          "internalType": "address",
          "name": "_devAddress",
          "type": "address"
        },
        {
          "internalType": "address",
          "name": "_splitterLogicImpl",
          "type": "address"
        }
      ],
      "stateMutability": "nonpayable",
      "type": "constructor"
    },
    {
      "anonymous": false,
      "inputs": [
        {
          "indexed": true,
          "internalType": "address",
          "name": "newAuthorizer",
          "type": "address"
        }
      ],
      "name": "AuthorizerUpdated",
      "type": "event"
    },
    {
      "anonymous": false,
      "inputs": [
        {
          "indexed": true,
          "internalType": "address",
          "name": "authorizer",
          "type": "address"
        }
      ],
      "name": "DefaultAuthorizerSet",
      "type": "event"
    },
    {
      "anonymous": false,
      "inputs": [
        {
          "indexed": true,
          "internalType": "address",
          "name": "merchant",
          "type": "address"
        },
        {
          "indexed": false,
          "internalType": "address",
          "name": "cloneAddress",
          "type": "address"
        }
      ],
      "name": "MerchantCloneDeployed",
      "type": "event"
    },
    {
      "anonymous": false,
      "inputs": [
        {
          "indexed": true,
          "internalType": "bytes32",
          "name": "paymentId",
          "type": "bytes32"
        },
        {
          "indexed": true,
          "internalType": "address",
          "name": "clone",
          "type": "address"
        },
        {
          "indexed": true,
          "internalType": "address",
          "name": "token",
          "type": "address"
        },
        {
          "indexed": false,
          "internalType": "uint256",
          "name": "amount",
          "type": "uint256"
        }
      ],
      "name": "PaymentRecorded",
      "type": "event"
    },
    {
      "anonymous": false,
      "inputs": [
        {
          "indexed": true,
          "internalType": "bytes32",
          "name": "requestId",
          "type": "bytes32"
        }
      ],
      "name": "RescueTokenCancelled",
      "type": "event"
    },
    {
      "anonymous": false,
      "inputs": [
        {
          "indexed": true,
          "internalType": "bytes32",
          "name": "requestId",
          "type": "bytes32"
        },
        {
          "indexed": true,
          "internalType": "address",
          "name": "clone",
          "type": "address"
        },
        {
          "indexed": false,
          "internalType": "address",
          "name": "token",
          "type": "address"
        },
        {
          "indexed": false,
          "internalType": "uint256",
          "name": "amount",
          "type": "uint256"
        }
      ],
      "name": "RescueTokenExecuted",
      "type": "event"
    },
    {
      "anonymous": false,
      "inputs": [
        {
          "indexed": true,
          "internalType": "bytes32",
          "name": "requestId",
          "type": "bytes32"
        },
        {
          "indexed": true,
          "internalType": "address",
          "name": "clone",
          "type": "address"
        },
        {
          "indexed": false,
          "internalType": "address",
          "name": "token",
          "type": "address"
        },
        {
          "indexed": false,
          "internalType": "uint256",
          "name": "amount",
          "type": "uint256"
        },
        {
          "indexed": false,
          "internalType": "uint256",
          "name": "executeTime",
          "type": "uint256"
        }
      ],
      "name": "RescueTokenProposed",
      "type": "event"
    },
    {
      "inputs": [],
      "name": "TIMELOCK_DELAY",
      "outputs": [
        {
          "internalType": "uint256",
          "name": "",
          "type": "uint256"
        }
      ],
      "stateMutability": "view",
      "type": "function"
    },
    {
      "inputs": [
        {
          "internalType": "address",
          "name": "",
          "type": "address"
        }
      ],
      "name": "allowedRouters",
      "outputs": [
        {
          "internalType": "bool",
          "name": "",
          "type": "bool"
        }
      ],
      "stateMutability": "view",
      "type": "function"
    },
    {
      "inputs": [],
      "name": "authorizer",
      "outputs": [
        {
          "internalType": "address",
          "name": "",
          "type": "address"
        }
      ],
      "stateMutability": "view",
      "type": "function"
    },
    {
      "inputs": [
        {
          "internalType": "bytes32",
          "name": "requestId",
          "type": "bytes32"
        }
      ],
      "name": "cancelRescueToken",
      "outputs": [],
      "stateMutability": "nonpayable",
      "type": "function"
    },
    {
      "inputs": [
        {
          "internalType": "address",
          "name": "merchant",
          "type": "address"
        },
        {
          "internalType": "address",
          "name": "_authorizer",
          "type": "address"
        }
      ],
      "name": "createMerchantSplitter",
      "outputs": [
        {
          "internalType": "address",
          "name": "",
          "type": "address"
        }
      ],
      "stateMutability": "nonpayable",
      "type": "function"
    },
    {
      "inputs": [
        {
          "internalType": "address",
          "name": "merchant",
          "type": "address"
        }
      ],
      "name": "createMerchantSplitter",
      "outputs": [
        {
          "internalType": "address",
          "name": "",
          "type": "address"
        }
      ],
      "stateMutability": "nonpayable",
      "type": "function"
    },
    {
      "inputs": [],
      "name": "developerAddress",
      "outputs": [
        {
          "internalType": "address",
          "name": "",
          "type": "address"
        }
      ],
      "stateMutability": "view",
      "type": "function"
    },
    {
      "inputs": [
        {
          "internalType": "bytes32",
          "name": "requestId",
          "type": "bytes32"
        }
      ],
      "name": "executeRescueToken",
      "outputs": [],
      "stateMutability": "nonpayable",
      "type": "function"
    },
    {
      "inputs": [],
      "name": "feeBps",
      "outputs": [
        {
          "internalType": "uint256",
          "name": "",
          "type": "uint256"
        }
      ],
      "stateMutability": "view",
      "type": "function"
    },
    {
      "inputs": [
        {
          "internalType": "bytes32",
          "name": "",
          "type": "bytes32"
        }
      ],
      "name": "globalProcessedPayments",
      "outputs": [
        {
          "internalType": "bool",
          "name": "",
          "type": "bool"
        }
      ],
      "stateMutability": "view",
      "type": "function"
    },
    {
      "inputs": [
        {
          "internalType": "address",
          "name": "",
          "type": "address"
        }
      ],
      "name": "isClone",
      "outputs": [
        {
          "internalType": "bool",
          "name": "",
          "type": "bool"
        }
      ],
      "stateMutability": "view",
      "type": "function"
    },
    {
      "inputs": [
        {
          "internalType": "address",
          "name": "router",
          "type": "address"
        }
      ],
      "name": "isRouterAllowed",
      "outputs": [
        {
          "internalType": "bool",
          "name": "",
          "type": "bool"
        }
      ],
      "stateMutability": "view",
      "type": "function"
    },
    {
      "inputs": [
        {
          "internalType": "address",
          "name": "token",
          "type": "address"
        },
        {
          "internalType": "uint256",
          "name": "amount",
          "type": "uint256"
        }
      ],
      "name": "merchantRescueToken",
      "outputs": [],
      "stateMutability": "nonpayable",
      "type": "function"
    },
    {
      "inputs": [
        {
          "internalType": "address",
          "name": "",
          "type": "address"
        }
      ],
      "name": "merchantSplitters",
      "outputs": [
        {
          "internalType": "address",
          "name": "",
          "type": "address"
        }
      ],
      "stateMutability": "view",
      "type": "function"
    },
    {
      "inputs": [],
      "name": "owner",
      "outputs": [
        {
          "internalType": "address",
          "name": "",
          "type": "address"
        }
      ],
      "stateMutability": "view",
      "type": "function"
    },
    {
      "inputs": [],
      "name": "pause",
      "outputs": [],
      "stateMutability": "nonpayable",
      "type": "function"
    },
    {
      "inputs": [],
      "name": "paused",
      "outputs": [
        {
          "internalType": "bool",
          "name": "",
          "type": "bool"
        }
      ],
      "stateMutability": "view",
      "type": "function"
    },
    {
      "inputs": [
        {
          "internalType": "address",
          "name": "_clone",
          "type": "address"
        },
        {
          "internalType": "address",
          "name": "token",
          "type": "address"
        },
        {
          "internalType": "uint256",
          "name": "amount",
          "type": "uint256"
        }
      ],
      "name": "proposeRescueToken",
      "outputs": [
        {
          "internalType": "bytes32",
          "name": "requestId",
          "type": "bytes32"
        }
      ],
      "stateMutability": "nonpayable",
      "type": "function"
    },
    {
      "inputs": [
        {
          "internalType": "bytes32",
          "name": "paymentId",
          "type": "bytes32"
        },
        {
          "internalType": "address",
          "name": "token",
          "type": "address"
        },
        {
          "internalType": "uint256",
          "name": "amount",
          "type": "uint256"
        }
      ],
      "name": "recordPayment",
      "outputs": [],
      "stateMutability": "nonpayable",
      "type": "function"
    },
    {
      "inputs": [
        {
          "internalType": "bytes32",
          "name": "",
          "type": "bytes32"
        }
      ],
      "name": "rescueData",
      "outputs": [
        {
          "internalType": "bytes",
          "name": "",
          "type": "bytes"
        }
      ],
      "stateMutability": "view",
      "type": "function"
    },
    {
      "inputs": [
        {
          "internalType": "bytes32",
          "name": "",
          "type": "bytes32"
        }
      ],
      "name": "rescueRequests",
      "outputs": [
        {
          "internalType": "uint256",
          "name": "",
          "type": "uint256"
        }
      ],
      "stateMutability": "view",
      "type": "function"
    },
    {
      "inputs": [
        {
          "internalType": "address",
          "name": "_newAuthorizer",
          "type": "address"
        }
      ],
      "name": "setAuthorizer",
      "outputs": [],
      "stateMutability": "nonpayable",
      "type": "function"
    },
    {
      "inputs": [
        {
          "internalType": "address",
          "name": "_newDev",
          "type": "address"
        }
      ],
      "name": "setDeveloperAddress",
      "outputs": [],
      "stateMutability": "nonpayable",
      "type": "function"
    },
    {
      "inputs": [
        {
          "internalType": "uint256",
          "name": "_bps",
          "type": "uint256"
        }
      ],
      "name": "setFeeBps",
      "outputs": [],
      "stateMutability": "nonpayable",
      "type": "function"
    },
    {
      "inputs": [],
      "name": "splitterLogicImpl",
      "outputs": [
        {
          "internalType": "address",
          "name": "",
          "type": "address"
        }
      ],
      "stateMutability": "view",
      "type": "function"
    },
    {
      "inputs": [
        {
          "internalType": "address",
          "name": "router",
          "type": "address"
        },
        {
          "internalType": "bool",
          "name": "status",
          "type": "bool"
        }
      ],
      "name": "toggleRouterAllowlist",
      "outputs": [],
      "stateMutability": "nonpayable",
      "type": "function"
    },
    {
      "inputs": [
        {
          "internalType": "address",
          "name": "newOwner",
          "type": "address"
        }
      ],
      "name": "transferOwnership",
      "outputs": [],
      "stateMutability": "nonpayable",
      "type": "function"
    },
    {
      "inputs": [],
      "name": "unpause",
      "outputs": [],
      "stateMutability": "nonpayable",
      "type": "function"
    },
    {
      "inputs": [
        {
          "internalType": "address",
          "name": "_clone",
          "type": "address"
        },
        {
          "internalType": "address",
          "name": "_newAuthorizer",
          "type": "address"
        }
      ],
      "name": "updateCloneAuthorizer",
      "outputs": [],
      "stateMutability": "nonpayable",
      "type": "function"
    }
  ],
  "bytecode": "0x60803461014b57601f61155a38819003918201601f19168301916001600160401b0383118484101761014f57808492604094855283398101031261014b57610052602061004b83610163565b9201610163565b600a6002556001600160a01b0391821691908215610106571680156100d25760018060a01b03199133835f5416175f5582600154161760015581600354161760035533906004541617600455604051337edf7d8d0088b4dec0a2f0541dcba27d872a7f66af9823586edbfb14fbf612cd195f80a26113e290816101788239f35b60405162461bcd60e51b815260206004820152600c60248201526b125b9d985b1a59081a5b5c1b60a21b6044820152606490fd5b60405162461bcd60e51b815260206004820152601360248201527f496e76616c6964206465762061646472657373000000000000000000000000006044820152606490fd5b5f80fd5b634e487b7160e01b5f52604160045260245ffd5b51906001600160a01b038216820361014b5756fe60806040818152600480361015610014575f80fd5b5f925f3560e01c908162ae36761461111457508063058a628f146110a757806309b6f1711461104b5780631b2cc96814610f7557806324a9d85314610f56578063250fa03a14610dc157806337c68b8814610bc95780633ab4b486146109ef5780633f4ba83a146109bb578063540e7a6c146106fd57838163569f8cc81461065557508063599dec681461061a5780635ba1c1a9146105fc5780635c975abb146105d757806361771e49146102845780636c2a0d74146105b057806372c27b621461058257806377d44149146105125780638456cb59146104d9578063846fa34d146103c15780638918c79e146103985780638da5cb5b146103705780639aba6a0f14610344578063ade36e1d146102c2578063c646aee214610284578063caccd7f714610257578063d09edf3114610230578063dcc345f2146101e35763f2fde38b14610160575f80fd5b346101df5760203660031901126101df5761017961114e565b835491906001600160a01b0390610193338386161461128a565b169283156101ad5750506001600160a01b03191617815580f35b906020606492519162461bcd60e51b8352820152600c60248201526b5a65726f206164647265737360a01b6044820152fd5b8280fd5b833461022d57602036600319011261022d576101fd61114e565b81546001600160a01b039190610216908316331461128a565b166001600160601b0360a01b600154161760015580f35b80fd5b50346101df57826003193601126101df575490516001600160a01b03909116815260209150f35b50503461028057816003193601126102805760015490516001600160a01b039091168152602090f35b5080fd5b5050346102805760203660031901126102805760209160ff9082906001600160a01b036102af61114e565b1681526005855220541690519015158152f35b5090346101df5760203660031901126101df5761034191356102ee60018060a01b03855416331461128a565b80845260096020526103048285205415156112c2565b807f8f1aafee48488f6068a10e3d41fb46866c088ae8ce01798a83191869c93a52f08580a2835260096020528281812055600a602052822061132a565b80f35b50346101df5760203660031901126101df578160209360ff923581526007855220541690519015158152f35b505034610280578160031936011261028057905490516001600160a01b039091168152602090f35b50503461028057816003193601126102805760035490516001600160a01b039091168152602090f35b5090346101df5760603660031901126101df5781356103de611164565b913385526020936008855260ff828720541615610499578286526007855260ff8287205416610458575081855260078452808520805460ff191660011790555160443581526001600160a01b039092169233927fe71f2d4fc99f7d557282a41e699063e3ff6752f44a7e31aae25bd2666740c5139190a480f35b84606492519162461bcd60e51b8352820152601960248201527f5061796d656e7420616c72656164792070726f636573736564000000000000006044820152fd5b8480606493519262461bcd60e51b845283015260248201527f43616c6c6572206973206e6f742061207265676973746572656420636c6f6e656044820152fd5b833461022d578060031936011261022d578054610500336001600160a01b0383161461128a565b60ff60a01b1916600160a01b17815580f35b50913461022d576020928360031936011261028057929092358352600a815261053c8284206111da565b82519382859384528251928382860152825b84811061056c57505050828201840152601f01601f19168101030190f35b818101830151888201880152879550820161054e565b838234610280576020366003190112610280576105a960018060a01b03835416331461128a565b3560025580f35b50346101df5760203660031901126101df5760209282913581526009845220549051908152f35b50503461028057816003193601126102805760ff6020925460a01c1690519015158152f35b505034610280578160031936011261028057602090516202a3008152f35b505034610280576020366003190112610280576020916001600160a01b039082908261064461114e565b168152600685522054169051908152f35b929050346106f957806003193601126106f95761067061114e565b610678611164565b9060018060a01b03809161069082885416331461128a565b1680865260086020526106a860ff8588205416611372565b803b156106f5578592836024928651978895869463058a628f60e01b865216908401525af19081156106ec57506106dc5750f35b6106e5906111b2565b61022d5780f35b513d84823e3d90fd5b8580fd5b5050fd5b5090346101df576060928360031936011261022d5761071a61114e565b610722611164565b82546001600160a01b0396919060443590610740908916331461128a565b8784169485815260209860088a5261075d60ff8984205416611372565b8751958a8701916001600160601b03198092881b168352851694861b1660348701528260488701524260688701526068865260a086019567ffffffffffffffff96818110888211176109a8578952519020976202a30042018042116109955789835260098b5288832055875195878b880152848988015283868801528587526080870187811082821117610982578952898352600a8b5288832091875191821161096f575091818a969594936108148b945461117a565b8d601f8211610936575b50508c98601f8211600114610896577f1bdb25bc80d6550a01487654162d2b7bcbaeca17b410f1a7ae2352799491237598998291859261088b575b50508160011b915f199060031b1c19161790555b86815260098b5220549087519283528983015286820152a351908152f35b015190505f80610859565b8d90601f1983168486528286209286905b8282106109055750509a8392916001947f1bdb25bc80d6550a01487654162d2b7bcbaeca17b410f1a7ae235279949123759c9d106108ed575b505050811b01905561086d565b01515f1960f88460031b161c191690555f80806108e0565b929497509497999b95989a509181600181928887015181550196019401918e9a9895928e9794929c9a98959c6108a7565b83855280852061095e92601f850160051c8201928510610965575b601f0160051c0190611314565b5f8d61081e565b9091508190610951565b634e487b7160e01b845260419052602483fd5b604183634e487b7160e01b5f525260245ffd5b634e487b7160e01b835260118252602483fd5b60418b634e487b7160e01b5f525260245ffd5b833461022d578060031936011261022d576109e060018060a01b03825416331461128a565b5f805460ff60a01b1916905580f35b5090346101df576020928360031936011261022d57506001600160a01b039182610a1761114e565b1690815f526006855283835f205416610b86576003548351733d602d80600a3d3981f3363d3d373d3d3d363d7360601b815260609190911b6bffffffffffffffffffffffff191660148201526e5af43d82803e903d91602b57fd5bf360881b6028820152936037855ff081603787019182875216958615610b4c575050815416843b15610b4857835163c0c53b8b60e01b815291820183905230602483015260448201525f8160648183885af18015610b3e57610b2f575b50805f5260068452815f20836001600160601b0360a01b825416179055825f5260088452815f20600160ff198254161790557fc1f9d081289e627d16e20e8ce42a4f26358883fdd78c0ea20ac02134c20320ae848351858152a251908152f35b610b38906111b2565b5f610acf565b83513d5f823e3d90fd5b5f80fd5b9075115490cc4c4d8dce8818dc99585d194819985a5b195960521b607b6064938a62461bcd60e51b8552603b8201526016605b8201520152fd5b825162461bcd60e51b8152908101859052601c60248201527f4d65726368616e7420616c726561647920686173206120636c6f6e65000000006044820152606490fd5b50823461022d578260031936011261022d5750610be461114e565b91610bed611164565b915f60018060a01b0380951691825f526020956006875280855f205416610d7e576003548551733d602d80600a3d3981f3363d3d373d3d3d363d7360601b815260609190911b6bffffffffffffffffffffffff191660148201526e5af43d82803e903d91602b57fd5bf360881b6028820152956037875ff082603789019182895216978815610d4457505080821615610d3a575b863b15610b4857855163c0c53b8b60e01b81529283018590523060248401521660448201525f8160648183895af18015610d305790849291610d1c575b508281526006865281812080546001600160a01b031916861790558481526008865220805460ff1916600117905581518381527fc1f9d081289e627d16e20e8ce42a4f26358883fdd78c0ea20ac02134c20320ae908590a251908152f35b9050610d2891506111b2565b815f86610cbe565b84513d5f823e3d90fd5b5080825416610c81565b9075115490cc4c4d8dce8818dc99585d194819985a5b195960521b607b6064938c62461bcd60e51b8552603b8201526016605b8201520152fd5b845162461bcd60e51b8152808301889052601c60248201527f4d65726368616e7420616c726561647920686173206120636c6f6e65000000006044820152606490fd5b5090346101df57602080600319360112610f525783546001600160a01b0393803591610df0908616331461128a565b8186526009835283862054610e068115156112c2565b4210610f1d57818652600a8352610e1e8487206111da565b90606082805181010312610f0f5786610e38858401611300565b96806060610e47898701611300565b9501519816931691833b1561028057865163067e7ac560e31b81526001600160a01b0384169181019182526020820189905290829082908190604001038183885af18015610f1357610ef3575b505084516001600160a01b03919091168152602081019590955261034194600a9392919082907f05db6a65e184fde5dac11952c68d57e85ff97bb19ed7514f55990b90fc6b013890604090a3855260098152848381205552822061132a565b610f019095949392956111b2565b610f0f57909192865f610e94565b8680fd5b87513d84823e3d90fd5b835162461bcd60e51b8152908101839052600f60248201526e54696d656c6f636b2061637469766560881b6044820152606490fd5b8380fd5b5050346102805781600319360112610280576020906002549051908152f35b509034610b485780600319360112610b4857610f8f61114e565b335f9081526006602052829020546001600160a01b031692831561101257833b15610b4857825163067e7ac560e31b81526001600160a01b03909216908201908152602435602082015290925f9184919082908490829060400103925af19081156110095750610ffd575080f35b61100791506111b2565b005b513d5f823e3d90fd5b606490602084519162461bcd60e51b8352820152601360248201527227379031b637b732903337b91039b2b73232b960691b6044820152fd5b8234610b485780600319360112610b485761106461114e565b9060243591821515809303610b48575f546001600160a01b03919061108c908316331461128a565b165f5260056020525f209060ff801983541691161790555f80f35b5034610b48576020366003190112610b48576110c161114e565b5f546001600160a01b0391906110da908316331461128a565b1690816001600160601b0360a01b8254161790557ff3f625a7d9e02778afdfdf1bea978d6565840d408866c70f5d25aadf77021d705f80a2005b839034610b48576020366003190112610b485760209160ff906001600160a01b0361113d61114e565b165f52600884525f20541615158152f35b600435906001600160a01b0382168203610b4857565b602435906001600160a01b0382168203610b4857565b90600182811c921680156111a8575b602083101461119457565b634e487b7160e01b5f52602260045260245ffd5b91607f1691611189565b67ffffffffffffffff81116111c657604052565b634e487b7160e01b5f52604160045260245ffd5b90604051915f9080546111ec8161117a565b908186526020926001916001811690815f1461126c5750600114611233575b50505050829003601f01601f1916820167ffffffffffffffff8111838210176111c657604052565b909293505f52825f2091835f935b83851061125857505050508301015f80808061120b565b805488860183015293019284908201611241565b60ff191688860152505050151560051b84010190505f80808061120b565b1561129157565b60405162461bcd60e51b81526020600482015260096024820152682737ba1037bbb732b960b91b6044820152606490fd5b156112c957565b60405162461bcd60e51b815260206004820152600f60248201526e125b9d985b1a59081c995c5d595cdd608a1b6044820152606490fd5b51906001600160a01b0382168203610b4857565b81811061131f575050565b5f8155600101611314565b611334815461117a565b908161133e575050565b81601f5f931160011461134f575055565b90808391825261136e601f60208420940160051c840160018501611314565b5555565b1561137957565b60405162461bcd60e51b815260206004820152600b60248201526a4e6f74206120636c6f6e6560a81b6044820152606490fdfea264697066735822122048fc6bf2224bd9870d5557e3ec6224ed087cf0eb97577e7a498bbfe07f64c3a664736f6c63430008180033",
  "linkReferences": {},
  "deployedLinkReferences": {}
}