{
  "_format": "hh-sol-artifact-1",
  "contractName": "MerchantFactory",
  "sourceName": "contracts/MerchantFactory.sol",
  "abi": [
    {
      "inputs": [
        {
          "internalType": "address",
          "name": "_devAddress",
          "type": "address"
        },
        {
          "internalType": "address",
          "name": "_splitterLogicImpl",
          "type": "address"
        }
      ],
      "stateMutability": "nonpayable",
      "type": "constructor"
    },
    {
      "inputs": [],
      "name": "EnforcedPause",
      "type": "error"
    },
    {
      "inputs": [],
      "name": "ExpectedPause",
      "type": "error"
    },
    {
      "inputs": [
        {
          "internalType": "address",
          "name": "owner",
          "type": "address"
        }
      ],
      "name": "OwnableInvalidOwner",
      "type": "error"
    },
    {
      "inputs": [
        {
          "internalType": "address",
          "name": "account",
          "type": "address"
        }
      ],
      "name": "OwnableUnauthorizedAccount",
      "type": "error"
    },
    {
      "anonymous": false,
      "inputs": [
        {
          "indexed": true,
          "internalType": "address",
          "name": "newAuthorizer",
          "type": "address"
        }
      ],
      "name": "AuthorizerUpdated",
      "type": "event"
    },
    {
      "anonymous": false,
      "inputs": [
        {
          "indexed": true,
          "internalType": "address",
          "name": "authorizer",
          "type": "address"
        }
      ],
      "name": "DefaultAuthorizerSet",
      "type": "event"
    },
    {
      "anonymous": false,
      "inputs": [
        {
          "indexed": true,
          "internalType": "address",
          "name": "merchant",
          "type": "address"
        },
        {
          "indexed": false,
          "internalType": "address",
          "name": "cloneAddress",
          "type": "address"
        }
      ],
      "name": "MerchantCloneDeployed",
      "type": "event"
    },
    {
      "anonymous": false,
      "inputs": [
        {
          "indexed": true,
          "internalType": "address",
          "name": "previousOwner",
          "type": "address"
        },
        {
          "indexed": true,
          "internalType": "address",
          "name": "newOwner",
          "type": "address"
        }
      ],
      "name": "OwnershipTransferStarted",
      "type": "event"
    },
    {
      "anonymous": false,
      "inputs": [
        {
          "indexed": true,
          "internalType": "address",
          "name": "previousOwner",
          "type": "address"
        },
        {
          "indexed": true,
          "internalType": "address",
          "name": "newOwner",
          "type": "address"
        }
      ],
      "name": "OwnershipTransferred",
      "type": "event"
    },
    {
      "anonymous": false,
      "inputs": [
        {
          "indexed": false,
          "internalType": "address",
          "name": "account",
          "type": "address"
        }
      ],
      "name": "Paused",
      "type": "event"
    },
    {
      "anonymous": false,
      "inputs": [
        {
          "indexed": true,
          "internalType": "bytes32",
          "name": "paymentId",
          "type": "bytes32"
        },
        {
          "indexed": true,
          "internalType": "address",
          "name": "clone",
          "type": "address"
        },
        {
          "indexed": true,
          "internalType": "address",
          "name": "token",
          "type": "address"
        },
        {
          "indexed": false,
          "internalType": "uint256",
          "name": "amount",
          "type": "uint256"
        }
      ],
      "name": "PaymentRecorded",
      "type": "event"
    },
    {
      "anonymous": false,
      "inputs": [
        {
          "indexed": true,
          "internalType": "bytes32",
          "name": "requestId",
          "type": "bytes32"
        }
      ],
      "name": "RescueTokenCancelled",
      "type": "event"
    },
    {
      "anonymous": false,
      "inputs": [
        {
          "indexed": true,
          "internalType": "bytes32",
          "name": "requestId",
          "type": "bytes32"
        },
        {
          "indexed": true,
          "internalType": "address",
          "name": "clone",
          "type": "address"
        },
        {
          "indexed": false,
          "internalType": "address",
          "name": "token",
          "type": "address"
        },
        {
          "indexed": false,
          "internalType": "uint256",
          "name": "amount",
          "type": "uint256"
        }
      ],
      "name": "RescueTokenExecuted",
      "type": "event"
    },
    {
      "anonymous": false,
      "inputs": [
        {
          "indexed": true,
          "internalType": "bytes32",
          "name": "requestId",
          "type": "bytes32"
        },
        {
          "indexed": true,
          "internalType": "address",
          "name": "clone",
          "type": "address"
        },
        {
          "indexed": false,
          "internalType": "address",
          "name": "token",
          "type": "address"
        },
        {
          "indexed": false,
          "internalType": "uint256",
          "name": "amount",
          "type": "uint256"
        },
        {
          "indexed": false,
          "internalType": "uint256",
          "name": "executeTime",
          "type": "uint256"
        }
      ],
      "name": "RescueTokenProposed",
      "type": "event"
    },
    {
      "anonymous": false,
      "inputs": [
        {
          "indexed": false,
          "internalType": "address",
          "name": "account",
          "type": "address"
        }
      ],
      "name": "Unpaused",
      "type": "event"
    },
    {
      "inputs": [],
      "name": "MAX_FEE_BPS",
      "outputs": [
        {
          "internalType": "uint256",
          "name": "",
          "type": "uint256"
        }
      ],
      "stateMutability": "view",
      "type": "function"
    },
    {
      "inputs": [],
      "name": "TIMELOCK_DELAY",
      "outputs": [
        {
          "internalType": "uint256",
          "name": "",
          "type": "uint256"
        }
      ],
      "stateMutability": "view",
      "type": "function"
    },
    {
      "inputs": [],
      "name": "acceptOwnership",
      "outputs": [],
      "stateMutability": "nonpayable",
      "type": "function"
    },
    {
      "inputs": [
        {
          "internalType": "address",
          "name": "",
          "type": "address"
        }
      ],
      "name": "allowedRouters",
      "outputs": [
        {
          "internalType": "bool",
          "name": "",
          "type": "bool"
        }
      ],
      "stateMutability": "view",
      "type": "function"
    },
    {
      "inputs": [],
      "name": "authorizer",
      "outputs": [
        {
          "internalType": "address",
          "name": "",
          "type": "address"
        }
      ],
      "stateMutability": "view",
      "type": "function"
    },
    {
      "inputs": [
        {
          "internalType": "bytes32",
          "name": "requestId",
          "type": "bytes32"
        }
      ],
      "name": "cancelRescueToken",
      "outputs": [],
      "stateMutability": "nonpayable",
      "type": "function"
    },
    {
      "inputs": [
        {
          "internalType": "address",
          "name": "merchant",
          "type": "address"
        },
        {
          "internalType": "address",
          "name": "_authorizer",
          "type": "address"
        }
      ],
      "name": "createMerchantSplitter",
      "outputs": [
        {
          "internalType": "address",
          "name": "",
          "type": "address"
        }
      ],
      "stateMutability": "nonpayable",
      "type": "function"
    },
    {
      "inputs": [
        {
          "internalType": "address",
          "name": "merchant",
          "type": "address"
        }
      ],
      "name": "createMerchantSplitter",
      "outputs": [
        {
          "internalType": "address",
          "name": "",
          "type": "address"
        }
      ],
      "stateMutability": "nonpayable",
      "type": "function"
    },
    {
      "inputs": [],
      "name": "developerAddress",
      "outputs": [
        {
          "internalType": "address",
          "name": "",
          "type": "address"
        }
      ],
      "stateMutability": "view",
      "type": "function"
    },
    {
      "inputs": [
        {
          "internalType": "bytes32",
          "name": "requestId",
          "type": "bytes32"
        }
      ],
      "name": "executeRescueToken",
      "outputs": [],
      "stateMutability": "nonpayable",
      "type": "function"
    },
    {
      "inputs": [],
      "name": "feeBps",
      "outputs": [
        {
          "internalType": "uint256",
          "name": "",
          "type": "uint256"
        }
      ],
      "stateMutability": "view",
      "type": "function"
    },
    {
      "inputs": [
        {
          "internalType": "bytes32",
          "name": "",
          "type": "bytes32"
        }
      ],
      "name": "globalProcessedPayments",
      "outputs": [
        {
          "internalType": "bool",
          "name": "",
          "type": "bool"
        }
      ],
      "stateMutability": "view",
      "type": "function"
    },
    {
      "inputs": [
        {
          "internalType": "address",
          "name": "",
          "type": "address"
        }
      ],
      "name": "isClone",
      "outputs": [
        {
          "internalType": "bool",
          "name": "",
          "type": "bool"
        }
      ],
      "stateMutability": "view",
      "type": "function"
    },
    {
      "inputs": [
        {
          "internalType": "address",
          "name": "router",
          "type": "address"
        }
      ],
      "name": "isRouterAllowed",
      "outputs": [
        {
          "internalType": "bool",
          "name": "",
          "type": "bool"
        }
      ],
      "stateMutability": "view",
      "type": "function"
    },
    {
      "inputs": [
        {
          "internalType": "address",
          "name": "token",
          "type": "address"
        },
        {
          "internalType": "uint256",
          "name": "amount",
          "type": "uint256"
        }
      ],
      "name": "merchantRescueToken",
      "outputs": [],
      "stateMutability": "nonpayable",
      "type": "function"
    },
    {
      "inputs": [
        {
          "internalType": "address",
          "name": "",
          "type": "address"
        }
      ],
      "name": "merchantSplitters",
      "outputs": [
        {
          "internalType": "address",
          "name": "",
          "type": "address"
        }
      ],
      "stateMutability": "view",
      "type": "function"
    },
    {
      "inputs": [],
      "name": "owner",
      "outputs": [
        {
          "internalType": "address",
          "name": "",
          "type": "address"
        }
      ],
      "stateMutability": "view",
      "type": "function"
    },
    {
      "inputs": [],
      "name": "pause",
      "outputs": [],
      "stateMutability": "nonpayable",
      "type": "function"
    },
    {
      "inputs": [],
      "name": "paused",
      "outputs": [
        {
          "internalType": "bool",
          "name": "",
          "type": "bool"
        }
      ],
      "stateMutability": "view",
      "type": "function"
    },
    {
      "inputs": [],
      "name": "pendingOwner",
      "outputs": [
        {
          "internalType": "address",
          "name": "",
          "type": "address"
        }
      ],
      "stateMutability": "view",
      "type": "function"
    },
    {
      "inputs": [
        {
          "internalType": "address",
          "name": "clone",
          "type": "address"
        },
        {
          "internalType": "address",
          "name": "token",
          "type": "address"
        },
        {
          "internalType": "uint256",
          "name": "amount",
          "type": "uint256"
        }
      ],
      "name": "proposeRescueToken",
      "outputs": [
        {
          "internalType": "bytes32",
          "name": "requestId",
          "type": "bytes32"
        }
      ],
      "stateMutability": "nonpayable",
      "type": "function"
    },
    {
      "inputs": [
        {
          "internalType": "bytes32",
          "name": "paymentId",
          "type": "bytes32"
        },
        {
          "internalType": "address",
          "name": "token",
          "type": "address"
        },
        {
          "internalType": "uint256",
          "name": "amount",
          "type": "uint256"
        }
      ],
      "name": "recordPayment",
      "outputs": [],
      "stateMutability": "nonpayable",
      "type": "function"
    },
    {
      "inputs": [],
      "name": "renounceOwnership",
      "outputs": [],
      "stateMutability": "nonpayable",
      "type": "function"
    },
    {
      "inputs": [
        {
          "internalType": "bytes32",
          "name": "",
          "type": "bytes32"
        }
      ],
      "name": "rescueData",
      "outputs": [
        {
          "internalType": "bytes",
          "name": "",
          "type": "bytes"
        }
      ],
      "stateMutability": "view",
      "type": "function"
    },
    {
      "inputs": [
        {
          "internalType": "bytes32",
          "name": "",
          "type": "bytes32"
        }
      ],
      "name": "rescueRequests",
      "outputs": [
        {
          "internalType": "uint256",
          "name": "",
          "type": "uint256"
        }
      ],
      "stateMutability": "view",
      "type": "function"
    },
    {
      "inputs": [
        {
          "internalType": "address",
          "name": "_newAuthorizer",
          "type": "address"
        }
      ],
      "name": "setAuthorizer",
      "outputs": [],
      "stateMutability": "nonpayable",
      "type": "function"
    },
    {
      "inputs": [
        {
          "internalType": "address",
          "name": "_newDev",
          "type": "address"
        }
      ],
      "name": "setDeveloperAddress",
      "outputs": [],
      "stateMutability": "nonpayable",
      "type": "function"
    },
    {
      "inputs": [
        {
          "internalType": "uint256",
          "name": "_bps",
          "type": "uint256"
        }
      ],
      "name": "setFeeBps",
      "outputs": [],
      "stateMutability": "nonpayable",
      "type": "function"
    },
    {
      "inputs": [],
      "name": "splitterLogicImpl",
      "outputs": [
        {
          "internalType": "address",
          "name": "",
          "type": "address"
        }
      ],
      "stateMutability": "view",
      "type": "function"
    },
    {
      "inputs": [
        {
          "internalType": "address",
          "name": "router",
          "type": "address"
        },
        {
          "internalType": "bool",
          "name": "status",
          "type": "bool"
        }
      ],
      "name": "toggleRouterAllowlist",
      "outputs": [],
      "stateMutability": "nonpayable",
      "type": "function"
    },
    {
      "inputs": [
        {
          "internalType": "address",
          "name": "newOwner",
          "type": "address"
        }
      ],
      "name": "transferOwnership",
      "outputs": [],
      "stateMutability": "nonpayable",
      "type": "function"
    },
    {
      "inputs": [],
      "name": "unpause",
      "outputs": [],
      "stateMutability": "nonpayable",
      "type": "function"
    },
    {
      "inputs": [
        {
          "internalType": "address",
          "name": "clone",
          "type": "address"
        },
        {
          "internalType": "address",
          "name": "_newAuthorizer",
          "type": "address"
        }
      ],
      "name": "updateCloneAuthorizer",
      "outputs": [],
      "stateMutability": "nonpayable",
      "type": "function"
    }
  ],
  "bytecode": "0x608034620001c557620017c990601f38839003908101601f19168201906001600160401b03821183831017620001c95780839160409586948552833981010312620001c5576200005d60206200005583620001dd565b9201620001dd565b3315620001ae5760018060a01b03199182600154166001555f549160018060a01b03809233868616175f55865194823391167f8be0079c531659141344cd1fd0a4f28419497f9722a3daafe3b4186f6b6457e05f80a3600a600355169283156200016c5750169081156200011a578260025416176002558160045416176004553390600554161760055551337edf7d8d0088b4dec0a2f0541dcba27d872a7f66af9823586edbfb14fbf612cd195f80a26115d69081620001f38239f35b835162461bcd60e51b815260206004820152602560248201527f496e76616c69642073706c6974746572206c6f67696320696d706c656d656e7460448201526430ba34b7b760d91b6064820152608490fd5b62461bcd60e51b815260206004820152601360248201527f496e76616c6964206465762061646472657373000000000000000000000000006044820152606490fd5b8251631e4fbdf760e01b81525f6004820152602490fd5b5f80fd5b634e487b7160e01b5f52604160045260245ffd5b51906001600160a01b0382168203620001c55756fe608060409080825260049182361015610016575f80fd5b5f925f3560e01c928362ae36761461131557508263058a628f146112af57826309b6f1711461125d5782631b2cc9681461118757826324a9d85314611168578263250fa03a14610fdd57826337c68b8814610de65782633ab4b48614610c0c5782633f4ba83a14610b9b578263540e7a6c146108e657838363569f8cc81461084257508263599dec68146108075782635ba1c1a9146107e95782635c975abb146107c257826361771e49146107975782636c2a0d741461076e578263715018a61461070957826372c27b621461069657826377d441491461062657826379ba5097146105a05782638456cb591461052a578263846fa34d146104125782638918c79e146103e95782638da5cb5b146103c15782639aba6a0f14610393578263ade36e1d1461031957508163c646aee2146102db578163caccd7f7146102b2578163d09edf3114610289578163d55be8c61461026c578163dcc345f21461022c578163e30c3978146101ff575063f2fde38b14610190575f80fd5b346101fc5760203660031901126101fc576101a961134f565b6101b1611575565b600180546001600160a01b0319166001600160a01b0392831690811790915582549091167f38d16b8cac22d99fc7c124b9cd0de2d3fa1faef420bfe791d8c362d765e227008380a380f35b80fd5b90503461022857816003193601126102285760015490516001600160a01b039091168152602090f35b5080fd5b82346101fc5760203660031901126101fc5761024661134f565b61024e611575565b60018060a01b03166001600160601b0360a01b600254161760025580f35b905034610228578160031936011261022857602090516103e88152f35b90503461022857816003193601126102285760055490516001600160a01b039091168152602090f35b90503461022857816003193601126102285760025490516001600160a01b039091168152602090f35b9050346102285760203660031901126102285760209160ff9082906001600160a01b0361030661134f565b1681526006855220541690519015158152f35b91503461038f57602036600319011261038f5761038c9135610339611575565b808452600a60205261034f82852054151561148b565b807f8f1aafee48488f6068a10e3d41fb46866c088ae8ce01798a83191869c93a52f08580a28352600a6020528281812055600b60205282206114f3565b80f35b8280fd5b9091503461038f57602036600319011261038f578160209360ff923581526008855220541690519015158152f35b838234610228578160031936011261022857905490516001600160a01b039091168152602090f35b9091503461038f578260031936011261038f575490516001600160a01b03909116815260209150f35b91503461038f57606036600319011261038f57813561042f611365565b913385526020936009855260ff8287205416156104ea578286526008855260ff82872054166104a9575081855260088452808520805460ff191660011790555160443581526001600160a01b039092169233927fe71f2d4fc99f7d557282a41e699063e3ff6752f44a7e31aae25bd2666740c5139190a480f35b84606492519162461bcd60e51b8352820152601960248201527f5061796d656e7420616c72656164792070726f636573736564000000000000006044820152fd5b8480606493519262461bcd60e51b845283015260248201527f43616c6c6572206973206e6f742061207265676973746572656420636c6f6e656044820152fd5b9091503461038f578260031936011261038f57610545611575565b6001549060ff8260a01c16610592575060ff60a01b1916600160a01b17600155513381527f62e78cea01bee320cd4e420270b5ea74000d11b0c9f74754ebdbfc544b05a25890602090a180f35b825163d93c066560e01b8152fd5b91503461038f578260031936011261038f57600154916001600160a01b0391338385160361060f5750506001600160601b0360a01b8092166001555f549133908316175f553391167f8be0079c531659141344cd1fd0a4f28419497f9722a3daafe3b4186f6b6457e05f80a380f35b60249250519063118cdaa760e01b82523390820152fd5b9083346101fc576020928360031936011261022857929092358352600b81526106508284206113db565b82519382859384528251928382860152825b84811061068057505050828201840152601f01601f19168101030190f35b8181018301518882018801528795508201610662565b9091503461038f57602036600319011261038f578035916106b5611575565b6103e883116106c657505060035580f35b906020606492519162461bcd60e51b8352820152601b60248201527f4665652065786365656473206d6178696d756d20616c6c6f77656400000000006044820152fd5b83346101fc57806003193601126101fc57610722611575565b600180546001600160a01b03199081169091555f80549182168155906001600160a01b03167f8be0079c531659141344cd1fd0a4f28419497f9722a3daafe3b4186f6b6457e08280a380f35b9091503461038f57602036600319011261038f576020928291358152600a845220549051908152f35b8382346102285760203660031901126102285760209160ff9082906001600160a01b0361030661134f565b83823461022857816003193601126102285760209060ff60015460a01c1690519015158152f35b838234610228578160031936011261022857602090516202a3008152f35b838234610228576020366003190112610228576020916001600160a01b039082908261083161134f565b168152600785522054169051908152f35b925090346108e257806003193601126108e25761085d61134f565b610865611365565b9061086e611575565b6001600160a01b039081168086526009602052838620546108919060ff1661153b565b803b156108de578592836024928651978895869463058a628f60e01b865216908401525af19081156108d557506108c55750f35b6108ce906113b3565b6101fc5780f35b513d84823e3d90fd5b8580fd5b5050fd5b91503461038f57606092836003193601126101fc5761090361134f565b61090b611365565b9460443595610918611575565b60018060a01b03968784169485815260209860098a5261093d60ff898420541661153b565b8751958a8701916001600160601b03198092881b168352851694861b1660348701528260488701524260688701526068865260a086019567ffffffffffffffff9681811088821117610b88578952519020976202a3004201804211610b7557898352600a8b5288832055875195878b880152848988015283868801528587526080870187811082821117610b62578952898352600b8b52888320918751918211610b4f575091818a969594936109f48b945461137b565b8d601f8211610b16575b50508c98601f8211600114610a76577f1bdb25bc80d6550a01487654162d2b7bcbaeca17b410f1a7ae23527994912375989982918592610a6b575b50508160011b915f199060031b1c19161790555b868152600a8b5220549087519283528983015286820152a351908152f35b015190505f80610a39565b8d90601f1983168486528286209286905b828210610ae55750509a8392916001947f1bdb25bc80d6550a01487654162d2b7bcbaeca17b410f1a7ae235279949123759c9d10610acd575b505050811b019055610a4d565b01515f1960f88460031b161c191690555f8080610ac0565b929497509497999b95989a509181600181928887015181550196019401918e9a9895928e9794929c9a98959c610a87565b838552808520610b3e92601f850160051c8201928510610b45575b601f0160051c01906114dd565b5f8d6109fe565b9091508190610b31565b634e487b7160e01b845260419052602483fd5b604183634e487b7160e01b5f525260245ffd5b634e487b7160e01b835260118252602483fd5b60418b634e487b7160e01b5f525260245ffd5b9091503461038f578260031936011261038f57610bb6611575565b6001549060ff8260a01c1615610bfe575060ff60a01b1916600155513381527f5db9ee0a495bf2e6ff9c91a7834c1ba4fdd244a5e8aa4e537bd38aeae4b073aa90602090a180f35b8251638dfc202b60e01b8152fd5b91503461038f57602092836003193601126101fc57506001600160a01b039182610c3461134f565b1690815f526007855283835f205416610da35780548351733d602d80600a3d3981f3363d3d373d3d3d363d7360601b815260609190911b6bffffffffffffffffffffffff191660148201526e5af43d82803e903d91602b57fd5bf360881b6028820152936037855ff081603787019182875216958615610d6957505060055416843b15610d6557835163c0c53b8b60e01b815291820183905230602483015260448201525f8160648183885af18015610d5b57610d4c575b50805f5260078452815f20836001600160601b0360a01b825416179055825f5260098452815f20600160ff198254161790557fc1f9d081289e627d16e20e8ce42a4f26358883fdd78c0ea20ac02134c20320ae848351858152a251908152f35b610d55906113b3565b5f610cec565b83513d5f823e3d90fd5b5f80fd5b9075115490cc4c4d8dce8818dc99585d194819985a5b195960521b607b6064938a62461bcd60e51b8552603b8201526016605b8201520152fd5b825162461bcd60e51b8152908101859052601c60248201527f4d65726368616e7420616c726561647920686173206120636c6f6e65000000006044820152606490fd5b83346101fc57826003193601126101fc5750610e0061134f565b91610e09611365565b915f60018060a01b0380951691825f526020956007875280855f205416610f9a5781548551733d602d80600a3d3981f3363d3d373d3d3d363d7360601b815260609190911b6bffffffffffffffffffffffff191660148201526e5af43d82803e903d91602b57fd5bf360881b6028820152956037875ff082603789019182895216978815610f6057505080821615610f55575b863b15610d6557855163c0c53b8b60e01b81529283018590523060248401521660448201525f8160648183895af18015610f4b5790849291610f37575b508281526007865281812080546001600160a01b031916861790558481526009865220805460ff1916600117905581518381527fc1f9d081289e627d16e20e8ce42a4f26358883fdd78c0ea20ac02134c20320ae908590a251908152f35b9050610f4391506113b3565b815f86610ed9565b84513d5f823e3d90fd5b508060055416610e9c565b9075115490cc4c4d8dce8818dc99585d194819985a5b195960521b607b6064938c62461bcd60e51b8552603b8201526016605b8201520152fd5b845162461bcd60e51b8152808301889052601c60248201527f4d65726368616e7420616c726561647920686173206120636c6f6e65000000006044820152606490fd5b91503461038f57602080600319360112611164578235610ffb611575565b808552600a82528285205461101181151561148b565b421061113057808552600b82526110298386206113db565b6060818051810103126108de576110418382016114c9565b948660606110508785016114c9565b930151966001600160a01b03908116931691833b1561022857865163067e7ac560e31b81526001600160a01b0384169181019182526020820189905290829082908190604001038183885af1801561112657611106575b505084516001600160a01b03919091168152602081019590955261038c94600b9392919082907f05db6a65e184fde5dac11952c68d57e85ff97bb19ed7514f55990b90fc6b013890604090a38552600a815284838120555282206114f3565b6111149095949392956113b3565b61112257909192865f6110a7565b8680fd5b87513d84823e3d90fd5b50905162461bcd60e51b815291820152600f60248201526e54696d656c6f636b2061637469766560881b6044820152606490fd5b8380fd5b8382346102285781600319360112610228576020906003549051908152f35b915034610d655780600319360112610d65576111a161134f565b335f9081526007602052829020546001600160a01b031692831561122457833b15610d6557825163067e7ac560e31b81526001600160a01b03909216908201908152602435602082015290925f9184919082908490829060400103925af190811561121b575061120f575080f35b61121991506113b3565b005b513d5f823e3d90fd5b606490602084519162461bcd60e51b8352820152601360248201527227379031b637b732903337b91039b2b73232b960691b6044820152fd5b5034610d655780600319360112610d655761127661134f565b9060243591821515809303610d655761128d611575565b60018060a01b03165f5260066020525f209060ff801983541691161790555f80f35b34610d65576020366003190112610d65576112c861134f565b6112d0611575565b600580546001600160a01b0319166001600160a01b039290921691821790557ff3f625a7d9e02778afdfdf1bea978d6565840d408866c70f5d25aadf77021d705f80a2005b905034610d65576020366003190112610d655760209160ff906001600160a01b0361133e61134f565b165f52600984525f20541615158152f35b600435906001600160a01b0382168203610d6557565b602435906001600160a01b0382168203610d6557565b90600182811c921680156113a9575b602083101461139557565b634e487b7160e01b5f52602260045260245ffd5b91607f169161138a565b67ffffffffffffffff81116113c757604052565b634e487b7160e01b5f52604160045260245ffd5b90604051915f9080546113ed8161137b565b908186526020926001916001811690815f1461146d5750600114611434575b50505050829003601f01601f1916820167ffffffffffffffff8111838210176113c757604052565b909293505f52825f2091835f935b83851061145957505050508301015f80808061140c565b805488860183015293019284908201611442565b60ff191688860152505050151560051b84010190505f80808061140c565b1561149257565b60405162461bcd60e51b815260206004820152600f60248201526e125b9d985b1a59081c995c5d595cdd608a1b6044820152606490fd5b51906001600160a01b0382168203610d6557565b8181106114e8575050565b5f81556001016114dd565b6114fd815461137b565b9081611507575050565b81601f5f9311600114611518575055565b908083918252611537601f60208420940160051c8401600185016114dd565b5555565b1561154257565b60405162461bcd60e51b815260206004820152600b60248201526a4e6f74206120636c6f6e6560a81b6044820152606490fd5b5f546001600160a01b0316330361158857565b60405163118cdaa760e01b8152336004820152602490fdfea2646970667358221220d57303d837af30f567cad874834a2f25d3c2aac997972a7125a46dba98aedce164736f6c63430008180033",
  "linkReferences": {},
  "deployedLinkReferences": {}
}