{
  "_format": "hh-sol-artifact-1",
  "contractName": "SplitterLogic",
  "sourceName": "contracts/SplitterLogic.sol",
  "abi": [
    {
      "inputs": [],
      "stateMutability": "nonpayable",
      "type": "constructor"
    },
    {
      "inputs": [],
      "name": "AlreadyInitialized",
      "type": "error"
    },
    {
      "inputs": [],
      "name": "ECDSAInvalidSignature",
      "type": "error"
    },
    {
      "inputs": [
        {
          "internalType": "uint256",
          "name": "length",
          "type": "uint256"
        }
      ],
      "name": "ECDSAInvalidSignatureLength",
      "type": "error"
    },
    {
      "inputs": [
        {
          "internalType": "bytes32",
          "name": "s",
          "type": "bytes32"
        }
      ],
      "name": "ECDSAInvalidSignatureS",
      "type": "error"
    },
    {
      "inputs": [],
      "name": "FactoryPaused",
      "type": "error"
    },
    {
      "inputs": [],
      "name": "InvalidInitialization",
      "type": "error"
    },
    {
      "inputs": [],
      "name": "InvalidSignature",
      "type": "error"
    },
    {
      "inputs": [],
      "name": "NotInitializing",
      "type": "error"
    },
    {
      "inputs": [],
      "name": "OnlyFactory",
      "type": "error"
    },
    {
      "inputs": [],
      "name": "PaymentAlreadyProcessed",
      "type": "error"
    },
    {
      "inputs": [],
      "name": "PaymentExpired",
      "type": "error"
    },
    {
      "inputs": [],
      "name": "ReentrancyGuardReentrantCall",
      "type": "error"
    },
    {
      "inputs": [],
      "name": "RouterNotAllowed",
      "type": "error"
    },
    {
      "inputs": [],
      "name": "SlippageExceeded",
      "type": "error"
    },
    {
      "inputs": [],
      "name": "TransferFailed",
      "type": "error"
    },
    {
      "inputs": [],
      "name": "ZeroAddress",
      "type": "error"
    },
    {
      "anonymous": false,
      "inputs": [
        {
          "indexed": true,
          "internalType": "address",
          "name": "newAuthorizer",
          "type": "address"
        }
      ],
      "name": "AuthorizerUpdated",
      "type": "event"
    },
    {
      "anonymous": false,
      "inputs": [],
      "name": "EIP712DomainChanged",
      "type": "event"
    },
    {
      "anonymous": false,
      "inputs": [
        {
          "indexed": false,
          "internalType": "uint64",
          "name": "version",
          "type": "uint64"
        }
      ],
      "name": "Initialized",
      "type": "event"
    },
    {
      "anonymous": false,
      "inputs": [
        {
          "indexed": true,
          "internalType": "bytes32",
          "name": "paymentId",
          "type": "bytes32"
        },
        {
          "indexed": true,
          "internalType": "address",
          "name": "tokenIn",
          "type": "address"
        },
        {
          "indexed": true,
          "internalType": "address",
          "name": "tokenOut",
          "type": "address"
        },
        {
          "indexed": false,
          "internalType": "uint256",
          "name": "amountIn",
          "type": "uint256"
        },
        {
          "indexed": false,
          "internalType": "uint256",
          "name": "merchantReceived",
          "type": "uint256"
        },
        {
          "indexed": false,
          "internalType": "uint256",
          "name": "devFee",
          "type": "uint256"
        }
      ],
      "name": "PaymentProcessed",
      "type": "event"
    },
    {
      "inputs": [],
      "name": "AUTHORIZED_PAYMENT_TYPEHASH",
      "outputs": [
        {
          "internalType": "bytes32",
          "name": "",
          "type": "bytes32"
        }
      ],
      "stateMutability": "view",
      "type": "function"
    },
    {
      "inputs": [],
      "name": "authorizer",
      "outputs": [
        {
          "internalType": "address",
          "name": "",
          "type": "address"
        }
      ],
      "stateMutability": "view",
      "type": "function"
    },
    {
      "inputs": [],
      "name": "eip712Domain",
      "outputs": [
        {
          "internalType": "bytes1",
          "name": "fields",
          "type": "bytes1"
        },
        {
          "internalType": "string",
          "name": "name",
          "type": "string"
        },
        {
          "internalType": "string",
          "name": "version",
          "type": "string"
        },
        {
          "internalType": "uint256",
          "name": "chainId",
          "type": "uint256"
        },
        {
          "internalType": "address",
          "name": "verifyingContract",
          "type": "address"
        },
        {
          "internalType": "bytes32",
          "name": "salt",
          "type": "bytes32"
        },
        {
          "internalType": "uint256[]",
          "name": "extensions",
          "type": "uint256[]"
        }
      ],
      "stateMutability": "view",
      "type": "function"
    },
    {
      "inputs": [],
      "name": "factory",
      "outputs": [
        {
          "internalType": "address",
          "name": "",
          "type": "address"
        }
      ],
      "stateMutability": "view",
      "type": "function"
    },
    {
      "inputs": [
        {
          "internalType": "address",
          "name": "_merchantAddress",
          "type": "address"
        },
        {
          "internalType": "address",
          "name": "_factory",
          "type": "address"
        },
        {
          "internalType": "address",
          "name": "_authorizer",
          "type": "address"
        }
      ],
      "name": "initialize",
      "outputs": [],
      "stateMutability": "nonpayable",
      "type": "function"
    },
    {
      "inputs": [],
      "name": "merchantAddress",
      "outputs": [
        {
          "internalType": "address",
          "name": "",
          "type": "address"
        }
      ],
      "stateMutability": "view",
      "type": "function"
    },
    {
      "inputs": [
        {
          "internalType": "bytes32",
          "name": "paymentId",
          "type": "bytes32"
        },
        {
          "internalType": "address",
          "name": "token",
          "type": "address"
        },
        {
          "internalType": "uint256",
          "name": "amount",
          "type": "uint256"
        },
        {
          "internalType": "uint256",
          "name": "expiry",
          "type": "uint256"
        },
        {
          "internalType": "bytes",
          "name": "signature",
          "type": "bytes"
        }
      ],
      "name": "payDirect",
      "outputs": [],
      "stateMutability": "nonpayable",
      "type": "function"
    },
    {
      "inputs": [
        {
          "internalType": "bytes32",
          "name": "paymentId",
          "type": "bytes32"
        },
        {
          "internalType": "address",
          "name": "tokenIn",
          "type": "address"
        },
        {
          "internalType": "address",
          "name": "tokenOut",
          "type": "address"
        },
        {
          "internalType": "uint256",
          "name": "amountIn",
          "type": "uint256"
        },
        {
          "internalType": "uint256",
          "name": "minAmountOut",
          "type": "uint256"
        },
        {
          "internalType": "uint256",
          "name": "expiry",
          "type": "uint256"
        },
        {
          "internalType": "address",
          "name": "router",
          "type": "address"
        },
        {
          "internalType": "address",
          "name": "spender",
          "type": "address"
        },
        {
          "internalType": "bytes",
          "name": "swapData",
          "type": "bytes"
        },
        {
          "internalType": "bytes",
          "name": "signature",
          "type": "bytes"
        }
      ],
      "name": "payWithSwap",
      "outputs": [],
      "stateMutability": "nonpayable",
      "type": "function"
    },
    {
      "inputs": [
        {
          "internalType": "address",
          "name": "token",
          "type": "address"
        },
        {
          "internalType": "uint256",
          "name": "amount",
          "type": "uint256"
        }
      ],
      "name": "rescueToken",
      "outputs": [],
      "stateMutability": "nonpayable",
      "type": "function"
    },
    {
      "inputs": [
        {
          "internalType": "address",
          "name": "_newAuthorizer",
          "type": "address"
        }
      ],
      "name": "setAuthorizer",
      "outputs": [],
      "stateMutability": "nonpayable",
      "type": "function"
    }
  ],
  "bytecode": "0x608080604052346100dc5760017f9b779b17422d0df92223018b32b4d1fa46e071723d6817e2486d003becc55f00557ff0c57e16840df040f15088dc2f81fe391c3923bec73e23a9662efc9c229c6a009081549060ff8260401c166100cd57506001600160401b036002600160401b031982821601610088575b604051611a0590816100e18239f35b6001600160401b031990911681179091556040519081527fc7f505b2f371ae2175ee4913f4499e1f2633a7b5936321eed1cdaeb6115181d290602090a15f8080610079565b63f92ee8a960e01b8152600490fd5b5f80fdfe6080806040526004361015610012575f80fd5b5f905f3560e01c908163058a628f14611254575080630d37422414610cde57806333f3d62814610bcb57806384b0196e14610a4d5780639df8ed4314610a26578063bcc2a046146109eb578063c0c53b8b146104c5578063c45a01551461049c578063d09edf31146104735763e47c6f3c1461008c575f80fd5b346104705760a0366003190112610470576004356100a86112e8565b90604435906064356084356001600160401b03811161046c576100cf903690600401611314565b906100d861146f565b82421161045a576100eb928587866114b1565b600154604051635c975abb60e01b81526001600160a01b0391821694919060209081816004818a5afa90811561033457889161043d575b5061042b57604051638da5cb5b60e01b815281816004818a5afa8015610334578391899161040e575b5016156103fc576040516324a9d85360e01b815281816004818a5afa9081156103345788916103c9575b50610183612710918761143d565b049261018f848761141c565b92873b156103b85760405163846fa34d60e01b8152600481018790526001600160a01b038316602482015260448101889052898082606481838e5af19182156103bc5785926103a1575b505060405163caccd7f760e01b815292821698839060049082905afa918215610396578992610367575b506040516323b872dd60e01b8082523360048301526001600160a01b039390931660248201526044810186905283816064818d8d5af190811561035c578a9161033f575b50156102f5578854604051928352336004840152166001600160a01b031660248201526044810183905281816064818b8b5af1918215610334578892610307575b5050156102f55760408051948552602085019190915283015282917f743791ed120d099b4c527e3bcef5a2e69c738c483ede167d034fb7a031afa9449080606081015b0390a460017f9b779b17422d0df92223018b32b4d1fa46e071723d6817e2486d003becc55f005580f35b6040516312171d8360e31b8152600490fd5b6103269250803d1061032d575b61031e81836113c8565b8101906113e9565b5f80610288565b503d610314565b6040513d8a823e3d90fd5b6103569150843d861161032d5761031e81836113c8565b5f610247565b6040513d8c823e3d90fd5b610388919250833d851161038f575b61038081836113c8565b810190611450565b905f610203565b503d610376565b6040513d8b823e3d90fd5b6103ac91925061137f565b6103b85782895f6101d9565b8880fd5b50604051903d90823e3d90fd5b90508181813d83116103f5575b6103e081836113c8565b810103126103f15751610183610175565b5f80fd5b503d6103d6565b60405163d92e233d60e01b8152600490fd5b6104259150833d851161038f5761038081836113c8565b5f61014b565b604051633461791360e11b8152600490fd5b6104549150823d841161032d5761031e81836113c8565b5f610122565b604051630664b28b60e41b8152600490fd5b8580fd5b80fd5b50346104705780600319360112610470576002546040516001600160a01b039091168152602090f35b50346104705780600319360112610470576001546040516001600160a01b039091168152602090f35b5034610470576060366003190112610470576104df6112d2565b906104e86112e8565b916104f16112fe565b905f8051602061199083398151915254916001600160401b038316801590816109db575b60011490816109d1575b1590816109c8575b506109b65760016001600160401b03198416175f805160206119908339815191525560ff8360401c161561098a575b6001600160a01b038216158015610979575b6103fc576040519461057986611392565b60128652712732b7a830bcb6b2b73a29b83634ba3a32b960711b6020870152604051956105a587611392565b60018752603160f81b60208801526105bb6117c2565b6105c36117c2565b8051906001600160401b0382116109655781906105ed5f80516020611930833981519152546116c8565b601f81116108ea575b50602090601f831160011461085e578892610853575b50508160011b915f199060031b1c1916175f80516020611930833981519152555b85516001600160401b03811161083f576106545f80516020611950833981519152546116c8565b601f81116107cb575b506020601f8211600114610742578190879860ff9892610737575b50508160011b915f199060031b1c1916175f80516020611950833981519152555b85546001600160a01b03199081166001600160a01b0394851617875560018054821692851692909217909155600280549091169190921617905560401c16156106df5780f35b68ff0000000000000000195f8051602061199083398151915254165f80516020611990833981519152557fc7f505b2f371ae2175ee4913f4499e1f2633a7b5936321eed1cdaeb6115181d2602060405160018152a180f35b015190505f80610678565b5f8051602061195083398151915287525f805160206119b083398151915297601f198316885b8181106107b357509160ff98999184600195941061079b575b505050811b015f8051602061195083398151915255610699565b01515f1960f88460031b161c191690555f8080610781565b838301518b556001909a019960209384019301610768565b5f805160206119508339815191528752601f820160051c5f805160206119b083398151915201906020831061082a575b601f0160051c5f805160206119b083398151915201905b81811061081f575061065d565b878155600101610812565b5f805160206119b083398151915291506107fb565b634e487b7160e01b86526041600452602486fd5b015190505f8061060c565b92505f8051602061193083398151915288525f805160206119708339815191529088935b601f19841685106108cf576001945083601f198116106108b7575b505050811b015f805160206119308339815191525561062d565b01515f1960f88460031b161c191690555f808061089d565b81810151835560209485019460019093019290910190610882565b9091505f805160206119308339815191528852601f830160051c5f805160206119708339815191520160208410610951575b908392915b601f820160051c5f8051602061197083398151915201811061094357506105f6565b898155849350600101610921565b505f8051602061197083398151915261091c565b634e487b7160e01b87526041600452602487fd5b506001600160a01b03851615610568565b68ffffffffffffffffff19831668010000000000000001175f8051602061199083398151915255610556565b60405163f92ee8a960e01b8152600490fd5b9050155f610527565b303b15915061051f565b604085901c60ff16159150610515565b503461047057806003193601126104705760206040517fdf2547f32aa5f7bd0d10ba8cd1c90409ddfcdcc012c7b9d004fad2d87c5d84e88152f35b5034610470578060031936011261047057546040516001600160a01b039091168152602090f35b50346104705780600319360112610470576040515f805160206119308339815191528054925f83610a7d866116c8565b91828252602094600197866001821691825f14610bab575050600114610b62575b50610aab925003846113c8565b610ab3611700565b9160405191818301938385106001600160401b03861117610b4e5792828793610b0a889688604052858552610afc60405198600f60f81b8a5260e0858b015260e08a0190611341565b9088820360408a0152611341565b924660608801523060808801528460a088015286840360c088015251928381520195925b828110610b3b5785870386f35b8351875295810195928101928401610b2e565b634e487b7160e01b5f52604160045260245ffd5b9150505f5283835f80516020611970833981519152875f915b858310610b92575050610aab93508201015f610a9e565b80919294505483858a0101520191018490878793610b7b565b60ff191685820152610aab95151560051b85010192505f9150610a9e9050565b503461047057604036600319011261047057610be56112d2565b6001546001600160a01b039081169133839003610ccc576040518093638da5cb5b60e01b825281600460209687935afa918215610cc1578492610c5f928791610ca4575b5060405163a9059cbb60e01b81526001600160a01b03909116600482015260248035908201529384928391889183906044820190565b0393165af1918215610c99578392610c7c575b5050156102f55780f35b610c929250803d1061032d5761031e81836113c8565b5f80610c72565b6040513d85823e3d90fd5b610cbb9150843d861161038f5761038081836113c8565b5f610c29565b6040513d87823e3d90fd5b604051630636a15760e11b8152600490fd5b50346103f1576101403660031901126103f157600435610cfc6112e8565b90610d056112fe565b60c4359260a43592916064356001600160a01b03808716908188036103f15760e4359681881688036103f1576001600160401b03610104358181116103f157610d52903690600401611314565b929091610124359081116103f157610d6e903690600401611314565b90610d7761146f565b82421161045a57610d8a92888b8d6114b1565b82600154169660405194635c975abb60e01b865260209586816004818d5afa90811561110d575f91611237575b5061042b57604051906361771e4960e01b8252600482015285816024818c5afa90811561110d575f9161121a575b5015611208576040516323b872dd60e01b815233600482015230602482015260448101879052908416999085816064815f8f5af190811561110d575f916111eb575b50156102f55760405163095ea7b360e01b81526001600160a01b039190911660048201526024810186905284816044815f8e5af1801561110d576111ce575b50828616998a926040519286846024816370a0823160e01b988982523060048301525afa93841561110d575f94611199575b5091815f809481946040519384928337810182815203925af13d15611194573d610ec181611401565b90610ecf60405192836113c8565b81525f863d92013e5b156102f55760405191825230600483015283826024818d5afa801561110d575f90611165575b610f08925061141c565b946084358610611147578888141580611159575b611147576040516324a9d85360e01b81528381600481855afa90811561110d575f91611118575b50610f51612710918861143d565b0495610f5d878261141c565b95823b156103f15760405163846fa34d60e01b8152600481018a90526001600160a01b0391909116602482015260448101919091525f8160648183865af1801561110d576110f3575b5090826004926040519384809263caccd7f760e01b82525afa91821561035c578a926110d4575b5060405163a9059cbb60e01b8082526001600160a01b039390931660048201526024810187905283816044818e8e5af19081156110c9578b916110ac575b50156102f5578954604051928352166001600160a01b031660048201526024810184905281816044818c8c5af191821561039657899261108f575b5050156102f5576102cb7f743791ed120d099b4c527e3bcef5a2e69c738c483ede167d034fb7a031afa94493604051938493846040919493926060820195825260208201520152565b6110a59250803d1061032d5761031e81836113c8565b5f80611046565b6110c39150843d861161032d5761031e81836113c8565b5f61100b565b6040513d8d823e3d90fd5b6110ec919250833d851161038f5761038081836113c8565b905f610fcd565b600492919a506111029061137f565b825f9a919250610fa6565b6040513d5f823e3d90fd5b90508381813d8311611140575b61112f81836113c8565b810103126103f15751610f51610f43565b503d611125565b604051638199f5f360e01b8152600490fd5b508360011c8610610f1c565b508382813d831161118d575b61117b81836113c8565b810103126103f157610f089151610efe565b503d611171565b610ed8565b91929093508682813d83116111c7575b6111b381836113c8565b810103126103f1579051929091905f610e98565b503d6111a9565b6111e490853d871161032d5761031e81836113c8565b505f610e66565b6112029150863d881161032d5761031e81836113c8565b5f610e27565b60405163cec13f7b60e01b8152600490fd5b6112319150863d881161032d5761031e81836113c8565b5f610de5565b61124e9150873d891161032d5761031e81836113c8565b5f610db7565b346103f15760203660031901126103f15761126d6112d2565b6001546001600160a01b039290831633036112c3575016806bffffffffffffffffffffffff60a01b60025416176002557ff3f625a7d9e02778afdfdf1bea978d6565840d408866c70f5d25aadf77021d705f80a2005b630636a15760e11b8152600490fd5b600435906001600160a01b03821682036103f157565b602435906001600160a01b03821682036103f157565b604435906001600160a01b03821682036103f157565b9181601f840112156103f1578235916001600160401b0383116103f157602083818601950101116103f157565b91908251928382525f5b84811061136b575050825f602080949584010152601f8019910116010190565b60208183018101518483018201520161134b565b6001600160401b038111610b4e57604052565b604081019081106001600160401b03821117610b4e57604052565b60c081019081106001600160401b03821117610b4e57604052565b90601f801991011681019081106001600160401b03821117610b4e57604052565b908160209103126103f1575180151581036103f15790565b6001600160401b038111610b4e57601f01601f191660200190565b9190820391821161142957565b634e487b7160e01b5f52601160045260245ffd5b8181029291811591840414171561142957565b908160209103126103f157516001600160a01b03811681036103f15790565b7f9b779b17422d0df92223018b32b4d1fa46e071723d6817e2486d003becc55f00600281541461149f5760029055565b604051633ee5aeb560e01b8152600490fd5b60025493956001600160a01b039485169592939092919086156116be5760409788519187602097888501957fdf2547f32aa5f7bd0d10ba8cd1c90409ddfcdcc012c7b9d004fad2d87c5d84e887528c860152166060840152608083015260a082015260a08152611520816113ad565b51902086515f905f80516020611930833981519152918254611541816116c8565b90818452888401946001918a6001821691825f1461169a57505060011461164a575b5050509061157781604295949303826113c8565b519020611582611700565b868151910120895190878201927f8b73c3c69bb8fe3d512ecc4cf759cc79239f7b179b0ffacaa9a75d522b39400f84528b83015260608201524660808201523060a082015260a081526115d4816113ad565b5190209088519161190160f01b835260028301526022820152206115f783611401565b91611604885193846113c8565b83835236848201116103f1578484611628955f9361163198870137840101526117f0565b9092919261182a565b160361163a5750565b51638baa579f60e01b8152600490fd5b899296959493505f525f80516020611970833981519152955f915b81831061168357509495509293509091820101611577826042611563565b8754858401850152968701968a9390920191611665565b60ff1916885293151560051b86019093019350611577925084915060429050611563565b5050505050505050565b90600182811c921680156116f6575b60208310146116e257565b634e487b7160e01b5f52602260045260245ffd5b91607f16916116d7565b604051905f825f8051602061195083398151915291825492611721846116c8565b8084529360209160019182811690811561179c575060011461174f575b50505061174d925003836113c8565b565b5f9081525f805160206119b08339815191529590935091905b828410611784575061174d9450505081016020015f808061173e565b85548885018301529485019487945092810192611768565b925050506020925061174d94915060ff191682840152151560051b8201015f808061173e565b60ff5f805160206119908339815191525460401c16156117de57565b604051631afcd79f60e31b8152600490fd5b8151919060418303611820576118199250602082015190606060408401519301515f1a906118ad565b9192909190565b50505f9160029190565b6004811015611899578061183c575050565b600181036118565760405163f645eedf60e01b8152600490fd5b600281036118775760405163fce698f760e01b815260048101839052602490fd5b6003146118815750565b602490604051906335e2f38360e21b82526004820152fd5b634e487b7160e01b5f52602160045260245ffd5b91907f7fffffffffffffffffffffffffffffff5d576e7357a4501ddfe92f46681b20a08411611924579160209360809260ff5f9560405194855216868401526040830152606082015282805260015afa1561110d575f516001600160a01b0381161561191a57905f905f90565b505f906001905f90565b5050505f916003919056fea16a46d94261c7517cc8ff89f61c0ce93598e3c849801011dee649a6a557d102a16a46d94261c7517cc8ff89f61c0ce93598e3c849801011dee649a6a557d10342ad5d3e1f2e6e70edcf6d991b8a3023d3fca8047a131592f9edb9fd9b89d57df0c57e16840df040f15088dc2f81fe391c3923bec73e23a9662efc9c229c6a005f9ce34815f8e11431c7bb75a8e6886a91478f7ffc1dbb0a98dc240fddd76b75a26469706673582212208dfdf3ef5620a63467c65933244d72194713447df9075ffd863a2f979922b13c64736f6c63430008180033",
  "linkReferences": {},
  "deployedLinkReferences": {}
}